{
  "_format": "hh-sol-artifact-1",
  "contractName": "MockNFT",
  "sourceName": "contracts/mock/MockNFT.sol",
  "abi": [
    {
      "inputs": [
        {
          "internalType": "address",
          "name": "_senderVerifierAddress",
          "type": "address"
        },
        {
          "internalType": "address",
          "name": "_ticketManagerAddress",
          "type": "address"
        }
      ],
      "stateMutability": "nonpayable",
      "type": "constructor"
    },
    {
      "anonymous": false,
      "inputs": [
        {
          "indexed": true,
          "internalType": "address",
          "name": "previousOwner",
          "type": "address"
        },
        {
          "indexed": true,
          "internalType": "address",
          "name": "newOwner",
          "type": "address"
        }
      ],
      "name": "OwnershipTransferred",
      "type": "event"
    },
    {
      "inputs": [],
      "name": "owner",
      "outputs": [
        {
          "internalType": "address",
          "name": "",
          "type": "address"
        }
      ],
      "stateMutability": "view",
      "type": "function"
    },
    {
      "inputs": [
        {
          "internalType": "address payable",
          "name": "_target",
          "type": "address"
        },
        {
          "internalType": "uint16",
          "name": "_groupId",
          "type": "uint16"
        },
        {
          "internalType": "uint32",
          "name": "_quantity",
          "type": "uint32"
        },
        {
          "components": [
            {
              "internalType": "address",
              "name": "sender",
              "type": "address"
            },
            {
              "internalType": "string",
              "name": "topic",
              "type": "string"
            },
            {
              "internalType": "uint256",
              "name": "nonce",
              "type": "uint256"
            },
            {
              "internalType": "bytes",
              "name": "signature",
              "type": "bytes"
            }
          ],
          "internalType": "struct SenderVerifier.Payload",
          "name": "_payload",
          "type": "tuple"
        }
      ],
      "name": "publicContractMint",
      "outputs": [],
      "stateMutability": "payable",
      "type": "function"
    },
    {
      "inputs": [
        {
          "internalType": "address",
          "name": "_target",
          "type": "address"
        },
        {
          "internalType": "uint16",
          "name": "_groupId",
          "type": "uint16"
        },
        {
          "internalType": "uint32",
          "name": "_quantity",
          "type": "uint32"
        },
        {
          "internalType": "uint256",
          "name": "value",
          "type": "uint256"
        },
        {
          "internalType": "address",
          "name": "_minter",
          "type": "address"
        }
      ],
      "name": "publicMint",
      "outputs": [],
      "stateMutability": "nonpayable",
      "type": "function"
    },
    {
      "inputs": [
        {
          "internalType": "address payable",
          "name": "_target",
          "type": "address"
        },
        {
          "internalType": "uint32",
          "name": "_quantity",
          "type": "uint32"
        },
        {
          "components": [
            {
              "internalType": "address",
              "name": "user",
              "type": "address"
            },
            {
              "internalType": "address",
              "name": "nft",
              "type": "address"
            },
            {
              "internalType": "uint256",
              "name": "price",
              "type": "uint256"
            },
            {
              "internalType": "uint32",
              "name": "quantity",
              "type": "uint32"
            },
            {
              "internalType": "uint256",
              "name": "groupId",
              "type": "uint256"
            },
            {
              "internalType": "bytes",
              "name": "signature",
              "type": "bytes"
            }
          ],
          "internalType": "struct TicketManager.Ticket",
          "name": "_ticket",
          "type": "tuple"
        },
        {
          "components": [
            {
              "internalType": "address",
              "name": "sender",
              "type": "address"
            },
            {
              "internalType": "string",
              "name": "topic",
              "type": "string"
            },
            {
              "internalType": "uint256",
              "name": "nonce",
              "type": "uint256"
            },
            {
              "internalType": "bytes",
              "name": "signature",
              "type": "bytes"
            }
          ],
          "internalType": "struct SenderVerifier.Payload",
          "name": "_payload",
          "type": "tuple"
        }
      ],
      "name": "ticketContractMint",
      "outputs": [],
      "stateMutability": "payable",
      "type": "function"
    },
    {
      "inputs": [
        {
          "internalType": "address",
          "name": "newOwner",
          "type": "address"
        }
      ],
      "name": "transferOwnership",
      "outputs": [],
      "stateMutability": "nonpayable",
      "type": "function"
    },
    {
      "inputs": [
        {
          "internalType": "address",
          "name": "_signer",
          "type": "address"
        },
        {
          "internalType": "address",
          "name": "_minter",
          "type": "address"
        },
        {
          "internalType": "uint16",
          "name": "_quantity",
          "type": "uint16"
        },
        {
          "components": [
            {
              "internalType": "address",
              "name": "user",
              "type": "address"
            },
            {
              "internalType": "address",
              "name": "nft",
              "type": "address"
            },
            {
              "internalType": "uint256",
              "name": "price",
              "type": "uint256"
            },
            {
              "internalType": "uint32",
              "name": "quantity",
              "type": "uint32"
            },
            {
              "internalType": "uint256",
              "name": "groupId",
              "type": "uint256"
            },
            {
              "internalType": "bytes",
              "name": "signature",
              "type": "bytes"
            }
          ],
          "internalType": "struct TicketManager.Ticket",
          "name": "_ticket",
          "type": "tuple"
        }
      ],
      "name": "useTicket",
      "outputs": [],
      "stateMutability": "nonpayable",
      "type": "function"
    }
  ],
  "bytecode": "0x60806040523480156200001157600080fd5b50604051620011a9380380620011a9833981810160405281019062000037919062000217565b620000576200004b620000e160201b60201c565b620000e960201b60201c565b81600160006101000a81548173ffffffffffffffffffffffffffffffffffffffff021916908373ffffffffffffffffffffffffffffffffffffffff16021790555080600260006101000a81548173ffffffffffffffffffffffffffffffffffffffff021916908373ffffffffffffffffffffffffffffffffffffffff16021790555050506200025e565b600033905090565b60008060009054906101000a900473ffffffffffffffffffffffffffffffffffffffff169050816000806101000a81548173ffffffffffffffffffffffffffffffffffffffff021916908373ffffffffffffffffffffffffffffffffffffffff1602179055508173ffffffffffffffffffffffffffffffffffffffff168173ffffffffffffffffffffffffffffffffffffffff167f8be0079c531659141344cd1fd0a4f28419497f9722a3daafe3b4186f6b6457e060405160405180910390a35050565b600080fd5b600073ffffffffffffffffffffffffffffffffffffffff82169050919050565b6000620001df82620001b2565b9050919050565b620001f181620001d2565b8114620001fd57600080fd5b50565b6000815190506200021181620001e6565b92915050565b60008060408385031215620002315762000230620001ad565b5b6000620002418582860162000200565b9250506020620002548582860162000200565b9150509250929050565b610f3b806200026e6000396000f3fe6080604052600436106100555760003560e01c80634c6b121e1461005a5780638da5cb5b14610076578063b14b5612146100a1578063debf4b80146100bd578063ea7c4bdf146100e6578063f2fde38b1461010f575b600080fd5b610074600480360381019061006f9190610622565b610138565b005b34801561008257600080fd5b5061008b6101ad565b60405161009891906106c6565b60405180910390f35b6100bb60048036038101906100b69190610700565b6101d6565b005b3480156100c957600080fd5b506100e460048036038101906100df91906107cb565b61024b565b005b3480156100f257600080fd5b5061010d60048036038101906101089190610884565b6102e4565b005b34801561011b57600080fd5b50610136600480360381019061013191906108ff565b61035c565b005b8373ffffffffffffffffffffffffffffffffffffffff166373468fcc8385846040518463ffffffff1660e01b815260040161017593929190610bc1565b600060405180830381600087803b15801561018f57600080fd5b505af11580156101a3573d6000803e3d6000fd5b5050505050505050565b60008060009054906101000a900473ffffffffffffffffffffffffffffffffffffffff16905090565b8373ffffffffffffffffffffffffffffffffffffffff1663372a21c08484846040518463ffffffff1660e01b815260040161021393929190610ce0565b600060405180830381600087803b15801561022d57600080fd5b505af1158015610241573d6000803e3d6000fd5b5050505050505050565b600260009054906101000a900473ffffffffffffffffffffffffffffffffffffffff1673ffffffffffffffffffffffffffffffffffffffff1663898bf316858585856040518563ffffffff1660e01b81526004016102ac9493929190610d56565b600060405180830381600087803b1580156102c657600080fd5b505af11580156102da573d6000803e3d6000fd5b5050505050505050565b8473ffffffffffffffffffffffffffffffffffffffff1663dce151b3858585856040518563ffffffff1660e01b81526004016103239493929190610db1565b600060405180830381600087803b15801561033d57600080fd5b505af1158015610351573d6000803e3d6000fd5b505050505050505050565b610364610454565b73ffffffffffffffffffffffffffffffffffffffff166103826101ad565b73ffffffffffffffffffffffffffffffffffffffff16146103d8576040517f08c379a00000000000000000000000000000000000000000000000000000000081526004016103cf90610e53565b60405180910390fd5b600073ffffffffffffffffffffffffffffffffffffffff168173ffffffffffffffffffffffffffffffffffffffff161415610448576040517f08c379a000000000000000000000000000000000000000000000000000000000815260040161043f90610ee5565b60405180910390fd5b6104518161045c565b50565b600033905090565b60008060009054906101000a900473ffffffffffffffffffffffffffffffffffffffff169050816000806101000a81548173ffffffffffffffffffffffffffffffffffffffff021916908373ffffffffffffffffffffffffffffffffffffffff1602179055508173ffffffffffffffffffffffffffffffffffffffff168173ffffffffffffffffffffffffffffffffffffffff167f8be0079c531659141344cd1fd0a4f28419497f9722a3daafe3b4186f6b6457e060405160405180910390a35050565b600080fd5b600080fd5b600073ffffffffffffffffffffffffffffffffffffffff82169050919050565b60006105558261052a565b9050919050565b6105658161054a565b811461057057600080fd5b50565b6000813590506105828161055c565b92915050565b600061ffff82169050919050565b61059f81610588565b81146105aa57600080fd5b50565b6000813590506105bc81610596565b92915050565b600063ffffffff82169050919050565b6105db816105c2565b81146105e657600080fd5b50565b6000813590506105f8816105d2565b92915050565b600080fd5b600060808284031215610619576106186105fe565b5b81905092915050565b6000806000806080858703121561063c5761063b610520565b5b600061064a87828801610573565b945050602061065b878288016105ad565b935050604061066c878288016105e9565b925050606085013567ffffffffffffffff81111561068d5761068c610525565b5b61069987828801610603565b91505092959194509250565b60006106b08261052a565b9050919050565b6106c0816106a5565b82525050565b60006020820190506106db60008301846106b7565b92915050565b600060c082840312156106f7576106f66105fe565b5b81905092915050565b6000806000806080858703121561071a57610719610520565b5b600061072887828801610573565b9450506020610739878288016105e9565b935050604085013567ffffffffffffffff81111561075a57610759610525565b5b610766878288016106e1565b925050606085013567ffffffffffffffff81111561078757610786610525565b5b61079387828801610603565b91505092959194509250565b6107a8816106a5565b81146107b357600080fd5b50565b6000813590506107c58161079f565b92915050565b600080600080608085870312156107e5576107e4610520565b5b60006107f3878288016107b6565b9450506020610804878288016107b6565b9350506040610815878288016105ad565b925050606085013567ffffffffffffffff81111561083657610835610525565b5b610842878288016106e1565b91505092959194509250565b6000819050919050565b6108618161084e565b811461086c57600080fd5b50565b60008135905061087e81610858565b92915050565b600080600080600060a086880312156108a05761089f610520565b5b60006108ae888289016107b6565b95505060206108bf888289016105ad565b94505060406108d0888289016105e9565b93505060606108e18882890161086f565b92505060806108f2888289016107b6565b9150509295509295909350565b60006020828403121561091557610914610520565b5b6000610923848285016107b6565b91505092915050565b610935816105c2565b82525050565b6000819050919050565b600061096061095b61095684610588565b61093b565b61084e565b9050919050565b61097081610945565b82525050565b600061098560208401846107b6565b905092915050565b610996816106a5565b82525050565b600080fd5b600080fd5b600080fd5b600080833560016020038436030381126109c8576109c76109a6565b5b83810192508235915060208301925067ffffffffffffffff8211156109f0576109ef61099c565b5b600182023603841315610a0657610a056109a1565b5b509250929050565b600082825260208201905092915050565b82818337600083830152505050565b6000601f19601f8301169050919050565b6000610a4b8385610a0e565b9350610a58838584610a1f565b610a6183610a2e565b840190509392505050565b6000610a7b602084018461086f565b905092915050565b610a8c8161084e565b82525050565b60008083356001602003843603038112610aaf57610aae6109a6565b5b83810192508235915060208301925067ffffffffffffffff821115610ad757610ad661099c565b5b600182023603841315610aed57610aec6109a1565b5b509250929050565b600082825260208201905092915050565b6000610b128385610af5565b9350610b1f838584610a1f565b610b2883610a2e565b840190509392505050565b600060808301610b466000840184610976565b610b53600086018261098d565b50610b6160208401846109ab565b8583036020870152610b74838284610a3f565b92505050610b856040840184610a6c565b610b926040860182610a83565b50610ba06060840184610a92565b8583036060870152610bb3838284610b06565b925050508091505092915050565b6000606082019050610bd6600083018661092c565b610be36020830185610967565b8181036040830152610bf58184610b33565b9050949350505050565b6000610c0e60208401846105e9565b905092915050565b610c1f816105c2565b82525050565b600060c08301610c386000840184610976565b610c45600086018261098d565b50610c536020840184610976565b610c60602086018261098d565b50610c6e6040840184610a6c565b610c7b6040860182610a83565b50610c896060840184610bff565b610c966060860182610c16565b50610ca46080840184610a6c565b610cb16080860182610a83565b50610cbf60a0840184610a92565b85830360a0870152610cd2838284610b06565b925050508091505092915050565b6000606082019050610cf5600083018661092c565b8181036020830152610d078185610c25565b90508181036040830152610d1b8184610b33565b9050949350505050565b6000610d40610d3b610d3684610588565b61093b565b6105c2565b9050919050565b610d5081610d25565b82525050565b6000608082019050610d6b60008301876106b7565b610d7860208301866106b7565b610d856040830185610d47565b8181036060830152610d978184610c25565b905095945050505050565b610dab8161084e565b82525050565b6000608082019050610dc66000830187610967565b610dd3602083018661092c565b610de06040830185610da2565b610ded60608301846106b7565b95945050505050565b600082825260208201905092915050565b7f4f776e61626c653a2063616c6c6572206973206e6f7420746865206f776e6572600082015250565b6000610e3d602083610df6565b9150610e4882610e07565b602082019050919050565b60006020820190508181036000830152610e6c81610e30565b9050919050565b7f4f776e61626c653a206e6577206f776e657220697320746865207a65726f206160008201527f6464726573730000000000000000000000000000000000000000000000000000602082015250565b6000610ecf602683610df6565b9150610eda82610e73565b604082019050919050565b60006020820190508181036000830152610efe81610ec2565b905091905056fea2646970667358221220029fbd90bd6e54524e587371193c63d165d3463f18ec551cc683692876f99f6264736f6c634300080a0033",
  "linkReferences": {},
  "deployedLinkReferences": {}
}