{
  "_format": "hh-sol-artifact-1",
  "contractName": "OmnuumNFT1155",
  "sourceName": "contracts/V1/OmnuumNFT1155.sol",
  "abi": [
    {
      "anonymous": false,
      "inputs": [
        {
          "indexed": true,
          "internalType": "address",
          "name": "account",
          "type": "address"
        },
        {
          "indexed": true,
          "internalType": "address",
          "name": "operator",
          "type": "address"
        },
        {
          "indexed": false,
          "internalType": "bool",
          "name": "approved",
          "type": "bool"
        }
      ],
      "name": "ApprovalForAll",
      "type": "event"
    },
    {
      "anonymous": false,
      "inputs": [
        {
          "indexed": true,
          "internalType": "address",
          "name": "sender",
          "type": "address"
        }
      ],
      "name": "EtherReceived",
      "type": "event"
    },
    {
      "anonymous": false,
      "inputs": [
        {
          "indexed": true,
          "internalType": "address",
          "name": "payer",
          "type": "address"
        },
        {
          "indexed": false,
          "internalType": "uint256",
          "name": "amount",
          "type": "uint256"
        }
      ],
      "name": "FeePaid",
      "type": "event"
    },
    {
      "anonymous": false,
      "inputs": [
        {
          "indexed": true,
          "internalType": "address",
          "name": "previousOwner",
          "type": "address"
        },
        {
          "indexed": true,
          "internalType": "address",
          "name": "newOwner",
          "type": "address"
        }
      ],
      "name": "OwnershipTransferred",
      "type": "event"
    },
    {
      "anonymous": false,
      "inputs": [
        {
          "indexed": false,
          "internalType": "uint256",
          "name": "value",
          "type": "uint256"
        },
        {
          "indexed": true,
          "internalType": "address",
          "name": "receiver",
          "type": "address"
        }
      ],
      "name": "TransferBalance",
      "type": "event"
    },
    {
      "anonymous": false,
      "inputs": [
        {
          "indexed": true,
          "internalType": "address",
          "name": "operator",
          "type": "address"
        },
        {
          "indexed": true,
          "internalType": "address",
          "name": "from",
          "type": "address"
        },
        {
          "indexed": true,
          "internalType": "address",
          "name": "to",
          "type": "address"
        },
        {
          "indexed": false,
          "internalType": "uint256[]",
          "name": "ids",
          "type": "uint256[]"
        },
        {
          "indexed": false,
          "internalType": "uint256[]",
          "name": "values",
          "type": "uint256[]"
        }
      ],
      "name": "TransferBatch",
      "type": "event"
    },
    {
      "anonymous": false,
      "inputs": [
        {
          "indexed": true,
          "internalType": "address",
          "name": "operator",
          "type": "address"
        },
        {
          "indexed": true,
          "internalType": "address",
          "name": "from",
          "type": "address"
        },
        {
          "indexed": true,
          "internalType": "address",
          "name": "to",
          "type": "address"
        },
        {
          "indexed": false,
          "internalType": "uint256",
          "name": "id",
          "type": "uint256"
        },
        {
          "indexed": false,
          "internalType": "uint256",
          "name": "value",
          "type": "uint256"
        }
      ],
      "name": "TransferSingle",
      "type": "event"
    },
    {
      "anonymous": false,
      "inputs": [
        {
          "indexed": false,
          "internalType": "string",
          "name": "value",
          "type": "string"
        },
        {
          "indexed": true,
          "internalType": "uint256",
          "name": "id",
          "type": "uint256"
        }
      ],
      "name": "URI",
      "type": "event"
    },
    {
      "anonymous": false,
      "inputs": [
        {
          "indexed": true,
          "internalType": "address",
          "name": "nftContract",
          "type": "address"
        },
        {
          "indexed": false,
          "internalType": "string",
          "name": "uri",
          "type": "string"
        }
      ],
      "name": "Uri",
      "type": "event"
    },
    {
      "inputs": [
        {
          "internalType": "address",
          "name": "account",
          "type": "address"
        },
        {
          "internalType": "uint256",
          "name": "id",
          "type": "uint256"
        }
      ],
      "name": "balanceOf",
      "outputs": [
        {
          "internalType": "uint256",
          "name": "",
          "type": "uint256"
        }
      ],
      "stateMutability": "view",
      "type": "function"
    },
    {
      "inputs": [
        {
          "internalType": "address[]",
          "name": "accounts",
          "type": "address[]"
        },
        {
          "internalType": "uint256[]",
          "name": "ids",
          "type": "uint256[]"
        }
      ],
      "name": "balanceOfBatch",
      "outputs": [
        {
          "internalType": "uint256[]",
          "name": "",
          "type": "uint256[]"
        }
      ],
      "stateMutability": "view",
      "type": "function"
    },
    {
      "inputs": [
        {
          "internalType": "address",
          "name": "_caManagerAddress",
          "type": "address"
        },
        {
          "internalType": "address",
          "name": "_omA",
          "type": "address"
        },
        {
          "internalType": "uint32",
          "name": "_maxSupply",
          "type": "uint32"
        },
        {
          "internalType": "string",
          "name": "_coverUri",
          "type": "string"
        },
        {
          "internalType": "address",
          "name": "_prjOwner",
          "type": "address"
        }
      ],
      "name": "initialize",
      "outputs": [],
      "stateMutability": "nonpayable",
      "type": "function"
    },
    {
      "inputs": [
        {
          "internalType": "address",
          "name": "account",
          "type": "address"
        },
        {
          "internalType": "address",
          "name": "operator",
          "type": "address"
        }
      ],
      "name": "isApprovedForAll",
      "outputs": [
        {
          "internalType": "bool",
          "name": "",
          "type": "bool"
        }
      ],
      "stateMutability": "view",
      "type": "function"
    },
    {
      "inputs": [],
      "name": "isRevealed",
      "outputs": [
        {
          "internalType": "bool",
          "name": "",
          "type": "bool"
        }
      ],
      "stateMutability": "view",
      "type": "function"
    },
    {
      "inputs": [],
      "name": "maxSupply",
      "outputs": [
        {
          "internalType": "uint32",
          "name": "",
          "type": "uint32"
        }
      ],
      "stateMutability": "view",
      "type": "function"
    },
    {
      "inputs": [
        {
          "internalType": "address",
          "name": "_to",
          "type": "address"
        },
        {
          "internalType": "uint32",
          "name": "_quantity",
          "type": "uint32"
        }
      ],
      "name": "mintDirect",
      "outputs": [],
      "stateMutability": "payable",
      "type": "function"
    },
    {
      "inputs": [],
      "name": "owner",
      "outputs": [
        {
          "internalType": "address",
          "name": "",
          "type": "address"
        }
      ],
      "stateMutability": "view",
      "type": "function"
    },
    {
      "inputs": [
        {
          "internalType": "uint32",
          "name": "_quantity",
          "type": "uint32"
        },
        {
          "internalType": "uint16",
          "name": "_groupId",
          "type": "uint16"
        },
        {
          "components": [
            {
              "internalType": "address",
              "name": "sender",
              "type": "address"
            },
            {
              "internalType": "string",
              "name": "topic",
              "type": "string"
            },
            {
              "internalType": "uint256",
              "name": "nonce",
              "type": "uint256"
            },
            {
              "internalType": "bytes",
              "name": "signature",
              "type": "bytes"
            }
          ],
          "internalType": "struct SenderVerifier.Payload",
          "name": "_payload",
          "type": "tuple"
        }
      ],
      "name": "publicMint",
      "outputs": [],
      "stateMutability": "payable",
      "type": "function"
    },
    {
      "inputs": [
        {
          "internalType": "address",
          "name": "from",
          "type": "address"
        },
        {
          "internalType": "address",
          "name": "to",
          "type": "address"
        },
        {
          "internalType": "uint256[]",
          "name": "ids",
          "type": "uint256[]"
        },
        {
          "internalType": "uint256[]",
          "name": "amounts",
          "type": "uint256[]"
        },
        {
          "internalType": "bytes",
          "name": "data",
          "type": "bytes"
        }
      ],
      "name": "safeBatchTransferFrom",
      "outputs": [],
      "stateMutability": "nonpayable",
      "type": "function"
    },
    {
      "inputs": [
        {
          "internalType": "address",
          "name": "from",
          "type": "address"
        },
        {
          "internalType": "address",
          "name": "to",
          "type": "address"
        },
        {
          "internalType": "uint256",
          "name": "id",
          "type": "uint256"
        },
        {
          "internalType": "uint256",
          "name": "amount",
          "type": "uint256"
        },
        {
          "internalType": "bytes",
          "name": "data",
          "type": "bytes"
        }
      ],
      "name": "safeTransferFrom",
      "outputs": [],
      "stateMutability": "nonpayable",
      "type": "function"
    },
    {
      "inputs": [
        {
          "internalType": "address",
          "name": "operator",
          "type": "address"
        },
        {
          "internalType": "bool",
          "name": "approved",
          "type": "bool"
        }
      ],
      "name": "setApprovalForAll",
      "outputs": [],
      "stateMutability": "nonpayable",
      "type": "function"
    },
    {
      "inputs": [
        {
          "internalType": "string",
          "name": "__uri",
          "type": "string"
        }
      ],
      "name": "setUri",
      "outputs": [],
      "stateMutability": "nonpayable",
      "type": "function"
    },
    {
      "inputs": [
        {
          "internalType": "bytes4",
          "name": "interfaceId",
          "type": "bytes4"
        }
      ],
      "name": "supportsInterface",
      "outputs": [
        {
          "internalType": "bool",
          "name": "",
          "type": "bool"
        }
      ],
      "stateMutability": "view",
      "type": "function"
    },
    {
      "inputs": [
        {
          "internalType": "uint32",
          "name": "_quantity",
          "type": "uint32"
        },
        {
          "components": [
            {
              "internalType": "address",
              "name": "user",
              "type": "address"
            },
            {
              "internalType": "address",
              "name": "nft",
              "type": "address"
            },
            {
              "internalType": "uint256",
              "name": "price",
              "type": "uint256"
            },
            {
              "internalType": "uint32",
              "name": "quantity",
              "type": "uint32"
            },
            {
              "internalType": "uint256",
              "name": "groupId",
              "type": "uint256"
            },
            {
              "internalType": "bytes",
              "name": "signature",
              "type": "bytes"
            }
          ],
          "internalType": "struct TicketManager.Ticket",
          "name": "_ticket",
          "type": "tuple"
        },
        {
          "components": [
            {
              "internalType": "address",
              "name": "sender",
              "type": "address"
            },
            {
              "internalType": "string",
              "name": "topic",
              "type": "string"
            },
            {
              "internalType": "uint256",
              "name": "nonce",
              "type": "uint256"
            },
            {
              "internalType": "bytes",
              "name": "signature",
              "type": "bytes"
            }
          ],
          "internalType": "struct SenderVerifier.Payload",
          "name": "_payload",
          "type": "tuple"
        }
      ],
      "name": "ticketMint",
      "outputs": [],
      "stateMutability": "payable",
      "type": "function"
    },
    {
      "inputs": [
        {
          "internalType": "uint256",
          "name": "_value",
          "type": "uint256"
        },
        {
          "internalType": "address",
          "name": "_to",
          "type": "address"
        }
      ],
      "name": "transferBalance",
      "outputs": [],
      "stateMutability": "nonpayable",
      "type": "function"
    },
    {
      "inputs": [
        {
          "internalType": "address",
          "name": "newOwner",
          "type": "address"
        }
      ],
      "name": "transferOwnership",
      "outputs": [],
      "stateMutability": "nonpayable",
      "type": "function"
    },
    {
      "inputs": [
        {
          "internalType": "uint256",
          "name": "",
          "type": "uint256"
        }
      ],
      "name": "uri",
      "outputs": [
        {
          "internalType": "string",
          "name": "",
          "type": "string"
        }
      ],
      "stateMutability": "view",
      "type": "function"
    },
    {
      "stateMutability": "payable",
      "type": "receive"
    }
  ],
  "bytecode": "0x608060405234801561001057600080fd5b5061577480620000216000396000f3fe60806040526004361061010c5760003560e01c8063619e730711610095578063d5abeb0111610064578063d5abeb011461039d578063e42cda88146103c8578063e985e9c5146103f1578063f242432a1461042e578063f2fde38b1461045757610156565b8063619e7307146103045780638da5cb5b146103205780639b642de11461034b578063a22cb4651461037457610156565b8063328629cf116100dc578063328629cf1461023b578063372a21c0146102645780633e5bd5cd146102805780634e1273f41461029c57806354214f69146102d957610156565b8062fdd58e1461015b57806301ffc9a7146101985780630e89341c146101d55780632eb2c2d61461021257610156565b36610156573373ffffffffffffffffffffffffffffffffffffffff167f0a4644bd3fcbb4f1fe1c471ff39078af7f826ac7b37422ea049b88be4ce51fd460405160405180910390a2005b600080fd5b34801561016757600080fd5b50610182600480360381019061017d9190613007565b610480565b60405161018f9190613056565b60405180910390f35b3480156101a457600080fd5b506101bf60048036038101906101ba91906130c9565b61054a565b6040516101cc9190613111565b60405180910390f35b3480156101e157600080fd5b506101fc60048036038101906101f7919061312c565b61062c565b60405161020991906131f2565b60405180910390f35b34801561021e57600080fd5b5061023960048036038101906102349190613411565b6106e5565b005b34801561024757600080fd5b50610262600480360381019061025d91906134e0565b610786565b005b61027e6004803603810190610279919061359f565b61099a565b005b61029a6004803603810190610295919061362a565b610d19565b005b3480156102a857600080fd5b506102c360048036038101906102be919061372d565b610dc0565b6040516102d09190613863565b60405180910390f35b3480156102e557600080fd5b506102ee610ed9565b6040516102fb9190613111565b60405180910390f35b61031e600480360381019061031991906138bf565b610eec565b005b34801561032c57600080fd5b50610335611176565b604051610342919061393d565b60405180910390f35b34801561035757600080fd5b50610372600480360381019061036d91906139f9565b6111a0565b005b34801561038057600080fd5b5061039b60048036038101906103969190613a6e565b611291565b005b3480156103a957600080fd5b506103b26112a7565b6040516103bf9190613abd565b60405180910390f35b3480156103d457600080fd5b506103ef60048036038101906103ea9190613b33565b6112bd565b005b3480156103fd57600080fd5b5061041860048036038101906104139190613bcd565b61163e565b6040516104259190613111565b60405180910390f35b34801561043a57600080fd5b5061045560048036038101906104509190613c0d565b6116d2565b005b34801561046357600080fd5b5061047e60048036038101906104799190613ca4565b611773565b005b60008073ffffffffffffffffffffffffffffffffffffffff168373ffffffffffffffffffffffffffffffffffffffff1614156104f1576040517f08c379a00000000000000000000000000000000000000000000000000000000081526004016104e890613d43565b60405180910390fd5b6065600083815260200190815260200160002060008473ffffffffffffffffffffffffffffffffffffffff1673ffffffffffffffffffffffffffffffffffffffff16815260200190815260200160002054905092915050565b60007fd9b67a26000000000000000000000000000000000000000000000000000000007bffffffffffffffffffffffffffffffffffffffffffffffffffffffff1916827bffffffffffffffffffffffffffffffffffffffffffffffffffffffff1916148061061557507f0e89341c000000000000000000000000000000000000000000000000000000007bffffffffffffffffffffffffffffffffffffffffffffffffffffffff1916827bffffffffffffffffffffffffffffffffffffffffffffffffffffffff1916145b8061062557506106248261186b565b5b9050919050565b606060fd60189054906101000a900460ff16156106525761064d60016118d5565b6106de565b60fe805461065f90613d92565b80601f016020809104026020016040519081016040528092919081815260200182805461068b90613d92565b80156106d85780601f106106ad576101008083540402835291602001916106d8565b820191906000526020600020905b8154815290600101906020018083116106bb57829003601f168201915b50505050505b9050919050565b6106ed611969565b73ffffffffffffffffffffffffffffffffffffffff168573ffffffffffffffffffffffffffffffffffffffff16148061073357506107328561072d611969565b61163e565b5b610772576040517f08c379a000000000000000000000000000000000000000000000000000000000815260040161076990613e36565b60405180910390fd5b61077f8585858585611971565b5050505050565b61078e611969565b73ffffffffffffffffffffffffffffffffffffffff166107ac611176565b73ffffffffffffffffffffffffffffffffffffffff1614610802576040517f08c379a00000000000000000000000000000000000000000000000000000000081526004016107f990613ea2565b60405180910390fd5b60026097541415610848576040517f08c379a000000000000000000000000000000000000000000000000000000000815260040161083f90613f0e565b60405180910390fd5b600260978190555047821115610893576040517f08c379a000000000000000000000000000000000000000000000000000000000815260040161088a90613f7a565b60405180910390fd5b60008173ffffffffffffffffffffffffffffffffffffffff16836040516108b990613fcb565b60006040518083038185875af1925050503d80600081146108f6576040519150601f19603f3d011682016040523d82523d6000602084013e6108fb565b606091505b505090508061093f576040517f08c379a00000000000000000000000000000000000000000000000000000000081526004016109369061402c565b60405180910390fd5b8173ffffffffffffffffffffffffffffffffffffffff167f86a015a33ce3c9c98b1a87f3c4d3ea3e64d4d435f2b49e5cf88b314192932a07846040516109859190613056565b60405180910390a25060016097819055505050565b600260975414156109e0576040517f08c379a00000000000000000000000000000000000000000000000000000000081526004016109d790613f0e565b60405180910390fd5b6002609781905550610a073373ffffffffffffffffffffffffffffffffffffffff16611c88565b15610a47576040517f08c379a0000000000000000000000000000000000000000000000000000000008152600401610a3e90614098565b60405180910390fd5b348363ffffffff168360400135610a5e91906140e7565b1115610a9f576040517f08c379a0000000000000000000000000000000000000000000000000000000008152600401610a969061418d565b60405180910390fd5b60fc60009054906101000a900473ffffffffffffffffffffffffffffffffffffffff1673ffffffffffffffffffffffffffffffffffffffff1663358177736040518163ffffffff1660e01b8152600401610af8906141f9565b602060405180830381865afa158015610b15573d6000803e3d6000fd5b505050506040513d601f19601f82011682018060405250810190610b39919061422e565b73ffffffffffffffffffffffffffffffffffffffff16638f2c6a8060ff60009054906101000a900473ffffffffffffffffffffffffffffffffffffffff16338560800135856040518563ffffffff1660e01b8152600401610b9d94939291906144c3565b60006040518083038186803b158015610bb557600080fd5b505afa158015610bc9573d6000803e3d6000fd5b5050505060fc60009054906101000a900473ffffffffffffffffffffffffffffffffffffffff1673ffffffffffffffffffffffffffffffffffffffff1663358177736040518163ffffffff1660e01b8152600401610c2690614522565b602060405180830381865afa158015610c43573d6000803e3d6000fd5b505050506040513d601f19601f82011682018060405250810190610c67919061422e565b73ffffffffffffffffffffffffffffffffffffffff1663898bf31660ff60009054906101000a900473ffffffffffffffffffffffffffffffffffffffff163386866040518563ffffffff1660e01b8152600401610cc79493929190614623565b600060405180830381600087803b158015610ce157600080fd5b505af1158015610cf5573d6000803e3d6000fd5b50505050610d033384611cab565b610d0c83611d7e565b6001609781905550505050565b60fd60009054906101000a900473ffffffffffffffffffffffffffffffffffffffff1673ffffffffffffffffffffffffffffffffffffffff163373ffffffffffffffffffffffffffffffffffffffff1614610da9576040517f08c379a0000000000000000000000000000000000000000000000000000000008152600401610da0906146bb565b60405180910390fd5b610db38282611cab565b610dbc81611d7e565b5050565b60608151835114610e06576040517f08c379a0000000000000000000000000000000000000000000000000000000008152600401610dfd9061474d565b60405180910390fd5b6000835167ffffffffffffffff811115610e2357610e22613219565b5b604051908082528060200260200182016040528015610e515781602001602082028036833780820191505090505b50905060005b8451811015610ece57610e9e858281518110610e7657610e7561476d565b5b6020026020010151858381518110610e9157610e9061476d565b5b6020026020010151610480565b828281518110610eb157610eb061476d565b5b60200260200101818152505080610ec79061479c565b9050610e57565b508091505092915050565b60fd60189054906101000a900460ff1681565b60026097541415610f32576040517f08c379a0000000000000000000000000000000000000000000000000000000008152600401610f2990613f0e565b60405180910390fd5b6002609781905550610f593373ffffffffffffffffffffffffffffffffffffffff16611c88565b15610f99576040517f08c379a0000000000000000000000000000000000000000000000000000000008152600401610f9090614098565b60405180910390fd5b60fc60009054906101000a900473ffffffffffffffffffffffffffffffffffffffff1673ffffffffffffffffffffffffffffffffffffffff1663358177736040518163ffffffff1660e01b8152600401610ff2906141f9565b602060405180830381865afa15801561100f573d6000803e3d6000fd5b505050506040513d601f19601f82011682018060405250810190611033919061422e565b73ffffffffffffffffffffffffffffffffffffffff16638f2c6a8060ff60009054906101000a900473ffffffffffffffffffffffffffffffffffffffff163385856040518563ffffffff1660e01b8152600401611093949392919061486c565b60006040518083038186803b1580156110ab57600080fd5b505afa1580156110bf573d6000803e3d6000fd5b5050505060fd60009054906101000a900473ffffffffffffffffffffffffffffffffffffffff1673ffffffffffffffffffffffffffffffffffffffff1663f462ec94838534336040518563ffffffff1660e01b815260040161112494939291906148da565b600060405180830381600087803b15801561113e57600080fd5b505af1158015611152573d6000803e3d6000fd5b505050506111603384611cab565b61116983611d7e565b6001609781905550505050565b600060c960009054906101000a900473ffffffffffffffffffffffffffffffffffffffff16905090565b6111a8611969565b73ffffffffffffffffffffffffffffffffffffffff166111c6611176565b73ffffffffffffffffffffffffffffffffffffffff161461121c576040517f08c379a000000000000000000000000000000000000000000000000000000000815260040161121390613ea2565b60405180910390fd5b611225816120f2565b600160fd60186101000a81548160ff0219169083151502179055503073ffffffffffffffffffffffffffffffffffffffff167f8f2bbe7655c91793f35dbdc0f5fd7d5f0eca331fc5d17290df91489b7e45e0898260405161128691906131f2565b60405180910390a250565b6112a361129c611969565b838361210c565b5050565b60fd60149054906101000a900463ffffffff1681565b600060019054906101000a900460ff166112e55760008054906101000a900460ff16156112ee565b6112ed612279565b5b61132d576040517f08c379a000000000000000000000000000000000000000000000000000000000815260040161132490614991565b60405180910390fd5b60008060019054906101000a900460ff16159050801561137d576001600060016101000a81548160ff02191690831515021790555060016000806101000a81548160ff0219169083151502179055505b600073ffffffffffffffffffffffffffffffffffffffff168773ffffffffffffffffffffffffffffffffffffffff1614156113ed576040517f08c379a00000000000000000000000000000000000000000000000000000000081526004016113e4906149fd565b60405180910390fd5b600073ffffffffffffffffffffffffffffffffffffffff168273ffffffffffffffffffffffffffffffffffffffff16141561145d576040517f08c379a0000000000000000000000000000000000000000000000000000000008152600401611454906149fd565b60405180910390fd5b6114756040518060200160405280600081525061228a565b61147d6122e5565b61148561233e565b8460fd60146101000a81548163ffffffff021916908363ffffffff1602179055508560ff60006101000a81548173ffffffffffffffffffffffffffffffffffffffff021916908373ffffffffffffffffffffffffffffffffffffffff1602179055508660fc60006101000a81548173ffffffffffffffffffffffffffffffffffffffff021916908373ffffffffffffffffffffffffffffffffffffffff16021790555060fc60009054906101000a900473ffffffffffffffffffffffffffffffffffffffff1673ffffffffffffffffffffffffffffffffffffffff1663358177736040518163ffffffff1660e01b815260040161158190614a69565b602060405180830381865afa15801561159e573d6000803e3d6000fd5b505050506040513d601f19601f820116820180604052508101906115c2919061422e565b60fd60006101000a81548173ffffffffffffffffffffffffffffffffffffffff021916908373ffffffffffffffffffffffffffffffffffffffff160217905550838360fe9190611613929190612e36565b5080156116355760008060016101000a81548160ff0219169083151502179055505b50505050505050565b6000606660008473ffffffffffffffffffffffffffffffffffffffff1673ffffffffffffffffffffffffffffffffffffffff16815260200190815260200160002060008373ffffffffffffffffffffffffffffffffffffffff1673ffffffffffffffffffffffffffffffffffffffff16815260200190815260200160002060009054906101000a900460ff16905092915050565b6116da611969565b73ffffffffffffffffffffffffffffffffffffffff168573ffffffffffffffffffffffffffffffffffffffff161480611720575061171f8561171a611969565b61163e565b5b61175f576040517f08c379a000000000000000000000000000000000000000000000000000000000815260040161175690614afb565b60405180910390fd5b61176c858585858561239f565b5050505050565b61177b611969565b73ffffffffffffffffffffffffffffffffffffffff16611799611176565b73ffffffffffffffffffffffffffffffffffffffff16146117ef576040517f08c379a00000000000000000000000000000000000000000000000000000000081526004016117e690613ea2565b60405180910390fd5b600073ffffffffffffffffffffffffffffffffffffffff168173ffffffffffffffffffffffffffffffffffffffff16141561185f576040517f08c379a000000000000000000000000000000000000000000000000000000000815260040161185690614b8d565b60405180910390fd5b61186881612624565b50565b60007f01ffc9a7000000000000000000000000000000000000000000000000000000007bffffffffffffffffffffffffffffffffffffffffffffffffffffffff1916827bffffffffffffffffffffffffffffffffffffffffffffffffffffffff1916149050919050565b6060606780546118e490613d92565b80601f016020809104026020016040519081016040528092919081815260200182805461191090613d92565b801561195d5780601f106119325761010080835404028352916020019161195d565b820191906000526020600020905b81548152906001019060200180831161194057829003601f168201915b50505050509050919050565b600033905090565b81518351146119b5576040517f08c379a00000000000000000000000000000000000000000000000000000000081526004016119ac90614c1f565b60405180910390fd5b600073ffffffffffffffffffffffffffffffffffffffff168473ffffffffffffffffffffffffffffffffffffffff161415611a25576040517f08c379a0000000000000000000000000000000000000000000000000000000008152600401611a1c90614cb1565b60405180910390fd5b6000611a2f611969565b9050611a3f8187878787876126ea565b60005b8451811015611bf3576000858281518110611a6057611a5f61476d565b5b602002602001015190506000858381518110611a7f57611a7e61476d565b5b6020026020010151905060006065600084815260200190815260200160002060008b73ffffffffffffffffffffffffffffffffffffffff1673ffffffffffffffffffffffffffffffffffffffff16815260200190815260200160002054905081811015611b21576040517f08c379a0000000000000000000000000000000000000000000000000000000008152600401611b1890614d43565b60405180910390fd5b8181036065600085815260200190815260200160002060008c73ffffffffffffffffffffffffffffffffffffffff1673ffffffffffffffffffffffffffffffffffffffff16815260200190815260200160002081905550816065600085815260200190815260200160002060008b73ffffffffffffffffffffffffffffffffffffffff1673ffffffffffffffffffffffffffffffffffffffff1681526020019081526020016000206000828254611bd89190614d63565b9250508190555050505080611bec9061479c565b9050611a42565b508473ffffffffffffffffffffffffffffffffffffffff168673ffffffffffffffffffffffffffffffffffffffff168273ffffffffffffffffffffffffffffffffffffffff167f4a39dc06d4c0dbc64b70af90fd698a233a518aa5d07e595d983b8c0526c8f7fb8787604051611c6a929190614db9565b60405180910390a4611c808187878787876126f2565b505050505050565b6000808273ffffffffffffffffffffffffffffffffffffffff163b119050919050565b60fd60149054906101000a900463ffffffff1663ffffffff168163ffffffff16611cd560fb6128ca565b611cdf9190614d63565b1115611d20576040517f08c379a0000000000000000000000000000000000000000000000000000000008152600401611d1790614e3c565b60405180910390fd5b60005b8163ffffffff168163ffffffff161015611d7957611d4160fb6128d8565b611d6683611d4f60fb6128ca565b6001604051806020016040528060008152506128ee565b8080611d7190614e5c565b915050611d23565b505050565b600060fd60009054906101000a900473ffffffffffffffffffffffffffffffffffffffff1673ffffffffffffffffffffffffffffffffffffffff166331809c7e6040518163ffffffff1660e01b8152600401602060405180830381865afa158015611ded573d6000803e3d6000fd5b505050506040513d601f19601f82011682018060405250810190611e119190614ec2565b9050600060fd60009054906101000a900473ffffffffffffffffffffffffffffffffffffffff1673ffffffffffffffffffffffffffffffffffffffff166324ec75906040518163ffffffff1660e01b8152600401602060405180830381865afa158015611e82573d6000803e3d6000fd5b505050506040513d601f19601f82011682018060405250810190611ea69190614f04565b9050600060fd60009054906101000a900473ffffffffffffffffffffffffffffffffffffffff1673ffffffffffffffffffffffffffffffffffffffff16638198edbf306040518263ffffffff1660e01b8152600401611f05919061393d565b602060405180830381865afa158015611f22573d6000803e3d6000fd5b505050506040513d601f19601f82011682018060405250810190611f469190614f04565b9050600083600a611f579190615064565b8234611f6391906140e7565b611f6d91906150de565b90506000838663ffffffff16611f8391906140e7565b90506000818311611f945781611f96565b825b905060fc60009054906101000a900473ffffffffffffffffffffffffffffffffffffffff1673ffffffffffffffffffffffffffffffffffffffff1663358177736040518163ffffffff1660e01b8152600401611ff19061515b565b602060405180830381865afa15801561200e573d6000803e3d6000fd5b505050506040513d601f19601f82011682018060405250810190612032919061422e565b73ffffffffffffffffffffffffffffffffffffffff1663ba9b92f8826040518263ffffffff1660e01b8152600401612069906151ea565b6000604051808303818588803b15801561208257600080fd5b505af1158015612096573d6000803e3d6000fd5b50505050503373ffffffffffffffffffffffffffffffffffffffff167f075a2720282fdf622141dae0b048ef90a21a7e57c134c76912d19d006b3b3f6f826040516120e19190613056565b60405180910390a250505050505050565b8060679080519060200190612108929190612ebc565b5050565b8173ffffffffffffffffffffffffffffffffffffffff168373ffffffffffffffffffffffffffffffffffffffff16141561217b576040517f08c379a00000000000000000000000000000000000000000000000000000000081526004016121729061528f565b60405180910390fd5b80606660008573ffffffffffffffffffffffffffffffffffffffff1673ffffffffffffffffffffffffffffffffffffffff16815260200190815260200160002060008473ffffffffffffffffffffffffffffffffffffffff1673ffffffffffffffffffffffffffffffffffffffff16815260200190815260200160002060006101000a81548160ff0219169083151502179055508173ffffffffffffffffffffffffffffffffffffffff168373ffffffffffffffffffffffffffffffffffffffff167f17307eab39ab6107e8899845ad3d59bd9653f200f220920489ca2b5937696c318360405161226c9190613111565b60405180910390a3505050565b600061228430611c88565b15905090565b600060019054906101000a900460ff166122d9576040517f08c379a00000000000000000000000000000000000000000000000000000000081526004016122d090615321565b60405180910390fd5b6122e281612a85565b50565b600060019054906101000a900460ff16612334576040517f08c379a000000000000000000000000000000000000000000000000000000000815260040161232b90615321565b60405180910390fd5b61233c612ae0565b565b600060019054906101000a900460ff1661238d576040517f08c379a000000000000000000000000000000000000000000000000000000000815260040161238490615321565b60405180910390fd5b612395612b39565b61239d612b8a565b565b600073ffffffffffffffffffffffffffffffffffffffff168473ffffffffffffffffffffffffffffffffffffffff16141561240f576040517f08c379a000000000000000000000000000000000000000000000000000000000815260040161240690614cb1565b60405180910390fd5b6000612419611969565b905061243981878761242a88612be4565b61243388612be4565b876126ea565b60006065600086815260200190815260200160002060008873ffffffffffffffffffffffffffffffffffffffff1673ffffffffffffffffffffffffffffffffffffffff168152602001908152602001600020549050838110156124d1576040517f08c379a00000000000000000000000000000000000000000000000000000000081526004016124c890614d43565b60405180910390fd5b8381036065600087815260200190815260200160002060008973ffffffffffffffffffffffffffffffffffffffff1673ffffffffffffffffffffffffffffffffffffffff16815260200190815260200160002081905550836065600087815260200190815260200160002060008873ffffffffffffffffffffffffffffffffffffffff1673ffffffffffffffffffffffffffffffffffffffff16815260200190815260200160002060008282546125889190614d63565b925050819055508573ffffffffffffffffffffffffffffffffffffffff168773ffffffffffffffffffffffffffffffffffffffff168373ffffffffffffffffffffffffffffffffffffffff167fc3d58168c5ae7397731d063d5bbf3d657854427343f4c083240f7aacaa2d0f628888604051612605929190615341565b60405180910390a461261b828888888888612c5e565b50505050505050565b600060c960009054906101000a900473ffffffffffffffffffffffffffffffffffffffff1690508160c960006101000a81548173ffffffffffffffffffffffffffffffffffffffff021916908373ffffffffffffffffffffffffffffffffffffffff1602179055508173ffffffffffffffffffffffffffffffffffffffff168173ffffffffffffffffffffffffffffffffffffffff167f8be0079c531659141344cd1fd0a4f28419497f9722a3daafe3b4186f6b6457e060405160405180910390a35050565b505050505050565b6127118473ffffffffffffffffffffffffffffffffffffffff16611c88565b156128c2578373ffffffffffffffffffffffffffffffffffffffff1663bc197c8187878686866040518663ffffffff1660e01b81526004016127579594939291906153bf565b6020604051808303816000875af192505050801561279357506040513d601f19601f82011682018060405250810190612790919061543c565b60015b6128395761279f615476565b806308c379a014156127fc57506127b4615498565b806127bf57506127fe565b806040517f08c379a00000000000000000000000000000000000000000000000000000000081526004016127f391906131f2565b60405180910390fd5b505b6040517f08c379a0000000000000000000000000000000000000000000000000000000008152600401612830906155a0565b60405180910390fd5b63bc197c8160e01b7bffffffffffffffffffffffffffffffffffffffffffffffffffffffff1916817bffffffffffffffffffffffffffffffffffffffffffffffffffffffff1916146128c0576040517f08c379a00000000000000000000000000000000000000000000000000000000081526004016128b790615632565b60405180910390fd5b505b505050505050565b600081600001549050919050565b6001816000016000828254019250508190555050565b600073ffffffffffffffffffffffffffffffffffffffff168473ffffffffffffffffffffffffffffffffffffffff16141561295e576040517f08c379a0000000000000000000000000000000000000000000000000000000008152600401612955906156c4565b60405180910390fd5b6000612968611969565b90506129898160008761297a88612be4565b61298388612be4565b876126ea565b826065600086815260200190815260200160002060008773ffffffffffffffffffffffffffffffffffffffff1673ffffffffffffffffffffffffffffffffffffffff16815260200190815260200160002060008282546129e99190614d63565b925050819055508473ffffffffffffffffffffffffffffffffffffffff16600073ffffffffffffffffffffffffffffffffffffffff168273ffffffffffffffffffffffffffffffffffffffff167fc3d58168c5ae7397731d063d5bbf3d657854427343f4c083240f7aacaa2d0f628787604051612a67929190615341565b60405180910390a4612a7e81600087878787612c5e565b5050505050565b600060019054906101000a900460ff16612ad4576040517f08c379a0000000000000000000000000000000000000000000000000000000008152600401612acb90615321565b60405180910390fd5b612add816120f2565b50565b600060019054906101000a900460ff16612b2f576040517f08c379a0000000000000000000000000000000000000000000000000000000008152600401612b2690615321565b60405180910390fd5b6001609781905550565b600060019054906101000a900460ff16612b88576040517f08c379a0000000000000000000000000000000000000000000000000000000008152600401612b7f90615321565b60405180910390fd5b565b600060019054906101000a900460ff16612bd9576040517f08c379a0000000000000000000000000000000000000000000000000000000008152600401612bd090615321565b60405180910390fd5b612be232612624565b565b60606000600167ffffffffffffffff811115612c0357612c02613219565b5b604051908082528060200260200182016040528015612c315781602001602082028036833780820191505090505b5090508281600081518110612c4957612c4861476d565b5b60200260200101818152505080915050919050565b612c7d8473ffffffffffffffffffffffffffffffffffffffff16611c88565b15612e2e578373ffffffffffffffffffffffffffffffffffffffff1663f23a6e6187878686866040518663ffffffff1660e01b8152600401612cc39594939291906156e4565b6020604051808303816000875af1925050508015612cff57506040513d601f19601f82011682018060405250810190612cfc919061543c565b60015b612da557612d0b615476565b806308c379a01415612d685750612d20615498565b80612d2b5750612d6a565b806040517f08c379a0000000000000000000000000000000000000000000000000000000008152600401612d5f91906131f2565b60405180910390fd5b505b6040517f08c379a0000000000000000000000000000000000000000000000000000000008152600401612d9c906155a0565b60405180910390fd5b63f23a6e6160e01b7bffffffffffffffffffffffffffffffffffffffffffffffffffffffff1916817bffffffffffffffffffffffffffffffffffffffffffffffffffffffff191614612e2c576040517f08c379a0000000000000000000000000000000000000000000000000000000008152600401612e2390615632565b60405180910390fd5b505b505050505050565b828054612e4290613d92565b90600052602060002090601f016020900481019282612e645760008555612eab565b82601f10612e7d57803560ff1916838001178555612eab565b82800160010185558215612eab579182015b82811115612eaa578235825591602001919060010190612e8f565b5b509050612eb89190612f42565b5090565b828054612ec890613d92565b90600052602060002090601f016020900481019282612eea5760008555612f31565b82601f10612f0357805160ff1916838001178555612f31565b82800160010185558215612f31579182015b82811115612f30578251825591602001919060010190612f15565b5b509050612f3e9190612f42565b5090565b5b80821115612f5b576000816000905550600101612f43565b5090565b6000604051905090565b600080fd5b600080fd5b600073ffffffffffffffffffffffffffffffffffffffff82169050919050565b6000612f9e82612f73565b9050919050565b612fae81612f93565b8114612fb957600080fd5b50565b600081359050612fcb81612fa5565b92915050565b6000819050919050565b612fe481612fd1565b8114612fef57600080fd5b50565b60008135905061300181612fdb565b92915050565b6000806040838503121561301e5761301d612f69565b5b600061302c85828601612fbc565b925050602061303d85828601612ff2565b9150509250929050565b61305081612fd1565b82525050565b600060208201905061306b6000830184613047565b92915050565b60007fffffffff0000000000000000000000000000000000000000000000000000000082169050919050565b6130a681613071565b81146130b157600080fd5b50565b6000813590506130c38161309d565b92915050565b6000602082840312156130df576130de612f69565b5b60006130ed848285016130b4565b91505092915050565b60008115159050919050565b61310b816130f6565b82525050565b60006020820190506131266000830184613102565b92915050565b60006020828403121561314257613141612f69565b5b600061315084828501612ff2565b91505092915050565b600081519050919050565b600082825260208201905092915050565b60005b83811015613193578082015181840152602081019050613178565b838111156131a2576000848401525b50505050565b6000601f19601f8301169050919050565b60006131c482613159565b6131ce8185613164565b93506131de818560208601613175565b6131e7816131a8565b840191505092915050565b6000602082019050818103600083015261320c81846131b9565b905092915050565b600080fd5b7f4e487b7100000000000000000000000000000000000000000000000000000000600052604160045260246000fd5b613251826131a8565b810181811067ffffffffffffffff821117156132705761326f613219565b5b80604052505050565b6000613283612f5f565b905061328f8282613248565b919050565b600067ffffffffffffffff8211156132af576132ae613219565b5b602082029050602081019050919050565b600080fd5b60006132d86132d384613294565b613279565b905080838252602082019050602084028301858111156132fb576132fa6132c0565b5b835b8181101561332457806133108882612ff2565b8452602084019350506020810190506132fd565b5050509392505050565b600082601f83011261334357613342613214565b5b81356133538482602086016132c5565b91505092915050565b600080fd5b600067ffffffffffffffff82111561337c5761337b613219565b5b613385826131a8565b9050602081019050919050565b82818337600083830152505050565b60006133b46133af84613361565b613279565b9050828152602081018484840111156133d0576133cf61335c565b5b6133db848285613392565b509392505050565b600082601f8301126133f8576133f7613214565b5b81356134088482602086016133a1565b91505092915050565b600080600080600060a0868803121561342d5761342c612f69565b5b600061343b88828901612fbc565b955050602061344c88828901612fbc565b945050604086013567ffffffffffffffff81111561346d5761346c612f6e565b5b6134798882890161332e565b935050606086013567ffffffffffffffff81111561349a57613499612f6e565b5b6134a68882890161332e565b925050608086013567ffffffffffffffff8111156134c7576134c6612f6e565b5b6134d3888289016133e3565b9150509295509295909350565b600080604083850312156134f7576134f6612f69565b5b600061350585828601612ff2565b925050602061351685828601612fbc565b9150509250929050565b600063ffffffff82169050919050565b61353981613520565b811461354457600080fd5b50565b60008135905061355681613530565b92915050565b600080fd5b600060c082840312156135775761357661355c565b5b81905092915050565b6000608082840312156135965761359561355c565b5b81905092915050565b6000806000606084860312156135b8576135b7612f69565b5b60006135c686828701613547565b935050602084013567ffffffffffffffff8111156135e7576135e6612f6e565b5b6135f386828701613561565b925050604084013567ffffffffffffffff81111561361457613613612f6e565b5b61362086828701613580565b9150509250925092565b6000806040838503121561364157613640612f69565b5b600061364f85828601612fbc565b925050602061366085828601613547565b9150509250929050565b600067ffffffffffffffff82111561368557613684613219565b5b602082029050602081019050919050565b60006136a96136a48461366a565b613279565b905080838252602082019050602084028301858111156136cc576136cb6132c0565b5b835b818110156136f557806136e18882612fbc565b8452602084019350506020810190506136ce565b5050509392505050565b600082601f83011261371457613713613214565b5b8135613724848260208601613696565b91505092915050565b6000806040838503121561374457613743612f69565b5b600083013567ffffffffffffffff81111561376257613761612f6e565b5b61376e858286016136ff565b925050602083013567ffffffffffffffff81111561378f5761378e612f6e565b5b61379b8582860161332e565b9150509250929050565b600081519050919050565b600082825260208201905092915050565b6000819050602082019050919050565b6137da81612fd1565b82525050565b60006137ec83836137d1565b60208301905092915050565b6000602082019050919050565b6000613810826137a5565b61381a81856137b0565b9350613825836137c1565b8060005b8381101561385657815161383d88826137e0565b9750613848836137f8565b925050600181019050613829565b5085935050505092915050565b6000602082019050818103600083015261387d8184613805565b905092915050565b600061ffff82169050919050565b61389c81613885565b81146138a757600080fd5b50565b6000813590506138b981613893565b92915050565b6000806000606084860312156138d8576138d7612f69565b5b60006138e686828701613547565b93505060206138f7868287016138aa565b925050604084013567ffffffffffffffff81111561391857613917612f6e565b5b61392486828701613580565b9150509250925092565b61393781612f93565b82525050565b6000602082019050613952600083018461392e565b92915050565b600067ffffffffffffffff82111561397357613972613219565b5b61397c826131a8565b9050602081019050919050565b600061399c61399784613958565b613279565b9050828152602081018484840111156139b8576139b761335c565b5b6139c3848285613392565b509392505050565b600082601f8301126139e0576139df613214565b5b81356139f0848260208601613989565b91505092915050565b600060208284031215613a0f57613a0e612f69565b5b600082013567ffffffffffffffff811115613a2d57613a2c612f6e565b5b613a39848285016139cb565b91505092915050565b613a4b816130f6565b8114613a5657600080fd5b50565b600081359050613a6881613a42565b92915050565b60008060408385031215613a8557613a84612f69565b5b6000613a9385828601612fbc565b9250506020613aa485828601613a59565b9150509250929050565b613ab781613520565b82525050565b6000602082019050613ad26000830184613aae565b92915050565b600080fd5b60008083601f840112613af357613af2613214565b5b8235905067ffffffffffffffff811115613b1057613b0f613ad8565b5b602083019150836001820283011115613b2c57613b2b6132c0565b5b9250929050565b60008060008060008060a08789031215613b5057613b4f612f69565b5b6000613b5e89828a01612fbc565b9650506020613b6f89828a01612fbc565b9550506040613b8089828a01613547565b945050606087013567ffffffffffffffff811115613ba157613ba0612f6e565b5b613bad89828a01613add565b93509350506080613bc089828a01612fbc565b9150509295509295509295565b60008060408385031215613be457613be3612f69565b5b6000613bf285828601612fbc565b9250506020613c0385828601612fbc565b9150509250929050565b600080600080600060a08688031215613c2957613c28612f69565b5b6000613c3788828901612fbc565b9550506020613c4888828901612fbc565b9450506040613c5988828901612ff2565b9350506060613c6a88828901612ff2565b925050608086013567ffffffffffffffff811115613c8b57613c8a612f6e565b5b613c97888289016133e3565b9150509295509295909350565b600060208284031215613cba57613cb9612f69565b5b6000613cc884828501612fbc565b91505092915050565b7f455243313135353a2062616c616e636520717565727920666f7220746865207a60008201527f65726f2061646472657373000000000000000000000000000000000000000000602082015250565b6000613d2d602b83613164565b9150613d3882613cd1565b604082019050919050565b60006020820190508181036000830152613d5c81613d20565b9050919050565b7f4e487b7100000000000000000000000000000000000000000000000000000000600052602260045260246000fd5b60006002820490506001821680613daa57607f821691505b60208210811415613dbe57613dbd613d63565b5b50919050565b7f455243313135353a207472616e736665722063616c6c6572206973206e6f742060008201527f6f776e6572206e6f7220617070726f7665640000000000000000000000000000602082015250565b6000613e20603283613164565b9150613e2b82613dc4565b604082019050919050565b60006020820190508181036000830152613e4f81613e13565b9050919050565b7f4f776e61626c653a2063616c6c6572206973206e6f7420746865206f776e6572600082015250565b6000613e8c602083613164565b9150613e9782613e56565b602082019050919050565b60006020820190508181036000830152613ebb81613e7f565b9050919050565b7f5265656e7472616e637947756172643a207265656e7472616e742063616c6c00600082015250565b6000613ef8601f83613164565b9150613f0382613ec2565b602082019050919050565b60006020820190508181036000830152613f2781613eeb565b9050919050565b7f4e45340000000000000000000000000000000000000000000000000000000000600082015250565b6000613f64600383613164565b9150613f6f82613f2e565b602082019050919050565b60006020820190508181036000830152613f9381613f57565b9050919050565b600081905092915050565b50565b6000613fb5600083613f9a565b9150613fc082613fa5565b600082019050919050565b6000613fd682613fa8565b9150819050919050565b7f5345350000000000000000000000000000000000000000000000000000000000600082015250565b6000614016600383613164565b915061402182613fe0565b602082019050919050565b6000602082019050818103600083015261404581614009565b9050919050565b7f4d54390000000000000000000000000000000000000000000000000000000000600082015250565b6000614082600383613164565b915061408d8261404c565b602082019050919050565b600060208201905081810360008301526140b181614075565b9050919050565b7f4e487b7100000000000000000000000000000000000000000000000000000000600052601160045260246000fd5b60006140f282612fd1565b91506140fd83612fd1565b9250817fffffffffffffffffffffffffffffffffffffffffffffffffffffffffffffffff0483118215151615614136576141356140b8565b5b828202905092915050565b7f4d54350000000000000000000000000000000000000000000000000000000000600082015250565b6000614177600383613164565b915061418282614141565b602082019050919050565b600060208201905081810360008301526141a68161416a565b9050919050565b7f5645524946494552000000000000000000000000000000000000000000000000600082015250565b60006141e3600883613164565b91506141ee826141ad565b602082019050919050565b60006020820190508181036000830152614212816141d6565b9050919050565b60008151905061422881612fa5565b92915050565b60006020828403121561424457614243612f69565b5b600061425284828501614219565b91505092915050565b7f5449434b45540000000000000000000000000000000000000000000000000000600082015250565b6000614291600683613164565b915061429c8261425b565b602082019050919050565b60006142b66020840184612fbc565b905092915050565b6142c781612f93565b82525050565b600080fd5b600080fd5b600080fd5b600080833560016020038436030381126142f9576142f86142d7565b5b83810192508235915060208301925067ffffffffffffffff821115614321576143206142cd565b5b600182023603841315614337576143366142d2565b5b509250929050565b600082825260208201905092915050565b600061435c838561433f565b9350614369838584613392565b614372836131a8565b840190509392505050565b600061438c6020840184612ff2565b905092915050565b600080833560016020038436030381126143b1576143b06142d7565b5b83810192508235915060208301925067ffffffffffffffff8211156143d9576143d86142cd565b5b6001820236038413156143ef576143ee6142d2565b5b509250929050565b600082825260208201905092915050565b600061441483856143f7565b9350614421838584613392565b61442a836131a8565b840190509392505050565b60006080830161444860008401846142a7565b61445560008601826142be565b5061446360208401846142dc565b8583036020870152614476838284614350565b92505050614487604084018461437d565b61449460408601826137d1565b506144a26060840184614394565b85830360608701526144b5838284614408565b925050508091505092915050565b600060a0820190506144d8600083018761392e565b6144e5602083018661392e565b81810360408301526144f681614284565b90506145056060830185613047565b81810360808301526145178184614435565b905095945050505050565b6000602082019050818103600083015261453b81614284565b9050919050565b60006145516020840184613547565b905092915050565b61456281613520565b82525050565b600060c0830161457b60008401846142a7565b61458860008601826142be565b5061459660208401846142a7565b6145a360208601826142be565b506145b1604084018461437d565b6145be60408601826137d1565b506145cc6060840184614542565b6145d96060860182614559565b506145e7608084018461437d565b6145f460808601826137d1565b5061460260a0840184614394565b85830360a0870152614615838284614408565b925050508091505092915050565b6000608082019050614638600083018761392e565b614645602083018661392e565b6146526040830185613aae565b81810360608301526146648184614568565b905095945050505050565b7f4f4f330000000000000000000000000000000000000000000000000000000000600082015250565b60006146a5600383613164565b91506146b08261466f565b602082019050919050565b600060208201905081810360008301526146d481614698565b9050919050565b7f455243313135353a206163636f756e747320616e6420696473206c656e67746860008201527f206d69736d617463680000000000000000000000000000000000000000000000602082015250565b6000614737602983613164565b9150614742826146db565b604082019050919050565b600060208201905081810360008301526147668161472a565b9050919050565b7f4e487b7100000000000000000000000000000000000000000000000000000000600052603260045260246000fd5b60006147a782612fd1565b91507fffffffffffffffffffffffffffffffffffffffffffffffffffffffffffffffff8214156147da576147d96140b8565b5b600182019050919050565b7f4d494e5400000000000000000000000000000000000000000000000000000000600082015250565b600061481b600483613164565b9150614826826147e5565b602082019050919050565b6000819050919050565b600061485661485161484c84613885565b614831565b612fd1565b9050919050565b6148668161483b565b82525050565b600060a082019050614881600083018761392e565b61488e602083018661392e565b818103604083015261489f8161480e565b90506148ae606083018561485d565b81810360808301526148c08184614435565b905095945050505050565b6148d481613885565b82525050565b60006080820190506148ef60008301876148cb565b6148fc6020830186613aae565b6149096040830185613047565b614916606083018461392e565b95945050505050565b7f496e697469616c697a61626c653a20636f6e747261637420697320616c72656160008201527f647920696e697469616c697a6564000000000000000000000000000000000000602082015250565b600061497b602e83613164565b91506149868261491f565b604082019050919050565b600060208201905081810360008301526149aa8161496e565b9050919050565b7f4145310000000000000000000000000000000000000000000000000000000000600082015250565b60006149e7600383613164565b91506149f2826149b1565b602082019050919050565b60006020820190508181036000830152614a16816149da565b9050919050565b7f4d494e544d414e41474552000000000000000000000000000000000000000000600082015250565b6000614a53600b83613164565b9150614a5e82614a1d565b602082019050919050565b60006020820190508181036000830152614a8281614a46565b9050919050565b7f455243313135353a2063616c6c6572206973206e6f74206f776e6572206e6f7260008201527f20617070726f7665640000000000000000000000000000000000000000000000602082015250565b6000614ae5602983613164565b9150614af082614a89565b604082019050919050565b60006020820190508181036000830152614b1481614ad8565b9050919050565b7f4f776e61626c653a206e6577206f776e657220697320746865207a65726f206160008201527f6464726573730000000000000000000000000000000000000000000000000000602082015250565b6000614b77602683613164565b9150614b8282614b1b565b604082019050919050565b60006020820190508181036000830152614ba681614b6a565b9050919050565b7f455243313135353a2069647320616e6420616d6f756e7473206c656e6774682060008201527f6d69736d61746368000000000000000000000000000000000000000000000000602082015250565b6000614c09602883613164565b9150614c1482614bad565b604082019050919050565b60006020820190508181036000830152614c3881614bfc565b9050919050565b7f455243313135353a207472616e7366657220746f20746865207a65726f20616460008201527f6472657373000000000000000000000000000000000000000000000000000000602082015250565b6000614c9b602583613164565b9150614ca682614c3f565b604082019050919050565b60006020820190508181036000830152614cca81614c8e565b9050919050565b7f455243313135353a20696e73756666696369656e742062616c616e636520666f60008201527f72207472616e7366657200000000000000000000000000000000000000000000602082015250565b6000614d2d602a83613164565b9150614d3882614cd1565b604082019050919050565b60006020820190508181036000830152614d5c81614d20565b9050919050565b6000614d6e82612fd1565b9150614d7983612fd1565b9250827fffffffffffffffffffffffffffffffffffffffffffffffffffffffffffffffff03821115614dae57614dad6140b8565b5b828201905092915050565b60006040820190508181036000830152614dd38185613805565b90508181036020830152614de78184613805565b90509392505050565b7f4d54330000000000000000000000000000000000000000000000000000000000600082015250565b6000614e26600383613164565b9150614e3182614df0565b602082019050919050565b60006020820190508181036000830152614e5581614e19565b9050919050565b6000614e6782613520565b915063ffffffff821415614e7e57614e7d6140b8565b5b600182019050919050565b600060ff82169050919050565b614e9f81614e89565b8114614eaa57600080fd5b50565b600081519050614ebc81614e96565b92915050565b600060208284031215614ed857614ed7612f69565b5b6000614ee684828501614ead565b91505092915050565b600081519050614efe81612fdb565b92915050565b600060208284031215614f1a57614f19612f69565b5b6000614f2884828501614eef565b91505092915050565b60008160011c9050919050565b6000808291508390505b6001851115614f8857808604811115614f6457614f636140b8565b5b6001851615614f735780820291505b8081029050614f8185614f31565b9450614f48565b94509492505050565b600082614fa1576001905061505d565b81614faf576000905061505d565b8160018114614fc55760028114614fcf57614ffe565b600191505061505d565b60ff841115614fe157614fe06140b8565b5b8360020a915084821115614ff857614ff76140b8565b5b5061505d565b5060208310610133831016604e8410600b84101617156150335782820a90508381111561502e5761502d6140b8565b5b61505d565b6150408484846001614f3e565b92509050818404811115615057576150566140b8565b5b81810290505b9392505050565b600061506f82612fd1565b915061507a83614e89565b92506150a77fffffffffffffffffffffffffffffffffffffffffffffffffffffffffffffffff8484614f91565b905092915050565b7f4e487b7100000000000000000000000000000000000000000000000000000000600052601260045260246000fd5b60006150e982612fd1565b91506150f483612fd1565b925082615104576151036150af565b5b828204905092915050565b7f57414c4c45540000000000000000000000000000000000000000000000000000600082015250565b6000615145600683613164565b91506151508261510f565b602082019050919050565b6000602082019050818103600083015261517481615138565b9050919050565b7f4d494e545f464545000000000000000000000000000000000000000000000000600082015250565b60006151b1600883613164565b91506151bc8261517b565b602082019050919050565b60006151d4600083613164565b91506151df82613fa5565b600082019050919050565b60006040820190508181036000830152615203816151a4565b90508181036020830152615216816151c7565b9050919050565b7f455243313135353a2073657474696e6720617070726f76616c2073746174757360008201527f20666f722073656c660000000000000000000000000000000000000000000000602082015250565b6000615279602983613164565b91506152848261521d565b604082019050919050565b600060208201905081810360008301526152a88161526c565b9050919050565b7f496e697469616c697a61626c653a20636f6e7472616374206973206e6f74206960008201527f6e697469616c697a696e67000000000000000000000000000000000000000000602082015250565b600061530b602b83613164565b9150615316826152af565b604082019050919050565b6000602082019050818103600083015261533a816152fe565b9050919050565b60006040820190506153566000830185613047565b6153636020830184613047565b9392505050565b600081519050919050565b600082825260208201905092915050565b60006153918261536a565b61539b8185615375565b93506153ab818560208601613175565b6153b4816131a8565b840191505092915050565b600060a0820190506153d4600083018861392e565b6153e1602083018761392e565b81810360408301526153f38186613805565b905081810360608301526154078185613805565b9050818103608083015261541b8184615386565b90509695505050505050565b6000815190506154368161309d565b92915050565b60006020828403121561545257615451612f69565b5b600061546084828501615427565b91505092915050565b60008160e01c9050919050565b600060033d11156154955760046000803e615492600051615469565b90505b90565b600060443d10156154a85761552b565b6154b0612f5f565b60043d036004823e80513d602482011167ffffffffffffffff821117156154d857505061552b565b808201805167ffffffffffffffff8111156154f6575050505061552b565b80602083010160043d03850181111561551357505050505061552b565b61552282602001850186613248565b82955050505050505b90565b7f455243313135353a207472616e7366657220746f206e6f6e204552433131353560008201527f526563656976657220696d706c656d656e746572000000000000000000000000602082015250565b600061558a603483613164565b91506155958261552e565b604082019050919050565b600060208201905081810360008301526155b98161557d565b9050919050565b7f455243313135353a204552433131353552656365697665722072656a6563746560008201527f6420746f6b656e73000000000000000000000000000000000000000000000000602082015250565b600061561c602883613164565b9150615627826155c0565b604082019050919050565b6000602082019050818103600083015261564b8161560f565b9050919050565b7f455243313135353a206d696e7420746f20746865207a65726f2061646472657360008201527f7300000000000000000000000000000000000000000000000000000000000000602082015250565b60006156ae602183613164565b91506156b982615652565b604082019050919050565b600060208201905081810360008301526156dd816156a1565b9050919050565b600060a0820190506156f9600083018861392e565b615706602083018761392e565b6157136040830186613047565b6157206060830185613047565b81810360808301526157328184615386565b9050969550505050505056fea26469706673582212202de98903caed73d0642283e3377b10fad47d2be68cd7c24a12581da8ade19fd464736f6c634300080a0033",
  "linkReferences": {},
  "deployedLinkReferences": {}
}