{
  "_format": "hh-sol-artifact-1",
  "contractName": "TicketManager",
  "sourceName": "contracts/V1/TicketManager.sol",
  "abi": [
    {
      "inputs": [],
      "stateMutability": "nonpayable",
      "type": "constructor"
    },
    {
      "anonymous": false,
      "inputs": [
        {
          "indexed": true,
          "internalType": "address",
          "name": "nftContract",
          "type": "address"
        },
        {
          "indexed": true,
          "internalType": "uint256",
          "name": "groupId",
          "type": "uint256"
        },
        {
          "indexed": false,
          "internalType": "uint256",
          "name": "endDate",
          "type": "uint256"
        }
      ],
      "name": "SetTicketSchedule",
      "type": "event"
    },
    {
      "anonymous": false,
      "inputs": [
        {
          "indexed": true,
          "internalType": "address",
          "name": "nftContract",
          "type": "address"
        },
        {
          "indexed": true,
          "internalType": "address",
          "name": "minter",
          "type": "address"
        },
        {
          "indexed": true,
          "internalType": "uint256",
          "name": "groupId",
          "type": "uint256"
        },
        {
          "indexed": false,
          "internalType": "uint32",
          "name": "quantity",
          "type": "uint32"
        },
        {
          "indexed": false,
          "internalType": "uint32",
          "name": "maxQuantity",
          "type": "uint32"
        },
        {
          "indexed": false,
          "internalType": "uint256",
          "name": "price",
          "type": "uint256"
        }
      ],
      "name": "TicketMint",
      "type": "event"
    },
    {
      "inputs": [
        {
          "internalType": "address",
          "name": "",
          "type": "address"
        },
        {
          "internalType": "uint256",
          "name": "",
          "type": "uint256"
        }
      ],
      "name": "endDates",
      "outputs": [
        {
          "internalType": "uint256",
          "name": "",
          "type": "uint256"
        }
      ],
      "stateMutability": "view",
      "type": "function"
    },
    {
      "inputs": [
        {
          "internalType": "address",
          "name": "_nft",
          "type": "address"
        },
        {
          "internalType": "uint256",
          "name": "_groupId",
          "type": "uint256"
        },
        {
          "internalType": "uint256",
          "name": "_endDate",
          "type": "uint256"
        }
      ],
      "name": "setEndDate",
      "outputs": [],
      "stateMutability": "nonpayable",
      "type": "function"
    },
    {
      "inputs": [
        {
          "internalType": "address",
          "name": "",
          "type": "address"
        },
        {
          "internalType": "uint256",
          "name": "",
          "type": "uint256"
        },
        {
          "internalType": "address",
          "name": "",
          "type": "address"
        }
      ],
      "name": "ticketUsed",
      "outputs": [
        {
          "internalType": "uint32",
          "name": "",
          "type": "uint32"
        }
      ],
      "stateMutability": "view",
      "type": "function"
    },
    {
      "inputs": [
        {
          "internalType": "address",
          "name": "_signer",
          "type": "address"
        },
        {
          "internalType": "address",
          "name": "_minter",
          "type": "address"
        },
        {
          "internalType": "uint32",
          "name": "_quantity",
          "type": "uint32"
        },
        {
          "components": [
            {
              "internalType": "address",
              "name": "user",
              "type": "address"
            },
            {
              "internalType": "address",
              "name": "nft",
              "type": "address"
            },
            {
              "internalType": "uint256",
              "name": "price",
              "type": "uint256"
            },
            {
              "internalType": "uint32",
              "name": "quantity",
              "type": "uint32"
            },
            {
              "internalType": "uint256",
              "name": "groupId",
              "type": "uint256"
            },
            {
              "internalType": "bytes",
              "name": "signature",
              "type": "bytes"
            }
          ],
          "internalType": "struct TicketManager.Ticket",
          "name": "_ticket",
          "type": "tuple"
        }
      ],
      "name": "useTicket",
      "outputs": [],
      "stateMutability": "nonpayable",
      "type": "function"
    },
    {
      "inputs": [
        {
          "internalType": "address",
          "name": "_signer",
          "type": "address"
        },
        {
          "internalType": "address",
          "name": "_nft",
          "type": "address"
        },
        {
          "internalType": "address",
          "name": "_minter",
          "type": "address"
        },
        {
          "internalType": "uint32",
          "name": "_quantity",
          "type": "uint32"
        },
        {
          "components": [
            {
              "internalType": "address",
              "name": "user",
              "type": "address"
            },
            {
              "internalType": "address",
              "name": "nft",
              "type": "address"
            },
            {
              "internalType": "uint256",
              "name": "price",
              "type": "uint256"
            },
            {
              "internalType": "uint32",
              "name": "quantity",
              "type": "uint32"
            },
            {
              "internalType": "uint256",
              "name": "groupId",
              "type": "uint256"
            },
            {
              "internalType": "bytes",
              "name": "signature",
              "type": "bytes"
            }
          ],
          "internalType": "struct TicketManager.Ticket",
          "name": "_ticket",
          "type": "tuple"
        }
      ],
      "name": "verify",
      "outputs": [],
      "stateMutability": "view",
      "type": "function"
    }
  ],
  "bytecode": "0x6101406040523480156200001257600080fd5b506040518060400160405280600c81526020017f4f6d6e75756d5469636b657400000000000000000000000000000000000000008152506040518060400160405280600181526020017f310000000000000000000000000000000000000000000000000000000000000081525060008280519060200120905060008280519060200120905060007f8b73c3c69bb8fe3d512ecc4cf759cc79239f7b179b0ffacaa9a75d522b39400f90508260e081815250508161010081815250504660a08181525050620000e88184846200013760201b60201c565b608081815250503073ffffffffffffffffffffffffffffffffffffffff1660c08173ffffffffffffffffffffffffffffffffffffffff168152505080610120818152505050505050506200024b565b6000838383463060405160200162000154959493929190620001ee565b6040516020818303038152906040528051906020012090509392505050565b6000819050919050565b620001888162000173565b82525050565b6000819050919050565b620001a3816200018e565b82525050565b600073ffffffffffffffffffffffffffffffffffffffff82169050919050565b6000620001d682620001a9565b9050919050565b620001e881620001c9565b82525050565b600060a0820190506200020560008301886200017d565b6200021460208301876200017d565b6200022360408301866200017d565b62000232606083018562000198565b620002416080830184620001dd565b9695505050505050565b60805160a05160c05160e0516101005161012051611a576200029b6000396000610bd601526000610c1801526000610bf701526000610b2c01526000610b8201526000610bab0152611a576000f3fe608060405234801561001057600080fd5b50600436106100575760003560e01c80635ad9419a1461005c5780637f48e5b014610078578063898bf316146100a8578063acf8e22b146100c4578063d5ba6ff1146100f4575b600080fd5b61007660048036038101906100719190610ee3565b610110565b005b610092600480360381019061008d9190610fb0565b610430565b60405161009f9190610fff565b60405180910390f35b6100c260048036038101906100bd919061101a565b610455565b005b6100de60048036038101906100d9919061109d565b6105ba565b6040516100eb91906110ff565b60405180910390f35b61010e6004803603810190610109919061111a565b6105f9565b005b6000808573ffffffffffffffffffffffffffffffffffffffff1673ffffffffffffffffffffffffffffffffffffffff168152602001908152602001600020600082608001358152602001908152602001600020544211156101a6576040517f08c379a000000000000000000000000000000000000000000000000000000000815260040161019d906111ca565b60405180910390fd5b6101af8161077d565b73ffffffffffffffffffffffffffffffffffffffff168573ffffffffffffffffffffffffffffffffffffffff161461021c576040517f08c379a000000000000000000000000000000000000000000000000000000000815260040161021390611236565b60405180910390fd5b8373ffffffffffffffffffffffffffffffffffffffff168160200160208101906102469190611256565b73ffffffffffffffffffffffffffffffffffffffff161461029c576040517f08c379a0000000000000000000000000000000000000000000000000000000008152600401610293906112cf565b60405180910390fd5b8060000160208101906102af9190611256565b73ffffffffffffffffffffffffffffffffffffffff168373ffffffffffffffffffffffffffffffffffffffff161461031c576040517f08c379a00000000000000000000000000000000000000000000000000000000081526004016103139061133b565b60405180910390fd5b80606001602081019061032f919061135b565b63ffffffff1682600160008773ffffffffffffffffffffffffffffffffffffffff1673ffffffffffffffffffffffffffffffffffffffff16815260200190815260200160002060008460800135815260200190815260200160002060008673ffffffffffffffffffffffffffffffffffffffff1673ffffffffffffffffffffffffffffffffffffffff16815260200190815260200160002060009054906101000a900463ffffffff166103e291906113b7565b63ffffffff161115610429576040517f08c379a00000000000000000000000000000000000000000000000000000000081526004016104209061143d565b60405180910390fd5b5050505050565b6000602052816000526040600020602052806000526040600020600091509150505481565b6104628433858585610110565b81600160003373ffffffffffffffffffffffffffffffffffffffff1673ffffffffffffffffffffffffffffffffffffffff16815260200190815260200160002060008360800135815260200190815260200160002060008573ffffffffffffffffffffffffffffffffffffffff1673ffffffffffffffffffffffffffffffffffffffff16815260200190815260200160002060008282829054906101000a900463ffffffff1661051291906113b7565b92506101000a81548163ffffffff021916908363ffffffff16021790555080608001358373ffffffffffffffffffffffffffffffffffffffff163373ffffffffffffffffffffffffffffffffffffffff167f524ff73e2243838b2e4413c1e8d7e63700f53b159dc058e6f1d38eff0ee8e1df85856060016020810190610598919061135b565b86604001356040516105ac9392919061145d565b60405180910390a450505050565b6001602052826000526040600020602052816000526040600020602052806000526040600020600092509250509054906101000a900463ffffffff1681565b3373ffffffffffffffffffffffffffffffffffffffff168373ffffffffffffffffffffffffffffffffffffffff16638da5cb5b6040518163ffffffff1660e01b8152600401602060405180830381865afa15801561065b573d6000803e3d6000fd5b505050506040513d601f19601f8201168201806040525081019061067f91906114a9565b73ffffffffffffffffffffffffffffffffffffffff16146106d5576040517f08c379a00000000000000000000000000000000000000000000000000000000081526004016106cc90611522565b60405180910390fd5b806000808573ffffffffffffffffffffffffffffffffffffffff1673ffffffffffffffffffffffffffffffffffffffff168152602001908152602001600020600084815260200190815260200160002081905550818373ffffffffffffffffffffffffffffffffffffffff167fabc940b2c3c2555fb6ad19c780002b83b87a190be40dd9357c15724e5693ff87836040516107709190610fff565b60405180910390a3505050565b600080610789836107ef565b90506107e781848060a0019061079f9190611551565b8080601f016020809104026020016040519081016040528093929190818152602001838380828437600081840152601f19601f8201169050808301925050505050505061088f565b915050919050565b60006108887f078a68b10a4dee564f0bf988c605338d477955990808220690bdf998c7363ec88360000160208101906108289190611256565b84602001602081019061083b9190611256565b8560400135866060016020810190610853919061135b565b876080013560405160200161086d969594939291906115dc565b604051602081830303815290604052805190602001206108b6565b9050919050565b600080600061089e85856108d0565b915091506108ab81610953565b819250505092915050565b60006108c96108c3610b28565b83610c42565b9050919050565b6000806041835114156109125760008060006020860151925060408601519150606086015160001a905061090687828585610c75565b9450945050505061094c565b604083511415610943576000806020850151915060408501519050610938868383610d82565b93509350505061094c565b60006002915091505b9250929050565b600060048111156109675761096661163d565b5b81600481111561097a5761097961163d565b5b141561098557610b25565b600160048111156109995761099861163d565b5b8160048111156109ac576109ab61163d565b5b14156109ed576040517f08c379a00000000000000000000000000000000000000000000000000000000081526004016109e4906116b8565b60405180910390fd5b60026004811115610a0157610a0061163d565b5b816004811115610a1457610a1361163d565b5b1415610a55576040517f08c379a0000000000000000000000000000000000000000000000000000000008152600401610a4c90611724565b60405180910390fd5b60036004811115610a6957610a6861163d565b5b816004811115610a7c57610a7b61163d565b5b1415610abd576040517f08c379a0000000000000000000000000000000000000000000000000000000008152600401610ab4906117b6565b60405180910390fd5b600480811115610ad057610acf61163d565b5b816004811115610ae357610ae261163d565b5b1415610b24576040517f08c379a0000000000000000000000000000000000000000000000000000000008152600401610b1b90611848565b60405180910390fd5b5b50565b60007f000000000000000000000000000000000000000000000000000000000000000073ffffffffffffffffffffffffffffffffffffffff163073ffffffffffffffffffffffffffffffffffffffff16148015610ba457507f000000000000000000000000000000000000000000000000000000000000000046145b15610bd1577f00000000000000000000000000000000000000000000000000000000000000009050610c3f565b610c3c7f00000000000000000000000000000000000000000000000000000000000000007f00000000000000000000000000000000000000000000000000000000000000007f0000000000000000000000000000000000000000000000000000000000000000610de1565b90505b90565b60008282604051602001610c579291906118e0565b60405160208183030381529060405280519060200120905092915050565b6000807f7fffffffffffffffffffffffffffffff5d576e7357a4501ddfe92f46681b20a08360001c1115610cb0576000600391509150610d79565b601b8560ff1614158015610cc85750601c8560ff1614155b15610cda576000600491509150610d79565b600060018787878760405160008152602001604052604051610cff9493929190611933565b6020604051602081039080840390855afa158015610d21573d6000803e3d6000fd5b505050602060405103519050600073ffffffffffffffffffffffffffffffffffffffff168173ffffffffffffffffffffffffffffffffffffffff161415610d7057600060019250925050610d79565b80600092509250505b94509492505050565b60008060007f7fffffffffffffffffffffffffffffffffffffffffffffffffffffffffffffff60001b841690506000601b60ff8660001c901c610dc59190611978565b9050610dd387828885610c75565b935093505050935093915050565b60008383834630604051602001610dfc9594939291906119ce565b6040516020818303038152906040528051906020012090509392505050565b600080fd5b600080fd5b600073ffffffffffffffffffffffffffffffffffffffff82169050919050565b6000610e5082610e25565b9050919050565b610e6081610e45565b8114610e6b57600080fd5b50565b600081359050610e7d81610e57565b92915050565b600063ffffffff82169050919050565b610e9c81610e83565b8114610ea757600080fd5b50565b600081359050610eb981610e93565b92915050565b600080fd5b600060c08284031215610eda57610ed9610ebf565b5b81905092915050565b600080600080600060a08688031215610eff57610efe610e1b565b5b6000610f0d88828901610e6e565b9550506020610f1e88828901610e6e565b9450506040610f2f88828901610e6e565b9350506060610f4088828901610eaa565b925050608086013567ffffffffffffffff811115610f6157610f60610e20565b5b610f6d88828901610ec4565b9150509295509295909350565b6000819050919050565b610f8d81610f7a565b8114610f9857600080fd5b50565b600081359050610faa81610f84565b92915050565b60008060408385031215610fc757610fc6610e1b565b5b6000610fd585828601610e6e565b9250506020610fe685828601610f9b565b9150509250929050565b610ff981610f7a565b82525050565b60006020820190506110146000830184610ff0565b92915050565b6000806000806080858703121561103457611033610e1b565b5b600061104287828801610e6e565b945050602061105387828801610e6e565b935050604061106487828801610eaa565b925050606085013567ffffffffffffffff81111561108557611084610e20565b5b61109187828801610ec4565b91505092959194509250565b6000806000606084860312156110b6576110b5610e1b565b5b60006110c486828701610e6e565b93505060206110d586828701610f9b565b92505060406110e686828701610e6e565b9150509250925092565b6110f981610e83565b82525050565b600060208201905061111460008301846110f0565b92915050565b60008060006060848603121561113357611132610e1b565b5b600061114186828701610e6e565b935050602061115286828701610f9b565b925050604061116386828701610f9b565b9150509250925092565b600082825260208201905092915050565b7f4d54380000000000000000000000000000000000000000000000000000000000600082015250565b60006111b460038361116d565b91506111bf8261117e565b602082019050919050565b600060208201905081810360008301526111e3816111a7565b9050919050565b7f5652310000000000000000000000000000000000000000000000000000000000600082015250565b600061122060038361116d565b915061122b826111ea565b602082019050919050565b6000602082019050818103600083015261124f81611213565b9050919050565b60006020828403121561126c5761126b610e1b565b5b600061127a84828501610e6e565b91505092915050565b7f5652350000000000000000000000000000000000000000000000000000000000600082015250565b60006112b960038361116d565b91506112c482611283565b602082019050919050565b600060208201905081810360008301526112e8816112ac565b9050919050565b7f5652360000000000000000000000000000000000000000000000000000000000600082015250565b600061132560038361116d565b9150611330826112ef565b602082019050919050565b6000602082019050818103600083015261135481611318565b9050919050565b60006020828403121561137157611370610e1b565b5b600061137f84828501610eaa565b91505092915050565b7f4e487b7100000000000000000000000000000000000000000000000000000000600052601160045260246000fd5b60006113c282610e83565b91506113cd83610e83565b92508263ffffffff038211156113e6576113e5611388565b5b828201905092915050565b7f4d54330000000000000000000000000000000000000000000000000000000000600082015250565b600061142760038361116d565b9150611432826113f1565b602082019050919050565b600060208201905081810360008301526114568161141a565b9050919050565b600060608201905061147260008301866110f0565b61147f60208301856110f0565b61148c6040830184610ff0565b949350505050565b6000815190506114a381610e57565b92915050565b6000602082840312156114bf576114be610e1b565b5b60006114cd84828501611494565b91505092915050565b7f4f4f310000000000000000000000000000000000000000000000000000000000600082015250565b600061150c60038361116d565b9150611517826114d6565b602082019050919050565b6000602082019050818103600083015261153b816114ff565b9050919050565b600080fd5b600080fd5b600080fd5b6000808335600160200384360303811261156e5761156d611542565b5b80840192508235915067ffffffffffffffff8211156115905761158f611547565b5b6020830192506001820236038313156115ac576115ab61154c565b5b509250929050565b6000819050919050565b6115c7816115b4565b82525050565b6115d681610e45565b82525050565b600060c0820190506115f160008301896115be565b6115fe60208301886115cd565b61160b60408301876115cd565b6116186060830186610ff0565b61162560808301856110f0565b61163260a0830184610ff0565b979650505050505050565b7f4e487b7100000000000000000000000000000000000000000000000000000000600052602160045260246000fd5b7f45434453413a20696e76616c6964207369676e61747572650000000000000000600082015250565b60006116a260188361116d565b91506116ad8261166c565b602082019050919050565b600060208201905081810360008301526116d181611695565b9050919050565b7f45434453413a20696e76616c6964207369676e6174757265206c656e67746800600082015250565b600061170e601f8361116d565b9150611719826116d8565b602082019050919050565b6000602082019050818103600083015261173d81611701565b9050919050565b7f45434453413a20696e76616c6964207369676e6174757265202773272076616c60008201527f7565000000000000000000000000000000000000000000000000000000000000602082015250565b60006117a060228361116d565b91506117ab82611744565b604082019050919050565b600060208201905081810360008301526117cf81611793565b9050919050565b7f45434453413a20696e76616c6964207369676e6174757265202776272076616c60008201527f7565000000000000000000000000000000000000000000000000000000000000602082015250565b600061183260228361116d565b915061183d826117d6565b604082019050919050565b6000602082019050818103600083015261186181611825565b9050919050565b600081905092915050565b7f1901000000000000000000000000000000000000000000000000000000000000600082015250565b60006118a9600283611868565b91506118b482611873565b600282019050919050565b6000819050919050565b6118da6118d5826115b4565b6118bf565b82525050565b60006118eb8261189c565b91506118f782856118c9565b60208201915061190782846118c9565b6020820191508190509392505050565b600060ff82169050919050565b61192d81611917565b82525050565b600060808201905061194860008301876115be565b6119556020830186611924565b61196260408301856115be565b61196f60608301846115be565b95945050505050565b600061198382610f7a565b915061198e83610f7a565b9250827fffffffffffffffffffffffffffffffffffffffffffffffffffffffffffffffff038211156119c3576119c2611388565b5b828201905092915050565b600060a0820190506119e360008301886115be565b6119f060208301876115be565b6119fd60408301866115be565b611a0a6060830185610ff0565b611a1760808301846115cd565b969550505050505056fea2646970667358221220db9e98f4fe97ec170142557c0373a9928de2f0dd13b15bdaef4f7843126b5c3b64736f6c634300080a0033",
  "linkReferences": {},
  "deployedLinkReferences": {}
}