{
  "_format": "hh-sol-artifact-1",
  "contractName": "OmnuumCAManager",
  "sourceName": "contracts/V1/OmnuumCAManager.sol",
  "abi": [
    {
      "anonymous": false,
      "inputs": [
        {
          "indexed": true,
          "internalType": "address",
          "name": "managerContract",
          "type": "address"
        },
        {
          "indexed": false,
          "internalType": "string",
          "name": "topic",
          "type": "string"
        }
      ],
      "name": "ContractRegistered",
      "type": "event"
    },
    {
      "anonymous": false,
      "inputs": [
        {
          "indexed": true,
          "internalType": "address",
          "name": "managerContract",
          "type": "address"
        },
        {
          "indexed": false,
          "internalType": "string",
          "name": "topic",
          "type": "string"
        }
      ],
      "name": "ContractRemoved",
      "type": "event"
    },
    {
      "anonymous": false,
      "inputs": [
        {
          "indexed": true,
          "internalType": "address",
          "name": "previousOwner",
          "type": "address"
        },
        {
          "indexed": true,
          "internalType": "address",
          "name": "newOwner",
          "type": "address"
        }
      ],
      "name": "OwnershipTransferred",
      "type": "event"
    },
    {
      "anonymous": false,
      "inputs": [
        {
          "indexed": true,
          "internalType": "address",
          "name": "ca",
          "type": "address"
        },
        {
          "indexed": false,
          "internalType": "string",
          "name": "role",
          "type": "string"
        }
      ],
      "name": "RoleAdded",
      "type": "event"
    },
    {
      "anonymous": false,
      "inputs": [
        {
          "indexed": true,
          "internalType": "address",
          "name": "ca",
          "type": "address"
        },
        {
          "indexed": false,
          "internalType": "string",
          "name": "role",
          "type": "string"
        }
      ],
      "name": "RoleRemoved",
      "type": "event"
    },
    {
      "inputs": [
        {
          "internalType": "address[]",
          "name": "_CAs",
          "type": "address[]"
        },
        {
          "internalType": "string",
          "name": "_role",
          "type": "string"
        }
      ],
      "name": "addRole",
      "outputs": [],
      "stateMutability": "nonpayable",
      "type": "function"
    },
    {
      "inputs": [
        {
          "internalType": "address",
          "name": "_CA",
          "type": "address"
        }
      ],
      "name": "checkRegistration",
      "outputs": [
        {
          "internalType": "bool",
          "name": "isRegistered",
          "type": "bool"
        }
      ],
      "stateMutability": "view",
      "type": "function"
    },
    {
      "inputs": [
        {
          "internalType": "string",
          "name": "_topic",
          "type": "string"
        }
      ],
      "name": "getContract",
      "outputs": [
        {
          "internalType": "address",
          "name": "",
          "type": "address"
        }
      ],
      "stateMutability": "view",
      "type": "function"
    },
    {
      "inputs": [
        {
          "internalType": "address",
          "name": "_target",
          "type": "address"
        },
        {
          "internalType": "string",
          "name": "_role",
          "type": "string"
        }
      ],
      "name": "hasRole",
      "outputs": [
        {
          "internalType": "bool",
          "name": "",
          "type": "bool"
        }
      ],
      "stateMutability": "view",
      "type": "function"
    },
    {
      "inputs": [
        {
          "internalType": "string",
          "name": "",
          "type": "string"
        }
      ],
      "name": "indexedContracts",
      "outputs": [
        {
          "internalType": "address",
          "name": "",
          "type": "address"
        }
      ],
      "stateMutability": "view",
      "type": "function"
    },
    {
      "inputs": [],
      "name": "initialize",
      "outputs": [],
      "stateMutability": "nonpayable",
      "type": "function"
    },
    {
      "inputs": [
        {
          "internalType": "address",
          "name": "",
          "type": "address"
        }
      ],
      "name": "managerContracts",
      "outputs": [
        {
          "internalType": "string",
          "name": "topic",
          "type": "string"
        },
        {
          "internalType": "bool",
          "name": "active",
          "type": "bool"
        }
      ],
      "stateMutability": "view",
      "type": "function"
    },
    {
      "inputs": [],
      "name": "owner",
      "outputs": [
        {
          "internalType": "address",
          "name": "",
          "type": "address"
        }
      ],
      "stateMutability": "view",
      "type": "function"
    },
    {
      "inputs": [
        {
          "internalType": "address",
          "name": "_CA",
          "type": "address"
        },
        {
          "internalType": "string",
          "name": "_topic",
          "type": "string"
        }
      ],
      "name": "registerContract",
      "outputs": [],
      "stateMutability": "nonpayable",
      "type": "function"
    },
    {
      "inputs": [
        {
          "internalType": "address[]",
          "name": "_CAs",
          "type": "address[]"
        },
        {
          "internalType": "string[]",
          "name": "_topics",
          "type": "string[]"
        }
      ],
      "name": "registerContractMultiple",
      "outputs": [],
      "stateMutability": "nonpayable",
      "type": "function"
    },
    {
      "inputs": [
        {
          "internalType": "address",
          "name": "_CA",
          "type": "address"
        }
      ],
      "name": "removeContract",
      "outputs": [],
      "stateMutability": "nonpayable",
      "type": "function"
    },
    {
      "inputs": [
        {
          "internalType": "address[]",
          "name": "_CAs",
          "type": "address[]"
        },
        {
          "internalType": "string",
          "name": "_role",
          "type": "string"
        }
      ],
      "name": "removeRole",
      "outputs": [],
      "stateMutability": "nonpayable",
      "type": "function"
    },
    {
      "inputs": [
        {
          "internalType": "address",
          "name": "",
          "type": "address"
        },
        {
          "internalType": "string",
          "name": "",
          "type": "string"
        }
      ],
      "name": "roles",
      "outputs": [
        {
          "internalType": "bool",
          "name": "",
          "type": "bool"
        }
      ],
      "stateMutability": "view",
      "type": "function"
    },
    {
      "inputs": [
        {
          "internalType": "address",
          "name": "newOwner",
          "type": "address"
        }
      ],
      "name": "transferOwnership",
      "outputs": [],
      "stateMutability": "nonpayable",
      "type": "function"
    }
  ],
  "bytecode": "0x608060405234801561001057600080fd5b506122f5806100206000396000f3fe608060405234801561001057600080fd5b50600436106100ea5760003560e01c80638129fc1c1161008c578063cea7839b11610066578063cea7839b14610248578063da23c0d914610278578063e2a4128314610294578063f2fde38b146102c4576100ea565b80638129fc1c146102045780638da5cb5b1461020e578063c375c2ef1461022c576100ea565b80632e1ae02f116100c85780632e1ae02f1461015757806335817773146101885780634a4a15d4146101b85780634c55e3b6146101e8576100ea565b8063054bdbe8146100ef578063217fe6c61461010b57806327cbb43d1461013b575b600080fd5b610109600480360381019061010491906116d7565b6102e0565b005b6101256004803603810190610120919061180c565b610427565b6040516101329190611887565b60405180910390f35b610155600480360381019061015091906118a2565b61049d565b005b610171600480360381019061016c9190611923565b6106ff565b60405161017f9291906119e9565b60405180910390f35b6101a2600480360381019061019d9190611a19565b6107b8565b6040516101af9190611a75565b60405180910390f35b6101d260048036038101906101cd9190611bc0565b610803565b6040516101df9190611887565b60405180910390f35b61020260048036038101906101fd91906118a2565b610848565b005b61020c610ad7565b005b610216610bc3565b6040516102239190611a75565b60405180910390f35b61024660048036038101906102419190611923565b610bed565b005b610262600480360381019061025d9190611c1c565b610ea4565b60405161026f9190611a75565b60405180910390f35b610292600480360381019061028d919061180c565b610eed565b005b6102ae60048036038101906102a99190611923565b6111c6565b6040516102bb9190611887565b60405180910390f35b6102de60048036038101906102d99190611923565b61121f565b005b6102e8611317565b73ffffffffffffffffffffffffffffffffffffffff16610306610bc3565b73ffffffffffffffffffffffffffffffffffffffff161461035c576040517f08c379a000000000000000000000000000000000000000000000000000000000815260040161035390611cb1565b60405180910390fd5b60008484905090508282905085859050146103ac576040517f08c379a00000000000000000000000000000000000000000000000000000000081526004016103a390611d1d565b60405180910390fd5b60005b8181101561041f5761040c8686838181106103cd576103cc611d3d565b5b90506020020160208101906103e29190611923565b8585848181106103f5576103f4611d3d565b5b90506020028101906104079190611d7b565b610eed565b808061041790611e17565b9150506103af565b505050505050565b6000606560008573ffffffffffffffffffffffffffffffffffffffff1673ffffffffffffffffffffffffffffffffffffffff1681526020019081526020016000208383604051610478929190611e90565b908152602001604051809103902060009054906101000a900460ff1690509392505050565b6104a5611317565b73ffffffffffffffffffffffffffffffffffffffff166104c3610bc3565b73ffffffffffffffffffffffffffffffffffffffff1614610519576040517f08c379a000000000000000000000000000000000000000000000000000000000815260040161051090611cb1565b60405180910390fd5b600084849050905060005b818110156105c45761057286868381811061054257610541611d3d565b5b90506020020160208101906105579190611923565b73ffffffffffffffffffffffffffffffffffffffff1661131f565b6105b1576040517f08c379a00000000000000000000000000000000000000000000000000000000081526004016105a890611ef5565b60405180910390fd5b80806105bc90611e17565b915050610524565b5060005b818110156106f7576001606560008888858181106105e9576105e8611d3d565b5b90506020020160208101906105fe9190611923565b73ffffffffffffffffffffffffffffffffffffffff1673ffffffffffffffffffffffffffffffffffffffff1681526020019081526020016000208585604051610648929190611e90565b908152602001604051809103902060006101000a81548160ff0219169083151502179055508585828181106106805761067f611d3d565b5b90506020020160208101906106959190611923565b73ffffffffffffffffffffffffffffffffffffffff167fbfec83d64eaa953f2708271a023ab9ee82057f8f3578d548c1a4ba0b5b70048985856040516106dc929190611f42565b60405180910390a280806106ef90611e17565b9150506105c8565b505050505050565b606660205280600052604060002060009150905080600001805461072290611f95565b80601f016020809104026020016040519081016040528092919081815260200182805461074e90611f95565b801561079b5780601f106107705761010080835404028352916020019161079b565b820191906000526020600020905b81548152906001019060200180831161077e57829003601f168201915b5050505050908060010160009054906101000a900460ff16905082565b6000606783836040516107cc929190611e90565b908152602001604051809103902060009054906101000a900473ffffffffffffffffffffffffffffffffffffffff16905092915050565b6065602052816000526040600020818051602081018201805184825260208301602085012081835280955050505050506000915091509054906101000a900460ff1681565b610850611317565b73ffffffffffffffffffffffffffffffffffffffff1661086e610bc3565b73ffffffffffffffffffffffffffffffffffffffff16146108c4576040517f08c379a00000000000000000000000000000000000000000000000000000000081526004016108bb90611cb1565b60405180910390fd5b600084849050905060005b81811015610acf57606560008787848181106108ee576108ed611d3d565b5b90506020020160208101906109039190611923565b73ffffffffffffffffffffffffffffffffffffffff1673ffffffffffffffffffffffffffffffffffffffff168152602001908152602001600020848460405161094d929190611e90565b908152602001604051809103902060009054906101000a900460ff166109a8576040517f08c379a000000000000000000000000000000000000000000000000000000000815260040161099f90612013565b60405180910390fd5b6000606560008888858181106109c1576109c0611d3d565b5b90506020020160208101906109d69190611923565b73ffffffffffffffffffffffffffffffffffffffff1673ffffffffffffffffffffffffffffffffffffffff1681526020019081526020016000208585604051610a20929190611e90565b908152602001604051809103902060006101000a81548160ff021916908315150217905550858582818110610a5857610a57611d3d565b5b9050602002016020810190610a6d9190611923565b73ffffffffffffffffffffffffffffffffffffffff167fd211483f91fc6eff862467f8de606587a30c8fc9981056f051b897a418df803a8585604051610ab4929190611f42565b60405180910390a28080610ac790611e17565b9150506108cf565b505050505050565b600060019054906101000a900460ff16610aff5760008054906101000a900460ff1615610b08565b610b07611342565b5b610b47576040517f08c379a0000000000000000000000000000000000000000000000000000000008152600401610b3e906120a5565b60405180910390fd5b60008060019054906101000a900460ff161590508015610b97576001600060016101000a81548160ff02191690831515021790555060016000806101000a81548160ff0219169083151502179055505b610b9f611353565b8015610bc05760008060016101000a81548160ff0219169083151502179055505b50565b6000603360009054906101000a900473ffffffffffffffffffffffffffffffffffffffff16905090565b610bf5611317565b73ffffffffffffffffffffffffffffffffffffffff16610c13610bc3565b73ffffffffffffffffffffffffffffffffffffffff1614610c69576040517f08c379a0000000000000000000000000000000000000000000000000000000008152600401610c6090611cb1565b60405180910390fd5b6000606660008373ffffffffffffffffffffffffffffffffffffffff1673ffffffffffffffffffffffffffffffffffffffff1681526020019081526020016000206000018054610cb890611f95565b80601f0160208091040260200160405190810160405280929190818152602001828054610ce490611f95565b8015610d315780601f10610d0657610100808354040283529160200191610d31565b820191906000526020600020905b815481529060010190602001808311610d1457829003601f168201915b50505050509050606660008373ffffffffffffffffffffffffffffffffffffffff1673ffffffffffffffffffffffffffffffffffffffff16815260200190815260200160002060008082016000610d889190611525565b6001820160006101000a81549060ff021916905550508173ffffffffffffffffffffffffffffffffffffffff16606782604051610dc591906120f6565b908152602001604051809103902060009054906101000a900473ffffffffffffffffffffffffffffffffffffffff1673ffffffffffffffffffffffffffffffffffffffff161415610e5257606781604051610e2091906120f6565b908152602001604051809103902060006101000a81549073ffffffffffffffffffffffffffffffffffffffff02191690555b8173ffffffffffffffffffffffffffffffffffffffff167f92b0ab64be8ec5ebb71721486f7d099d1d6dd4223370b8903ed7bc6a5e8fb4c382604051610e98919061210d565b60405180910390a25050565b6067818051602081018201805184825260208301602085012081835280955050505050506000915054906101000a900473ffffffffffffffffffffffffffffffffffffffff1681565b610ef5611317565b73ffffffffffffffffffffffffffffffffffffffff16610f13610bc3565b73ffffffffffffffffffffffffffffffffffffffff1614610f69576040517f08c379a0000000000000000000000000000000000000000000000000000000008152600401610f6090611cb1565b60405180910390fd5b600073ffffffffffffffffffffffffffffffffffffffff168373ffffffffffffffffffffffffffffffffffffffff161415610fd9576040517f08c379a0000000000000000000000000000000000000000000000000000000008152600401610fd09061217b565b60405180910390fd5b610ff88373ffffffffffffffffffffffffffffffffffffffff1661131f565b611037576040517f08c379a000000000000000000000000000000000000000000000000000000000815260040161102e90611ef5565b60405180910390fd5b604051806040016040528083838080601f016020809104026020016040519081016040528093929190818152602001838380828437600081840152601f19601f82011690508083019250505050505050815260200160011515815250606660008573ffffffffffffffffffffffffffffffffffffffff1673ffffffffffffffffffffffffffffffffffffffff16815260200190815260200160002060008201518160000190805190602001906110ee929190611565565b5060208201518160010160006101000a81548160ff0219169083151502179055509050508260678383604051611125929190611e90565b908152602001604051809103902060006101000a81548173ffffffffffffffffffffffffffffffffffffffff021916908373ffffffffffffffffffffffffffffffffffffffff1602179055508273ffffffffffffffffffffffffffffffffffffffff167f02331e3184c8c427ccd13836e43a51af710810d252021bce3e529d9a6d94cd9883836040516111b9929190611f42565b60405180910390a2505050565b6000606660008373ffffffffffffffffffffffffffffffffffffffff1673ffffffffffffffffffffffffffffffffffffffff16815260200190815260200160002060010160009054906101000a900460ff169050919050565b611227611317565b73ffffffffffffffffffffffffffffffffffffffff16611245610bc3565b73ffffffffffffffffffffffffffffffffffffffff161461129b576040517f08c379a000000000000000000000000000000000000000000000000000000000815260040161129290611cb1565b60405180910390fd5b600073ffffffffffffffffffffffffffffffffffffffff168173ffffffffffffffffffffffffffffffffffffffff16141561130b576040517f08c379a00000000000000000000000000000000000000000000000000000000081526004016113029061220d565b60405180910390fd5b611314816113b4565b50565b600033905090565b6000808273ffffffffffffffffffffffffffffffffffffffff163b119050919050565b600061134d3061131f565b15905090565b600060019054906101000a900460ff166113a2576040517f08c379a00000000000000000000000000000000000000000000000000000000081526004016113999061229f565b60405180910390fd5b6113aa61147a565b6113b26114cb565b565b6000603360009054906101000a900473ffffffffffffffffffffffffffffffffffffffff16905081603360006101000a81548173ffffffffffffffffffffffffffffffffffffffff021916908373ffffffffffffffffffffffffffffffffffffffff1602179055508173ffffffffffffffffffffffffffffffffffffffff168173ffffffffffffffffffffffffffffffffffffffff167f8be0079c531659141344cd1fd0a4f28419497f9722a3daafe3b4186f6b6457e060405160405180910390a35050565b600060019054906101000a900460ff166114c9576040517f08c379a00000000000000000000000000000000000000000000000000000000081526004016114c09061229f565b60405180910390fd5b565b600060019054906101000a900460ff1661151a576040517f08c379a00000000000000000000000000000000000000000000000000000000081526004016115119061229f565b60405180910390fd5b611523326113b4565b565b50805461153190611f95565b6000825580601f106115435750611562565b601f01602090049060005260206000209081019061156191906115eb565b5b50565b82805461157190611f95565b90600052602060002090601f01602090048101928261159357600085556115da565b82601f106115ac57805160ff19168380011785556115da565b828001600101855582156115da579182015b828111156115d95782518255916020019190600101906115be565b5b5090506115e791906115eb565b5090565b5b808211156116045760008160009055506001016115ec565b5090565b6000604051905090565b600080fd5b600080fd5b600080fd5b600080fd5b600080fd5b60008083601f8401126116415761164061161c565b5b8235905067ffffffffffffffff81111561165e5761165d611621565b5b60208301915083602082028301111561167a57611679611626565b5b9250929050565b60008083601f8401126116975761169661161c565b5b8235905067ffffffffffffffff8111156116b4576116b3611621565b5b6020830191508360208202830111156116d0576116cf611626565b5b9250929050565b600080600080604085870312156116f1576116f0611612565b5b600085013567ffffffffffffffff81111561170f5761170e611617565b5b61171b8782880161162b565b9450945050602085013567ffffffffffffffff81111561173e5761173d611617565b5b61174a87828801611681565b925092505092959194509250565b600073ffffffffffffffffffffffffffffffffffffffff82169050919050565b600061178382611758565b9050919050565b61179381611778565b811461179e57600080fd5b50565b6000813590506117b08161178a565b92915050565b60008083601f8401126117cc576117cb61161c565b5b8235905067ffffffffffffffff8111156117e9576117e8611621565b5b60208301915083600182028301111561180557611804611626565b5b9250929050565b60008060006040848603121561182557611824611612565b5b6000611833868287016117a1565b935050602084013567ffffffffffffffff81111561185457611853611617565b5b611860868287016117b6565b92509250509250925092565b60008115159050919050565b6118818161186c565b82525050565b600060208201905061189c6000830184611878565b92915050565b600080600080604085870312156118bc576118bb611612565b5b600085013567ffffffffffffffff8111156118da576118d9611617565b5b6118e68782880161162b565b9450945050602085013567ffffffffffffffff81111561190957611908611617565b5b611915878288016117b6565b925092505092959194509250565b60006020828403121561193957611938611612565b5b6000611947848285016117a1565b91505092915050565b600081519050919050565b600082825260208201905092915050565b60005b8381101561198a57808201518184015260208101905061196f565b83811115611999576000848401525b50505050565b6000601f19601f8301169050919050565b60006119bb82611950565b6119c5818561195b565b93506119d581856020860161196c565b6119de8161199f565b840191505092915050565b60006040820190508181036000830152611a0381856119b0565b9050611a126020830184611878565b9392505050565b60008060208385031215611a3057611a2f611612565b5b600083013567ffffffffffffffff811115611a4e57611a4d611617565b5b611a5a858286016117b6565b92509250509250929050565b611a6f81611778565b82525050565b6000602082019050611a8a6000830184611a66565b92915050565b600080fd5b7f4e487b7100000000000000000000000000000000000000000000000000000000600052604160045260246000fd5b611acd8261199f565b810181811067ffffffffffffffff82111715611aec57611aeb611a95565b5b80604052505050565b6000611aff611608565b9050611b0b8282611ac4565b919050565b600067ffffffffffffffff821115611b2b57611b2a611a95565b5b611b348261199f565b9050602081019050919050565b82818337600083830152505050565b6000611b63611b5e84611b10565b611af5565b905082815260208101848484011115611b7f57611b7e611a90565b5b611b8a848285611b41565b509392505050565b600082601f830112611ba757611ba661161c565b5b8135611bb7848260208601611b50565b91505092915050565b60008060408385031215611bd757611bd6611612565b5b6000611be5858286016117a1565b925050602083013567ffffffffffffffff811115611c0657611c05611617565b5b611c1285828601611b92565b9150509250929050565b600060208284031215611c3257611c31611612565b5b600082013567ffffffffffffffff811115611c5057611c4f611617565b5b611c5c84828501611b92565b91505092915050565b7f4f776e61626c653a2063616c6c6572206973206e6f7420746865206f776e6572600082015250565b6000611c9b60208361195b565b9150611ca682611c65565b602082019050919050565b60006020820190508181036000830152611cca81611c8e565b9050919050565b7f4152473100000000000000000000000000000000000000000000000000000000600082015250565b6000611d0760048361195b565b9150611d1282611cd1565b602082019050919050565b60006020820190508181036000830152611d3681611cfa565b9050919050565b7f4e487b7100000000000000000000000000000000000000000000000000000000600052603260045260246000fd5b600080fd5b600080fd5b600080fd5b60008083356001602003843603038112611d9857611d97611d6c565b5b80840192508235915067ffffffffffffffff821115611dba57611db9611d71565b5b602083019250600182023603831315611dd657611dd5611d76565b5b509250929050565b7f4e487b7100000000000000000000000000000000000000000000000000000000600052601160045260246000fd5b6000819050919050565b6000611e2282611e0d565b91507fffffffffffffffffffffffffffffffffffffffffffffffffffffffffffffffff821415611e5557611e54611dde565b5b600182019050919050565b600081905092915050565b6000611e778385611e60565b9350611e84838584611b41565b82840190509392505050565b6000611e9d828486611e6b565b91508190509392505050565b7f4145320000000000000000000000000000000000000000000000000000000000600082015250565b6000611edf60038361195b565b9150611eea82611ea9565b602082019050919050565b60006020820190508181036000830152611f0e81611ed2565b9050919050565b6000611f21838561195b565b9350611f2e838584611b41565b611f378361199f565b840190509392505050565b60006020820190508181036000830152611f5d818486611f15565b90509392505050565b7f4e487b7100000000000000000000000000000000000000000000000000000000600052602260045260246000fd5b60006002820490506001821680611fad57607f821691505b60208210811415611fc157611fc0611f66565b5b50919050565b7f4e58340000000000000000000000000000000000000000000000000000000000600082015250565b6000611ffd60038361195b565b915061200882611fc7565b602082019050919050565b6000602082019050818103600083015261202c81611ff0565b9050919050565b7f496e697469616c697a61626c653a20636f6e747261637420697320616c72656160008201527f647920696e697469616c697a6564000000000000000000000000000000000000602082015250565b600061208f602e8361195b565b915061209a82612033565b604082019050919050565b600060208201905081810360008301526120be81612082565b9050919050565b60006120d082611950565b6120da8185611e60565b93506120ea81856020860161196c565b80840191505092915050565b600061210282846120c5565b915081905092915050565b6000602082019050818103600083015261212781846119b0565b905092915050565b7f4145310000000000000000000000000000000000000000000000000000000000600082015250565b600061216560038361195b565b91506121708261212f565b602082019050919050565b6000602082019050818103600083015261219481612158565b9050919050565b7f4f776e61626c653a206e6577206f776e657220697320746865207a65726f206160008201527f6464726573730000000000000000000000000000000000000000000000000000602082015250565b60006121f760268361195b565b91506122028261219b565b604082019050919050565b60006020820190508181036000830152612226816121ea565b9050919050565b7f496e697469616c697a61626c653a20636f6e7472616374206973206e6f74206960008201527f6e697469616c697a696e67000000000000000000000000000000000000000000602082015250565b6000612289602b8361195b565b91506122948261222d565b604082019050919050565b600060208201905081810360008301526122b88161227c565b905091905056fea264697066735822122032caa3ace4d80d889eaf17fa8a1152a8b8bf6154fab4ee9e054fb7b86f939e8764736f6c634300080a0033",
  "linkReferences": {},
  "deployedLinkReferences": {}
}