{
  "_format": "hh-sol-artifact-1",
  "contractName": "OmnuumVRFManager",
  "sourceName": "contracts/V1/OmnuumVRFManager.sol",
  "abi": [
    {
      "inputs": [
        {
          "internalType": "address",
          "name": "_LINK",
          "type": "address"
        },
        {
          "internalType": "address",
          "name": "_vrf_coord",
          "type": "address"
        },
        {
          "internalType": "bytes32",
          "name": "_key_hash",
          "type": "bytes32"
        },
        {
          "internalType": "uint256",
          "name": "_fee",
          "type": "uint256"
        },
        {
          "internalType": "address",
          "name": "_omnuumCA",
          "type": "address"
        }
      ],
      "stateMutability": "nonpayable",
      "type": "constructor"
    },
    {
      "anonymous": false,
      "inputs": [
        {
          "indexed": true,
          "internalType": "address",
          "name": "previousOwner",
          "type": "address"
        },
        {
          "indexed": true,
          "internalType": "address",
          "name": "newOwner",
          "type": "address"
        }
      ],
      "name": "OwnershipTransferred",
      "type": "event"
    },
    {
      "anonymous": false,
      "inputs": [
        {
          "indexed": true,
          "internalType": "address",
          "name": "roller",
          "type": "address"
        },
        {
          "indexed": true,
          "internalType": "bytes32",
          "name": "requestId",
          "type": "bytes32"
        },
        {
          "indexed": false,
          "internalType": "string",
          "name": "topic",
          "type": "string"
        }
      ],
      "name": "RequestVRF",
      "type": "event"
    },
    {
      "anonymous": false,
      "inputs": [
        {
          "indexed": true,
          "internalType": "bytes32",
          "name": "requestId",
          "type": "bytes32"
        },
        {
          "indexed": false,
          "internalType": "uint256",
          "name": "randomness",
          "type": "uint256"
        },
        {
          "indexed": false,
          "internalType": "string",
          "name": "topic",
          "type": "string"
        },
        {
          "indexed": false,
          "internalType": "bool",
          "name": "success",
          "type": "bool"
        },
        {
          "indexed": false,
          "internalType": "string",
          "name": "reason",
          "type": "string"
        }
      ],
      "name": "ResponseVRF",
      "type": "event"
    },
    {
      "anonymous": false,
      "inputs": [
        {
          "indexed": false,
          "internalType": "uint256",
          "name": "value",
          "type": "uint256"
        },
        {
          "indexed": false,
          "internalType": "string",
          "name": "actionType",
          "type": "string"
        }
      ],
      "name": "Updated",
      "type": "event"
    },
    {
      "inputs": [
        {
          "internalType": "address",
          "name": "",
          "type": "address"
        }
      ],
      "name": "aToId",
      "outputs": [
        {
          "internalType": "bytes32",
          "name": "",
          "type": "bytes32"
        }
      ],
      "stateMutability": "view",
      "type": "function"
    },
    {
      "inputs": [
        {
          "internalType": "bytes32",
          "name": "",
          "type": "bytes32"
        }
      ],
      "name": "idToA",
      "outputs": [
        {
          "internalType": "address",
          "name": "",
          "type": "address"
        }
      ],
      "stateMutability": "view",
      "type": "function"
    },
    {
      "inputs": [
        {
          "internalType": "bytes32",
          "name": "",
          "type": "bytes32"
        }
      ],
      "name": "idToTopic",
      "outputs": [
        {
          "internalType": "string",
          "name": "",
          "type": "string"
        }
      ],
      "stateMutability": "view",
      "type": "function"
    },
    {
      "inputs": [],
      "name": "owner",
      "outputs": [
        {
          "internalType": "address",
          "name": "",
          "type": "address"
        }
      ],
      "stateMutability": "view",
      "type": "function"
    },
    {
      "inputs": [
        {
          "internalType": "bytes32",
          "name": "requestId",
          "type": "bytes32"
        },
        {
          "internalType": "uint256",
          "name": "randomness",
          "type": "uint256"
        }
      ],
      "name": "rawFulfillRandomness",
      "outputs": [],
      "stateMutability": "nonpayable",
      "type": "function"
    },
    {
      "inputs": [
        {
          "internalType": "string",
          "name": "_topic",
          "type": "string"
        }
      ],
      "name": "requestVRF",
      "outputs": [],
      "stateMutability": "payable",
      "type": "function"
    },
    {
      "inputs": [
        {
          "internalType": "address",
          "name": "_targetAddress",
          "type": "address"
        },
        {
          "internalType": "string",
          "name": "_topic",
          "type": "string"
        }
      ],
      "name": "requestVRFOnce",
      "outputs": [],
      "stateMutability": "payable",
      "type": "function"
    },
    {
      "inputs": [],
      "name": "safetyRatio",
      "outputs": [
        {
          "internalType": "uint16",
          "name": "",
          "type": "uint16"
        }
      ],
      "stateMutability": "view",
      "type": "function"
    },
    {
      "inputs": [
        {
          "internalType": "address",
          "name": "newOwner",
          "type": "address"
        }
      ],
      "name": "transferOwnership",
      "outputs": [],
      "stateMutability": "nonpayable",
      "type": "function"
    },
    {
      "inputs": [
        {
          "internalType": "uint256",
          "name": "_fee",
          "type": "uint256"
        }
      ],
      "name": "updateFee",
      "outputs": [],
      "stateMutability": "nonpayable",
      "type": "function"
    },
    {
      "inputs": [
        {
          "internalType": "uint16",
          "name": "_safetyRatio",
          "type": "uint16"
        }
      ],
      "name": "updateSafetyRatio",
      "outputs": [],
      "stateMutability": "nonpayable",
      "type": "function"
    }
  ],
  "bytecode": "0x60c06040526096600660146101000a81548161ffff021916908361ffff1602179055503480156200002f57600080fd5b5060405162002dab38038062002dab833981810160405281019062000055919062000481565b8385620000776200006b620002d560201b60201c565b620002dd60201b60201c565b8173ffffffffffffffffffffffffffffffffffffffff1660a08173ffffffffffffffffffffffffffffffffffffffff16815250508073ffffffffffffffffffffffffffffffffffffffff1660808173ffffffffffffffffffffffffffffffffffffffff16815250505050600073ffffffffffffffffffffffffffffffffffffffff168573ffffffffffffffffffffffffffffffffffffffff16141562000154576040517f08c379a00000000000000000000000000000000000000000000000000000000081526004016200014b906200056a565b60405180910390fd5b600073ffffffffffffffffffffffffffffffffffffffff168473ffffffffffffffffffffffffffffffffffffffff161415620001c7576040517f08c379a0000000000000000000000000000000000000000000000000000000008152600401620001be906200056a565b60405180910390fd5b600073ffffffffffffffffffffffffffffffffffffffff168173ffffffffffffffffffffffffffffffffffffffff1614156200023a576040517f08c379a000000000000000000000000000000000000000000000000000000000815260040162000231906200056a565b60405180910390fd5b84600260006101000a81548173ffffffffffffffffffffffffffffffffffffffff021916908373ffffffffffffffffffffffffffffffffffffffff160217905550826004819055508160038190555080600660006101000a81548173ffffffffffffffffffffffffffffffffffffffff021916908373ffffffffffffffffffffffffffffffffffffffff16021790555050505050506200058c565b600033905090565b60008060009054906101000a900473ffffffffffffffffffffffffffffffffffffffff169050816000806101000a81548173ffffffffffffffffffffffffffffffffffffffff021916908373ffffffffffffffffffffffffffffffffffffffff1602179055508173ffffffffffffffffffffffffffffffffffffffff168173ffffffffffffffffffffffffffffffffffffffff167f8be0079c531659141344cd1fd0a4f28419497f9722a3daafe3b4186f6b6457e060405160405180910390a35050565b600080fd5b600073ffffffffffffffffffffffffffffffffffffffff82169050919050565b6000620003d382620003a6565b9050919050565b620003e581620003c6565b8114620003f157600080fd5b50565b6000815190506200040581620003da565b92915050565b6000819050919050565b62000420816200040b565b81146200042c57600080fd5b50565b600081519050620004408162000415565b92915050565b6000819050919050565b6200045b8162000446565b81146200046757600080fd5b50565b6000815190506200047b8162000450565b92915050565b600080600080600060a08688031215620004a0576200049f620003a1565b5b6000620004b088828901620003f4565b9550506020620004c388828901620003f4565b9450506040620004d6888289016200042f565b9350506060620004e9888289016200046a565b9250506080620004fc88828901620003f4565b9150509295509295909350565b600082825260208201905092915050565b7f4145310000000000000000000000000000000000000000000000000000000000600082015250565b60006200055260038362000509565b91506200055f826200051a565b602082019050919050565b60006020820190508181036000830152620005858162000543565b9050919050565b60805160a0516127e4620005c760003960008181610941015261108901526000818161043b01528181610bdb015261104d01526127e46000f3fe60806040526004361061009c5760003560e01c80638da5cb5b116100645780638da5cb5b1461019d5780639012c4a8146101c857806394985ddd146101f15780639aad28a71461021a578063d3bc396d14610236578063f2fde38b146102615761009c565b80632bb7b4f8146100a1578063382f942f146100de5780633bd13c16146100fa578063496d58591461013757806380f318dc14610160575b600080fd5b3480156100ad57600080fd5b506100c860048036038101906100c39190611662565b61028a565b6040516100d591906116d0565b60405180910390f35b6100f860048036038101906100f39190611750565b6102bd565b005b34801561010657600080fd5b50610121600480360381019061011c9190611662565b610686565b60405161012e9190611836565b60405180910390f35b34801561014357600080fd5b5061015e60048036038101906101599190611892565b610726565b005b34801561016c57600080fd5b50610187600480360381019061018291906118eb565b610841565b6040516101949190611927565b60405180910390f35b3480156101a957600080fd5b506101b2610859565b6040516101bf91906116d0565b60405180910390f35b3480156101d457600080fd5b506101ef60048036038101906101ea9190611978565b610882565b005b3480156101fd57600080fd5b50610218600480360381019061021391906119a5565b61093f565b005b610234600480360381019061022f91906119e5565b6109db565b005b34801561024257600080fd5b5061024b610f3d565b6040516102589190611a54565b60405180910390f35b34801561026d57600080fd5b50610288600480360381019061028391906118eb565b610f51565b005b60086020528060005260406000206000915054906101000a900473ffffffffffffffffffffffffffffffffffffffff1681565b6000600660009054906101000a900473ffffffffffffffffffffffffffffffffffffffff1673ffffffffffffffffffffffffffffffffffffffff1663358177736040518163ffffffff1660e01b815260040161031890611abb565b602060405180830381865afa158015610335573d6000803e3d6000fd5b505050506040513d601f19601f820116820180604052508101906103599190611af0565b9050600660009054906101000a900473ffffffffffffffffffffffffffffffffffffffff1673ffffffffffffffffffffffffffffffffffffffff1663217fe6c6336040518263ffffffff1660e01b81526004016103b69190611b69565b602060405180830381865afa1580156103d3573d6000803e3d6000fd5b505050506040513d601f19601f820116820180604052508101906103f79190611bcf565b610436576040517f08c379a000000000000000000000000000000000000000000000000000000000815260040161042d90611c48565b60405180910390fd5b6003547f000000000000000000000000000000000000000000000000000000000000000073ffffffffffffffffffffffffffffffffffffffff166370a08231836040518263ffffffff1660e01b815260040161049291906116d0565b602060405180830381865afa1580156104af573d6000803e3d6000fd5b505050506040513d601f19601f820116820180604052508101906104d39190611c7d565b1015610514576040517f08c379a000000000000000000000000000000000000000000000000000000000815260040161050b90611cf6565b60405180910390fd5b8073ffffffffffffffffffffffffffffffffffffffff166352a4123447600260009054906101000a900473ffffffffffffffffffffffffffffffffffffffff16600354306040518563ffffffff1660e01b815260040161057693929190611d25565b6000604051808303818588803b15801561058f57600080fd5b505af11580156105a3573d6000803e3d6000fd5b505050505060006105b8600454600354611049565b9050336008600083815260200190815260200160002060006101000a81548173ffffffffffffffffffffffffffffffffffffffff021916908373ffffffffffffffffffffffffffffffffffffffff160217905550838360096000848152602001908152602001600020919061062e929190611575565b50803373ffffffffffffffffffffffffffffffffffffffff167fe3ac54d0bf1fae74dcdea52daff2b2e30be6b61be53eaff78dd612a8b6430c978686604051610678929190611d98565b60405180910390a350505050565b600960205280600052604060002060009150905080546106a590611deb565b80601f01602080910402602001604051908101604052809291908181526020018280546106d190611deb565b801561071e5780601f106106f35761010080835404028352916020019161071e565b820191906000526020600020905b81548152906001019060200180831161070157829003601f168201915b505050505081565b61072e61119b565b73ffffffffffffffffffffffffffffffffffffffff1661074c610859565b73ffffffffffffffffffffffffffffffffffffffff16146107a2576040517f08c379a000000000000000000000000000000000000000000000000000000000815260040161079990611e69565b60405180910390fd5b60648161ffff1610156107ea576040517f08c379a00000000000000000000000000000000000000000000000000000000081526004016107e190611ed5565b60405180910390fd5b80600660146101000a81548161ffff021916908361ffff1602179055507f869eaec8fce459b49878f56773b8620ee220e51e2b9ca34d203a6cb3c73e125f816040516108369190611f7c565b60405180910390a150565b60076020528060005260406000206000915090505481565b60008060009054906101000a900473ffffffffffffffffffffffffffffffffffffffff16905090565b61088a61119b565b73ffffffffffffffffffffffffffffffffffffffff166108a8610859565b73ffffffffffffffffffffffffffffffffffffffff16146108fe576040517f08c379a00000000000000000000000000000000000000000000000000000000081526004016108f590611e69565b60405180910390fd5b806003819055507f869eaec8fce459b49878f56773b8620ee220e51e2b9ca34d203a6cb3c73e125f816040516109349190611ff6565b60405180910390a150565b7f000000000000000000000000000000000000000000000000000000000000000073ffffffffffffffffffffffffffffffffffffffff163373ffffffffffffffffffffffffffffffffffffffff16146109cd576040517f08c379a00000000000000000000000000000000000000000000000000000000081526004016109c490612070565b60405180910390fd5b6109d782826111a3565b5050565b6000600760008573ffffffffffffffffffffffffffffffffffffffff1673ffffffffffffffffffffffffffffffffffffffff1681526020019081526020016000205414610a5d576040517f08c379a0000000000000000000000000000000000000000000000000000000008152600401610a54906120dc565b60405180910390fd5b6000600660009054906101000a900473ffffffffffffffffffffffffffffffffffffffff1673ffffffffffffffffffffffffffffffffffffffff1663358177736040518163ffffffff1660e01b8152600401610ab890611abb565b602060405180830381865afa158015610ad5573d6000803e3d6000fd5b505050506040513d601f19601f82011682018060405250810190610af99190611af0565b9050600660009054906101000a900473ffffffffffffffffffffffffffffffffffffffff1673ffffffffffffffffffffffffffffffffffffffff1663217fe6c6336040518263ffffffff1660e01b8152600401610b569190611b69565b602060405180830381865afa158015610b73573d6000803e3d6000fd5b505050506040513d601f19601f82011682018060405250810190610b979190611bcf565b610bd6576040517f08c379a0000000000000000000000000000000000000000000000000000000008152600401610bcd90611c48565b60405180910390fd5b6003547f000000000000000000000000000000000000000000000000000000000000000073ffffffffffffffffffffffffffffffffffffffff166370a08231836040518263ffffffff1660e01b8152600401610c3291906116d0565b602060405180830381865afa158015610c4f573d6000803e3d6000fd5b505050506040513d601f19601f82011682018060405250810190610c739190611c7d565b1015610cb4576040517f08c379a0000000000000000000000000000000000000000000000000000000008152600401610cab90611cf6565b60405180910390fd5b60008173ffffffffffffffffffffffffffffffffffffffff166395d6fd676000600260009054906101000a900473ffffffffffffffffffffffffffffffffffffffff166003546040518463ffffffff1660e01b8152600401610d18939291906120fc565b602060405180830381865afa158015610d35573d6000803e3d6000fd5b505050506040513d601f19601f82011682018060405250810190610d599190611c7d565b90506064600660149054906101000a900461ffff1661ffff1682610d7d9190612162565b610d8791906121eb565b341015610dc9576040517f08c379a0000000000000000000000000000000000000000000000000000000008152600401610dc090612268565b60405180910390fd5b8173ffffffffffffffffffffffffffffffffffffffff166352a4123447600260009054906101000a900473ffffffffffffffffffffffffffffffffffffffff16600354306040518563ffffffff1660e01b8152600401610e2b93929190611d25565b6000604051808303818588803b158015610e4457600080fd5b505af1158015610e58573d6000803e3d6000fd5b50505050506000610e6d600454600354611049565b9050856008600083815260200190815260200160002060006101000a81548173ffffffffffffffffffffffffffffffffffffffff021916908373ffffffffffffffffffffffffffffffffffffffff1602179055508484600960008481526020019081526020016000209190610ee3929190611575565b50808673ffffffffffffffffffffffffffffffffffffffff167fe3ac54d0bf1fae74dcdea52daff2b2e30be6b61be53eaff78dd612a8b6430c978787604051610f2d929190611d98565b60405180910390a3505050505050565b600660149054906101000a900461ffff1681565b610f5961119b565b73ffffffffffffffffffffffffffffffffffffffff16610f77610859565b73ffffffffffffffffffffffffffffffffffffffff1614610fcd576040517f08c379a0000000000000000000000000000000000000000000000000000000008152600401610fc490611e69565b60405180910390fd5b600073ffffffffffffffffffffffffffffffffffffffff168173ffffffffffffffffffffffffffffffffffffffff16141561103d576040517f08c379a0000000000000000000000000000000000000000000000000000000008152600401611034906122fa565b60405180910390fd5b611046816113d7565b50565b60007f000000000000000000000000000000000000000000000000000000000000000073ffffffffffffffffffffffffffffffffffffffff16634000aea07f0000000000000000000000000000000000000000000000000000000000000000848660006040516020016110bd92919061231a565b6040516020818303038152906040526040518463ffffffff1660e01b81526004016110ea93929190612398565b6020604051808303816000875af1158015611109573d6000803e3d6000fd5b505050506040513d601f19601f8201168201806040525081019061112d9190611bcf565b50600061115084600030600160008981526020019081526020016000205461149b565b905060018060008681526020019081526020016000205461117191906123d6565b600160008681526020019081526020016000208190555061119284826114d7565b91505092915050565b600033905090565b60006008600084815260200190815260200160002060009054906101000a900473ffffffffffffffffffffffffffffffffffffffff1690506000826040516024016111ee919061242c565b6040516020818303038152906040527f88803e85000000000000000000000000000000000000000000000000000000007bffffffffffffffffffffffffffffffffffffffffffffffffffffffff19166020820180517bffffffffffffffffffffffffffffffffffffffffffffffffffffffff838183161783525050505090506000808373ffffffffffffffffffffffffffffffffffffffff16836040516112959190612483565b6000604051808303816000865af19150503d80600081146112d2576040519150601f19603f3d011682016040523d82523d6000602084013e6112d7565b606091505b50915091506000826112f1576112ec8261150a565b611302565b604051806020016040528060008152505b905086600760008773ffffffffffffffffffffffffffffffffffffffff1673ffffffffffffffffffffffffffffffffffffffff168152602001908152602001600020819055506008600088815260200190815260200160002060006101000a81549073ffffffffffffffffffffffffffffffffffffffff0219169055867f53fe9ea66f33edfb97b6dfb7ac5db59ff89e9cee096ca618a1aa83efa69a60f187600960008b815260200190815260200160002086856040516113c6949392919061253e565b60405180910390a250505050505050565b60008060009054906101000a900473ffffffffffffffffffffffffffffffffffffffff169050816000806101000a81548173ffffffffffffffffffffffffffffffffffffffff021916908373ffffffffffffffffffffffffffffffffffffffff1602179055508173ffffffffffffffffffffffffffffffffffffffff168173ffffffffffffffffffffffffffffffffffffffff167f8be0079c531659141344cd1fd0a4f28419497f9722a3daafe3b4186f6b6457e060405160405180910390a35050565b6000848484846040516020016114b49493929190612591565b6040516020818303038152906040528051906020012060001c9050949350505050565b600082826040516020016114ec929190612618565b60405160208183030381529060405280519060200120905092915050565b6060604482511015611553576040518060400160405280601d81526020017f5472616e73616374696f6e2072657665727465642073696c656e746c790000008152509050611570565b6004820191508180602001905181019061156d9190612765565b90505b919050565b82805461158190611deb565b90600052602060002090601f0160209004810192826115a357600085556115ea565b82601f106115bc57803560ff19168380011785556115ea565b828001600101855582156115ea579182015b828111156115e95782358255916020019190600101906115ce565b5b5090506115f791906115fb565b5090565b5b808211156116145760008160009055506001016115fc565b5090565b6000604051905090565b600080fd5b600080fd5b6000819050919050565b61163f8161162c565b811461164a57600080fd5b50565b60008135905061165c81611636565b92915050565b60006020828403121561167857611677611622565b5b60006116868482850161164d565b91505092915050565b600073ffffffffffffffffffffffffffffffffffffffff82169050919050565b60006116ba8261168f565b9050919050565b6116ca816116af565b82525050565b60006020820190506116e560008301846116c1565b92915050565b600080fd5b600080fd5b600080fd5b60008083601f8401126117105761170f6116eb565b5b8235905067ffffffffffffffff81111561172d5761172c6116f0565b5b602083019150836001820283011115611749576117486116f5565b5b9250929050565b6000806020838503121561176757611766611622565b5b600083013567ffffffffffffffff81111561178557611784611627565b5b611791858286016116fa565b92509250509250929050565b600081519050919050565b600082825260208201905092915050565b60005b838110156117d75780820151818401526020810190506117bc565b838111156117e6576000848401525b50505050565b6000601f19601f8301169050919050565b60006118088261179d565b61181281856117a8565b93506118228185602086016117b9565b61182b816117ec565b840191505092915050565b6000602082019050818103600083015261185081846117fd565b905092915050565b600061ffff82169050919050565b61186f81611858565b811461187a57600080fd5b50565b60008135905061188c81611866565b92915050565b6000602082840312156118a8576118a7611622565b5b60006118b68482850161187d565b91505092915050565b6118c8816116af565b81146118d357600080fd5b50565b6000813590506118e5816118bf565b92915050565b60006020828403121561190157611900611622565b5b600061190f848285016118d6565b91505092915050565b6119218161162c565b82525050565b600060208201905061193c6000830184611918565b92915050565b6000819050919050565b61195581611942565b811461196057600080fd5b50565b6000813590506119728161194c565b92915050565b60006020828403121561198e5761198d611622565b5b600061199c84828501611963565b91505092915050565b600080604083850312156119bc576119bb611622565b5b60006119ca8582860161164d565b92505060206119db85828601611963565b9150509250929050565b6000806000604084860312156119fe576119fd611622565b5b6000611a0c868287016118d6565b935050602084013567ffffffffffffffff811115611a2d57611a2c611627565b5b611a39868287016116fa565b92509250509250925092565b611a4e81611858565b82525050565b6000602082019050611a696000830184611a45565b92915050565b7f45584348414e4745000000000000000000000000000000000000000000000000600082015250565b6000611aa56008836117a8565b9150611ab082611a6f565b602082019050919050565b60006020820190508181036000830152611ad481611a98565b9050919050565b600081519050611aea816118bf565b92915050565b600060208284031215611b0657611b05611622565b5b6000611b1484828501611adb565b91505092915050565b7f5652460000000000000000000000000000000000000000000000000000000000600082015250565b6000611b536003836117a8565b9150611b5e82611b1d565b602082019050919050565b6000604082019050611b7e60008301846116c1565b8181036020830152611b8f81611b46565b905092915050565b60008115159050919050565b611bac81611b97565b8114611bb757600080fd5b50565b600081519050611bc981611ba3565b92915050565b600060208284031215611be557611be4611622565b5b6000611bf384828501611bba565b91505092915050565b7f4f4f370000000000000000000000000000000000000000000000000000000000600082015250565b6000611c326003836117a8565b9150611c3d82611bfc565b602082019050919050565b60006020820190508181036000830152611c6181611c25565b9050919050565b600081519050611c778161194c565b92915050565b600060208284031215611c9357611c92611622565b5b6000611ca184828501611c68565b91505092915050565b7f5345370000000000000000000000000000000000000000000000000000000000600082015250565b6000611ce06003836117a8565b9150611ceb82611caa565b602082019050919050565b60006020820190508181036000830152611d0f81611cd3565b9050919050565b611d1f81611942565b82525050565b6000606082019050611d3a60008301866116c1565b611d476020830185611d16565b611d5460408301846116c1565b949350505050565b82818337600083830152505050565b6000611d7783856117a8565b9350611d84838584611d5c565b611d8d836117ec565b840190509392505050565b60006020820190508181036000830152611db3818486611d6b565b90509392505050565b7f4e487b7100000000000000000000000000000000000000000000000000000000600052602260045260246000fd5b60006002820490506001821680611e0357607f821691505b60208210811415611e1757611e16611dbc565b5b50919050565b7f4f776e61626c653a2063616c6c6572206973206e6f7420746865206f776e6572600082015250565b6000611e536020836117a8565b9150611e5e82611e1d565b602082019050919050565b60006020820190508181036000830152611e8281611e46565b9050919050565b7f4e45360000000000000000000000000000000000000000000000000000000000600082015250565b6000611ebf6003836117a8565b9150611eca82611e89565b602082019050919050565b60006020820190508181036000830152611eee81611eb2565b9050919050565b6000819050919050565b6000611f1a611f15611f1084611858565b611ef5565b611942565b9050919050565b611f2a81611eff565b82525050565b7f736166657479526174696f000000000000000000000000000000000000000000600082015250565b6000611f66600b836117a8565b9150611f7182611f30565b602082019050919050565b6000604082019050611f916000830184611f21565b8181036020830152611fa281611f59565b905092915050565b7f7672664665650000000000000000000000000000000000000000000000000000600082015250565b6000611fe06006836117a8565b9150611feb82611faa565b602082019050919050565b600060408201905061200b6000830184611d16565b818103602083015261201c81611fd3565b905092915050565b7f4f6e6c7920565246436f6f7264696e61746f722063616e2066756c66696c6c00600082015250565b600061205a601f836117a8565b915061206582612024565b602082019050919050565b600060208201905081810360008301526120898161204d565b9050919050565b7f5345380000000000000000000000000000000000000000000000000000000000600082015250565b60006120c66003836117a8565b91506120d182612090565b602082019050919050565b600060208201905081810360008301526120f5816120b9565b9050919050565b600060608201905061211160008301866116c1565b61211e60208301856116c1565b61212b6040830184611d16565b949350505050565b7f4e487b7100000000000000000000000000000000000000000000000000000000600052601160045260246000fd5b600061216d82611942565b915061217883611942565b9250817fffffffffffffffffffffffffffffffffffffffffffffffffffffffffffffffff04831182151516156121b1576121b0612133565b5b828202905092915050565b7f4e487b7100000000000000000000000000000000000000000000000000000000600052601260045260246000fd5b60006121f682611942565b915061220183611942565b925082612211576122106121bc565b5b828204905092915050565b7f4152473300000000000000000000000000000000000000000000000000000000600082015250565b60006122526004836117a8565b915061225d8261221c565b602082019050919050565b6000602082019050818103600083015261228181612245565b9050919050565b7f4f776e61626c653a206e6577206f776e657220697320746865207a65726f206160008201527f6464726573730000000000000000000000000000000000000000000000000000602082015250565b60006122e46026836117a8565b91506122ef82612288565b604082019050919050565b60006020820190508181036000830152612313816122d7565b9050919050565b600060408201905061232f6000830185611918565b61233c6020830184611d16565b9392505050565b600081519050919050565b600082825260208201905092915050565b600061236a82612343565b612374818561234e565b93506123848185602086016117b9565b61238d816117ec565b840191505092915050565b60006060820190506123ad60008301866116c1565b6123ba6020830185611d16565b81810360408301526123cc818461235f565b9050949350505050565b60006123e182611942565b91506123ec83611942565b9250827fffffffffffffffffffffffffffffffffffffffffffffffffffffffffffffffff0382111561242157612420612133565b5b828201905092915050565b60006020820190506124416000830184611d16565b92915050565b600081905092915050565b600061245d82612343565b6124678185612447565b93506124778185602086016117b9565b80840191505092915050565b600061248f8284612452565b915081905092915050565b60008190508160005260206000209050919050565b600081546124bc81611deb565b6124c681866117a8565b945060018216600081146124e157600181146124f357612526565b60ff1983168652602086019350612526565b6124fc8561249a565b60005b8381101561251e578154818901526001820191506020810190506124ff565b808801955050505b50505092915050565b61253881611b97565b82525050565b60006080820190506125536000830187611d16565b818103602083015261256581866124af565b9050612574604083018561252f565b818103606083015261258681846117fd565b905095945050505050565b60006080820190506125a66000830187611918565b6125b36020830186611d16565b6125c060408301856116c1565b6125cd6060830184611d16565b95945050505050565b6000819050919050565b6125f16125ec8261162c565b6125d6565b82525050565b6000819050919050565b61261261260d82611942565b6125f7565b82525050565b600061262482856125e0565b6020820191506126348284612601565b6020820191508190509392505050565b600080fd5b7f4e487b7100000000000000000000000000000000000000000000000000000000600052604160045260246000fd5b612681826117ec565b810181811067ffffffffffffffff821117156126a05761269f612649565b5b80604052505050565b60006126b3611618565b90506126bf8282612678565b919050565b600067ffffffffffffffff8211156126df576126de612649565b5b6126e8826117ec565b9050602081019050919050565b6000612708612703846126c4565b6126a9565b90508281526020810184848401111561272457612723612644565b5b61272f8482856117b9565b509392505050565b600082601f83011261274c5761274b6116eb565b5b815161275c8482602086016126f5565b91505092915050565b60006020828403121561277b5761277a611622565b5b600082015167ffffffffffffffff81111561279957612798611627565b5b6127a584828501612737565b9150509291505056fea26469706673582212209d61ce46624275ed08d31925887c972edc74afc0472a514c8eb86677a4689ef764736f6c634300080a0033",
  "linkReferences": {},
  "deployedLinkReferences": {}
}