{
  "_format": "hh-sol-artifact-1",
  "contractName": "MockVrfRequester",
  "sourceName": "contracts/mock/MockVrfRequester.sol",
  "abi": [
    {
      "inputs": [],
      "stateMutability": "nonpayable",
      "type": "constructor"
    },
    {
      "inputs": [
        {
          "internalType": "address",
          "name": "_vrfManager",
          "type": "address"
        }
      ],
      "name": "requestVRF",
      "outputs": [],
      "stateMutability": "payable",
      "type": "function"
    },
    {
      "inputs": [
        {
          "internalType": "address",
          "name": "_vrfManager",
          "type": "address"
        },
        {
          "internalType": "address",
          "name": "_targetAddress",
          "type": "address"
        }
      ],
      "name": "requestVRFOnce",
      "outputs": [],
      "stateMutability": "payable",
      "type": "function"
    }
  ],
  "bytecode": "0x608060405234801561001057600080fd5b50610303806100206000396000f3fe6080604052600436106100295760003560e01c8063da4017891461002e578063ff6f265a1461004a575b600080fd5b610048600480360381019061004391906101a6565b610066565b005b610064600480360381019061005f91906101d3565b6100d3565b005b8073ffffffffffffffffffffffffffffffffffffffff1663382f942f346040518263ffffffff1660e01b815260040161009e90610270565b6000604051808303818588803b1580156100b757600080fd5b505af11580156100cb573d6000803e3d6000fd5b505050505050565b8173ffffffffffffffffffffffffffffffffffffffff16639aad28a734836040518363ffffffff1660e01b815260040161010d919061029f565b6000604051808303818588803b15801561012657600080fd5b505af115801561013a573d6000803e3d6000fd5b50505050505050565b600080fd5b600073ffffffffffffffffffffffffffffffffffffffff82169050919050565b600061017382610148565b9050919050565b61018381610168565b811461018e57600080fd5b50565b6000813590506101a08161017a565b92915050565b6000602082840312156101bc576101bb610143565b5b60006101ca84828501610191565b91505092915050565b600080604083850312156101ea576101e9610143565b5b60006101f885828601610191565b925050602061020985828601610191565b9150509250929050565b600082825260208201905092915050565b7f52455645414c5f50465000000000000000000000000000000000000000000000600082015250565b600061025a600a83610213565b915061026582610224565b602082019050919050565b600060208201905081810360008301526102898161024d565b9050919050565b61029981610168565b82525050565b60006040820190506102b46000830184610290565b81810360208301526102c58161024d565b90509291505056fea2646970667358221220787355cc30fe0bd54da8f0684e3e7807f9d19036f2ddf06a35b9b24d2826c78f64736f6c634300080a0033",
  "linkReferences": {},
  "deployedLinkReferences": {}
}