{
  "_format": "hh-sol-artifact-1",
  "contractName": "GasNFT",
  "sourceName": "contracts/mock/GasNFT.sol",
  "abi": [
    {
      "inputs": [],
      "stateMutability": "nonpayable",
      "type": "constructor"
    },
    {
      "anonymous": false,
      "inputs": [
        {
          "indexed": true,
          "internalType": "address",
          "name": "nft",
          "type": "address"
        },
        {
          "indexed": true,
          "internalType": "address",
          "name": "to",
          "type": "address"
        },
        {
          "indexed": false,
          "internalType": "uint32",
          "name": "quantity",
          "type": "uint32"
        }
      ],
      "name": "Airdrop",
      "type": "event"
    },
    {
      "anonymous": false,
      "inputs": [
        {
          "indexed": true,
          "internalType": "address",
          "name": "account",
          "type": "address"
        },
        {
          "indexed": true,
          "internalType": "address",
          "name": "operator",
          "type": "address"
        },
        {
          "indexed": false,
          "internalType": "bool",
          "name": "approved",
          "type": "bool"
        }
      ],
      "name": "ApprovalForAll",
      "type": "event"
    },
    {
      "anonymous": false,
      "inputs": [
        {
          "indexed": true,
          "internalType": "address",
          "name": "operator",
          "type": "address"
        },
        {
          "indexed": true,
          "internalType": "address",
          "name": "from",
          "type": "address"
        },
        {
          "indexed": true,
          "internalType": "address",
          "name": "to",
          "type": "address"
        },
        {
          "indexed": false,
          "internalType": "uint256[]",
          "name": "ids",
          "type": "uint256[]"
        },
        {
          "indexed": false,
          "internalType": "uint256[]",
          "name": "values",
          "type": "uint256[]"
        }
      ],
      "name": "TransferBatch",
      "type": "event"
    },
    {
      "anonymous": false,
      "inputs": [
        {
          "indexed": true,
          "internalType": "address",
          "name": "operator",
          "type": "address"
        },
        {
          "indexed": true,
          "internalType": "address",
          "name": "from",
          "type": "address"
        },
        {
          "indexed": true,
          "internalType": "address",
          "name": "to",
          "type": "address"
        },
        {
          "indexed": false,
          "internalType": "uint256",
          "name": "id",
          "type": "uint256"
        },
        {
          "indexed": false,
          "internalType": "uint256",
          "name": "value",
          "type": "uint256"
        }
      ],
      "name": "TransferSingle",
      "type": "event"
    },
    {
      "anonymous": false,
      "inputs": [
        {
          "indexed": false,
          "internalType": "string",
          "name": "value",
          "type": "string"
        },
        {
          "indexed": true,
          "internalType": "uint256",
          "name": "id",
          "type": "uint256"
        }
      ],
      "name": "URI",
      "type": "event"
    },
    {
      "inputs": [
        {
          "internalType": "address",
          "name": "account",
          "type": "address"
        },
        {
          "internalType": "uint256",
          "name": "id",
          "type": "uint256"
        }
      ],
      "name": "balanceOf",
      "outputs": [
        {
          "internalType": "uint256",
          "name": "",
          "type": "uint256"
        }
      ],
      "stateMutability": "view",
      "type": "function"
    },
    {
      "inputs": [
        {
          "internalType": "address[]",
          "name": "accounts",
          "type": "address[]"
        },
        {
          "internalType": "uint256[]",
          "name": "ids",
          "type": "uint256[]"
        }
      ],
      "name": "balanceOfBatch",
      "outputs": [
        {
          "internalType": "uint256[]",
          "name": "",
          "type": "uint256[]"
        }
      ],
      "stateMutability": "view",
      "type": "function"
    },
    {
      "inputs": [
        {
          "internalType": "address",
          "name": "account",
          "type": "address"
        },
        {
          "internalType": "address",
          "name": "operator",
          "type": "address"
        }
      ],
      "name": "isApprovedForAll",
      "outputs": [
        {
          "internalType": "bool",
          "name": "",
          "type": "bool"
        }
      ],
      "stateMutability": "view",
      "type": "function"
    },
    {
      "inputs": [
        {
          "internalType": "address",
          "name": "_to",
          "type": "address"
        },
        {
          "internalType": "uint32",
          "name": "_quantity",
          "type": "uint32"
        }
      ],
      "name": "mint",
      "outputs": [],
      "stateMutability": "nonpayable",
      "type": "function"
    },
    {
      "inputs": [
        {
          "internalType": "address[]",
          "name": "_tos",
          "type": "address[]"
        }
      ],
      "name": "mintMultiple",
      "outputs": [],
      "stateMutability": "nonpayable",
      "type": "function"
    },
    {
      "inputs": [
        {
          "internalType": "address[]",
          "name": "_tos",
          "type": "address[]"
        },
        {
          "internalType": "uint32[]",
          "name": "_quantitys",
          "type": "uint32[]"
        }
      ],
      "name": "mintMultiple2",
      "outputs": [],
      "stateMutability": "nonpayable",
      "type": "function"
    },
    {
      "inputs": [
        {
          "internalType": "address",
          "name": "from",
          "type": "address"
        },
        {
          "internalType": "address",
          "name": "to",
          "type": "address"
        },
        {
          "internalType": "uint256[]",
          "name": "ids",
          "type": "uint256[]"
        },
        {
          "internalType": "uint256[]",
          "name": "amounts",
          "type": "uint256[]"
        },
        {
          "internalType": "bytes",
          "name": "data",
          "type": "bytes"
        }
      ],
      "name": "safeBatchTransferFrom",
      "outputs": [],
      "stateMutability": "nonpayable",
      "type": "function"
    },
    {
      "inputs": [
        {
          "internalType": "address",
          "name": "from",
          "type": "address"
        },
        {
          "internalType": "address",
          "name": "to",
          "type": "address"
        },
        {
          "internalType": "uint256",
          "name": "id",
          "type": "uint256"
        },
        {
          "internalType": "uint256",
          "name": "amount",
          "type": "uint256"
        },
        {
          "internalType": "bytes",
          "name": "data",
          "type": "bytes"
        }
      ],
      "name": "safeTransferFrom",
      "outputs": [],
      "stateMutability": "nonpayable",
      "type": "function"
    },
    {
      "inputs": [
        {
          "internalType": "address",
          "name": "operator",
          "type": "address"
        },
        {
          "internalType": "bool",
          "name": "approved",
          "type": "bool"
        }
      ],
      "name": "setApprovalForAll",
      "outputs": [],
      "stateMutability": "nonpayable",
      "type": "function"
    },
    {
      "inputs": [
        {
          "internalType": "bytes4",
          "name": "interfaceId",
          "type": "bytes4"
        }
      ],
      "name": "supportsInterface",
      "outputs": [
        {
          "internalType": "bool",
          "name": "",
          "type": "bool"
        }
      ],
      "stateMutability": "view",
      "type": "function"
    },
    {
      "inputs": [
        {
          "internalType": "uint256",
          "name": "",
          "type": "uint256"
        }
      ],
      "name": "uri",
      "outputs": [
        {
          "internalType": "string",
          "name": "",
          "type": "string"
        }
      ],
      "stateMutability": "view",
      "type": "function"
    }
  ],
  "bytecode": "0x60806040523480156200001157600080fd5b506040518060200160405280600081525062000033816200003a60201b60201c565b506200016b565b80600290805190602001906200005292919062000056565b5050565b828054620000649062000135565b90600052602060002090601f016020900481019282620000885760008555620000d4565b82601f10620000a357805160ff1916838001178555620000d4565b82800160010185558215620000d4579182015b82811115620000d3578251825591602001919060010190620000b6565b5b509050620000e39190620000e7565b5090565b5b8082111562000102576000816000905550600101620000e8565b5090565b7f4e487b7100000000000000000000000000000000000000000000000000000000600052602260045260246000fd5b600060028204905060018216806200014e57607f821691505b6020821081141562000165576200016462000106565b5b50919050565b612da4806200017b6000396000f3fe608060405234801561001057600080fd5b50600436106100a85760003560e01c8063a22cb46511610071578063a22cb46514610189578063d0c79e2e146101a5578063d35e29d7146101c1578063e985e9c5146101dd578063f242432a1461020d578063fe6c8d5814610229576100a8565b8062fdd58e146100ad57806301ffc9a7146100dd5780630e89341c1461010d5780632eb2c2d61461013d5780634e1273f414610159575b600080fd5b6100c760048036038101906100c2919061185a565b610245565b6040516100d491906118a9565b60405180910390f35b6100f760048036038101906100f2919061191c565b61030e565b6040516101049190611964565b60405180910390f35b6101276004803603810190610122919061197f565b6103f0565b6040516101349190611a45565b60405180910390f35b61015760048036038101906101529190611c64565b610484565b005b610173600480360381019061016e9190611df6565b610525565b6040516101809190611f2c565b60405180910390f35b6101a3600480360381019061019e9190611f7a565b61063e565b005b6101bf60048036038101906101ba9190612015565b610654565b005b6101db60048036038101906101d6919061209e565b6106e2565b005b6101f760048036038101906101f291906120de565b610740565b6040516102049190611964565b60405180910390f35b6102276004803603810190610222919061211e565b6107d4565b005b610243600480360381019061023e919061220b565b610875565b005b60008073ffffffffffffffffffffffffffffffffffffffff168373ffffffffffffffffffffffffffffffffffffffff1614156102b6576040517f08c379a00000000000000000000000000000000000000000000000000000000081526004016102ad906122fe565b60405180910390fd5b60008083815260200190815260200160002060008473ffffffffffffffffffffffffffffffffffffffff1673ffffffffffffffffffffffffffffffffffffffff16815260200190815260200160002054905092915050565b60007fd9b67a26000000000000000000000000000000000000000000000000000000007bffffffffffffffffffffffffffffffffffffffffffffffffffffffff1916827bffffffffffffffffffffffffffffffffffffffffffffffffffffffff191614806103d957507f0e89341c000000000000000000000000000000000000000000000000000000007bffffffffffffffffffffffffffffffffffffffffffffffffffffffff1916827bffffffffffffffffffffffffffffffffffffffffffffffffffffffff1916145b806103e957506103e882610a2e565b5b9050919050565b6060600280546103ff9061234d565b80601f016020809104026020016040519081016040528092919081815260200182805461042b9061234d565b80156104785780601f1061044d57610100808354040283529160200191610478565b820191906000526020600020905b81548152906001019060200180831161045b57829003601f168201915b50505050509050919050565b61048c610a98565b73ffffffffffffffffffffffffffffffffffffffff168573ffffffffffffffffffffffffffffffffffffffff1614806104d257506104d1856104cc610a98565b610740565b5b610511576040517f08c379a0000000000000000000000000000000000000000000000000000000008152600401610508906123f1565b60405180910390fd5b61051e8585858585610aa0565b5050505050565b6060815183511461056b576040517f08c379a000000000000000000000000000000000000000000000000000000000815260040161056290612483565b60405180910390fd5b6000835167ffffffffffffffff81111561058857610587611a6c565b5b6040519080825280602002602001820160405280156105b65781602001602082028036833780820191505090505b50905060005b8451811015610633576106038582815181106105db576105da6124a3565b5b60200260200101518583815181106105f6576105f56124a3565b5b6020026020010151610245565b828281518110610616576106156124a3565b5b6020026020010181815250508061062c90612501565b90506105bc565b508091505092915050565b610650610649610a98565b8383610db4565b5050565b600082829050905060005b818163ffffffff1610156106dc576106776003610f21565b6106c984848363ffffffff16818110610693576106926124a3565b5b90506020020160208101906106a8919061254a565b6106b26003610f37565b600160405180602001604052806000815250610f45565b80806106d490612577565b91505061065f565b50505050565b60005b8163ffffffff168163ffffffff16101561073b576107036003610f21565b610728836107116003610f37565b600160405180602001604052806000815250610f45565b808061073390612577565b9150506106e5565b505050565b6000600160008473ffffffffffffffffffffffffffffffffffffffff1673ffffffffffffffffffffffffffffffffffffffff16815260200190815260200160002060008373ffffffffffffffffffffffffffffffffffffffff1673ffffffffffffffffffffffffffffffffffffffff16815260200190815260200160002060009054906101000a900460ff16905092915050565b6107dc610a98565b73ffffffffffffffffffffffffffffffffffffffff168573ffffffffffffffffffffffffffffffffffffffff16148061082257506108218561081c610a98565b610740565b5b610861576040517f08c379a000000000000000000000000000000000000000000000000000000000815260040161085890612616565b60405180910390fd5b61086e85858585856110db565b5050505050565b6000848490509050600080600090505b828110156108db578484828181106108a05761089f6124a3565b5b90506020020160208101906108b59190612636565b63ffffffff16826108c69190612663565b915080806108d390612501565b915050610885565b5060005b828163ffffffff161015610a2557600087878363ffffffff16818110610908576109076124a3565b5b905060200201602081019061091d919061254a565b9050600086868463ffffffff1681811061093a576109396124a3565b5b905060200201602081019061094f9190612636565b90508173ffffffffffffffffffffffffffffffffffffffff163073ffffffffffffffffffffffffffffffffffffffff167f89f1377068ccd5ae92e41f6605f15c4236e3ccf4849053077a0d77221a0076bf836040516109ae91906126c8565b60405180910390a360005b8163ffffffff168163ffffffff161015610a0f576109d76003610f21565b6109fc836109e56003610f37565b600160405180602001604052806000815250610f45565b8080610a0790612577565b9150506109b9565b5050508080610a1d90612577565b9150506108df565b50505050505050565b60007f01ffc9a7000000000000000000000000000000000000000000000000000000007bffffffffffffffffffffffffffffffffffffffffffffffffffffffff1916827bffffffffffffffffffffffffffffffffffffffffffffffffffffffff1916149050919050565b600033905090565b8151835114610ae4576040517f08c379a0000000000000000000000000000000000000000000000000000000008152600401610adb90612755565b60405180910390fd5b600073ffffffffffffffffffffffffffffffffffffffff168473ffffffffffffffffffffffffffffffffffffffff161415610b54576040517f08c379a0000000000000000000000000000000000000000000000000000000008152600401610b4b906127e7565b60405180910390fd5b6000610b5e610a98565b9050610b6e81878787878761135d565b60005b8451811015610d1f576000858281518110610b8f57610b8e6124a3565b5b602002602001015190506000858381518110610bae57610bad6124a3565b5b60200260200101519050600080600084815260200190815260200160002060008b73ffffffffffffffffffffffffffffffffffffffff1673ffffffffffffffffffffffffffffffffffffffff16815260200190815260200160002054905081811015610c4f576040517f08c379a0000000000000000000000000000000000000000000000000000000008152600401610c4690612879565b60405180910390fd5b81810360008085815260200190815260200160002060008c73ffffffffffffffffffffffffffffffffffffffff1673ffffffffffffffffffffffffffffffffffffffff168152602001908152602001600020819055508160008085815260200190815260200160002060008b73ffffffffffffffffffffffffffffffffffffffff1673ffffffffffffffffffffffffffffffffffffffff1681526020019081526020016000206000828254610d049190612663565b9250508190555050505080610d1890612501565b9050610b71565b508473ffffffffffffffffffffffffffffffffffffffff168673ffffffffffffffffffffffffffffffffffffffff168273ffffffffffffffffffffffffffffffffffffffff167f4a39dc06d4c0dbc64b70af90fd698a233a518aa5d07e595d983b8c0526c8f7fb8787604051610d96929190612899565b60405180910390a4610dac818787878787611365565b505050505050565b8173ffffffffffffffffffffffffffffffffffffffff168373ffffffffffffffffffffffffffffffffffffffff161415610e23576040517f08c379a0000000000000000000000000000000000000000000000000000000008152600401610e1a90612942565b60405180910390fd5b80600160008573ffffffffffffffffffffffffffffffffffffffff1673ffffffffffffffffffffffffffffffffffffffff16815260200190815260200160002060008473ffffffffffffffffffffffffffffffffffffffff1673ffffffffffffffffffffffffffffffffffffffff16815260200190815260200160002060006101000a81548160ff0219169083151502179055508173ffffffffffffffffffffffffffffffffffffffff168373ffffffffffffffffffffffffffffffffffffffff167f17307eab39ab6107e8899845ad3d59bd9653f200f220920489ca2b5937696c3183604051610f149190611964565b60405180910390a3505050565b6001816000016000828254019250508190555050565b600081600001549050919050565b600073ffffffffffffffffffffffffffffffffffffffff168473ffffffffffffffffffffffffffffffffffffffff161415610fb5576040517f08c379a0000000000000000000000000000000000000000000000000000000008152600401610fac906129d4565b60405180910390fd5b6000610fbf610a98565b9050610fe081600087610fd18861153d565b610fda8861153d565b8761135d565b8260008086815260200190815260200160002060008773ffffffffffffffffffffffffffffffffffffffff1673ffffffffffffffffffffffffffffffffffffffff168152602001908152602001600020600082825461103f9190612663565b925050819055508473ffffffffffffffffffffffffffffffffffffffff16600073ffffffffffffffffffffffffffffffffffffffff168273ffffffffffffffffffffffffffffffffffffffff167fc3d58168c5ae7397731d063d5bbf3d657854427343f4c083240f7aacaa2d0f6287876040516110bd9291906129f4565b60405180910390a46110d4816000878787876115b7565b5050505050565b600073ffffffffffffffffffffffffffffffffffffffff168473ffffffffffffffffffffffffffffffffffffffff16141561114b576040517f08c379a0000000000000000000000000000000000000000000000000000000008152600401611142906127e7565b60405180910390fd5b6000611155610a98565b90506111758187876111668861153d565b61116f8861153d565b8761135d565b600080600086815260200190815260200160002060008873ffffffffffffffffffffffffffffffffffffffff1673ffffffffffffffffffffffffffffffffffffffff1681526020019081526020016000205490508381101561120c576040517f08c379a000000000000000000000000000000000000000000000000000000000815260040161120390612879565b60405180910390fd5b83810360008087815260200190815260200160002060008973ffffffffffffffffffffffffffffffffffffffff1673ffffffffffffffffffffffffffffffffffffffff168152602001908152602001600020819055508360008087815260200190815260200160002060008873ffffffffffffffffffffffffffffffffffffffff1673ffffffffffffffffffffffffffffffffffffffff16815260200190815260200160002060008282546112c19190612663565b925050819055508573ffffffffffffffffffffffffffffffffffffffff168773ffffffffffffffffffffffffffffffffffffffff168373ffffffffffffffffffffffffffffffffffffffff167fc3d58168c5ae7397731d063d5bbf3d657854427343f4c083240f7aacaa2d0f62888860405161133e9291906129f4565b60405180910390a46113548288888888886115b7565b50505050505050565b505050505050565b6113848473ffffffffffffffffffffffffffffffffffffffff1661178f565b15611535578373ffffffffffffffffffffffffffffffffffffffff1663bc197c8187878686866040518663ffffffff1660e01b81526004016113ca959493929190612a81565b6020604051808303816000875af192505050801561140657506040513d601f19601f820116820180604052508101906114039190612afe565b60015b6114ac57611412612b38565b806308c379a0141561146f5750611427612b5a565b806114325750611471565b806040517f08c379a00000000000000000000000000000000000000000000000000000000081526004016114669190611a45565b60405180910390fd5b505b6040517f08c379a00000000000000000000000000000000000000000000000000000000081526004016114a390612c62565b60405180910390fd5b63bc197c8160e01b7bffffffffffffffffffffffffffffffffffffffffffffffffffffffff1916817bffffffffffffffffffffffffffffffffffffffffffffffffffffffff191614611533576040517f08c379a000000000000000000000000000000000000000000000000000000000815260040161152a90612cf4565b60405180910390fd5b505b505050505050565b60606000600167ffffffffffffffff81111561155c5761155b611a6c565b5b60405190808252806020026020018201604052801561158a5781602001602082028036833780820191505090505b50905082816000815181106115a2576115a16124a3565b5b60200260200101818152505080915050919050565b6115d68473ffffffffffffffffffffffffffffffffffffffff1661178f565b15611787578373ffffffffffffffffffffffffffffffffffffffff1663f23a6e6187878686866040518663ffffffff1660e01b815260040161161c959493929190612d14565b6020604051808303816000875af192505050801561165857506040513d601f19601f820116820180604052508101906116559190612afe565b60015b6116fe57611664612b38565b806308c379a014156116c15750611679612b5a565b8061168457506116c3565b806040517f08c379a00000000000000000000000000000000000000000000000000000000081526004016116b89190611a45565b60405180910390fd5b505b6040517f08c379a00000000000000000000000000000000000000000000000000000000081526004016116f590612c62565b60405180910390fd5b63f23a6e6160e01b7bffffffffffffffffffffffffffffffffffffffffffffffffffffffff1916817bffffffffffffffffffffffffffffffffffffffffffffffffffffffff191614611785576040517f08c379a000000000000000000000000000000000000000000000000000000000815260040161177c90612cf4565b60405180910390fd5b505b505050505050565b6000808273ffffffffffffffffffffffffffffffffffffffff163b119050919050565b6000604051905090565b600080fd5b600080fd5b600073ffffffffffffffffffffffffffffffffffffffff82169050919050565b60006117f1826117c6565b9050919050565b611801816117e6565b811461180c57600080fd5b50565b60008135905061181e816117f8565b92915050565b6000819050919050565b61183781611824565b811461184257600080fd5b50565b6000813590506118548161182e565b92915050565b60008060408385031215611871576118706117bc565b5b600061187f8582860161180f565b925050602061189085828601611845565b9150509250929050565b6118a381611824565b82525050565b60006020820190506118be600083018461189a565b92915050565b60007fffffffff0000000000000000000000000000000000000000000000000000000082169050919050565b6118f9816118c4565b811461190457600080fd5b50565b600081359050611916816118f0565b92915050565b600060208284031215611932576119316117bc565b5b600061194084828501611907565b91505092915050565b60008115159050919050565b61195e81611949565b82525050565b60006020820190506119796000830184611955565b92915050565b600060208284031215611995576119946117bc565b5b60006119a384828501611845565b91505092915050565b600081519050919050565b600082825260208201905092915050565b60005b838110156119e65780820151818401526020810190506119cb565b838111156119f5576000848401525b50505050565b6000601f19601f8301169050919050565b6000611a17826119ac565b611a2181856119b7565b9350611a318185602086016119c8565b611a3a816119fb565b840191505092915050565b60006020820190508181036000830152611a5f8184611a0c565b905092915050565b600080fd5b7f4e487b7100000000000000000000000000000000000000000000000000000000600052604160045260246000fd5b611aa4826119fb565b810181811067ffffffffffffffff82111715611ac357611ac2611a6c565b5b80604052505050565b6000611ad66117b2565b9050611ae28282611a9b565b919050565b600067ffffffffffffffff821115611b0257611b01611a6c565b5b602082029050602081019050919050565b600080fd5b6000611b2b611b2684611ae7565b611acc565b90508083825260208201905060208402830185811115611b4e57611b4d611b13565b5b835b81811015611b775780611b638882611845565b845260208401935050602081019050611b50565b5050509392505050565b600082601f830112611b9657611b95611a67565b5b8135611ba6848260208601611b18565b91505092915050565b600080fd5b600067ffffffffffffffff821115611bcf57611bce611a6c565b5b611bd8826119fb565b9050602081019050919050565b82818337600083830152505050565b6000611c07611c0284611bb4565b611acc565b905082815260208101848484011115611c2357611c22611baf565b5b611c2e848285611be5565b509392505050565b600082601f830112611c4b57611c4a611a67565b5b8135611c5b848260208601611bf4565b91505092915050565b600080600080600060a08688031215611c8057611c7f6117bc565b5b6000611c8e8882890161180f565b9550506020611c9f8882890161180f565b945050604086013567ffffffffffffffff811115611cc057611cbf6117c1565b5b611ccc88828901611b81565b935050606086013567ffffffffffffffff811115611ced57611cec6117c1565b5b611cf988828901611b81565b925050608086013567ffffffffffffffff811115611d1a57611d196117c1565b5b611d2688828901611c36565b9150509295509295909350565b600067ffffffffffffffff821115611d4e57611d4d611a6c565b5b602082029050602081019050919050565b6000611d72611d6d84611d33565b611acc565b90508083825260208201905060208402830185811115611d9557611d94611b13565b5b835b81811015611dbe5780611daa888261180f565b845260208401935050602081019050611d97565b5050509392505050565b600082601f830112611ddd57611ddc611a67565b5b8135611ded848260208601611d5f565b91505092915050565b60008060408385031215611e0d57611e0c6117bc565b5b600083013567ffffffffffffffff811115611e2b57611e2a6117c1565b5b611e3785828601611dc8565b925050602083013567ffffffffffffffff811115611e5857611e576117c1565b5b611e6485828601611b81565b9150509250929050565b600081519050919050565b600082825260208201905092915050565b6000819050602082019050919050565b611ea381611824565b82525050565b6000611eb58383611e9a565b60208301905092915050565b6000602082019050919050565b6000611ed982611e6e565b611ee38185611e79565b9350611eee83611e8a565b8060005b83811015611f1f578151611f068882611ea9565b9750611f1183611ec1565b925050600181019050611ef2565b5085935050505092915050565b60006020820190508181036000830152611f468184611ece565b905092915050565b611f5781611949565b8114611f6257600080fd5b50565b600081359050611f7481611f4e565b92915050565b60008060408385031215611f9157611f906117bc565b5b6000611f9f8582860161180f565b9250506020611fb085828601611f65565b9150509250929050565b600080fd5b60008083601f840112611fd557611fd4611a67565b5b8235905067ffffffffffffffff811115611ff257611ff1611fba565b5b60208301915083602082028301111561200e5761200d611b13565b5b9250929050565b6000806020838503121561202c5761202b6117bc565b5b600083013567ffffffffffffffff81111561204a576120496117c1565b5b61205685828601611fbf565b92509250509250929050565b600063ffffffff82169050919050565b61207b81612062565b811461208657600080fd5b50565b60008135905061209881612072565b92915050565b600080604083850312156120b5576120b46117bc565b5b60006120c38582860161180f565b92505060206120d485828601612089565b9150509250929050565b600080604083850312156120f5576120f46117bc565b5b60006121038582860161180f565b92505060206121148582860161180f565b9150509250929050565b600080600080600060a0868803121561213a576121396117bc565b5b60006121488882890161180f565b95505060206121598882890161180f565b945050604061216a88828901611845565b935050606061217b88828901611845565b925050608086013567ffffffffffffffff81111561219c5761219b6117c1565b5b6121a888828901611c36565b9150509295509295909350565b60008083601f8401126121cb576121ca611a67565b5b8235905067ffffffffffffffff8111156121e8576121e7611fba565b5b60208301915083602082028301111561220457612203611b13565b5b9250929050565b60008060008060408587031215612225576122246117bc565b5b600085013567ffffffffffffffff811115612243576122426117c1565b5b61224f87828801611fbf565b9450945050602085013567ffffffffffffffff811115612272576122716117c1565b5b61227e878288016121b5565b925092505092959194509250565b7f455243313135353a2062616c616e636520717565727920666f7220746865207a60008201527f65726f2061646472657373000000000000000000000000000000000000000000602082015250565b60006122e8602b836119b7565b91506122f38261228c565b604082019050919050565b60006020820190508181036000830152612317816122db565b9050919050565b7f4e487b7100000000000000000000000000000000000000000000000000000000600052602260045260246000fd5b6000600282049050600182168061236557607f821691505b602082108114156123795761237861231e565b5b50919050565b7f455243313135353a207472616e736665722063616c6c6572206973206e6f742060008201527f6f776e6572206e6f7220617070726f7665640000000000000000000000000000602082015250565b60006123db6032836119b7565b91506123e68261237f565b604082019050919050565b6000602082019050818103600083015261240a816123ce565b9050919050565b7f455243313135353a206163636f756e747320616e6420696473206c656e67746860008201527f206d69736d617463680000000000000000000000000000000000000000000000602082015250565b600061246d6029836119b7565b915061247882612411565b604082019050919050565b6000602082019050818103600083015261249c81612460565b9050919050565b7f4e487b7100000000000000000000000000000000000000000000000000000000600052603260045260246000fd5b7f4e487b7100000000000000000000000000000000000000000000000000000000600052601160045260246000fd5b600061250c82611824565b91507fffffffffffffffffffffffffffffffffffffffffffffffffffffffffffffffff82141561253f5761253e6124d2565b5b600182019050919050565b6000602082840312156125605761255f6117bc565b5b600061256e8482850161180f565b91505092915050565b600061258282612062565b915063ffffffff821415612599576125986124d2565b5b600182019050919050565b7f455243313135353a2063616c6c6572206973206e6f74206f776e6572206e6f7260008201527f20617070726f7665640000000000000000000000000000000000000000000000602082015250565b60006126006029836119b7565b915061260b826125a4565b604082019050919050565b6000602082019050818103600083015261262f816125f3565b9050919050565b60006020828403121561264c5761264b6117bc565b5b600061265a84828501612089565b91505092915050565b600061266e82611824565b915061267983611824565b9250827fffffffffffffffffffffffffffffffffffffffffffffffffffffffffffffffff038211156126ae576126ad6124d2565b5b828201905092915050565b6126c281612062565b82525050565b60006020820190506126dd60008301846126b9565b92915050565b7f455243313135353a2069647320616e6420616d6f756e7473206c656e6774682060008201527f6d69736d61746368000000000000000000000000000000000000000000000000602082015250565b600061273f6028836119b7565b915061274a826126e3565b604082019050919050565b6000602082019050818103600083015261276e81612732565b9050919050565b7f455243313135353a207472616e7366657220746f20746865207a65726f20616460008201527f6472657373000000000000000000000000000000000000000000000000000000602082015250565b60006127d16025836119b7565b91506127dc82612775565b604082019050919050565b60006020820190508181036000830152612800816127c4565b9050919050565b7f455243313135353a20696e73756666696369656e742062616c616e636520666f60008201527f72207472616e7366657200000000000000000000000000000000000000000000602082015250565b6000612863602a836119b7565b915061286e82612807565b604082019050919050565b6000602082019050818103600083015261289281612856565b9050919050565b600060408201905081810360008301526128b38185611ece565b905081810360208301526128c78184611ece565b90509392505050565b7f455243313135353a2073657474696e6720617070726f76616c2073746174757360008201527f20666f722073656c660000000000000000000000000000000000000000000000602082015250565b600061292c6029836119b7565b9150612937826128d0565b604082019050919050565b6000602082019050818103600083015261295b8161291f565b9050919050565b7f455243313135353a206d696e7420746f20746865207a65726f2061646472657360008201527f7300000000000000000000000000000000000000000000000000000000000000602082015250565b60006129be6021836119b7565b91506129c982612962565b604082019050919050565b600060208201905081810360008301526129ed816129b1565b9050919050565b6000604082019050612a09600083018561189a565b612a16602083018461189a565b9392505050565b612a26816117e6565b82525050565b600081519050919050565b600082825260208201905092915050565b6000612a5382612a2c565b612a5d8185612a37565b9350612a6d8185602086016119c8565b612a76816119fb565b840191505092915050565b600060a082019050612a966000830188612a1d565b612aa36020830187612a1d565b8181036040830152612ab58186611ece565b90508181036060830152612ac98185611ece565b90508181036080830152612add8184612a48565b90509695505050505050565b600081519050612af8816118f0565b92915050565b600060208284031215612b1457612b136117bc565b5b6000612b2284828501612ae9565b91505092915050565b60008160e01c9050919050565b600060033d1115612b575760046000803e612b54600051612b2b565b90505b90565b600060443d1015612b6a57612bed565b612b726117b2565b60043d036004823e80513d602482011167ffffffffffffffff82111715612b9a575050612bed565b808201805167ffffffffffffffff811115612bb85750505050612bed565b80602083010160043d038501811115612bd5575050505050612bed565b612be482602001850186611a9b565b82955050505050505b90565b7f455243313135353a207472616e7366657220746f206e6f6e204552433131353560008201527f526563656976657220696d706c656d656e746572000000000000000000000000602082015250565b6000612c4c6034836119b7565b9150612c5782612bf0565b604082019050919050565b60006020820190508181036000830152612c7b81612c3f565b9050919050565b7f455243313135353a204552433131353552656365697665722072656a6563746560008201527f6420746f6b656e73000000000000000000000000000000000000000000000000602082015250565b6000612cde6028836119b7565b9150612ce982612c82565b604082019050919050565b60006020820190508181036000830152612d0d81612cd1565b9050919050565b600060a082019050612d296000830188612a1d565b612d366020830187612a1d565b612d43604083018661189a565b612d50606083018561189a565b8181036080830152612d628184612a48565b9050969550505050505056fea264697066735822122052b9f2fe74afa4d1d4e4000e10c55cc20cf4e691e3866966be9c5fc3728cb06e64736f6c634300080a0033",
  "linkReferences": {},
  "deployedLinkReferences": {}
}