{
  "_format": "hh-sol-artifact-1",
  "contractName": "SenderVerifier",
  "sourceName": "contracts/V1/SenderVerifier.sol",
  "abi": [
    {
      "inputs": [],
      "stateMutability": "nonpayable",
      "type": "constructor"
    },
    {
      "inputs": [
        {
          "internalType": "address",
          "name": "_owner",
          "type": "address"
        },
        {
          "internalType": "address",
          "name": "_sender",
          "type": "address"
        },
        {
          "internalType": "string",
          "name": "_topic",
          "type": "string"
        },
        {
          "internalType": "uint256",
          "name": "_nonce",
          "type": "uint256"
        },
        {
          "components": [
            {
              "internalType": "address",
              "name": "sender",
              "type": "address"
            },
            {
              "internalType": "string",
              "name": "topic",
              "type": "string"
            },
            {
              "internalType": "uint256",
              "name": "nonce",
              "type": "uint256"
            },
            {
              "internalType": "bytes",
              "name": "signature",
              "type": "bytes"
            }
          ],
          "internalType": "struct SenderVerifier.Payload",
          "name": "_payload",
          "type": "tuple"
        }
      ],
      "name": "verify",
      "outputs": [],
      "stateMutability": "view",
      "type": "function"
    }
  ],
  "bytecode": "0x6101406040523480156200001257600080fd5b506040518060400160405280600681526020017f4f6d6e75756d00000000000000000000000000000000000000000000000000008152506040518060400160405280600181526020017f310000000000000000000000000000000000000000000000000000000000000081525060008280519060200120905060008280519060200120905060007f8b73c3c69bb8fe3d512ecc4cf759cc79239f7b179b0ffacaa9a75d522b39400f90508260e081815250508161010081815250504660a08181525050620000e88184846200013760201b60201c565b608081815250503073ffffffffffffffffffffffffffffffffffffffff1660c08173ffffffffffffffffffffffffffffffffffffffff168152505080610120818152505050505050506200024b565b6000838383463060405160200162000154959493929190620001ee565b6040516020818303038152906040528051906020012090509392505050565b6000819050919050565b620001888162000173565b82525050565b6000819050919050565b620001a3816200018e565b82525050565b600073ffffffffffffffffffffffffffffffffffffffff82169050919050565b6000620001d682620001a9565b9050919050565b620001e881620001c9565b82525050565b600060a0820190506200020560008301886200017d565b6200021460208301876200017d565b6200022360408301866200017d565b62000232606083018562000198565b620002416080830184620001dd565b9695505050505050565b60805160a05160c05160e05161010051610120516112c86200029b6000396000610688015260006106ca015260006106a9015260006105de015260006106340152600061065d01526112c86000f3fe608060405234801561001057600080fd5b506004361061002b5760003560e01c80638f2c6a8014610030575b600080fd5b61004a600480360381019061004591906109f4565b61004c565b005b600061005782610236565b90508073ffffffffffffffffffffffffffffffffffffffff168773ffffffffffffffffffffffffffffffffffffffff16146100c7576040517f08c379a00000000000000000000000000000000000000000000000000000000081526004016100be90610b07565b60405180910390fd5b8160400135831461010d576040517f08c379a000000000000000000000000000000000000000000000000000000000815260040161010490610b73565b60405180910390fd5b8484604051602001610120929190610bd2565b604051602081830303815290604052805190602001208280602001906101469190610bfa565b604051602001610157929190610bd2565b60405160208183030381529060405280519060200120146101ad576040517f08c379a00000000000000000000000000000000000000000000000000000000081526004016101a490610ca9565b60405180910390fd5b8573ffffffffffffffffffffffffffffffffffffffff168260000160208101906101d79190610cc9565b73ffffffffffffffffffffffffffffffffffffffff161461022d576040517f08c379a000000000000000000000000000000000000000000000000000000000815260040161022490610d42565b60405180910390fd5b50505050505050565b600080610242836102a8565b90506102a0818480606001906102589190610d62565b8080601f016020809104026020016040519081016040528093929190818152602001838380828437600081840152601f19601f82011690508083019250505050505050610341565b915050919050565b600061033a7f944e9f0d0ad2a888b6a776d1ab89c772c4b36311baa44d64182d272dfe9ce6848360000160208101906102e19190610cc9565b8480602001906102f19190610bfa565b6040516102ff929190610df5565b6040518091039020856040013560405160200161031f9493929190610e45565b60405160208183030381529060405280519060200120610368565b9050919050565b60008060006103508585610382565b9150915061035d81610405565b819250505092915050565b600061037b6103756105da565b836106f4565b9050919050565b6000806041835114156103c45760008060006020860151925060408601519150606086015160001a90506103b887828585610727565b945094505050506103fe565b6040835114156103f55760008060208501519150604085015190506103ea868383610834565b9350935050506103fe565b60006002915091505b9250929050565b6000600481111561041957610418610e8a565b5b81600481111561042c5761042b610e8a565b5b1415610437576105d7565b6001600481111561044b5761044a610e8a565b5b81600481111561045e5761045d610e8a565b5b141561049f576040517f08c379a000000000000000000000000000000000000000000000000000000000815260040161049690610f05565b60405180910390fd5b600260048111156104b3576104b2610e8a565b5b8160048111156104c6576104c5610e8a565b5b1415610507576040517f08c379a00000000000000000000000000000000000000000000000000000000081526004016104fe90610f71565b60405180910390fd5b6003600481111561051b5761051a610e8a565b5b81600481111561052e5761052d610e8a565b5b141561056f576040517f08c379a000000000000000000000000000000000000000000000000000000000815260040161056690611003565b60405180910390fd5b60048081111561058257610581610e8a565b5b81600481111561059557610594610e8a565b5b14156105d6576040517f08c379a00000000000000000000000000000000000000000000000000000000081526004016105cd90611095565b60405180910390fd5b5b50565b60007f000000000000000000000000000000000000000000000000000000000000000073ffffffffffffffffffffffffffffffffffffffff163073ffffffffffffffffffffffffffffffffffffffff1614801561065657507f000000000000000000000000000000000000000000000000000000000000000046145b15610683577f000000000000000000000000000000000000000000000000000000000000000090506106f1565b6106ee7f00000000000000000000000000000000000000000000000000000000000000007f00000000000000000000000000000000000000000000000000000000000000007f0000000000000000000000000000000000000000000000000000000000000000610893565b90505b90565b60008282604051602001610709929190611122565b60405160208183030381529060405280519060200120905092915050565b6000807f7fffffffffffffffffffffffffffffff5d576e7357a4501ddfe92f46681b20a08360001c111561076257600060039150915061082b565b601b8560ff161415801561077a5750601c8560ff1614155b1561078c57600060049150915061082b565b6000600187878787604051600081526020016040526040516107b19493929190611175565b6020604051602081039080840390855afa1580156107d3573d6000803e3d6000fd5b505050602060405103519050600073ffffffffffffffffffffffffffffffffffffffff168173ffffffffffffffffffffffffffffffffffffffff1614156108225760006001925092505061082b565b80600092509250505b94509492505050565b60008060007f7fffffffffffffffffffffffffffffffffffffffffffffffffffffffffffffff60001b841690506000601b60ff8660001c901c61087791906111e9565b905061088587828885610727565b935093505050935093915050565b600083838346306040516020016108ae95949392919061123f565b6040516020818303038152906040528051906020012090509392505050565b600080fd5b600080fd5b600073ffffffffffffffffffffffffffffffffffffffff82169050919050565b6000610902826108d7565b9050919050565b610912816108f7565b811461091d57600080fd5b50565b60008135905061092f81610909565b92915050565b600080fd5b600080fd5b600080fd5b60008083601f84011261095a57610959610935565b5b8235905067ffffffffffffffff8111156109775761097661093a565b5b6020830191508360018202830111156109935761099261093f565b5b9250929050565b6000819050919050565b6109ad8161099a565b81146109b857600080fd5b50565b6000813590506109ca816109a4565b92915050565b600080fd5b6000608082840312156109eb576109ea6109d0565b5b81905092915050565b60008060008060008060a08789031215610a1157610a106108cd565b5b6000610a1f89828a01610920565b9650506020610a3089828a01610920565b955050604087013567ffffffffffffffff811115610a5157610a506108d2565b5b610a5d89828a01610944565b94509450506060610a7089828a016109bb565b925050608087013567ffffffffffffffff811115610a9157610a906108d2565b5b610a9d89828a016109d5565b9150509295509295509295565b600082825260208201905092915050565b7f5652310000000000000000000000000000000000000000000000000000000000600082015250565b6000610af1600383610aaa565b9150610afc82610abb565b602082019050919050565b60006020820190508181036000830152610b2081610ae4565b9050919050565b7f5652320000000000000000000000000000000000000000000000000000000000600082015250565b6000610b5d600383610aaa565b9150610b6882610b27565b602082019050919050565b60006020820190508181036000830152610b8c81610b50565b9050919050565b600081905092915050565b82818337600083830152505050565b6000610bb98385610b93565b9350610bc6838584610b9e565b82840190509392505050565b6000610bdf828486610bad565b91508190509392505050565b600080fd5b600080fd5b600080fd5b60008083356001602003843603038112610c1757610c16610beb565b5b80840192508235915067ffffffffffffffff821115610c3957610c38610bf0565b5b602083019250600182023603831315610c5557610c54610bf5565b5b509250929050565b7f5652330000000000000000000000000000000000000000000000000000000000600082015250565b6000610c93600383610aaa565b9150610c9e82610c5d565b602082019050919050565b60006020820190508181036000830152610cc281610c86565b9050919050565b600060208284031215610cdf57610cde6108cd565b5b6000610ced84828501610920565b91505092915050565b7f5652340000000000000000000000000000000000000000000000000000000000600082015250565b6000610d2c600383610aaa565b9150610d3782610cf6565b602082019050919050565b60006020820190508181036000830152610d5b81610d1f565b9050919050565b60008083356001602003843603038112610d7f57610d7e610beb565b5b80840192508235915067ffffffffffffffff821115610da157610da0610bf0565b5b602083019250600182023603831315610dbd57610dbc610bf5565b5b509250929050565b600081905092915050565b6000610ddc8385610dc5565b9350610de9838584610b9e565b82840190509392505050565b6000610e02828486610dd0565b91508190509392505050565b6000819050919050565b610e2181610e0e565b82525050565b610e30816108f7565b82525050565b610e3f8161099a565b82525050565b6000608082019050610e5a6000830187610e18565b610e676020830186610e27565b610e746040830185610e18565b610e816060830184610e36565b95945050505050565b7f4e487b7100000000000000000000000000000000000000000000000000000000600052602160045260246000fd5b7f45434453413a20696e76616c6964207369676e61747572650000000000000000600082015250565b6000610eef601883610aaa565b9150610efa82610eb9565b602082019050919050565b60006020820190508181036000830152610f1e81610ee2565b9050919050565b7f45434453413a20696e76616c6964207369676e6174757265206c656e67746800600082015250565b6000610f5b601f83610aaa565b9150610f6682610f25565b602082019050919050565b60006020820190508181036000830152610f8a81610f4e565b9050919050565b7f45434453413a20696e76616c6964207369676e6174757265202773272076616c60008201527f7565000000000000000000000000000000000000000000000000000000000000602082015250565b6000610fed602283610aaa565b9150610ff882610f91565b604082019050919050565b6000602082019050818103600083015261101c81610fe0565b9050919050565b7f45434453413a20696e76616c6964207369676e6174757265202776272076616c60008201527f7565000000000000000000000000000000000000000000000000000000000000602082015250565b600061107f602283610aaa565b915061108a82611023565b604082019050919050565b600060208201905081810360008301526110ae81611072565b9050919050565b7f1901000000000000000000000000000000000000000000000000000000000000600082015250565b60006110eb600283610b93565b91506110f6826110b5565b600282019050919050565b6000819050919050565b61111c61111782610e0e565b611101565b82525050565b600061112d826110de565b9150611139828561110b565b602082019150611149828461110b565b6020820191508190509392505050565b600060ff82169050919050565b61116f81611159565b82525050565b600060808201905061118a6000830187610e18565b6111976020830186611166565b6111a46040830185610e18565b6111b16060830184610e18565b95945050505050565b7f4e487b7100000000000000000000000000000000000000000000000000000000600052601160045260246000fd5b60006111f48261099a565b91506111ff8361099a565b9250827fffffffffffffffffffffffffffffffffffffffffffffffffffffffffffffffff03821115611234576112336111ba565b5b828201905092915050565b600060a0820190506112546000830188610e18565b6112616020830187610e18565b61126e6040830186610e18565b61127b6060830185610e36565b6112886080830184610e27565b969550505050505056fea26469706673582212209003596892b840916694e3216f8bda3b6abc9f10d21d686400d00ce65fd3c87364736f6c634300080a0033",
  "linkReferences": {},
  "deployedLinkReferences": {}
}