{
  "_format": "hh-sol-artifact-1",
  "contractName": "MockExchange",
  "sourceName": "contracts/mock/MockExchange.sol",
  "abi": [
    {
      "inputs": [
        {
          "internalType": "address",
          "name": "_exchangeCA",
          "type": "address"
        },
        {
          "internalType": "address",
          "name": "_token",
          "type": "address"
        },
        {
          "internalType": "uint256",
          "name": "_amount",
          "type": "uint256"
        },
        {
          "internalType": "address",
          "name": "_to",
          "type": "address"
        }
      ],
      "name": "exchangeToken",
      "outputs": [],
      "stateMutability": "payable",
      "type": "function"
    }
  ],
  "bytecode": "0x608060405234801561001057600080fd5b50610240806100206000396000f3fe60806040526004361061001e5760003560e01c8063c788182114610023575b600080fd5b61003d6004803603810190610038919061014e565b61003f565b005b8373ffffffffffffffffffffffffffffffffffffffff166352a41234348585856040518563ffffffff1660e01b815260040161007d939291906101d3565b6000604051808303818588803b15801561009657600080fd5b505af11580156100aa573d6000803e3d6000fd5b505050505050505050565b600080fd5b600073ffffffffffffffffffffffffffffffffffffffff82169050919050565b60006100e5826100ba565b9050919050565b6100f5816100da565b811461010057600080fd5b50565b600081359050610112816100ec565b92915050565b6000819050919050565b61012b81610118565b811461013657600080fd5b50565b60008135905061014881610122565b92915050565b60008060008060808587031215610168576101676100b5565b5b600061017687828801610103565b945050602061018787828801610103565b935050604061019887828801610139565b92505060606101a987828801610103565b91505092959194509250565b6101be816100da565b82525050565b6101cd81610118565b82525050565b60006060820190506101e860008301866101b5565b6101f560208301856101c4565b61020260408301846101b5565b94935050505056fea264697066735822122066cf54e79c0e38eb986689414fbfcd3494c1f3a520beae745fe54a576777bd4564736f6c634300080a0033",
  "linkReferences": {},
  "deployedLinkReferences": {}
}