{
  "_format": "hh-sol-artifact-1",
  "contractName": "OmnuumWallet",
  "sourceName": "contracts/V1/OmnuumWallet.sol",
  "abi": [
    {
      "inputs": [
        {
          "internalType": "uint256",
          "name": "_consensusRatio",
          "type": "uint256"
        },
        {
          "internalType": "uint8",
          "name": "_minLimitForConsensus",
          "type": "uint8"
        },
        {
          "components": [
            {
              "internalType": "address",
              "name": "addr",
              "type": "address"
            },
            {
              "internalType": "enum OmnuumWallet.OwnerVotes",
              "name": "vote",
              "type": "uint8"
            }
          ],
          "internalType": "struct OmnuumWallet.OwnerAccount[]",
          "name": "_initialOwnerAccounts",
          "type": "tuple[]"
        }
      ],
      "stateMutability": "nonpayable",
      "type": "constructor"
    },
    {
      "anonymous": false,
      "inputs": [
        {
          "indexed": true,
          "internalType": "address",
          "name": "owner",
          "type": "address"
        },
        {
          "indexed": true,
          "internalType": "uint256",
          "name": "requestId",
          "type": "uint256"
        },
        {
          "indexed": false,
          "internalType": "enum OmnuumWallet.OwnerVotes",
          "name": "votes",
          "type": "uint8"
        }
      ],
      "name": "Approved",
      "type": "event"
    },
    {
      "anonymous": false,
      "inputs": [
        {
          "indexed": true,
          "internalType": "address",
          "name": "owner",
          "type": "address"
        },
        {
          "indexed": true,
          "internalType": "uint256",
          "name": "requestId",
          "type": "uint256"
        }
      ],
      "name": "Canceled",
      "type": "event"
    },
    {
      "anonymous": false,
      "inputs": [
        {
          "indexed": true,
          "internalType": "address",
          "name": "sender",
          "type": "address"
        }
      ],
      "name": "EtherReceived",
      "type": "event"
    },
    {
      "anonymous": false,
      "inputs": [
        {
          "indexed": true,
          "internalType": "address",
          "name": "owner",
          "type": "address"
        },
        {
          "indexed": true,
          "internalType": "uint256",
          "name": "requestId",
          "type": "uint256"
        },
        {
          "indexed": true,
          "internalType": "enum OmnuumWallet.RequestTypes",
          "name": "requestType",
          "type": "uint8"
        }
      ],
      "name": "Executed",
      "type": "event"
    },
    {
      "anonymous": false,
      "inputs": [
        {
          "indexed": true,
          "internalType": "address",
          "name": "sender",
          "type": "address"
        },
        {
          "indexed": false,
          "internalType": "string",
          "name": "topic",
          "type": "string"
        },
        {
          "indexed": false,
          "internalType": "string",
          "name": "description",
          "type": "string"
        }
      ],
      "name": "PaymentReceived",
      "type": "event"
    },
    {
      "anonymous": false,
      "inputs": [
        {
          "indexed": true,
          "internalType": "address",
          "name": "owner",
          "type": "address"
        },
        {
          "indexed": true,
          "internalType": "uint256",
          "name": "requestId",
          "type": "uint256"
        },
        {
          "indexed": true,
          "internalType": "enum OmnuumWallet.RequestTypes",
          "name": "requestType",
          "type": "uint8"
        }
      ],
      "name": "Requested",
      "type": "event"
    },
    {
      "anonymous": false,
      "inputs": [
        {
          "indexed": true,
          "internalType": "address",
          "name": "owner",
          "type": "address"
        },
        {
          "indexed": true,
          "internalType": "uint256",
          "name": "requestId",
          "type": "uint256"
        },
        {
          "indexed": false,
          "internalType": "enum OmnuumWallet.OwnerVotes",
          "name": "votes",
          "type": "uint8"
        }
      ],
      "name": "Revoked",
      "type": "event"
    },
    {
      "inputs": [
        {
          "internalType": "uint256",
          "name": "_reqId",
          "type": "uint256"
        }
      ],
      "name": "approve",
      "outputs": [],
      "stateMutability": "nonpayable",
      "type": "function"
    },
    {
      "inputs": [
        {
          "internalType": "uint256",
          "name": "_reqId",
          "type": "uint256"
        }
      ],
      "name": "cancel",
      "outputs": [],
      "stateMutability": "nonpayable",
      "type": "function"
    },
    {
      "inputs": [],
      "name": "consensusRatio",
      "outputs": [
        {
          "internalType": "uint256",
          "name": "",
          "type": "uint256"
        }
      ],
      "stateMutability": "view",
      "type": "function"
    },
    {
      "inputs": [
        {
          "internalType": "uint256",
          "name": "_reqId",
          "type": "uint256"
        }
      ],
      "name": "execute",
      "outputs": [],
      "stateMutability": "nonpayable",
      "type": "function"
    },
    {
      "inputs": [],
      "name": "getLastRequestNo",
      "outputs": [
        {
          "internalType": "uint256",
          "name": "requestNo",
          "type": "uint256"
        }
      ],
      "stateMutability": "view",
      "type": "function"
    },
    {
      "inputs": [
        {
          "internalType": "bool",
          "name": "_isExecuted",
          "type": "bool"
        },
        {
          "internalType": "uint256",
          "name": "_cursorIndex",
          "type": "uint256"
        },
        {
          "internalType": "uint256",
          "name": "_length",
          "type": "uint256"
        }
      ],
      "name": "getRequestIdsByExecution",
      "outputs": [
        {
          "internalType": "uint256[]",
          "name": "requestIds",
          "type": "uint256[]"
        }
      ],
      "stateMutability": "view",
      "type": "function"
    },
    {
      "inputs": [
        {
          "internalType": "address",
          "name": "_owner",
          "type": "address"
        },
        {
          "internalType": "bool",
          "name": "_isExecuted",
          "type": "bool"
        },
        {
          "internalType": "uint256",
          "name": "_cursorIndex",
          "type": "uint256"
        },
        {
          "internalType": "uint256",
          "name": "_length",
          "type": "uint256"
        }
      ],
      "name": "getRequestIdsByOwner",
      "outputs": [
        {
          "internalType": "uint256[]",
          "name": "requestIds",
          "type": "uint256[]"
        }
      ],
      "stateMutability": "view",
      "type": "function"
    },
    {
      "inputs": [
        {
          "internalType": "enum OmnuumWallet.RequestTypes",
          "name": "_requestType",
          "type": "uint8"
        },
        {
          "internalType": "bool",
          "name": "_isExecuted",
          "type": "bool"
        },
        {
          "internalType": "uint256",
          "name": "_cursorIndex",
          "type": "uint256"
        },
        {
          "internalType": "uint256",
          "name": "_length",
          "type": "uint256"
        }
      ],
      "name": "getRequestIdsByType",
      "outputs": [
        {
          "internalType": "uint256[]",
          "name": "requestIds",
          "type": "uint256[]"
        }
      ],
      "stateMutability": "view",
      "type": "function"
    },
    {
      "inputs": [
        {
          "internalType": "address",
          "name": "_owner",
          "type": "address"
        }
      ],
      "name": "isOwner",
      "outputs": [
        {
          "internalType": "bool",
          "name": "isVerified",
          "type": "bool"
        }
      ],
      "stateMutability": "view",
      "type": "function"
    },
    {
      "inputs": [
        {
          "internalType": "address",
          "name": "_owner",
          "type": "address"
        },
        {
          "internalType": "uint256",
          "name": "_reqId",
          "type": "uint256"
        }
      ],
      "name": "isOwnerVoted",
      "outputs": [
        {
          "internalType": "bool",
          "name": "isVoted",
          "type": "bool"
        }
      ],
      "stateMutability": "view",
      "type": "function"
    },
    {
      "inputs": [
        {
          "internalType": "string",
          "name": "_topic",
          "type": "string"
        },
        {
          "internalType": "string",
          "name": "_description",
          "type": "string"
        }
      ],
      "name": "makePayment",
      "outputs": [],
      "stateMutability": "payable",
      "type": "function"
    },
    {
      "inputs": [],
      "name": "minLimitForConsensus",
      "outputs": [
        {
          "internalType": "uint8",
          "name": "",
          "type": "uint8"
        }
      ],
      "stateMutability": "view",
      "type": "function"
    },
    {
      "inputs": [
        {
          "internalType": "enum OmnuumWallet.OwnerVotes",
          "name": "",
          "type": "uint8"
        }
      ],
      "name": "ownerCounter",
      "outputs": [
        {
          "internalType": "uint8",
          "name": "",
          "type": "uint8"
        }
      ],
      "stateMutability": "view",
      "type": "function"
    },
    {
      "inputs": [
        {
          "internalType": "address",
          "name": "",
          "type": "address"
        }
      ],
      "name": "ownerVote",
      "outputs": [
        {
          "internalType": "enum OmnuumWallet.OwnerVotes",
          "name": "",
          "type": "uint8"
        }
      ],
      "stateMutability": "view",
      "type": "function"
    },
    {
      "inputs": [
        {
          "internalType": "enum OmnuumWallet.RequestTypes",
          "name": "_requestType",
          "type": "uint8"
        },
        {
          "components": [
            {
              "internalType": "address",
              "name": "addr",
              "type": "address"
            },
            {
              "internalType": "enum OmnuumWallet.OwnerVotes",
              "name": "vote",
              "type": "uint8"
            }
          ],
          "internalType": "struct OmnuumWallet.OwnerAccount",
          "name": "_currentAccount",
          "type": "tuple"
        },
        {
          "components": [
            {
              "internalType": "address",
              "name": "addr",
              "type": "address"
            },
            {
              "internalType": "enum OmnuumWallet.OwnerVotes",
              "name": "vote",
              "type": "uint8"
            }
          ],
          "internalType": "struct OmnuumWallet.OwnerAccount",
          "name": "_newAccount",
          "type": "tuple"
        },
        {
          "internalType": "uint256",
          "name": "_withdrawalAmount",
          "type": "uint256"
        }
      ],
      "name": "request",
      "outputs": [],
      "stateMutability": "nonpayable",
      "type": "function"
    },
    {
      "inputs": [
        {
          "internalType": "uint256",
          "name": "",
          "type": "uint256"
        }
      ],
      "name": "requests",
      "outputs": [
        {
          "internalType": "address",
          "name": "requester",
          "type": "address"
        },
        {
          "internalType": "enum OmnuumWallet.RequestTypes",
          "name": "requestType",
          "type": "uint8"
        },
        {
          "components": [
            {
              "internalType": "address",
              "name": "addr",
              "type": "address"
            },
            {
              "internalType": "enum OmnuumWallet.OwnerVotes",
              "name": "vote",
              "type": "uint8"
            }
          ],
          "internalType": "struct OmnuumWallet.OwnerAccount",
          "name": "currentOwner",
          "type": "tuple"
        },
        {
          "components": [
            {
              "internalType": "address",
              "name": "addr",
              "type": "address"
            },
            {
              "internalType": "enum OmnuumWallet.OwnerVotes",
              "name": "vote",
              "type": "uint8"
            }
          ],
          "internalType": "struct OmnuumWallet.OwnerAccount",
          "name": "newOwner",
          "type": "tuple"
        },
        {
          "internalType": "uint256",
          "name": "withdrawalAmount",
          "type": "uint256"
        },
        {
          "internalType": "uint256",
          "name": "votes",
          "type": "uint256"
        },
        {
          "internalType": "bool",
          "name": "isExecute",
          "type": "bool"
        }
      ],
      "stateMutability": "view",
      "type": "function"
    },
    {
      "inputs": [],
      "name": "requiredVotesForConsensus",
      "outputs": [
        {
          "internalType": "uint256",
          "name": "votesForConsensus",
          "type": "uint256"
        }
      ],
      "stateMutability": "view",
      "type": "function"
    },
    {
      "inputs": [
        {
          "internalType": "uint256",
          "name": "_reqId",
          "type": "uint256"
        }
      ],
      "name": "revoke",
      "outputs": [],
      "stateMutability": "nonpayable",
      "type": "function"
    },
    {
      "inputs": [],
      "name": "totalVotes",
      "outputs": [
        {
          "internalType": "uint256",
          "name": "votes",
          "type": "uint256"
        }
      ],
      "stateMutability": "view",
      "type": "function"
    },
    {
      "stateMutability": "payable",
      "type": "receive"
    }
  ],
  "bytecode": "0x60c06040523480156200001157600080fd5b50604051620048e5380380620048e5833981810160405281019062000037919062000639565b82608081815250508160ff1660a08160ff168152505060005b815181101562000197576000828281518110620000725762000071620006b4565b5b602002602001015160200151905080600260008585815181106200009b576200009a620006b4565b5b60200260200101516000015173ffffffffffffffffffffffffffffffffffffffff1673ffffffffffffffffffffffffffffffffffffffff16815260200190815260200160002060006101000a81548160ff02191690836002811115620001065762000105620006e3565b5b021790555060016000826002811115620001255762000124620006e3565b5b60028111156200013a5762000139620006e3565b5b8152602001908152602001600020600081819054906101000a900460ff1680929190620001679062000741565b91906101000a81548160ff021916908360ff160217905550505080806200018e9062000770565b91505062000050565b50620001a8620001b160201b60201c565b50505062000a1e565b60a05160ff16620001c76200020d60201b60201c565b10156200020b576040517f08c379a000000000000000000000000000000000000000000000000000000000815260040162000202906200081f565b60405180910390fd5b565b600062000245608051620002266200024a60201b60201c565b62000232919062000841565b60646200030560201b620024251760201c565b905090565b600060016000600280811115620002665762000265620006e3565b5b60028111156200027b576200027a620006e3565b5b815260200190815260200160002060009054906101000a900460ff166002620002a59190620008a2565b6001600060016002811115620002c057620002bf620006e3565b5b6002811115620002d557620002d4620006e3565b5b815260200190815260200160002060009054906101000a900460ff16620002fd9190620008e4565b60ff16905090565b600080828462000316919062000951565b146200032457600162000327565b60005b60ff16828462000338919062000989565b620003449190620009c1565b905092915050565b6000604051905090565b600080fd5b600080fd5b6000819050919050565b620003758162000360565b81146200038157600080fd5b50565b60008151905062000395816200036a565b92915050565b600060ff82169050919050565b620003b3816200039b565b8114620003bf57600080fd5b50565b600081519050620003d381620003a8565b92915050565b600080fd5b6000601f19601f8301169050919050565b7f4e487b7100000000000000000000000000000000000000000000000000000000600052604160045260246000fd5b6200042982620003de565b810181811067ffffffffffffffff821117156200044b576200044a620003ef565b5b80604052505050565b6000620004606200034c565b90506200046e82826200041e565b919050565b600067ffffffffffffffff821115620004915762000490620003ef565b5b602082029050602081019050919050565b600080fd5b600080fd5b600073ffffffffffffffffffffffffffffffffffffffff82169050919050565b6000620004d982620004ac565b9050919050565b620004eb81620004cc565b8114620004f757600080fd5b50565b6000815190506200050b81620004e0565b92915050565b600381106200051f57600080fd5b50565b600081519050620005338162000511565b92915050565b600060408284031215620005525762000551620004a7565b5b6200055e604062000454565b905060006200057084828501620004fa565b6000830152506020620005868482850162000522565b60208301525092915050565b6000620005a9620005a38462000473565b62000454565b90508083825260208201905060408402830185811115620005cf57620005ce620004a2565b5b835b81811015620005fc5780620005e7888262000539565b845260208401935050604081019050620005d1565b5050509392505050565b600082601f8301126200061e576200061d620003d9565b5b81516200063084826020860162000592565b91505092915050565b60008060006060848603121562000655576200065462000356565b5b6000620006658682870162000384565b93505060206200067886828701620003c2565b925050604084015167ffffffffffffffff8111156200069c576200069b6200035b565b5b620006aa8682870162000606565b9150509250925092565b7f4e487b7100000000000000000000000000000000000000000000000000000000600052603260045260246000fd5b7f4e487b7100000000000000000000000000000000000000000000000000000000600052602160045260246000fd5b7f4e487b7100000000000000000000000000000000000000000000000000000000600052601160045260246000fd5b60006200074e826200039b565b915060ff82141562000765576200076462000712565b5b600182019050919050565b60006200077d8262000360565b91507fffffffffffffffffffffffffffffffffffffffffffffffffffffffffffffffff821415620007b357620007b262000712565b5b600182019050919050565b600082825260208201905092915050565b7f4e45350000000000000000000000000000000000000000000000000000000000600082015250565b600062000807600383620007be565b91506200081482620007cf565b602082019050919050565b600060208201905081810360008301526200083a81620007f8565b9050919050565b60006200084e8262000360565b91506200085b8362000360565b9250817fffffffffffffffffffffffffffffffffffffffffffffffffffffffffffffffff048311821515161562000897576200089662000712565b5b828202905092915050565b6000620008af826200039b565b9150620008bc836200039b565b92508160ff0483118215151615620008d957620008d862000712565b5b828202905092915050565b6000620008f1826200039b565b9150620008fe836200039b565b92508260ff0382111562000917576200091662000712565b5b828201905092915050565b7f4e487b7100000000000000000000000000000000000000000000000000000000600052601260045260246000fd5b60006200095e8262000360565b91506200096b8362000360565b9250826200097e576200097d62000922565b5b828206905092915050565b6000620009968262000360565b9150620009a38362000360565b925082620009b657620009b562000922565b5b828204905092915050565b6000620009ce8262000360565b9150620009db8362000360565b9250827fffffffffffffffffffffffffffffffffffffffffffffffffffffffffffffffff0382111562000a135762000a1262000712565b5b828201905092915050565b60805160a051613e9362000a5260003960008181611d4e0152612bb5015260008181610d6801526110480152613e936000f3fe6080604052600436106101175760003560e01c806397fc84c6116100a0578063cd700f6c11610064578063cd700f6c1461041b578063ddb9fde114610458578063e597c51014610495578063f27a2e4d146104c0578063fe0d94c1146104eb57610161565b806397fc84c61461031f578063a48d938d1461035c578063b759f95414610399578063ba9b92f8146103c2578063c5a66c1c146103de57610161565b80632f54bf6e116100e75780632f54bf6e1461022057806333e6e13d1461025d57806340e58ee5146102885780634c83f9e4146102b157806381d12c58146102dc57610161565b8062876760146101665780630d15fd771461018f57806320c5429b146101ba57806323d29b73146101e357610161565b36610161573373ffffffffffffffffffffffffffffffffffffffff167f0a4644bd3fcbb4f1fe1c471ff39078af7f826ac7b37422ea049b88be4ce51fd460405160405180910390a2005b600080fd5b34801561017257600080fd5b5061018d60048036038101906101889190612cab565b610514565b005b34801561019b57600080fd5b506101a46108f0565b6040516101b19190612d21565b60405180910390f35b3480156101c657600080fd5b506101e160048036038101906101dc9190612d3c565b61099b565b005b3480156101ef57600080fd5b5061020a60048036038101906102059190612d8e565b610cd4565b6040516102179190612dd7565b60405180910390f35b34801561022c57600080fd5b5061024760048036038101906102429190612e50565b610cf4565b6040516102549190612e98565b60405180910390f35b34801561026957600080fd5b50610272610d61565b60405161027f9190612d21565b60405180910390f35b34801561029457600080fd5b506102af60048036038101906102aa9190612d3c565b610da5565b005b3480156102bd57600080fd5b506102c6611046565b6040516102d39190612d21565b60405180910390f35b3480156102e857600080fd5b5061030360048036038101906102fe9190612d3c565b61106a565b6040516103169796959493929190612fbf565b60405180910390f35b34801561032b57600080fd5b5061034660048036038101906103419190613030565b61122c565b6040516103539190612e98565b60405180910390f35b34801561036857600080fd5b50610383600480360381019061037e9190612e50565b6112a5565b604051610390919061307f565b60405180910390f35b3480156103a557600080fd5b506103c060048036038101906103bb9190612d3c565b6112c5565b005b6103dc60048036038101906103d791906130ff565b611608565b005b3480156103ea57600080fd5b50610405600480360381019061040091906131ac565b6116a5565b60405161041291906132d1565b60405180910390f35b34801561042757600080fd5b50610442600480360381019061043d91906132f3565b611904565b60405161044f91906132d1565b60405180910390f35b34801561046457600080fd5b5061047f600480360381019061047a919061335a565b611b99565b60405161048c91906132d1565b60405180910390f35b3480156104a157600080fd5b506104aa611d33565b6040516104b79190612d21565b60405180910390f35b3480156104cc57600080fd5b506104d5611d4c565b6040516104e29190612dd7565b60405180910390f35b3480156104f757600080fd5b50610512600480360381019061050d9190612d3c565b611d70565b005b3361051e81610cf4565b61055d576040517f08c379a00000000000000000000000000000000000000000000000000000000081526004016105549061340a565b60405180910390fd5b60003390506000806001816001815401808255809150500390600052602060002090600702019050818160000160006101000a81548173ffffffffffffffffffffffffffffffffffffffff021916908373ffffffffffffffffffffffffffffffffffffffff160217905550868160000160146101000a81548160ff021916908360048111156105ef576105ee612ec2565b5b021790555060405180604001604052808760000160208101906106129190612e50565b73ffffffffffffffffffffffffffffffffffffffff1681526020018760200160208101906106409190612d8e565b600281111561065257610651612ec2565b5b8152508160010160008201518160000160006101000a81548173ffffffffffffffffffffffffffffffffffffffff021916908373ffffffffffffffffffffffffffffffffffffffff16021790555060208201518160000160146101000a81548160ff021916908360028111156106cb576106ca612ec2565b5b021790555090505060405180604001604052808660000160208101906106f19190612e50565b73ffffffffffffffffffffffffffffffffffffffff16815260200186602001602081019061071f9190612d8e565b600281111561073157610730612ec2565b5b8152508160020160008201518160000160006101000a81548173ffffffffffffffffffffffffffffffffffffffff021916908373ffffffffffffffffffffffffffffffffffffffff16021790555060208201518160000160146101000a81548160ff021916908360028111156107aa576107a9612ec2565b5b021790555090505083816003018190555060018160040160008473ffffffffffffffffffffffffffffffffffffffff1673ffffffffffffffffffffffffffffffffffffffff16815260200190815260200160002060006101000a81548160ff021916908315150217905550600260008373ffffffffffffffffffffffffffffffffffffffff1673ffffffffffffffffffffffffffffffffffffffff16815260200190815260200160002060009054906101000a900460ff16600281111561087457610873612ec2565b5b60ff16816005018190555086600481111561089257610891612ec2565b5b60016000805490506108a49190613459565b3373ffffffffffffffffffffffffffffffffffffffff167fe385fdb04af0282a704a6c5d5ec8414a7b883dfcc11a5fa082db2ae46125398160405160405180910390a450505050505050565b60006001600060028081111561090957610908612ec2565b5b600281111561091b5761091a612ec2565b5b815260200190815260200160002060009054906101000a900460ff166002610943919061348d565b600160006001600281111561095b5761095a612ec2565b5b600281111561096d5761096c612ec2565b5b815260200190815260200160002060009054906101000a900460ff1661099391906134c8565b60ff16905090565b336109a581610cf4565b6109e4576040517f08c379a00000000000000000000000000000000000000000000000000000000081526004016109db9061340a565b60405180910390fd5b816000805490508110610a2c576040517f08c379a0000000000000000000000000000000000000000000000000000000008152600401610a239061354b565b60405180910390fd5b8260008181548110610a4157610a4061356b565b5b906000526020600020906007020160060160009054906101000a900460ff1615610aa0576040517f08c379a0000000000000000000000000000000000000000000000000000000008152600401610a97906135e6565b60405180910390fd5b600480811115610ab357610ab2612ec2565b5b60008281548110610ac757610ac661356b565b5b906000526020600020906007020160000160149054906101000a900460ff166004811115610af857610af7612ec2565b5b1415610b39576040517f08c379a0000000000000000000000000000000000000000000000000000000008152600401610b3090613652565b60405180910390fd5b3384610b45828261122c565b610b84576040517f08c379a0000000000000000000000000000000000000000000000000000000008152600401610b7b906136be565b60405180910390fd5b6000600260003373ffffffffffffffffffffffffffffffffffffffff1673ffffffffffffffffffffffffffffffffffffffff16815260200190815260200160002060009054906101000a900460ff1690506000808881548110610bea57610be961356b565b5b906000526020600020906007020190508060040160003373ffffffffffffffffffffffffffffffffffffffff1673ffffffffffffffffffffffffffffffffffffffff16815260200190815260200160002060006101000a81549060ff0219169055816002811115610c5e57610c5d612ec2565b5b60ff16816005016000828254610c749190613459565b92505081905550873373ffffffffffffffffffffffffffffffffffffffff167f8ed50e04800878b4f45dbcced5ce55bfbde633af37ddd2a2f837479dd7f5ca3584604051610cc2919061307f565b60405180910390a35050505050505050565b60016020528060005260406000206000915054906101000a900460ff1681565b600080600260008473ffffffffffffffffffffffffffffffffffffffff1673ffffffffffffffffffffffffffffffffffffffff16815260200190815260200160002060009054906101000a900460ff166002811115610d5657610d55612ec2565b5b60ff16119050919050565b6000610da07f0000000000000000000000000000000000000000000000000000000000000000610d8f6108f0565b610d9991906136de565b6064612425565b905090565b806000805490508110610ded576040517f08c379a0000000000000000000000000000000000000000000000000000000008152600401610de49061354b565b60405180910390fd5b8160008181548110610e0257610e0161356b565b5b906000526020600020906007020160060160009054906101000a900460ff1615610e61576040517f08c379a0000000000000000000000000000000000000000000000000000000008152600401610e58906135e6565b60405180910390fd5b600480811115610e7457610e73612ec2565b5b60008281548110610e8857610e8761356b565b5b906000526020600020906007020160000160149054906101000a900460ff166004811115610eb957610eb8612ec2565b5b1415610efa576040517f08c379a0000000000000000000000000000000000000000000000000000000008152600401610ef190613652565b60405180910390fd5b823373ffffffffffffffffffffffffffffffffffffffff1660008281548110610f2657610f2561356b565b5b906000526020600020906007020160000160009054906101000a900473ffffffffffffffffffffffffffffffffffffffff1673ffffffffffffffffffffffffffffffffffffffff1614610fae576040517f08c379a0000000000000000000000000000000000000000000000000000000008152600401610fa590613784565b60405180910390fd5b600460008581548110610fc457610fc361356b565b5b906000526020600020906007020160000160146101000a81548160ff02191690836004811115610ff757610ff6612ec2565b5b0217905550833373ffffffffffffffffffffffffffffffffffffffff167ff3a6ef5718c05d9183af076f5753197b68b04552a763c34796637d6134bdd0f260405160405180910390a350505050565b7f000000000000000000000000000000000000000000000000000000000000000081565b6000818154811061107a57600080fd5b90600052602060002090600702016000915090508060000160009054906101000a900473ffffffffffffffffffffffffffffffffffffffff16908060000160149054906101000a900460ff1690806001016040518060400160405290816000820160009054906101000a900473ffffffffffffffffffffffffffffffffffffffff1673ffffffffffffffffffffffffffffffffffffffff1673ffffffffffffffffffffffffffffffffffffffff1681526020016000820160149054906101000a900460ff16600281111561115157611150612ec2565b5b600281111561116357611162612ec2565b5b8152505090806002016040518060400160405290816000820160009054906101000a900473ffffffffffffffffffffffffffffffffffffffff1673ffffffffffffffffffffffffffffffffffffffff1673ffffffffffffffffffffffffffffffffffffffff1681526020016000820160149054906101000a900460ff1660028111156111f2576111f1612ec2565b5b600281111561120457611203612ec2565b5b81525050908060030154908060050154908060060160009054906101000a900460ff16905087565b60008082815481106112415761124061356b565b5b906000526020600020906007020160040160008473ffffffffffffffffffffffffffffffffffffffff1673ffffffffffffffffffffffffffffffffffffffff16815260200190815260200160002060009054906101000a900460ff16905092915050565b60026020528060005260406000206000915054906101000a900460ff1681565b336112cf81610cf4565b61130e576040517f08c379a00000000000000000000000000000000000000000000000000000000081526004016113059061340a565b60405180910390fd5b816000805490508110611356576040517f08c379a000000000000000000000000000000000000000000000000000000000815260040161134d9061354b565b60405180910390fd5b826000818154811061136b5761136a61356b565b5b906000526020600020906007020160060160009054906101000a900460ff16156113ca576040517f08c379a00000000000000000000000000000000000000000000000000000000081526004016113c1906135e6565b60405180910390fd5b6004808111156113dd576113dc612ec2565b5b600082815481106113f1576113f061356b565b5b906000526020600020906007020160000160149054906101000a900460ff16600481111561142257611421612ec2565b5b1415611463576040517f08c379a000000000000000000000000000000000000000000000000000000000815260040161145a90613652565b60405180910390fd5b338461146f828261122c565b156114af576040517f08c379a00000000000000000000000000000000000000000000000000000000081526004016114a6906137f0565b60405180910390fd5b6000600260003373ffffffffffffffffffffffffffffffffffffffff1673ffffffffffffffffffffffffffffffffffffffff16815260200190815260200160002060009054906101000a900460ff16905060008088815481106115155761151461356b565b5b9060005260206000209060070201905060018160040160003373ffffffffffffffffffffffffffffffffffffffff1673ffffffffffffffffffffffffffffffffffffffff16815260200190815260200160002060006101000a81548160ff02191690831515021790555081600281111561159257611591612ec2565b5b60ff168160050160008282546115a89190613810565b92505081905550873373ffffffffffffffffffffffffffffffffffffffff167fb70d97bfb81912068fbb0d3ef0e849a0b5b5e822ddc9cd0d56e52b6b09ab11a7846040516115f6919061307f565b60405180910390a35050505050505050565b6000341161164b576040517f08c379a0000000000000000000000000000000000000000000000000000000008152600401611642906138b2565b60405180910390fd5b3373ffffffffffffffffffffffffffffffffffffffff167f2c6216b665b7e765847b50a2ca8d440f2397bc516b7950a134313b0ab47198c685858585604051611697949392919061391f565b60405180910390a250505050565b60606000808054905067ffffffffffffffff8111156116c7576116c661395a565b5b6040519080825280602002602001820160405280156116f55781602001602082028036833780820191505090505b509050600080611703611d33565b905060006117118783612464565b90505b61173586886117239190613810565b6001846117309190613810565b612464565b8110156118ec57871561180f5788600481111561175557611754612ec2565b5b600082815481106117695761176861356b565b5b906000526020600020906007020160000160149054906101000a900460ff16600481111561179a57611799612ec2565b5b1480156117d65750600081815481106117b6576117b561356b565b5b906000526020600020906007020160060160009054906101000a900460ff165b1561180a57808484815181106117ef576117ee61356b565b5b602002602001018181525050828061180690613989565b9350505b6118d9565b88600481111561182257611821612ec2565b5b600082815481106118365761183561356b565b5b906000526020600020906007020160000160149054906101000a900460ff16600481111561186757611866612ec2565b5b1480156118a45750600081815481106118835761188261356b565b5b906000526020600020906007020160060160009054906101000a900460ff16155b156118d857808484815181106118bd576118bc61356b565b5b60200260200101818152505082806118d490613989565b9350505b5b80806118e490613989565b915050611714565b506118f7838361247d565b9350505050949350505050565b60606000808054905067ffffffffffffffff8111156119265761192561395a565b5b6040519080825280602002602001820160405280156119545781602001602082028036833780820191505090505b509050600080611962611d33565b905060006119708783612464565b90505b61199486886119829190613810565b60018461198f9190613810565b612464565b811015611b81578715611a89578873ffffffffffffffffffffffffffffffffffffffff16600082815481106119cc576119cb61356b565b5b906000526020600020906007020160000160009054906101000a900473ffffffffffffffffffffffffffffffffffffffff1673ffffffffffffffffffffffffffffffffffffffff16148015611a50575060008181548110611a3057611a2f61356b565b5b906000526020600020906007020160060160009054906101000a900460ff165b15611a845780848481518110611a6957611a6861356b565b5b6020026020010181815250508280611a8090613989565b9350505b611b6e565b8873ffffffffffffffffffffffffffffffffffffffff1660008281548110611ab457611ab361356b565b5b906000526020600020906007020160000160009054906101000a900473ffffffffffffffffffffffffffffffffffffffff1673ffffffffffffffffffffffffffffffffffffffff16148015611b39575060008181548110611b1857611b1761356b565b5b906000526020600020906007020160060160009054906101000a900460ff16155b15611b6d5780848481518110611b5257611b5161356b565b5b6020026020010181815250508280611b6990613989565b9350505b5b8080611b7990613989565b915050611973565b50611b8c838361247d565b9350505050949350505050565b60606000808054905067ffffffffffffffff811115611bbb57611bba61395a565b5b604051908082528060200260200182016040528015611be95781602001602082028036833780820191505090505b509050600080611bf7611d33565b90506000611c058783612464565b90505b611c298688611c179190613810565b600184611c249190613810565b612464565b811015611d1c578715611ca25760008181548110611c4a57611c4961356b565b5b906000526020600020906007020160060160009054906101000a900460ff1615611c9d5780848481518110611c8257611c8161356b565b5b6020026020010181815250508280611c9990613989565b9350505b611d09565b60008181548110611cb657611cb561356b565b5b906000526020600020906007020160060160009054906101000a900460ff16611d085780848481518110611ced57611cec61356b565b5b6020026020010181815250508280611d0490613989565b9350505b5b8080611d1490613989565b915050611c08565b50611d27838361247d565b93505050509392505050565b60006001600080549050611d479190613459565b905090565b7f000000000000000000000000000000000000000000000000000000000000000081565b806000805490508110611db8576040517f08c379a0000000000000000000000000000000000000000000000000000000008152600401611daf9061354b565b60405180910390fd5b8160008181548110611dcd57611dcc61356b565b5b906000526020600020906007020160060160009054906101000a900460ff1615611e2c576040517f08c379a0000000000000000000000000000000000000000000000000000000008152600401611e23906135e6565b60405180910390fd5b600480811115611e3f57611e3e612ec2565b5b60008281548110611e5357611e5261356b565b5b906000526020600020906007020160000160149054906101000a900460ff166004811115611e8457611e83612ec2565b5b1415611ec5576040517f08c379a0000000000000000000000000000000000000000000000000000000008152600401611ebc90613652565b60405180910390fd5b823373ffffffffffffffffffffffffffffffffffffffff1660008281548110611ef157611ef061356b565b5b906000526020600020906007020160000160009054906101000a900473ffffffffffffffffffffffffffffffffffffffff1673ffffffffffffffffffffffffffffffffffffffff1614611f79576040517f08c379a0000000000000000000000000000000000000000000000000000000008152600401611f7090613784565b60405180910390fd5b83611f82610d61565b60008281548110611f9657611f9561356b565b5b9060005260206000209060070201600501541015611fe9576040517f08c379a0000000000000000000000000000000000000000000000000000000008152600401611fe090613a1e565b60405180910390fd5b6000808681548110611ffe57611ffd61356b565b5b9060005260206000209060070201905060008160000160149054906101000a900460ff16600481111561203457612033612ec2565b5b905060018260060160006101000a81548160ff0219169083151502179055506000600481111561206757612066612ec2565b5b60ff168160ff1614156120ab576120a682600301548360000160009054906101000a900473ffffffffffffffffffffffffffffffffffffffff1661252f565b6123b4565b600160048111156120bf576120be612ec2565b5b60ff168160ff16141561217957612174826002016040518060400160405290816000820160009054906101000a900473ffffffffffffffffffffffffffffffffffffffff1673ffffffffffffffffffffffffffffffffffffffff1673ffffffffffffffffffffffffffffffffffffffff1681526020016000820160149054906101000a900460ff16600281111561215957612158612ec2565b5b600281111561216b5761216a612ec2565b5b81525050612623565b6123b3565b6002600481111561218d5761218c612ec2565b5b60ff168160ff16141561224757612242826001016040518060400160405290816000820160009054906101000a900473ffffffffffffffffffffffffffffffffffffffff1673ffffffffffffffffffffffffffffffffffffffff1673ffffffffffffffffffffffffffffffffffffffff1681526020016000820160149054906101000a900460ff16600281111561222757612226612ec2565b5b600281111561223957612238612ec2565b5b81525050612817565b6123b2565b6003600481111561225b5761225a612ec2565b5b60ff168160ff1614156123b1576123b0826001016040518060400160405290816000820160009054906101000a900473ffffffffffffffffffffffffffffffffffffffff1673ffffffffffffffffffffffffffffffffffffffff1673ffffffffffffffffffffffffffffffffffffffff1681526020016000820160149054906101000a900460ff1660028111156122f5576122f4612ec2565b5b600281111561230757612306612ec2565b5b81525050836002016040518060400160405290816000820160009054906101000a900473ffffffffffffffffffffffffffffffffffffffff1673ffffffffffffffffffffffffffffffffffffffff1673ffffffffffffffffffffffffffffffffffffffff1681526020016000820160149054906101000a900460ff16600281111561239557612394612ec2565b5b60028111156123a7576123a6612ec2565b5b815250506129bf565b5b5b5b5b8160000160149054906101000a900460ff1660048111156123d8576123d7612ec2565b5b873373ffffffffffffffffffffffffffffffffffffffff167f5732b45b4bf13341d749e465ed724d2b147b95fee2e3578c2d62865a8d417bf760405160405180910390a450505050505050565b60008082846124349190613a6d565b14612440576001612443565b60005b60ff1682846124529190613a9e565b61245c9190613810565b905092915050565b60008183106124735781612475565b825b905092915050565b606060008267ffffffffffffffff81111561249b5761249a61395a565b5b6040519080825280602002602001820160405280156124c95781602001602082028036833780820191505090505b50905060005b83811015612524578481815181106124ea576124e961356b565b5b60200260200101518282815181106125055761250461356b565b5b602002602001018181525050808061251c90613989565b9150506124cf565b508091505092915050565b47821115612572576040517f08c379a000000000000000000000000000000000000000000000000000000000815260040161256990613b1b565b60405180910390fd5b60008173ffffffffffffffffffffffffffffffffffffffff168360405161259890613b6c565b60006040518083038185875af1925050503d80600081146125d5576040519150601f19603f3d011682016040523d82523d6000602084013e6125da565b606091505b505090508061261e576040517f08c379a000000000000000000000000000000000000000000000000000000000815260040161261590613bcd565b60405180910390fd5b505050565b806000015161263181610cf4565b15612671576040517f08c379a000000000000000000000000000000000000000000000000000000000815260040161266890613c39565b60405180910390fd5b8160000151600073ffffffffffffffffffffffffffffffffffffffff168173ffffffffffffffffffffffffffffffffffffffff1614156126e6576040517f08c379a00000000000000000000000000000000000000000000000000000000081526004016126dd90613ca5565b60405180910390fd5b6000813b90506000811461272f576040517f08c379a000000000000000000000000000000000000000000000000000000000815260040161272690613d11565b60405180910390fd5b6000846020015190508060026000876000015173ffffffffffffffffffffffffffffffffffffffff1673ffffffffffffffffffffffffffffffffffffffff16815260200190815260200160002060006101000a81548160ff0219169083600281111561279e5761279d612ec2565b5b0217905550600160008260028111156127ba576127b9612ec2565b5b60028111156127cc576127cb612ec2565b5b8152602001908152602001600020600081819054906101000a900460ff16809291906127f790613d31565b91906101000a81548160ff021916908360ff160217905550505050505050565b8060008160000151905061282a81610cf4565b80156128af57508160200151600281111561284857612847612ec2565b5b60ff16600260008373ffffffffffffffffffffffffffffffffffffffff1673ffffffffffffffffffffffffffffffffffffffff16815260200190815260200160002060009054906101000a900460ff1660028111156128aa576128a9612ec2565b5b60ff16145b6128ee576040517f08c379a00000000000000000000000000000000000000000000000000000000081526004016128e590613da7565b60405180910390fd5b600160008460200151600281111561290957612908612ec2565b5b600281111561291b5761291a612ec2565b5b8152602001908152602001600020600081819054906101000a900460ff168092919061294690613dc7565b91906101000a81548160ff021916908360ff16021790555050612967612bb3565b60026000846000015173ffffffffffffffffffffffffffffffffffffffff1673ffffffffffffffffffffffffffffffffffffffff16815260200190815260200160002060006101000a81549060ff0219169055505050565b600082602001519050600082602001519050600160008360028111156129e8576129e7612ec2565b5b60028111156129fa576129f9612ec2565b5b8152602001908152602001600020600081819054906101000a900460ff1680929190612a2590613dc7565b91906101000a81548160ff021916908360ff1602179055505060016000826002811115612a5557612a54612ec2565b5b6002811115612a6757612a66612ec2565b5b8152602001908152602001600020600081819054906101000a900460ff1680929190612a9290613d31565b91906101000a81548160ff021916908360ff16021790555050612ab3612bb3565b826000015173ffffffffffffffffffffffffffffffffffffffff16846000015173ffffffffffffffffffffffffffffffffffffffff1614612b425760026000856000015173ffffffffffffffffffffffffffffffffffffffff1673ffffffffffffffffffffffffffffffffffffffff16815260200190815260200160002060006101000a81549060ff02191690555b8060026000856000015173ffffffffffffffffffffffffffffffffffffffff1673ffffffffffffffffffffffffffffffffffffffff16815260200190815260200160002060006101000a81548160ff02191690836002811115612ba857612ba7612ec2565b5b021790555050505050565b7f000000000000000000000000000000000000000000000000000000000000000060ff16612bdf610d61565b1015612c20576040517f08c379a0000000000000000000000000000000000000000000000000000000008152600401612c1790613e3d565b60405180910390fd5b565b600080fd5b600080fd5b60058110612c3957600080fd5b50565b600081359050612c4b81612c2c565b92915050565b600080fd5b600060408284031215612c6c57612c6b612c51565b5b81905092915050565b6000819050919050565b612c8881612c75565b8114612c9357600080fd5b50565b600081359050612ca581612c7f565b92915050565b60008060008060c08587031215612cc557612cc4612c22565b5b6000612cd387828801612c3c565b9450506020612ce487828801612c56565b9350506060612cf587828801612c56565b92505060a0612d0687828801612c96565b91505092959194509250565b612d1b81612c75565b82525050565b6000602082019050612d366000830184612d12565b92915050565b600060208284031215612d5257612d51612c22565b5b6000612d6084828501612c96565b91505092915050565b60038110612d7657600080fd5b50565b600081359050612d8881612d69565b92915050565b600060208284031215612da457612da3612c22565b5b6000612db284828501612d79565b91505092915050565b600060ff82169050919050565b612dd181612dbb565b82525050565b6000602082019050612dec6000830184612dc8565b92915050565b600073ffffffffffffffffffffffffffffffffffffffff82169050919050565b6000612e1d82612df2565b9050919050565b612e2d81612e12565b8114612e3857600080fd5b50565b600081359050612e4a81612e24565b92915050565b600060208284031215612e6657612e65612c22565b5b6000612e7484828501612e3b565b91505092915050565b60008115159050919050565b612e9281612e7d565b82525050565b6000602082019050612ead6000830184612e89565b92915050565b612ebc81612e12565b82525050565b7f4e487b7100000000000000000000000000000000000000000000000000000000600052602160045260246000fd5b60058110612f0257612f01612ec2565b5b50565b6000819050612f1382612ef1565b919050565b6000612f2382612f05565b9050919050565b612f3381612f18565b82525050565b612f4281612e12565b82525050565b60038110612f5957612f58612ec2565b5b50565b6000819050612f6a82612f48565b919050565b6000612f7a82612f5c565b9050919050565b612f8a81612f6f565b82525050565b604082016000820151612fa66000850182612f39565b506020820151612fb96020850182612f81565b50505050565b600061012082019050612fd5600083018a612eb3565b612fe26020830189612f2a565b612fef6040830188612f90565b612ffc6080830187612f90565b61300960c0830186612d12565b61301660e0830185612d12565b613024610100830184612e89565b98975050505050505050565b6000806040838503121561304757613046612c22565b5b600061305585828601612e3b565b925050602061306685828601612c96565b9150509250929050565b61307981612f6f565b82525050565b60006020820190506130946000830184613070565b92915050565b600080fd5b600080fd5b600080fd5b60008083601f8401126130bf576130be61309a565b5b8235905067ffffffffffffffff8111156130dc576130db61309f565b5b6020830191508360018202830111156130f8576130f76130a4565b5b9250929050565b6000806000806040858703121561311957613118612c22565b5b600085013567ffffffffffffffff81111561313757613136612c27565b5b613143878288016130a9565b9450945050602085013567ffffffffffffffff81111561316657613165612c27565b5b613172878288016130a9565b925092505092959194509250565b61318981612e7d565b811461319457600080fd5b50565b6000813590506131a681613180565b92915050565b600080600080608085870312156131c6576131c5612c22565b5b60006131d487828801612c3c565b94505060206131e587828801613197565b93505060406131f687828801612c96565b925050606061320787828801612c96565b91505092959194509250565b600081519050919050565b600082825260208201905092915050565b6000819050602082019050919050565b61324881612c75565b82525050565b600061325a838361323f565b60208301905092915050565b6000602082019050919050565b600061327e82613213565b613288818561321e565b93506132938361322f565b8060005b838110156132c45781516132ab888261324e565b97506132b683613266565b925050600181019050613297565b5085935050505092915050565b600060208201905081810360008301526132eb8184613273565b905092915050565b6000806000806080858703121561330d5761330c612c22565b5b600061331b87828801612e3b565b945050602061332c87828801613197565b935050604061333d87828801612c96565b925050606061334e87828801612c96565b91505092959194509250565b60008060006060848603121561337357613372612c22565b5b600061338186828701613197565b935050602061339286828701612c96565b92505060406133a386828701612c96565b9150509250925092565b600082825260208201905092915050565b7f4f4f340000000000000000000000000000000000000000000000000000000000600082015250565b60006133f46003836133ad565b91506133ff826133be565b602082019050919050565b60006020820190508181036000830152613423816133e7565b9050919050565b7f4e487b7100000000000000000000000000000000000000000000000000000000600052601160045260246000fd5b600061346482612c75565b915061346f83612c75565b9250828210156134825761348161342a565b5b828203905092915050565b600061349882612dbb565b91506134a383612dbb565b92508160ff04831182151516156134bd576134bc61342a565b5b828202905092915050565b60006134d382612dbb565b91506134de83612dbb565b92508260ff038211156134f4576134f361342a565b5b828201905092915050565b7f4e58330000000000000000000000000000000000000000000000000000000000600082015250565b60006135356003836133ad565b9150613540826134ff565b602082019050919050565b6000602082019050818103600083015261356481613528565b9050919050565b7f4e487b7100000000000000000000000000000000000000000000000000000000600052603260045260246000fd5b7f5345310000000000000000000000000000000000000000000000000000000000600082015250565b60006135d06003836133ad565b91506135db8261359a565b602082019050919050565b600060208201905081810360008301526135ff816135c3565b9050919050565b7f5345320000000000000000000000000000000000000000000000000000000000600082015250565b600061363c6003836133ad565b915061364782613606565b602082019050919050565b6000602082019050818103600083015261366b8161362f565b9050919050565b7f5345340000000000000000000000000000000000000000000000000000000000600082015250565b60006136a86003836133ad565b91506136b382613672565b602082019050919050565b600060208201905081810360008301526136d78161369b565b9050919050565b60006136e982612c75565b91506136f483612c75565b9250817fffffffffffffffffffffffffffffffffffffffffffffffffffffffffffffffff048311821515161561372d5761372c61342a565b5b828202905092915050565b7f4f4f360000000000000000000000000000000000000000000000000000000000600082015250565b600061376e6003836133ad565b915061377982613738565b602082019050919050565b6000602082019050818103600083015261379d81613761565b9050919050565b7f5345330000000000000000000000000000000000000000000000000000000000600082015250565b60006137da6003836133ad565b91506137e5826137a4565b602082019050919050565b60006020820190508181036000830152613809816137cd565b9050919050565b600061381b82612c75565b915061382683612c75565b9250827fffffffffffffffffffffffffffffffffffffffffffffffffffffffffffffffff0382111561385b5761385a61342a565b5b828201905092915050565b7f4e45330000000000000000000000000000000000000000000000000000000000600082015250565b600061389c6003836133ad565b91506138a782613866565b602082019050919050565b600060208201905081810360008301526138cb8161388f565b9050919050565b82818337600083830152505050565b6000601f19601f8301169050919050565b60006138fe83856133ad565b935061390b8385846138d2565b613914836138e1565b840190509392505050565b6000604082019050818103600083015261393a8186886138f2565b9050818103602083015261394f8184866138f2565b905095945050505050565b7f4e487b7100000000000000000000000000000000000000000000000000000000600052604160045260246000fd5b600061399482612c75565b91507fffffffffffffffffffffffffffffffffffffffffffffffffffffffffffffffff8214156139c7576139c661342a565b5b600182019050919050565b7f4e45320000000000000000000000000000000000000000000000000000000000600082015250565b6000613a086003836133ad565b9150613a13826139d2565b602082019050919050565b60006020820190508181036000830152613a37816139fb565b9050919050565b7f4e487b7100000000000000000000000000000000000000000000000000000000600052601260045260246000fd5b6000613a7882612c75565b9150613a8383612c75565b925082613a9357613a92613a3e565b5b828206905092915050565b6000613aa982612c75565b9150613ab483612c75565b925082613ac457613ac3613a3e565b5b828204905092915050565b7f4e45340000000000000000000000000000000000000000000000000000000000600082015250565b6000613b056003836133ad565b9150613b1082613acf565b602082019050919050565b60006020820190508181036000830152613b3481613af8565b9050919050565b600081905092915050565b50565b6000613b56600083613b3b565b9150613b6182613b46565b600082019050919050565b6000613b7782613b49565b9150819050919050565b7f5345350000000000000000000000000000000000000000000000000000000000600082015250565b6000613bb76003836133ad565b9150613bc282613b81565b602082019050919050565b60006020820190508181036000830152613be681613baa565b9050919050565b7f4f4f350000000000000000000000000000000000000000000000000000000000600082015250565b6000613c236003836133ad565b9150613c2e82613bed565b602082019050919050565b60006020820190508181036000830152613c5281613c16565b9050919050565b7f4145310000000000000000000000000000000000000000000000000000000000600082015250565b6000613c8f6003836133ad565b9150613c9a82613c59565b602082019050919050565b60006020820190508181036000830152613cbe81613c82565b9050919050565b7f4145320000000000000000000000000000000000000000000000000000000000600082015250565b6000613cfb6003836133ad565b9150613d0682613cc5565b602082019050919050565b60006020820190508181036000830152613d2a81613cee565b9050919050565b6000613d3c82612dbb565b915060ff821415613d5057613d4f61342a565b5b600182019050919050565b7f4e58320000000000000000000000000000000000000000000000000000000000600082015250565b6000613d916003836133ad565b9150613d9c82613d5b565b602082019050919050565b60006020820190508181036000830152613dc081613d84565b9050919050565b6000613dd282612dbb565b91506000821415613de657613de561342a565b5b600182039050919050565b7f4e45350000000000000000000000000000000000000000000000000000000000600082015250565b6000613e276003836133ad565b9150613e3282613df1565b602082019050919050565b60006020820190508181036000830152613e5681613e1a565b905091905056fea264697066735822122026d261e479d1e7efedbda0cf186910844df61a8b42e8553da936c38ee3a9151b64736f6c634300080a0033",
  "linkReferences": {},
  "deployedLinkReferences": {}
}