{
  "_format": "hh-sol-artifact-1",
  "contractName": "OmnuumExchange",
  "sourceName": "contracts/V1/OmnuumExchange.sol",
  "abi": [
    {
      "anonymous": false,
      "inputs": [
        {
          "indexed": true,
          "internalType": "address",
          "name": "baseToken",
          "type": "address"
        },
        {
          "indexed": true,
          "internalType": "address",
          "name": "targetToken",
          "type": "address"
        },
        {
          "indexed": false,
          "internalType": "uint256",
          "name": "amount",
          "type": "uint256"
        },
        {
          "indexed": false,
          "internalType": "address",
          "name": "user",
          "type": "address"
        },
        {
          "indexed": true,
          "internalType": "address",
          "name": "receipient",
          "type": "address"
        }
      ],
      "name": "Exchange",
      "type": "event"
    },
    {
      "anonymous": false,
      "inputs": [
        {
          "indexed": true,
          "internalType": "address",
          "name": "previousOwner",
          "type": "address"
        },
        {
          "indexed": true,
          "internalType": "address",
          "name": "newOwner",
          "type": "address"
        }
      ],
      "name": "OwnershipTransferred",
      "type": "event"
    },
    {
      "inputs": [
        {
          "internalType": "address",
          "name": "_token",
          "type": "address"
        },
        {
          "internalType": "uint256",
          "name": "_amount",
          "type": "uint256"
        },
        {
          "internalType": "address",
          "name": "_to",
          "type": "address"
        }
      ],
      "name": "exchangeToken",
      "outputs": [],
      "stateMutability": "payable",
      "type": "function"
    },
    {
      "inputs": [
        {
          "internalType": "address",
          "name": "_fromToken",
          "type": "address"
        },
        {
          "internalType": "address",
          "name": "_toToken",
          "type": "address"
        },
        {
          "internalType": "uint256",
          "name": "_amount",
          "type": "uint256"
        }
      ],
      "name": "getExchangeAmount",
      "outputs": [
        {
          "internalType": "uint256",
          "name": "amount",
          "type": "uint256"
        }
      ],
      "stateMutability": "view",
      "type": "function"
    },
    {
      "inputs": [
        {
          "internalType": "address",
          "name": "_caManagerA",
          "type": "address"
        }
      ],
      "name": "initialize",
      "outputs": [],
      "stateMutability": "nonpayable",
      "type": "function"
    },
    {
      "inputs": [],
      "name": "owner",
      "outputs": [
        {
          "internalType": "address",
          "name": "",
          "type": "address"
        }
      ],
      "stateMutability": "view",
      "type": "function"
    },
    {
      "inputs": [],
      "name": "tmpLinkExRate",
      "outputs": [
        {
          "internalType": "uint256",
          "name": "",
          "type": "uint256"
        }
      ],
      "stateMutability": "view",
      "type": "function"
    },
    {
      "inputs": [
        {
          "internalType": "address",
          "name": "newOwner",
          "type": "address"
        }
      ],
      "name": "transferOwnership",
      "outputs": [],
      "stateMutability": "nonpayable",
      "type": "function"
    },
    {
      "inputs": [
        {
          "internalType": "uint256",
          "name": "_newRate",
          "type": "uint256"
        }
      ],
      "name": "updateTmpExchangeRate",
      "outputs": [],
      "stateMutability": "nonpayable",
      "type": "function"
    },
    {
      "inputs": [
        {
          "internalType": "uint256",
          "name": "_amount",
          "type": "uint256"
        }
      ],
      "name": "withdraw",
      "outputs": [],
      "stateMutability": "nonpayable",
      "type": "function"
    }
  ],
  "bytecode": "0x608060405234801561001057600080fd5b5061186d806100206000396000f3fe60806040526004361061007b5760003560e01c806395d6fd671161004e57806395d6fd671461011b578063c3a940b014610158578063c4d66de814610181578063f2fde38b146101aa5761007b565b80632e1a7d4d1461008057806352a41234146100a95780638d09cbae146100c55780638da5cb5b146100f0575b600080fd5b34801561008c57600080fd5b506100a760048036038101906100a29190610dae565b6101d3565b005b6100c360048036038101906100be9190610e39565b610375565b005b3480156100d157600080fd5b506100da6104ff565b6040516100e79190610e9b565b60405180910390f35b3480156100fc57600080fd5b50610105610505565b6040516101129190610ec5565b60405180910390f35b34801561012757600080fd5b50610142600480360381019061013d9190610ee0565b61052f565b60405161014f9190610e9b565b60405180910390f35b34801561016457600080fd5b5061017f600480360381019061017a9190610dae565b61055b565b005b34801561018d57600080fd5b506101a860048036038101906101a39190610f33565b6105e1565b005b3480156101b657600080fd5b506101d160048036038101906101cc9190610f33565b61078d565b005b6101db610885565b73ffffffffffffffffffffffffffffffffffffffff166101f9610505565b73ffffffffffffffffffffffffffffffffffffffff161461024f576040517f08c379a000000000000000000000000000000000000000000000000000000000815260040161024690610fbd565b60405180910390fd5b47811115610292576040517f08c379a000000000000000000000000000000000000000000000000000000000815260040161028990611029565b60405180910390fd5b606560009054906101000a900473ffffffffffffffffffffffffffffffffffffffff1673ffffffffffffffffffffffffffffffffffffffff1663358177736040518163ffffffff1660e01b81526004016102eb90611095565b602060405180830381865afa158015610308573d6000803e3d6000fd5b505050506040513d601f19601f8201168201806040525081019061032c91906110ca565b73ffffffffffffffffffffffffffffffffffffffff166108fc829081150290604051600060405180830381858888f19350505050158015610371573d6000803e3d6000fd5b5050565b606560009054906101000a900473ffffffffffffffffffffffffffffffffffffffff1673ffffffffffffffffffffffffffffffffffffffff1663217fe6c6336040518263ffffffff1660e01b81526004016103d09190611143565b602060405180830381865afa1580156103ed573d6000803e3d6000fd5b505050506040513d601f19601f8201168201806040525081019061041191906111a9565b610450576040517f08c379a000000000000000000000000000000000000000000000000000000000815260040161044790611222565b60405180910390fd5b61047b33838573ffffffffffffffffffffffffffffffffffffffff1661088d9092919063ffffffff16565b8073ffffffffffffffffffffffffffffffffffffffff168373ffffffffffffffffffffffffffffffffffffffff16600073ffffffffffffffffffffffffffffffffffffffff167f80c6213199e7461550fc46617965f76ced0114c525649b1913d771b1ddb9e14f85336040516104f2929190611242565b60405180910390a4505050565b60665481565b6000603360009054906101000a900473ffffffffffffffffffffffffffffffffffffffff16905090565b6000670de0b6b3a764000082606654610548919061129a565b6105529190611323565b90509392505050565b610563610885565b73ffffffffffffffffffffffffffffffffffffffff16610581610505565b73ffffffffffffffffffffffffffffffffffffffff16146105d7576040517f08c379a00000000000000000000000000000000000000000000000000000000081526004016105ce90610fbd565b60405180910390fd5b8060668190555050565b600060019054906101000a900460ff166106095760008054906101000a900460ff1615610612565b610611610913565b5b610651576040517f08c379a0000000000000000000000000000000000000000000000000000000008152600401610648906113c6565b60405180910390fd5b60008060019054906101000a900460ff1615905080156106a1576001600060016101000a81548160ff02191690831515021790555060016000806101000a81548160ff0219169083151502179055505b600073ffffffffffffffffffffffffffffffffffffffff168273ffffffffffffffffffffffffffffffffffffffff161415610711576040517f08c379a000000000000000000000000000000000000000000000000000000000815260040161070890611432565b60405180910390fd5b610719610924565b81606560006101000a81548173ffffffffffffffffffffffffffffffffffffffff021916908373ffffffffffffffffffffffffffffffffffffffff16021790555066341b41704ef10060668190555080156107895760008060016101000a81548160ff0219169083151502179055505b5050565b610795610885565b73ffffffffffffffffffffffffffffffffffffffff166107b3610505565b73ffffffffffffffffffffffffffffffffffffffff1614610809576040517f08c379a000000000000000000000000000000000000000000000000000000000815260040161080090610fbd565b60405180910390fd5b600073ffffffffffffffffffffffffffffffffffffffff168173ffffffffffffffffffffffffffffffffffffffff161415610879576040517f08c379a0000000000000000000000000000000000000000000000000000000008152600401610870906114c4565b60405180910390fd5b61088281610985565b50565b600033905090565b61090e8363a9059cbb60e01b84846040516024016108ac9291906114e4565b604051602081830303815290604052907bffffffffffffffffffffffffffffffffffffffffffffffffffffffff19166020820180517bffffffffffffffffffffffffffffffffffffffffffffffffffffffff8381831617835250505050610a4b565b505050565b600061091e30610b12565b15905090565b600060019054906101000a900460ff16610973576040517f08c379a000000000000000000000000000000000000000000000000000000000815260040161096a9061157f565b60405180910390fd5b61097b610b35565b610983610b86565b565b6000603360009054906101000a900473ffffffffffffffffffffffffffffffffffffffff16905081603360006101000a81548173ffffffffffffffffffffffffffffffffffffffff021916908373ffffffffffffffffffffffffffffffffffffffff1602179055508173ffffffffffffffffffffffffffffffffffffffff168173ffffffffffffffffffffffffffffffffffffffff167f8be0079c531659141344cd1fd0a4f28419497f9722a3daafe3b4186f6b6457e060405160405180910390a35050565b6000610aad826040518060400160405280602081526020017f5361666545524332303a206c6f772d6c6576656c2063616c6c206661696c65648152508573ffffffffffffffffffffffffffffffffffffffff16610be09092919063ffffffff16565b9050600081511115610b0d5780806020019051810190610acd91906111a9565b610b0c576040517f08c379a0000000000000000000000000000000000000000000000000000000008152600401610b0390611611565b60405180910390fd5b5b505050565b6000808273ffffffffffffffffffffffffffffffffffffffff163b119050919050565b600060019054906101000a900460ff16610b84576040517f08c379a0000000000000000000000000000000000000000000000000000000008152600401610b7b9061157f565b60405180910390fd5b565b600060019054906101000a900460ff16610bd5576040517f08c379a0000000000000000000000000000000000000000000000000000000008152600401610bcc9061157f565b60405180910390fd5b610bde32610985565b565b6060610bef8484600085610bf8565b90509392505050565b606082471015610c3d576040517f08c379a0000000000000000000000000000000000000000000000000000000008152600401610c34906116a3565b60405180910390fd5b610c4685610b12565b610c85576040517f08c379a0000000000000000000000000000000000000000000000000000000008152600401610c7c9061170f565b60405180910390fd5b6000808673ffffffffffffffffffffffffffffffffffffffff168587604051610cae91906117a9565b60006040518083038185875af1925050503d8060008114610ceb576040519150601f19603f3d011682016040523d82523d6000602084013e610cf0565b606091505b5091509150610d00828286610d0c565b92505050949350505050565b60608315610d1c57829050610d6c565b600083511115610d2f5782518084602001fd5b816040517f08c379a0000000000000000000000000000000000000000000000000000000008152600401610d639190611815565b60405180910390fd5b9392505050565b600080fd5b6000819050919050565b610d8b81610d78565b8114610d9657600080fd5b50565b600081359050610da881610d82565b92915050565b600060208284031215610dc457610dc3610d73565b5b6000610dd284828501610d99565b91505092915050565b600073ffffffffffffffffffffffffffffffffffffffff82169050919050565b6000610e0682610ddb565b9050919050565b610e1681610dfb565b8114610e2157600080fd5b50565b600081359050610e3381610e0d565b92915050565b600080600060608486031215610e5257610e51610d73565b5b6000610e6086828701610e24565b9350506020610e7186828701610d99565b9250506040610e8286828701610e24565b9150509250925092565b610e9581610d78565b82525050565b6000602082019050610eb06000830184610e8c565b92915050565b610ebf81610dfb565b82525050565b6000602082019050610eda6000830184610eb6565b92915050565b600080600060608486031215610ef957610ef8610d73565b5b6000610f0786828701610e24565b9350506020610f1886828701610e24565b9250506040610f2986828701610d99565b9150509250925092565b600060208284031215610f4957610f48610d73565b5b6000610f5784828501610e24565b91505092915050565b600082825260208201905092915050565b7f4f776e61626c653a2063616c6c6572206973206e6f7420746865206f776e6572600082015250565b6000610fa7602083610f60565b9150610fb282610f71565b602082019050919050565b60006020820190508181036000830152610fd681610f9a565b9050919050565b7f4152473200000000000000000000000000000000000000000000000000000000600082015250565b6000611013600483610f60565b915061101e82610fdd565b602082019050919050565b6000602082019050818103600083015261104281611006565b9050919050565b7f57414c4c45540000000000000000000000000000000000000000000000000000600082015250565b600061107f600683610f60565b915061108a82611049565b602082019050919050565b600060208201905081810360008301526110ae81611072565b9050919050565b6000815190506110c481610e0d565b92915050565b6000602082840312156110e0576110df610d73565b5b60006110ee848285016110b5565b91505092915050565b7f45584348414e4745000000000000000000000000000000000000000000000000600082015250565b600061112d600883610f60565b9150611138826110f7565b602082019050919050565b60006040820190506111586000830184610eb6565b818103602083015261116981611120565b905092915050565b60008115159050919050565b61118681611171565b811461119157600080fd5b50565b6000815190506111a38161117d565b92915050565b6000602082840312156111bf576111be610d73565b5b60006111cd84828501611194565b91505092915050565b7f4f4f370000000000000000000000000000000000000000000000000000000000600082015250565b600061120c600383610f60565b9150611217826111d6565b602082019050919050565b6000602082019050818103600083015261123b816111ff565b9050919050565b60006040820190506112576000830185610e8c565b6112646020830184610eb6565b9392505050565b7f4e487b7100000000000000000000000000000000000000000000000000000000600052601160045260246000fd5b60006112a582610d78565b91506112b083610d78565b9250817fffffffffffffffffffffffffffffffffffffffffffffffffffffffffffffffff04831182151516156112e9576112e861126b565b5b828202905092915050565b7f4e487b7100000000000000000000000000000000000000000000000000000000600052601260045260246000fd5b600061132e82610d78565b915061133983610d78565b925082611349576113486112f4565b5b828204905092915050565b7f496e697469616c697a61626c653a20636f6e747261637420697320616c72656160008201527f647920696e697469616c697a6564000000000000000000000000000000000000602082015250565b60006113b0602e83610f60565b91506113bb82611354565b604082019050919050565b600060208201905081810360008301526113df816113a3565b9050919050565b7f4145310000000000000000000000000000000000000000000000000000000000600082015250565b600061141c600383610f60565b9150611427826113e6565b602082019050919050565b6000602082019050818103600083015261144b8161140f565b9050919050565b7f4f776e61626c653a206e6577206f776e657220697320746865207a65726f206160008201527f6464726573730000000000000000000000000000000000000000000000000000602082015250565b60006114ae602683610f60565b91506114b982611452565b604082019050919050565b600060208201905081810360008301526114dd816114a1565b9050919050565b60006040820190506114f96000830185610eb6565b6115066020830184610e8c565b9392505050565b7f496e697469616c697a61626c653a20636f6e7472616374206973206e6f74206960008201527f6e697469616c697a696e67000000000000000000000000000000000000000000602082015250565b6000611569602b83610f60565b91506115748261150d565b604082019050919050565b600060208201905081810360008301526115988161155c565b9050919050565b7f5361666545524332303a204552433230206f7065726174696f6e20646964206e60008201527f6f74207375636365656400000000000000000000000000000000000000000000602082015250565b60006115fb602a83610f60565b91506116068261159f565b604082019050919050565b6000602082019050818103600083015261162a816115ee565b9050919050565b7f416464726573733a20696e73756666696369656e742062616c616e636520666f60008201527f722063616c6c0000000000000000000000000000000000000000000000000000602082015250565b600061168d602683610f60565b915061169882611631565b604082019050919050565b600060208201905081810360008301526116bc81611680565b9050919050565b7f416464726573733a2063616c6c20746f206e6f6e2d636f6e7472616374000000600082015250565b60006116f9601d83610f60565b9150611704826116c3565b602082019050919050565b60006020820190508181036000830152611728816116ec565b9050919050565b600081519050919050565b600081905092915050565b60005b83811015611763578082015181840152602081019050611748565b83811115611772576000848401525b50505050565b60006117838261172f565b61178d818561173a565b935061179d818560208601611745565b80840191505092915050565b60006117b58284611778565b915081905092915050565b600081519050919050565b6000601f19601f8301169050919050565b60006117e7826117c0565b6117f18185610f60565b9350611801818560208601611745565b61180a816117cb565b840191505092915050565b6000602082019050818103600083015261182f81846117dc565b90509291505056fea26469706673582212202cc2cbf69b3bf20ae4ba17538c429158cec0dc82321f9a4cb45a11b07e02bdda64736f6c634300080a0033",
  "linkReferences": {},
  "deployedLinkReferences": {}
}