{
  "_format": "hh-sol-artifact-1",
  "contractName": "MockVrfCoords",
  "sourceName": "contracts/mock/MockVrfCoords.sol",
  "abi": [
    {
      "inputs": [],
      "stateMutability": "nonpayable",
      "type": "constructor"
    },
    {
      "inputs": [
        {
          "internalType": "address",
          "name": "_vrfManager",
          "type": "address"
        },
        {
          "internalType": "bytes32",
          "name": "requestId",
          "type": "bytes32"
        },
        {
          "internalType": "uint256",
          "name": "randomness",
          "type": "uint256"
        }
      ],
      "name": "sendRandom",
      "outputs": [],
      "stateMutability": "nonpayable",
      "type": "function"
    }
  ],
  "bytecode": "0x608060405234801561001057600080fd5b5061025d806100206000396000f3fe608060405234801561001057600080fd5b506004361061002b5760003560e01c8063b311e60b14610030575b600080fd5b61004a6004803603810190610045919061018d565b61004c565b005b8273ffffffffffffffffffffffffffffffffffffffff166394985ddd83836040518363ffffffff1660e01b81526004016100879291906101fe565b600060405180830381600087803b1580156100a157600080fd5b505af11580156100b5573d6000803e3d6000fd5b50505050505050565b600080fd5b600073ffffffffffffffffffffffffffffffffffffffff82169050919050565b60006100ee826100c3565b9050919050565b6100fe816100e3565b811461010957600080fd5b50565b60008135905061011b816100f5565b92915050565b6000819050919050565b61013481610121565b811461013f57600080fd5b50565b6000813590506101518161012b565b92915050565b6000819050919050565b61016a81610157565b811461017557600080fd5b50565b60008135905061018781610161565b92915050565b6000806000606084860312156101a6576101a56100be565b5b60006101b48682870161010c565b93505060206101c586828701610142565b92505060406101d686828701610178565b9150509250925092565b6101e981610121565b82525050565b6101f881610157565b82525050565b600060408201905061021360008301856101e0565b61022060208301846101ef565b939250505056fea26469706673582212206cae3b48244fb2c1a42827520bc89649dd8f51652cbc8f4887d34350734051c264736f6c634300080a0033",
  "linkReferences": {},
  "deployedLinkReferences": {}
}