{
  "_format": "hh-sol-artifact-1",
  "contractName": "MockLink",
  "sourceName": "contracts/mock/MockLink.sol",
  "abi": [
    {
      "inputs": [
        {
          "internalType": "address",
          "name": "",
          "type": "address"
        }
      ],
      "name": "balanceOf",
      "outputs": [
        {
          "internalType": "uint256",
          "name": "",
          "type": "uint256"
        }
      ],
      "stateMutability": "view",
      "type": "function"
    },
    {
      "inputs": [
        {
          "internalType": "uint256",
          "name": "_bal",
          "type": "uint256"
        }
      ],
      "name": "changeBalance",
      "outputs": [],
      "stateMutability": "nonpayable",
      "type": "function"
    },
    {
      "inputs": [
        {
          "internalType": "address",
          "name": "_to",
          "type": "address"
        },
        {
          "internalType": "uint256",
          "name": "value",
          "type": "uint256"
        }
      ],
      "name": "transfer",
      "outputs": [
        {
          "internalType": "bool",
          "name": "",
          "type": "bool"
        }
      ],
      "stateMutability": "nonpayable",
      "type": "function"
    },
    {
      "inputs": [
        {
          "internalType": "address",
          "name": "to",
          "type": "address"
        },
        {
          "internalType": "uint256",
          "name": "value",
          "type": "uint256"
        },
        {
          "internalType": "bytes",
          "name": "data",
          "type": "bytes"
        }
      ],
      "name": "transferAndCall",
      "outputs": [
        {
          "internalType": "bool",
          "name": "success",
          "type": "bool"
        }
      ],
      "stateMutability": "nonpayable",
      "type": "function"
    }
  ],
  "bytecode": "0x6080604052678ac7230489e8000060005534801561001c57600080fd5b506103d38061002c6000396000f3fe608060405234801561001057600080fd5b506004361061004c5760003560e01c80634000aea0146100515780636833a77c1461008157806370a082311461009d578063a9059cbb146100cd575b600080fd5b61006b6004803603810190610066919061022f565b6100fd565b60405161007891906102be565b60405180910390f35b61009b600480360381019061009691906102d9565b61010b565b005b6100b760048036038101906100b29190610306565b610115565b6040516100c49190610342565b60405180910390f35b6100e760048036038101906100e2919061035d565b610120565b6040516100f491906102be565b60405180910390f35b600060019050949350505050565b8060008190555050565b600080549050919050565b60006001905092915050565b600080fd5b600080fd5b600073ffffffffffffffffffffffffffffffffffffffff82169050919050565b600061016182610136565b9050919050565b61017181610156565b811461017c57600080fd5b50565b60008135905061018e81610168565b92915050565b6000819050919050565b6101a781610194565b81146101b257600080fd5b50565b6000813590506101c48161019e565b92915050565b600080fd5b600080fd5b600080fd5b60008083601f8401126101ef576101ee6101ca565b5b8235905067ffffffffffffffff81111561020c5761020b6101cf565b5b602083019150836001820283011115610228576102276101d4565b5b9250929050565b600080600080606085870312156102495761024861012c565b5b60006102578782880161017f565b9450506020610268878288016101b5565b935050604085013567ffffffffffffffff81111561028957610288610131565b5b610295878288016101d9565b925092505092959194509250565b60008115159050919050565b6102b8816102a3565b82525050565b60006020820190506102d360008301846102af565b92915050565b6000602082840312156102ef576102ee61012c565b5b60006102fd848285016101b5565b91505092915050565b60006020828403121561031c5761031b61012c565b5b600061032a8482850161017f565b91505092915050565b61033c81610194565b82525050565b60006020820190506103576000830184610333565b92915050565b600080604083850312156103745761037361012c565b5b60006103828582860161017f565b9250506020610393858286016101b5565b915050925092905056fea2646970667358221220150f383c9201fd23de7b0ab00b00b3bd323e0dc001e09a204529236d047c54b964736f6c634300080a0033",
  "linkReferences": {},
  "deployedLinkReferences": {}
}