{
  "_format": "hh-sol-artifact-1",
  "contractName": "ERC721Upgradeable",
  "sourceName": "@openzeppelin/contracts-upgradeable/token/ERC721/ERC721Upgradeable.sol",
  "abi": [
    {
      "anonymous": false,
      "inputs": [
        {
          "indexed": true,
          "internalType": "address",
          "name": "owner",
          "type": "address"
        },
        {
          "indexed": true,
          "internalType": "address",
          "name": "approved",
          "type": "address"
        },
        {
          "indexed": true,
          "internalType": "uint256",
          "name": "tokenId",
          "type": "uint256"
        }
      ],
      "name": "Approval",
      "type": "event"
    },
    {
      "anonymous": false,
      "inputs": [
        {
          "indexed": true,
          "internalType": "address",
          "name": "owner",
          "type": "address"
        },
        {
          "indexed": true,
          "internalType": "address",
          "name": "operator",
          "type": "address"
        },
        {
          "indexed": false,
          "internalType": "bool",
          "name": "approved",
          "type": "bool"
        }
      ],
      "name": "ApprovalForAll",
      "type": "event"
    },
    {
      "anonymous": false,
      "inputs": [
        {
          "indexed": true,
          "internalType": "address",
          "name": "from",
          "type": "address"
        },
        {
          "indexed": true,
          "internalType": "address",
          "name": "to",
          "type": "address"
        },
        {
          "indexed": true,
          "internalType": "uint256",
          "name": "tokenId",
          "type": "uint256"
        }
      ],
      "name": "Transfer",
      "type": "event"
    },
    {
      "inputs": [],
      "name": "_name",
      "outputs": [
        {
          "internalType": "string",
          "name": "",
          "type": "string"
        }
      ],
      "stateMutability": "view",
      "type": "function"
    },
    {
      "inputs": [],
      "name": "_symbol",
      "outputs": [
        {
          "internalType": "string",
          "name": "",
          "type": "string"
        }
      ],
      "stateMutability": "view",
      "type": "function"
    },
    {
      "inputs": [
        {
          "internalType": "address",
          "name": "to",
          "type": "address"
        },
        {
          "internalType": "uint256",
          "name": "tokenId",
          "type": "uint256"
        }
      ],
      "name": "approve",
      "outputs": [],
      "stateMutability": "nonpayable",
      "type": "function"
    },
    {
      "inputs": [
        {
          "internalType": "address",
          "name": "owner",
          "type": "address"
        }
      ],
      "name": "balanceOf",
      "outputs": [
        {
          "internalType": "uint256",
          "name": "",
          "type": "uint256"
        }
      ],
      "stateMutability": "view",
      "type": "function"
    },
    {
      "inputs": [
        {
          "internalType": "uint256",
          "name": "tokenId",
          "type": "uint256"
        }
      ],
      "name": "getApproved",
      "outputs": [
        {
          "internalType": "address",
          "name": "",
          "type": "address"
        }
      ],
      "stateMutability": "view",
      "type": "function"
    },
    {
      "inputs": [
        {
          "internalType": "address",
          "name": "owner",
          "type": "address"
        },
        {
          "internalType": "address",
          "name": "operator",
          "type": "address"
        }
      ],
      "name": "isApprovedForAll",
      "outputs": [
        {
          "internalType": "bool",
          "name": "",
          "type": "bool"
        }
      ],
      "stateMutability": "view",
      "type": "function"
    },
    {
      "inputs": [],
      "name": "name",
      "outputs": [
        {
          "internalType": "string",
          "name": "",
          "type": "string"
        }
      ],
      "stateMutability": "view",
      "type": "function"
    },
    {
      "inputs": [
        {
          "internalType": "uint256",
          "name": "tokenId",
          "type": "uint256"
        }
      ],
      "name": "ownerOf",
      "outputs": [
        {
          "internalType": "address",
          "name": "",
          "type": "address"
        }
      ],
      "stateMutability": "view",
      "type": "function"
    },
    {
      "inputs": [
        {
          "internalType": "address",
          "name": "from",
          "type": "address"
        },
        {
          "internalType": "address",
          "name": "to",
          "type": "address"
        },
        {
          "internalType": "uint256",
          "name": "tokenId",
          "type": "uint256"
        }
      ],
      "name": "safeTransferFrom",
      "outputs": [],
      "stateMutability": "nonpayable",
      "type": "function"
    },
    {
      "inputs": [
        {
          "internalType": "address",
          "name": "from",
          "type": "address"
        },
        {
          "internalType": "address",
          "name": "to",
          "type": "address"
        },
        {
          "internalType": "uint256",
          "name": "tokenId",
          "type": "uint256"
        },
        {
          "internalType": "bytes",
          "name": "_data",
          "type": "bytes"
        }
      ],
      "name": "safeTransferFrom",
      "outputs": [],
      "stateMutability": "nonpayable",
      "type": "function"
    },
    {
      "inputs": [
        {
          "internalType": "address",
          "name": "operator",
          "type": "address"
        },
        {
          "internalType": "bool",
          "name": "approved",
          "type": "bool"
        }
      ],
      "name": "setApprovalForAll",
      "outputs": [],
      "stateMutability": "nonpayable",
      "type": "function"
    },
    {
      "inputs": [
        {
          "internalType": "bytes4",
          "name": "interfaceId",
          "type": "bytes4"
        }
      ],
      "name": "supportsInterface",
      "outputs": [
        {
          "internalType": "bool",
          "name": "",
          "type": "bool"
        }
      ],
      "stateMutability": "view",
      "type": "function"
    },
    {
      "inputs": [],
      "name": "symbol",
      "outputs": [
        {
          "internalType": "string",
          "name": "",
          "type": "string"
        }
      ],
      "stateMutability": "view",
      "type": "function"
    },
    {
      "inputs": [
        {
          "internalType": "uint256",
          "name": "tokenId",
          "type": "uint256"
        }
      ],
      "name": "tokenURI",
      "outputs": [
        {
          "internalType": "string",
          "name": "",
          "type": "string"
        }
      ],
      "stateMutability": "view",
      "type": "function"
    },
    {
      "inputs": [
        {
          "internalType": "address",
          "name": "from",
          "type": "address"
        },
        {
          "internalType": "address",
          "name": "to",
          "type": "address"
        },
        {
          "internalType": "uint256",
          "name": "tokenId",
          "type": "uint256"
        }
      ],
      "name": "transferFrom",
      "outputs": [],
      "stateMutability": "nonpayable",
      "type": "function"
    }
  ],
  "bytecode": "0x608060405234801561001057600080fd5b5061255d806100206000396000f3fe608060405234801561001057600080fd5b50600436106100f55760003560e01c806370a0823111610097578063b88d4fde11610066578063b88d4fde14610284578063c87b56dd146102a0578063d28d8852146102d0578063e985e9c5146102ee576100f5565b806370a08231146101fc57806395d89b411461022c578063a22cb4651461024a578063b09f126614610266576100f5565b8063095ea7b3116100d3578063095ea7b31461017857806323b872dd1461019457806342842e0e146101b05780636352211e146101cc576100f5565b806301ffc9a7146100fa57806306fdde031461012a578063081812fc14610148575b600080fd5b610114600480360381019061010f91906115b8565b61031e565b6040516101219190611600565b60405180910390f35b610132610400565b60405161013f91906116b4565b60405180910390f35b610162600480360381019061015d919061170c565b610492565b60405161016f919061177a565b60405180910390f35b610192600480360381019061018d91906117c1565b610517565b005b6101ae60048036038101906101a99190611801565b61062f565b005b6101ca60048036038101906101c59190611801565b61068f565b005b6101e660048036038101906101e1919061170c565b6106af565b6040516101f3919061177a565b60405180910390f35b61021660048036038101906102119190611854565b610761565b6040516102239190611890565b60405180910390f35b610234610819565b60405161024191906116b4565b60405180910390f35b610264600480360381019061025f91906118d7565b6108ab565b005b61026e6108c1565b60405161027b91906116b4565b60405180910390f35b61029e60048036038101906102999190611a4c565b61094f565b005b6102ba60048036038101906102b5919061170c565b6109b1565b6040516102c791906116b4565b60405180910390f35b6102d8610a58565b6040516102e591906116b4565b60405180910390f35b61030860048036038101906103039190611acf565b610ae6565b6040516103159190611600565b60405180910390f35b60007f80ac58cd000000000000000000000000000000000000000000000000000000007bffffffffffffffffffffffffffffffffffffffffffffffffffffffff1916827bffffffffffffffffffffffffffffffffffffffffffffffffffffffff191614806103e957507f5b5e139f000000000000000000000000000000000000000000000000000000007bffffffffffffffffffffffffffffffffffffffffffffffffffffffff1916827bffffffffffffffffffffffffffffffffffffffffffffffffffffffff1916145b806103f957506103f882610b7a565b5b9050919050565b60606065805461040f90611b3e565b80601f016020809104026020016040519081016040528092919081815260200182805461043b90611b3e565b80156104885780601f1061045d57610100808354040283529160200191610488565b820191906000526020600020905b81548152906001019060200180831161046b57829003601f168201915b5050505050905090565b600061049d82610be4565b6104dc576040517f08c379a00000000000000000000000000000000000000000000000000000000081526004016104d390611be2565b60405180910390fd5b6069600083815260200190815260200160002060009054906101000a900473ffffffffffffffffffffffffffffffffffffffff169050919050565b6000610522826106af565b90508073ffffffffffffffffffffffffffffffffffffffff168373ffffffffffffffffffffffffffffffffffffffff161415610593576040517f08c379a000000000000000000000000000000000000000000000000000000000815260040161058a90611c74565b60405180910390fd5b8073ffffffffffffffffffffffffffffffffffffffff166105b2610c50565b73ffffffffffffffffffffffffffffffffffffffff1614806105e157506105e0816105db610c50565b610ae6565b5b610620576040517f08c379a000000000000000000000000000000000000000000000000000000000815260040161061790611d06565b60405180910390fd5b61062a8383610c58565b505050565b61064061063a610c50565b82610d11565b61067f576040517f08c379a000000000000000000000000000000000000000000000000000000000815260040161067690611d98565b60405180910390fd5b61068a838383610def565b505050565b6106aa8383836040518060200160405280600081525061094f565b505050565b6000806067600084815260200190815260200160002060009054906101000a900473ffffffffffffffffffffffffffffffffffffffff169050600073ffffffffffffffffffffffffffffffffffffffff168173ffffffffffffffffffffffffffffffffffffffff161415610758576040517f08c379a000000000000000000000000000000000000000000000000000000000815260040161074f90611e2a565b60405180910390fd5b80915050919050565b60008073ffffffffffffffffffffffffffffffffffffffff168273ffffffffffffffffffffffffffffffffffffffff1614156107d2576040517f08c379a00000000000000000000000000000000000000000000000000000000081526004016107c990611ebc565b60405180910390fd5b606860008373ffffffffffffffffffffffffffffffffffffffff1673ffffffffffffffffffffffffffffffffffffffff168152602001908152602001600020549050919050565b60606066805461082890611b3e565b80601f016020809104026020016040519081016040528092919081815260200182805461085490611b3e565b80156108a15780601f10610876576101008083540402835291602001916108a1565b820191906000526020600020905b81548152906001019060200180831161088457829003601f168201915b5050505050905090565b6108bd6108b6610c50565b8383611056565b5050565b606680546108ce90611b3e565b80601f01602080910402602001604051908101604052809291908181526020018280546108fa90611b3e565b80156109475780601f1061091c57610100808354040283529160200191610947565b820191906000526020600020905b81548152906001019060200180831161092a57829003601f168201915b505050505081565b61096061095a610c50565b83610d11565b61099f576040517f08c379a000000000000000000000000000000000000000000000000000000000815260040161099690611d98565b60405180910390fd5b6109ab848484846111c3565b50505050565b60606109bc82610be4565b6109fb576040517f08c379a00000000000000000000000000000000000000000000000000000000081526004016109f290611f4e565b60405180910390fd5b6000610a0561121f565b90506000815111610a255760405180602001604052806000815250610a50565b80610a2f84611236565b604051602001610a40929190611faa565b6040516020818303038152906040525b915050919050565b60658054610a6590611b3e565b80601f0160208091040260200160405190810160405280929190818152602001828054610a9190611b3e565b8015610ade5780601f10610ab357610100808354040283529160200191610ade565b820191906000526020600020905b815481529060010190602001808311610ac157829003601f168201915b505050505081565b6000606a60008473ffffffffffffffffffffffffffffffffffffffff1673ffffffffffffffffffffffffffffffffffffffff16815260200190815260200160002060008373ffffffffffffffffffffffffffffffffffffffff1673ffffffffffffffffffffffffffffffffffffffff16815260200190815260200160002060009054906101000a900460ff16905092915050565b60007f01ffc9a7000000000000000000000000000000000000000000000000000000007bffffffffffffffffffffffffffffffffffffffffffffffffffffffff1916827bffffffffffffffffffffffffffffffffffffffffffffffffffffffff1916149050919050565b60008073ffffffffffffffffffffffffffffffffffffffff166067600084815260200190815260200160002060009054906101000a900473ffffffffffffffffffffffffffffffffffffffff1673ffffffffffffffffffffffffffffffffffffffff1614159050919050565b600033905090565b816069600083815260200190815260200160002060006101000a81548173ffffffffffffffffffffffffffffffffffffffff021916908373ffffffffffffffffffffffffffffffffffffffff160217905550808273ffffffffffffffffffffffffffffffffffffffff16610ccb836106af565b73ffffffffffffffffffffffffffffffffffffffff167f8c5be1e5ebec7d5bd14f71427d1e84f3dd0314c0f7b2291e5b200ac8c7c3b92560405160405180910390a45050565b6000610d1c82610be4565b610d5b576040517f08c379a0000000000000000000000000000000000000000000000000000000008152600401610d5290612040565b60405180910390fd5b6000610d66836106af565b90508073ffffffffffffffffffffffffffffffffffffffff168473ffffffffffffffffffffffffffffffffffffffff161480610dd557508373ffffffffffffffffffffffffffffffffffffffff16610dbd84610492565b73ffffffffffffffffffffffffffffffffffffffff16145b80610de65750610de58185610ae6565b5b91505092915050565b8273ffffffffffffffffffffffffffffffffffffffff16610e0f826106af565b73ffffffffffffffffffffffffffffffffffffffff1614610e65576040517f08c379a0000000000000000000000000000000000000000000000000000000008152600401610e5c906120d2565b60405180910390fd5b600073ffffffffffffffffffffffffffffffffffffffff168273ffffffffffffffffffffffffffffffffffffffff161415610ed5576040517f08c379a0000000000000000000000000000000000000000000000000000000008152600401610ecc90612164565b60405180910390fd5b610ee0838383611397565b610eeb600082610c58565b6001606860008573ffffffffffffffffffffffffffffffffffffffff1673ffffffffffffffffffffffffffffffffffffffff1681526020019081526020016000206000828254610f3b91906121b3565b925050819055506001606860008473ffffffffffffffffffffffffffffffffffffffff1673ffffffffffffffffffffffffffffffffffffffff1681526020019081526020016000206000828254610f9291906121e7565b92505081905550816067600083815260200190815260200160002060006101000a81548173ffffffffffffffffffffffffffffffffffffffff021916908373ffffffffffffffffffffffffffffffffffffffff160217905550808273ffffffffffffffffffffffffffffffffffffffff168473ffffffffffffffffffffffffffffffffffffffff167fddf252ad1be2c89b69c2b068fc378daa952ba7f163c4a11628f55a4df523b3ef60405160405180910390a461105183838361139c565b505050565b8173ffffffffffffffffffffffffffffffffffffffff168373ffffffffffffffffffffffffffffffffffffffff1614156110c5576040517f08c379a00000000000000000000000000000000000000000000000000000000081526004016110bc90612289565b60405180910390fd5b80606a60008573ffffffffffffffffffffffffffffffffffffffff1673ffffffffffffffffffffffffffffffffffffffff16815260200190815260200160002060008473ffffffffffffffffffffffffffffffffffffffff1673ffffffffffffffffffffffffffffffffffffffff16815260200190815260200160002060006101000a81548160ff0219169083151502179055508173ffffffffffffffffffffffffffffffffffffffff168373ffffffffffffffffffffffffffffffffffffffff167f17307eab39ab6107e8899845ad3d59bd9653f200f220920489ca2b5937696c31836040516111b69190611600565b60405180910390a3505050565b6111ce848484610def565b6111da848484846113a1565b611219576040517f08c379a00000000000000000000000000000000000000000000000000000000081526004016112109061231b565b60405180910390fd5b50505050565b606060405180602001604052806000815250905090565b6060600082141561127e576040518060400160405280600181526020017f30000000000000000000000000000000000000000000000000000000000000008152509050611392565b600082905060005b600082146112b05780806112999061233b565b915050600a826112a991906123b3565b9150611286565b60008167ffffffffffffffff8111156112cc576112cb611921565b5b6040519080825280601f01601f1916602001820160405280156112fe5781602001600182028036833780820191505090505b5090505b6000851461138b5760018261131791906121b3565b9150600a8561132691906123e4565b603061133291906121e7565b60f81b81838151811061134857611347612415565b5b60200101907effffffffffffffffffffffffffffffffffffffffffffffffffffffffffffff1916908160001a905350600a8561138491906123b3565b9450611302565b8093505050505b919050565b505050565b505050565b60006113c28473ffffffffffffffffffffffffffffffffffffffff16611529565b1561151c578373ffffffffffffffffffffffffffffffffffffffff1663150b7a026113eb610c50565b8786866040518563ffffffff1660e01b815260040161140d9493929190612499565b6020604051808303816000875af192505050801561144957506040513d601f19601f8201168201806040525081019061144691906124fa565b60015b6114cc573d8060008114611479576040519150601f19603f3d011682016040523d82523d6000602084013e61147e565b606091505b506000815114156114c4576040517f08c379a00000000000000000000000000000000000000000000000000000000081526004016114bb9061231b565b60405180910390fd5b805181602001fd5b63150b7a0260e01b7bffffffffffffffffffffffffffffffffffffffffffffffffffffffff1916817bffffffffffffffffffffffffffffffffffffffffffffffffffffffff191614915050611521565b600190505b949350505050565b6000808273ffffffffffffffffffffffffffffffffffffffff163b119050919050565b6000604051905090565b600080fd5b600080fd5b60007fffffffff0000000000000000000000000000000000000000000000000000000082169050919050565b61159581611560565b81146115a057600080fd5b50565b6000813590506115b28161158c565b92915050565b6000602082840312156115ce576115cd611556565b5b60006115dc848285016115a3565b91505092915050565b60008115159050919050565b6115fa816115e5565b82525050565b600060208201905061161560008301846115f1565b92915050565b600081519050919050565b600082825260208201905092915050565b60005b8381101561165557808201518184015260208101905061163a565b83811115611664576000848401525b50505050565b6000601f19601f8301169050919050565b60006116868261161b565b6116908185611626565b93506116a0818560208601611637565b6116a98161166a565b840191505092915050565b600060208201905081810360008301526116ce818461167b565b905092915050565b6000819050919050565b6116e9816116d6565b81146116f457600080fd5b50565b600081359050611706816116e0565b92915050565b60006020828403121561172257611721611556565b5b6000611730848285016116f7565b91505092915050565b600073ffffffffffffffffffffffffffffffffffffffff82169050919050565b600061176482611739565b9050919050565b61177481611759565b82525050565b600060208201905061178f600083018461176b565b92915050565b61179e81611759565b81146117a957600080fd5b50565b6000813590506117bb81611795565b92915050565b600080604083850312156117d8576117d7611556565b5b60006117e6858286016117ac565b92505060206117f7858286016116f7565b9150509250929050565b60008060006060848603121561181a57611819611556565b5b6000611828868287016117ac565b9350506020611839868287016117ac565b925050604061184a868287016116f7565b9150509250925092565b60006020828403121561186a57611869611556565b5b6000611878848285016117ac565b91505092915050565b61188a816116d6565b82525050565b60006020820190506118a56000830184611881565b92915050565b6118b4816115e5565b81146118bf57600080fd5b50565b6000813590506118d1816118ab565b92915050565b600080604083850312156118ee576118ed611556565b5b60006118fc858286016117ac565b925050602061190d858286016118c2565b9150509250929050565b600080fd5b600080fd5b7f4e487b7100000000000000000000000000000000000000000000000000000000600052604160045260246000fd5b6119598261166a565b810181811067ffffffffffffffff8211171561197857611977611921565b5b80604052505050565b600061198b61154c565b90506119978282611950565b919050565b600067ffffffffffffffff8211156119b7576119b6611921565b5b6119c08261166a565b9050602081019050919050565b82818337600083830152505050565b60006119ef6119ea8461199c565b611981565b905082815260208101848484011115611a0b57611a0a61191c565b5b611a168482856119cd565b509392505050565b600082601f830112611a3357611a32611917565b5b8135611a438482602086016119dc565b91505092915050565b60008060008060808587031215611a6657611a65611556565b5b6000611a74878288016117ac565b9450506020611a85878288016117ac565b9350506040611a96878288016116f7565b925050606085013567ffffffffffffffff811115611ab757611ab661155b565b5b611ac387828801611a1e565b91505092959194509250565b60008060408385031215611ae657611ae5611556565b5b6000611af4858286016117ac565b9250506020611b05858286016117ac565b9150509250929050565b7f4e487b7100000000000000000000000000000000000000000000000000000000600052602260045260246000fd5b60006002820490506001821680611b5657607f821691505b60208210811415611b6a57611b69611b0f565b5b50919050565b7f4552433732313a20617070726f76656420717565727920666f72206e6f6e657860008201527f697374656e7420746f6b656e0000000000000000000000000000000000000000602082015250565b6000611bcc602c83611626565b9150611bd782611b70565b604082019050919050565b60006020820190508181036000830152611bfb81611bbf565b9050919050565b7f4552433732313a20617070726f76616c20746f2063757272656e74206f776e6560008201527f7200000000000000000000000000000000000000000000000000000000000000602082015250565b6000611c5e602183611626565b9150611c6982611c02565b604082019050919050565b60006020820190508181036000830152611c8d81611c51565b9050919050565b7f4552433732313a20617070726f76652063616c6c6572206973206e6f74206f7760008201527f6e6572206e6f7220617070726f76656420666f7220616c6c0000000000000000602082015250565b6000611cf0603883611626565b9150611cfb82611c94565b604082019050919050565b60006020820190508181036000830152611d1f81611ce3565b9050919050565b7f4552433732313a207472616e736665722063616c6c6572206973206e6f74206f60008201527f776e6572206e6f7220617070726f766564000000000000000000000000000000602082015250565b6000611d82603183611626565b9150611d8d82611d26565b604082019050919050565b60006020820190508181036000830152611db181611d75565b9050919050565b7f4552433732313a206f776e657220717565727920666f72206e6f6e657869737460008201527f656e7420746f6b656e0000000000000000000000000000000000000000000000602082015250565b6000611e14602983611626565b9150611e1f82611db8565b604082019050919050565b60006020820190508181036000830152611e4381611e07565b9050919050565b7f4552433732313a2062616c616e636520717565727920666f7220746865207a6560008201527f726f206164647265737300000000000000000000000000000000000000000000602082015250565b6000611ea6602a83611626565b9150611eb182611e4a565b604082019050919050565b60006020820190508181036000830152611ed581611e99565b9050919050565b7f4552433732314d657461646174613a2055524920717565727920666f72206e6f60008201527f6e6578697374656e7420746f6b656e0000000000000000000000000000000000602082015250565b6000611f38602f83611626565b9150611f4382611edc565b604082019050919050565b60006020820190508181036000830152611f6781611f2b565b9050919050565b600081905092915050565b6000611f848261161b565b611f8e8185611f6e565b9350611f9e818560208601611637565b80840191505092915050565b6000611fb68285611f79565b9150611fc28284611f79565b91508190509392505050565b7f4552433732313a206f70657261746f7220717565727920666f72206e6f6e657860008201527f697374656e7420746f6b656e0000000000000000000000000000000000000000602082015250565b600061202a602c83611626565b915061203582611fce565b604082019050919050565b600060208201905081810360008301526120598161201d565b9050919050565b7f4552433732313a207472616e736665722066726f6d20696e636f72726563742060008201527f6f776e6572000000000000000000000000000000000000000000000000000000602082015250565b60006120bc602583611626565b91506120c782612060565b604082019050919050565b600060208201905081810360008301526120eb816120af565b9050919050565b7f4552433732313a207472616e7366657220746f20746865207a65726f2061646460008201527f7265737300000000000000000000000000000000000000000000000000000000602082015250565b600061214e602483611626565b9150612159826120f2565b604082019050919050565b6000602082019050818103600083015261217d81612141565b9050919050565b7f4e487b7100000000000000000000000000000000000000000000000000000000600052601160045260246000fd5b60006121be826116d6565b91506121c9836116d6565b9250828210156121dc576121db612184565b5b828203905092915050565b60006121f2826116d6565b91506121fd836116d6565b9250827fffffffffffffffffffffffffffffffffffffffffffffffffffffffffffffffff0382111561223257612231612184565b5b828201905092915050565b7f4552433732313a20617070726f766520746f2063616c6c657200000000000000600082015250565b6000612273601983611626565b915061227e8261223d565b602082019050919050565b600060208201905081810360008301526122a281612266565b9050919050565b7f4552433732313a207472616e7366657220746f206e6f6e20455243373231526560008201527f63656976657220696d706c656d656e7465720000000000000000000000000000602082015250565b6000612305603283611626565b9150612310826122a9565b604082019050919050565b60006020820190508181036000830152612334816122f8565b9050919050565b6000612346826116d6565b91507fffffffffffffffffffffffffffffffffffffffffffffffffffffffffffffffff82141561237957612378612184565b5b600182019050919050565b7f4e487b7100000000000000000000000000000000000000000000000000000000600052601260045260246000fd5b60006123be826116d6565b91506123c9836116d6565b9250826123d9576123d8612384565b5b828204905092915050565b60006123ef826116d6565b91506123fa836116d6565b92508261240a57612409612384565b5b828206905092915050565b7f4e487b7100000000000000000000000000000000000000000000000000000000600052603260045260246000fd5b600081519050919050565b600082825260208201905092915050565b600061246b82612444565b612475818561244f565b9350612485818560208601611637565b61248e8161166a565b840191505092915050565b60006080820190506124ae600083018761176b565b6124bb602083018661176b565b6124c86040830185611881565b81810360608301526124da8184612460565b905095945050505050565b6000815190506124f48161158c565b92915050565b6000602082840312156125105761250f611556565b5b600061251e848285016124e5565b9150509291505056fea264697066735822122031382eaf81a6c76ccba74cb0e16b7d7b7b159f52052dc443ff977810a63e45b964736f6c634300080a0033",
  "linkReferences": {},
  "deployedLinkReferences": {}
}