{
  "_format": "hh-sol-artifact-1",
  "contractName": "MockMintManager",
  "sourceName": "contracts/mock/MockMintManager.sol",
  "abi": [
    {
      "inputs": [
        {
          "internalType": "address",
          "name": "_target",
          "type": "address"
        },
        {
          "internalType": "address[]",
          "name": "_tos",
          "type": "address[]"
        },
        {
          "internalType": "uint32[]",
          "name": "_quantitys",
          "type": "uint32[]"
        }
      ],
      "name": "airdrop",
      "outputs": [],
      "stateMutability": "nonpayable",
      "type": "function"
    }
  ],
  "bytecode": "0x608060405234801561001057600080fd5b5061049e806100206000396000f3fe608060405234801561001057600080fd5b506004361061002b5760003560e01c8063a64236f214610030575b600080fd5b61004a6004803603810190610045919061026b565b61004c565b005b600084849050905060005b818163ffffffff16101561013f578673ffffffffffffffffffffffffffffffffffffffff1663d35e29d787878463ffffffff1681811061009a57610099610300565b5b90506020020160208101906100af919061032f565b86868563ffffffff168181106100c8576100c7610300565b5b90506020020160208101906100dd9190610398565b6040518363ffffffff1660e01b81526004016100fa9291906103e3565b600060405180830381600087803b15801561011457600080fd5b505af1158015610128573d6000803e3d6000fd5b5050505080806101379061043b565b915050610057565b50505050505050565b600080fd5b600080fd5b600073ffffffffffffffffffffffffffffffffffffffff82169050919050565b600061017d82610152565b9050919050565b61018d81610172565b811461019857600080fd5b50565b6000813590506101aa81610184565b92915050565b600080fd5b600080fd5b600080fd5b60008083601f8401126101d5576101d46101b0565b5b8235905067ffffffffffffffff8111156101f2576101f16101b5565b5b60208301915083602082028301111561020e5761020d6101ba565b5b9250929050565b60008083601f84011261022b5761022a6101b0565b5b8235905067ffffffffffffffff811115610248576102476101b5565b5b602083019150836020820283011115610264576102636101ba565b5b9250929050565b60008060008060006060868803121561028757610286610148565b5b60006102958882890161019b565b955050602086013567ffffffffffffffff8111156102b6576102b561014d565b5b6102c2888289016101bf565b9450945050604086013567ffffffffffffffff8111156102e5576102e461014d565b5b6102f188828901610215565b92509250509295509295909350565b7f4e487b7100000000000000000000000000000000000000000000000000000000600052603260045260246000fd5b60006020828403121561034557610344610148565b5b60006103538482850161019b565b91505092915050565b600063ffffffff82169050919050565b6103758161035c565b811461038057600080fd5b50565b6000813590506103928161036c565b92915050565b6000602082840312156103ae576103ad610148565b5b60006103bc84828501610383565b91505092915050565b6103ce81610172565b82525050565b6103dd8161035c565b82525050565b60006040820190506103f860008301856103c5565b61040560208301846103d4565b9392505050565b7f4e487b7100000000000000000000000000000000000000000000000000000000600052601160045260246000fd5b60006104468261035c565b915063ffffffff82141561045d5761045c61040c565b5b60018201905091905056fea2646970667358221220c8ed368fa52ea50c9ffa265798930d1de83480c23abfe609da6d3f11302f10f864736f6c634300080a0033",
  "linkReferences": {},
  "deployedLinkReferences": {}
}