{
  "_format": "hh-sol-artifact-1",
  "contractName": "OmnuumMintManager",
  "sourceName": "contracts/V1/OmnuumMintManager.sol",
  "abi": [
    {
      "anonymous": false,
      "inputs": [
        {
          "indexed": true,
          "internalType": "address",
          "name": "nftContract",
          "type": "address"
        },
        {
          "indexed": true,
          "internalType": "address",
          "name": "receiver",
          "type": "address"
        },
        {
          "indexed": false,
          "internalType": "uint256",
          "name": "quantity",
          "type": "uint256"
        }
      ],
      "name": "Airdrop",
      "type": "event"
    },
    {
      "anonymous": false,
      "inputs": [
        {
          "indexed": false,
          "internalType": "uint256",
          "name": "feeRate",
          "type": "uint256"
        }
      ],
      "name": "ChangeFeeRate",
      "type": "event"
    },
    {
      "anonymous": false,
      "inputs": [
        {
          "indexed": true,
          "internalType": "address",
          "name": "nftContract",
          "type": "address"
        },
        {
          "indexed": true,
          "internalType": "address",
          "name": "payer",
          "type": "address"
        },
        {
          "indexed": false,
          "internalType": "uint256",
          "name": "profit",
          "type": "uint256"
        },
        {
          "indexed": false,
          "internalType": "uint256",
          "name": "mintFee",
          "type": "uint256"
        }
      ],
      "name": "MintFeePaid",
      "type": "event"
    },
    {
      "anonymous": false,
      "inputs": [
        {
          "indexed": true,
          "internalType": "address",
          "name": "previousOwner",
          "type": "address"
        },
        {
          "indexed": true,
          "internalType": "address",
          "name": "newOwner",
          "type": "address"
        }
      ],
      "name": "OwnershipTransferred",
      "type": "event"
    },
    {
      "anonymous": false,
      "inputs": [
        {
          "indexed": true,
          "internalType": "address",
          "name": "nftContract",
          "type": "address"
        },
        {
          "indexed": true,
          "internalType": "address",
          "name": "minter",
          "type": "address"
        },
        {
          "indexed": true,
          "internalType": "uint256",
          "name": "groupId",
          "type": "uint256"
        },
        {
          "indexed": false,
          "internalType": "uint32",
          "name": "quantity",
          "type": "uint32"
        },
        {
          "indexed": false,
          "internalType": "uint32",
          "name": "maxQuantity",
          "type": "uint32"
        },
        {
          "indexed": false,
          "internalType": "uint256",
          "name": "price",
          "type": "uint256"
        }
      ],
      "name": "PublicMint",
      "type": "event"
    },
    {
      "anonymous": false,
      "inputs": [
        {
          "indexed": false,
          "internalType": "uint256",
          "name": "minFee",
          "type": "uint256"
        }
      ],
      "name": "SetMinFee",
      "type": "event"
    },
    {
      "anonymous": false,
      "inputs": [
        {
          "indexed": true,
          "internalType": "address",
          "name": "nftContract",
          "type": "address"
        },
        {
          "indexed": true,
          "internalType": "uint256",
          "name": "groupId",
          "type": "uint256"
        },
        {
          "indexed": false,
          "internalType": "uint256",
          "name": "endDate",
          "type": "uint256"
        },
        {
          "indexed": false,
          "internalType": "uint256",
          "name": "basePrice",
          "type": "uint256"
        },
        {
          "indexed": false,
          "internalType": "uint32",
          "name": "supply",
          "type": "uint32"
        },
        {
          "indexed": false,
          "internalType": "uint32",
          "name": "maxMintAtAddress",
          "type": "uint32"
        }
      ],
      "name": "SetPublicSchedule",
      "type": "event"
    },
    {
      "anonymous": false,
      "inputs": [
        {
          "indexed": true,
          "internalType": "address",
          "name": "nftContract",
          "type": "address"
        },
        {
          "indexed": false,
          "internalType": "uint256",
          "name": "discountFeeRate",
          "type": "uint256"
        }
      ],
      "name": "SetSpecialFeeRate",
      "type": "event"
    },
    {
      "inputs": [
        {
          "internalType": "uint256",
          "name": "_newFeeRate",
          "type": "uint256"
        }
      ],
      "name": "changeFeeRate",
      "outputs": [],
      "stateMutability": "nonpayable",
      "type": "function"
    },
    {
      "inputs": [],
      "name": "feeRate",
      "outputs": [
        {
          "internalType": "uint256",
          "name": "",
          "type": "uint256"
        }
      ],
      "stateMutability": "view",
      "type": "function"
    },
    {
      "inputs": [
        {
          "internalType": "address",
          "name": "_nftContract",
          "type": "address"
        }
      ],
      "name": "getFeeRate",
      "outputs": [
        {
          "internalType": "uint256",
          "name": "",
          "type": "uint256"
        }
      ],
      "stateMutability": "view",
      "type": "function"
    },
    {
      "inputs": [
        {
          "internalType": "uint256",
          "name": "_feeRate",
          "type": "uint256"
        },
        {
          "internalType": "address",
          "name": "_caManager",
          "type": "address"
        }
      ],
      "name": "initialize",
      "outputs": [],
      "stateMutability": "nonpayable",
      "type": "function"
    },
    {
      "inputs": [],
      "name": "minFee",
      "outputs": [
        {
          "internalType": "uint256",
          "name": "",
          "type": "uint256"
        }
      ],
      "stateMutability": "view",
      "type": "function"
    },
    {
      "inputs": [
        {
          "internalType": "address payable",
          "name": "_nftContract",
          "type": "address"
        },
        {
          "internalType": "address[]",
          "name": "_tos",
          "type": "address[]"
        },
        {
          "internalType": "uint256[]",
          "name": "_quantitys",
          "type": "uint256[]"
        }
      ],
      "name": "mintMultiple",
      "outputs": [],
      "stateMutability": "payable",
      "type": "function"
    },
    {
      "inputs": [],
      "name": "owner",
      "outputs": [
        {
          "internalType": "address",
          "name": "",
          "type": "address"
        }
      ],
      "stateMutability": "view",
      "type": "function"
    },
    {
      "inputs": [
        {
          "internalType": "uint256",
          "name": "_groupId",
          "type": "uint256"
        },
        {
          "internalType": "uint32",
          "name": "_quantity",
          "type": "uint32"
        },
        {
          "internalType": "uint256",
          "name": "_value",
          "type": "uint256"
        },
        {
          "internalType": "address",
          "name": "_minter",
          "type": "address"
        }
      ],
      "name": "preparePublicMint",
      "outputs": [],
      "stateMutability": "nonpayable",
      "type": "function"
    },
    {
      "inputs": [
        {
          "internalType": "address",
          "name": "",
          "type": "address"
        },
        {
          "internalType": "uint256",
          "name": "",
          "type": "uint256"
        }
      ],
      "name": "publicMintSchedules",
      "outputs": [
        {
          "internalType": "uint32",
          "name": "supply",
          "type": "uint32"
        },
        {
          "internalType": "uint32",
          "name": "mintedTotal",
          "type": "uint32"
        },
        {
          "internalType": "uint32",
          "name": "maxMintAtAddress",
          "type": "uint32"
        },
        {
          "internalType": "uint256",
          "name": "endDate",
          "type": "uint256"
        },
        {
          "internalType": "uint256",
          "name": "basePrice",
          "type": "uint256"
        }
      ],
      "stateMutability": "view",
      "type": "function"
    },
    {
      "inputs": [],
      "name": "rateDecimal",
      "outputs": [
        {
          "internalType": "uint8",
          "name": "",
          "type": "uint8"
        }
      ],
      "stateMutability": "view",
      "type": "function"
    },
    {
      "inputs": [
        {
          "internalType": "uint256",
          "name": "_minFee",
          "type": "uint256"
        }
      ],
      "name": "setMinFee",
      "outputs": [],
      "stateMutability": "nonpayable",
      "type": "function"
    },
    {
      "inputs": [
        {
          "internalType": "address",
          "name": "_nft",
          "type": "address"
        },
        {
          "internalType": "uint256",
          "name": "_groupId",
          "type": "uint256"
        },
        {
          "internalType": "uint256",
          "name": "_endDate",
          "type": "uint256"
        },
        {
          "internalType": "uint256",
          "name": "_basePrice",
          "type": "uint256"
        },
        {
          "internalType": "uint32",
          "name": "_supply",
          "type": "uint32"
        },
        {
          "internalType": "uint32",
          "name": "_maxMintAtAddress",
          "type": "uint32"
        }
      ],
      "name": "setPublicMintSchedule",
      "outputs": [],
      "stateMutability": "nonpayable",
      "type": "function"
    },
    {
      "inputs": [
        {
          "internalType": "address",
          "name": "_nftContract",
          "type": "address"
        },
        {
          "internalType": "uint256",
          "name": "_feeRate",
          "type": "uint256"
        }
      ],
      "name": "setSpecialFeeRate",
      "outputs": [],
      "stateMutability": "nonpayable",
      "type": "function"
    },
    {
      "inputs": [
        {
          "internalType": "address",
          "name": "",
          "type": "address"
        }
      ],
      "name": "specialFeeRates",
      "outputs": [
        {
          "internalType": "uint256",
          "name": "",
          "type": "uint256"
        }
      ],
      "stateMutability": "view",
      "type": "function"
    },
    {
      "inputs": [
        {
          "internalType": "address",
          "name": "newOwner",
          "type": "address"
        }
      ],
      "name": "transferOwnership",
      "outputs": [],
      "stateMutability": "nonpayable",
      "type": "function"
    }
  ],
  "bytecode": "0x608060405234801561001057600080fd5b50612580806100206000396000f3fe6080604052600436106100e85760003560e01c8063978bbdb91161008a578063dce151b311610059578063dce151b3146102d7578063efe53c2714610300578063f2fde38b1461033d578063fb73cf4e14610366576100e8565b8063978bbdb914610231578063affca9321461025c578063cad7277014610285578063da35a26f146102ae576100e8565b8063349176da116100c6578063349176da1461016c57806347bc460d146101885780638198edbf146101c95780638da5cb5b14610206576100e8565b806324ec7590146100ed57806331809c7e1461011857806331ac992014610143575b600080fd5b3480156100f957600080fd5b5061010261038f565b60405161010f919061167f565b60405180910390f35b34801561012457600080fd5b5061012d610395565b60405161013a91906116b6565b60405180910390f35b34801561014f57600080fd5b5061016a60048036038101906101659190611707565b61039a565b005b6101866004803603810190610181919061184d565b610457565b005b34801561019457600080fd5b506101af60048036038101906101aa9190611920565b61089c565b6040516101c095949392919061197f565b60405180910390f35b3480156101d557600080fd5b506101f060048036038101906101eb91906119d2565b61090f565b6040516101fd919061167f565b60405180910390f35b34801561021257600080fd5b5061021b6109a7565b6040516102289190611a0e565b60405180910390f35b34801561023d57600080fd5b506102466109d1565b604051610253919061167f565b60405180910390f35b34801561026857600080fd5b50610283600480360381019061027e9190611707565b6109d7565b005b34801561029157600080fd5b506102ac60048036038101906102a79190611a55565b610ada565b005b3480156102ba57600080fd5b506102d560048036038101906102d09190611ae2565b610cc0565b005b3480156102e357600080fd5b506102fe60048036038101906102f99190611b22565b610e04565b005b34801561030c57600080fd5b50610327600480360381019061032291906119d2565b611180565b604051610334919061167f565b60405180910390f35b34801561034957600080fd5b50610364600480360381019061035f91906119d2565b611198565b005b34801561037257600080fd5b5061038d60048036038101906103889190611920565b611290565b005b60665481565b600581565b6103a2611458565b73ffffffffffffffffffffffffffffffffffffffff166103c06109a7565b73ffffffffffffffffffffffffffffffffffffffff1614610416576040517f08c379a000000000000000000000000000000000000000000000000000000000815260040161040d90611be6565b60405180910390fd5b806066819055507f81d2c871f6984b6743a9b4546acc03a595a2e61e088fcabd73bf8dc839266b818160405161044c919061167f565b60405180910390a150565b600085905060008585905090503373ffffffffffffffffffffffffffffffffffffffff168273ffffffffffffffffffffffffffffffffffffffff16638da5cb5b6040518163ffffffff1660e01b8152600401602060405180830381865afa1580156104c6573d6000803e3d6000fd5b505050506040513d601f19601f820116820180604052508101906104ea9190611c1b565b73ffffffffffffffffffffffffffffffffffffffff1614610540576040517f08c379a000000000000000000000000000000000000000000000000000000000815260040161053790611c94565b60405180910390fd5b838390508114610585576040517f08c379a000000000000000000000000000000000000000000000000000000000815260040161057c90611d00565b60405180910390fd5b600080600090505b828110156106d45760008888838181106105aa576105a9611d20565b5b90506020020160208101906105bf91906119d2565b905060008787848181106105d6576105d5611d20565b5b90506020020135905080846105eb9190611d7e565b93508573ffffffffffffffffffffffffffffffffffffffff16636a28443883836040518363ffffffff1660e01b8152600401610628929190611dd4565b600060405180830381600087803b15801561064257600080fd5b505af1158015610656573d6000803e3d6000fd5b505050508173ffffffffffffffffffffffffffffffffffffffff168b73ffffffffffffffffffffffffffffffffffffffff167f8986d2aad709d6d52ca7673e78442a1ac939dc024b80334c27ca759e7658a028836040516106b7919061167f565b60405180910390a3505080806106cc90611dfd565b91505061058d565b50606654816106e39190611e46565b341015610725576040517f08c379a000000000000000000000000000000000000000000000000000000000815260040161071c90611eec565b60405180910390fd5b606960009054906101000a900473ffffffffffffffffffffffffffffffffffffffff1673ffffffffffffffffffffffffffffffffffffffff1663358177736040518163ffffffff1660e01b815260040161077e90611f58565b602060405180830381865afa15801561079b573d6000803e3d6000fd5b505050506040513d601f19601f820116820180604052508101906107bf9190611c1b565b73ffffffffffffffffffffffffffffffffffffffff1663f14cf2b1348a6040518363ffffffff1660e01b81526004016107f89190611fd7565b6000604051808303818588803b15801561081157600080fd5b505af1158015610825573d6000803e3d6000fd5b50505050503373ffffffffffffffffffffffffffffffffffffffff168873ffffffffffffffffffffffffffffffffffffffff167f14deb714a99fc451d7b93138680aa1d3e1391c3ebe9fa0752878a73347074a4360003460405161088a92919061202d565b60405180910390a35050505050505050565b6068602052816000526040600020602052806000526040600020600091509150508060000160009054906101000a900463ffffffff16908060000160049054906101000a900463ffffffff16908060000160089054906101000a900463ffffffff16908060020154908060030154905085565b600080606760008473ffffffffffffffffffffffffffffffffffffffff1673ffffffffffffffffffffffffffffffffffffffff168152602001908152602001600020541461099c57606760008373ffffffffffffffffffffffffffffffffffffffff1673ffffffffffffffffffffffffffffffffffffffff168152602001908152602001600020546109a0565b6065545b9050919050565b6000603360009054906101000a900473ffffffffffffffffffffffffffffffffffffffff16905090565b60655481565b6109df611458565b73ffffffffffffffffffffffffffffffffffffffff166109fd6109a7565b73ffffffffffffffffffffffffffffffffffffffff1614610a53576040517f08c379a0000000000000000000000000000000000000000000000000000000008152600401610a4a90611be6565b60405180910390fd5b620186a0811115610a99576040517f08c379a0000000000000000000000000000000000000000000000000000000008152600401610a90906120a2565b60405180910390fd5b806065819055507f959e25ed7f2462e87a914c01dc168688aafb2a2a3686e904a02c1ade7282fa2981604051610acf919061167f565b60405180910390a150565b3373ffffffffffffffffffffffffffffffffffffffff168673ffffffffffffffffffffffffffffffffffffffff16638da5cb5b6040518163ffffffff1660e01b8152600401602060405180830381865afa158015610b3c573d6000803e3d6000fd5b505050506040513d601f19601f82011682018060405250810190610b609190611c1b565b73ffffffffffffffffffffffffffffffffffffffff1614610bb6576040517f08c379a0000000000000000000000000000000000000000000000000000000008152600401610bad90611c94565b60405180910390fd5b6000606860008873ffffffffffffffffffffffffffffffffffffffff1673ffffffffffffffffffffffffffffffffffffffff16815260200190815260200160002060008781526020019081526020016000209050828160000160006101000a81548163ffffffff021916908363ffffffff160217905550848160020181905550838160030181905550818160000160086101000a81548163ffffffff021916908363ffffffff160217905550858773ffffffffffffffffffffffffffffffffffffffff167f52152fba3ec4a41cc0cc5511c44d918fc8fe409ff3f5168178675b3880421bf887878787604051610caf94939291906120c2565b60405180910390a350505050505050565b600060019054906101000a900460ff16610ce85760008054906101000a900460ff1615610cf1565b610cf0611460565b5b610d30576040517f08c379a0000000000000000000000000000000000000000000000000000000008152600401610d2790612179565b60405180910390fd5b60008060019054906101000a900460ff161590508015610d80576001600060016101000a81548160ff02191690831515021790555060016000806101000a81548160ff0219169083151502179055505b610d88611471565b8260658190555081606960006101000a81548173ffffffffffffffffffffffffffffffffffffffff021916908373ffffffffffffffffffffffffffffffffffffffff1602179055506601c6bf526340006066819055508015610dff5760008060016101000a81548160ff0219169083151502179055505b505050565b6000606860003373ffffffffffffffffffffffffffffffffffffffff1673ffffffffffffffffffffffffffffffffffffffff168152602001908152602001600020600086815260200190815260200160002090508060020154421115610e9f576040517f08c379a0000000000000000000000000000000000000000000000000000000008152600401610e96906121e5565b60405180910390fd5b828463ffffffff168260030154610eb69190611e46565b1115610ef7576040517f08c379a0000000000000000000000000000000000000000000000000000000008152600401610eee90612251565b60405180910390fd5b8060000160089054906101000a900463ffffffff1663ffffffff16848260010160008573ffffffffffffffffffffffffffffffffffffffff1673ffffffffffffffffffffffffffffffffffffffff16815260200190815260200160002060009054906101000a900463ffffffff16610f6f9190612271565b63ffffffff161115610fb6576040517f08c379a0000000000000000000000000000000000000000000000000000000008152600401610fad906122f7565b60405180910390fd5b8060000160009054906101000a900463ffffffff1663ffffffff16848260000160049054906101000a900463ffffffff16610ff19190612271565b63ffffffff161115611038576040517f08c379a000000000000000000000000000000000000000000000000000000000815260040161102f90612363565b60405180910390fd5b838160010160008473ffffffffffffffffffffffffffffffffffffffff1673ffffffffffffffffffffffffffffffffffffffff16815260200190815260200160002060008282829054906101000a900463ffffffff166110989190612271565b92506101000a81548163ffffffff021916908363ffffffff160217905550838160000160048282829054906101000a900463ffffffff166110d99190612271565b92506101000a81548163ffffffff021916908363ffffffff160217905550848273ffffffffffffffffffffffffffffffffffffffff163373ffffffffffffffffffffffffffffffffffffffff167f44cf7174bb96ec2f45e18937962c1eb2f5e756239415ac8c8e8c82078d70c75e878560000160009054906101000a900463ffffffff16866003015460405161117193929190612383565b60405180910390a45050505050565b60676020528060005260406000206000915090505481565b6111a0611458565b73ffffffffffffffffffffffffffffffffffffffff166111be6109a7565b73ffffffffffffffffffffffffffffffffffffffff1614611214576040517f08c379a000000000000000000000000000000000000000000000000000000000815260040161120b90611be6565b60405180910390fd5b600073ffffffffffffffffffffffffffffffffffffffff168173ffffffffffffffffffffffffffffffffffffffff161415611284576040517f08c379a000000000000000000000000000000000000000000000000000000000815260040161127b9061242c565b60405180910390fd5b61128d816114d2565b50565b611298611458565b73ffffffffffffffffffffffffffffffffffffffff166112b66109a7565b73ffffffffffffffffffffffffffffffffffffffff161461130c576040517f08c379a000000000000000000000000000000000000000000000000000000000815260040161130390611be6565b60405180910390fd5b600073ffffffffffffffffffffffffffffffffffffffff168273ffffffffffffffffffffffffffffffffffffffff16141561137c576040517f08c379a000000000000000000000000000000000000000000000000000000000815260040161137390612498565b60405180910390fd5b620186a08111156113c2576040517f08c379a00000000000000000000000000000000000000000000000000000000081526004016113b9906120a2565b60405180910390fd5b80606760008473ffffffffffffffffffffffffffffffffffffffff1673ffffffffffffffffffffffffffffffffffffffff168152602001908152602001600020819055508173ffffffffffffffffffffffffffffffffffffffff167faf4fc6cddd93f88f63327478a7a770b1c444596537018ecf1e4f7f543407131e8260405161144c919061167f565b60405180910390a25050565b600033905090565b600061146b30611598565b15905090565b600060019054906101000a900460ff166114c0576040517f08c379a00000000000000000000000000000000000000000000000000000000081526004016114b79061252a565b60405180910390fd5b6114c86115bb565b6114d061160c565b565b6000603360009054906101000a900473ffffffffffffffffffffffffffffffffffffffff16905081603360006101000a81548173ffffffffffffffffffffffffffffffffffffffff021916908373ffffffffffffffffffffffffffffffffffffffff1602179055508173ffffffffffffffffffffffffffffffffffffffff168173ffffffffffffffffffffffffffffffffffffffff167f8be0079c531659141344cd1fd0a4f28419497f9722a3daafe3b4186f6b6457e060405160405180910390a35050565b6000808273ffffffffffffffffffffffffffffffffffffffff163b119050919050565b600060019054906101000a900460ff1661160a576040517f08c379a00000000000000000000000000000000000000000000000000000000081526004016116019061252a565b60405180910390fd5b565b600060019054906101000a900460ff1661165b576040517f08c379a00000000000000000000000000000000000000000000000000000000081526004016116529061252a565b60405180910390fd5b611664326114d2565b565b6000819050919050565b61167981611666565b82525050565b60006020820190506116946000830184611670565b92915050565b600060ff82169050919050565b6116b08161169a565b82525050565b60006020820190506116cb60008301846116a7565b92915050565b600080fd5b600080fd5b6116e481611666565b81146116ef57600080fd5b50565b600081359050611701816116db565b92915050565b60006020828403121561171d5761171c6116d1565b5b600061172b848285016116f2565b91505092915050565b600073ffffffffffffffffffffffffffffffffffffffff82169050919050565b600061175f82611734565b9050919050565b61176f81611754565b811461177a57600080fd5b50565b60008135905061178c81611766565b92915050565b600080fd5b600080fd5b600080fd5b60008083601f8401126117b7576117b6611792565b5b8235905067ffffffffffffffff8111156117d4576117d3611797565b5b6020830191508360208202830111156117f0576117ef61179c565b5b9250929050565b60008083601f84011261180d5761180c611792565b5b8235905067ffffffffffffffff81111561182a57611829611797565b5b6020830191508360208202830111156118465761184561179c565b5b9250929050565b600080600080600060608688031215611869576118686116d1565b5b60006118778882890161177d565b955050602086013567ffffffffffffffff811115611898576118976116d6565b5b6118a4888289016117a1565b9450945050604086013567ffffffffffffffff8111156118c7576118c66116d6565b5b6118d3888289016117f7565b92509250509295509295909350565b60006118ed82611734565b9050919050565b6118fd816118e2565b811461190857600080fd5b50565b60008135905061191a816118f4565b92915050565b60008060408385031215611937576119366116d1565b5b60006119458582860161190b565b9250506020611956858286016116f2565b9150509250929050565b600063ffffffff82169050919050565b61197981611960565b82525050565b600060a0820190506119946000830188611970565b6119a16020830187611970565b6119ae6040830186611970565b6119bb6060830185611670565b6119c86080830184611670565b9695505050505050565b6000602082840312156119e8576119e76116d1565b5b60006119f68482850161190b565b91505092915050565b611a08816118e2565b82525050565b6000602082019050611a2360008301846119ff565b92915050565b611a3281611960565b8114611a3d57600080fd5b50565b600081359050611a4f81611a29565b92915050565b60008060008060008060c08789031215611a7257611a716116d1565b5b6000611a8089828a0161190b565b9650506020611a9189828a016116f2565b9550506040611aa289828a016116f2565b9450506060611ab389828a016116f2565b9350506080611ac489828a01611a40565b92505060a0611ad589828a01611a40565b9150509295509295509295565b60008060408385031215611af957611af86116d1565b5b6000611b07858286016116f2565b9250506020611b188582860161190b565b9150509250929050565b60008060008060808587031215611b3c57611b3b6116d1565b5b6000611b4a878288016116f2565b9450506020611b5b87828801611a40565b9350506040611b6c878288016116f2565b9250506060611b7d8782880161190b565b91505092959194509250565b600082825260208201905092915050565b7f4f776e61626c653a2063616c6c6572206973206e6f7420746865206f776e6572600082015250565b6000611bd0602083611b89565b9150611bdb82611b9a565b602082019050919050565b60006020820190508181036000830152611bff81611bc3565b9050919050565b600081519050611c15816118f4565b92915050565b600060208284031215611c3157611c306116d1565b5b6000611c3f84828501611c06565b91505092915050565b7f4f4f310000000000000000000000000000000000000000000000000000000000600082015250565b6000611c7e600383611b89565b9150611c8982611c48565b602082019050919050565b60006020820190508181036000830152611cad81611c71565b9050919050565b7f4152473100000000000000000000000000000000000000000000000000000000600082015250565b6000611cea600483611b89565b9150611cf582611cb4565b602082019050919050565b60006020820190508181036000830152611d1981611cdd565b9050919050565b7f4e487b7100000000000000000000000000000000000000000000000000000000600052603260045260246000fd5b7f4e487b7100000000000000000000000000000000000000000000000000000000600052601160045260246000fd5b6000611d8982611666565b9150611d9483611666565b9250827fffffffffffffffffffffffffffffffffffffffffffffffffffffffffffffffff03821115611dc957611dc8611d4f565b5b828201905092915050565b6000604082019050611de960008301856119ff565b611df66020830184611670565b9392505050565b6000611e0882611666565b91507fffffffffffffffffffffffffffffffffffffffffffffffffffffffffffffffff821415611e3b57611e3a611d4f565b5b600182019050919050565b6000611e5182611666565b9150611e5c83611666565b9250817fffffffffffffffffffffffffffffffffffffffffffffffffffffffffffffffff0483118215151615611e9557611e94611d4f565b5b828202905092915050565b7f4152473300000000000000000000000000000000000000000000000000000000600082015250565b6000611ed6600483611b89565b9150611ee182611ea0565b602082019050919050565b60006020820190508181036000830152611f0581611ec9565b9050919050565b7f57414c4c45540000000000000000000000000000000000000000000000000000600082015250565b6000611f42600683611b89565b9150611f4d82611f0c565b602082019050919050565b60006020820190508181036000830152611f7181611f35565b9050919050565b6000819050919050565b6000611f9d611f98611f9384611734565b611f78565b611734565b9050919050565b6000611faf82611f82565b9050919050565b6000611fc182611fa4565b9050919050565b611fd181611fb6565b82525050565b6000602082019050611fec6000830184611fc8565b92915050565b6000819050919050565b600061201761201261200d84611ff2565b611f78565b611666565b9050919050565b61202781611ffc565b82525050565b6000604082019050612042600083018561201e565b61204f6020830184611670565b9392505050565b7f4e45310000000000000000000000000000000000000000000000000000000000600082015250565b600061208c600383611b89565b915061209782612056565b602082019050919050565b600060208201905081810360008301526120bb8161207f565b9050919050565b60006080820190506120d76000830187611670565b6120e46020830186611670565b6120f16040830185611970565b6120fe6060830184611970565b95945050505050565b7f496e697469616c697a61626c653a20636f6e747261637420697320616c72656160008201527f647920696e697469616c697a6564000000000000000000000000000000000000602082015250565b6000612163602e83611b89565b915061216e82612107565b604082019050919050565b6000602082019050818103600083015261219281612156565b9050919050565b7f4d54380000000000000000000000000000000000000000000000000000000000600082015250565b60006121cf600383611b89565b91506121da82612199565b602082019050919050565b600060208201905081810360008301526121fe816121c2565b9050919050565b7f4d54350000000000000000000000000000000000000000000000000000000000600082015250565b600061223b600383611b89565b915061224682612205565b602082019050919050565b6000602082019050818103600083015261226a8161222e565b9050919050565b600061227c82611960565b915061228783611960565b92508263ffffffff038211156122a05761229f611d4f565b5b828201905092915050565b7f4d54320000000000000000000000000000000000000000000000000000000000600082015250565b60006122e1600383611b89565b91506122ec826122ab565b602082019050919050565b60006020820190508181036000830152612310816122d4565b9050919050565b7f4d54330000000000000000000000000000000000000000000000000000000000600082015250565b600061234d600383611b89565b915061235882612317565b602082019050919050565b6000602082019050818103600083015261237c81612340565b9050919050565b60006060820190506123986000830186611970565b6123a56020830185611970565b6123b26040830184611670565b949350505050565b7f4f776e61626c653a206e6577206f776e657220697320746865207a65726f206160008201527f6464726573730000000000000000000000000000000000000000000000000000602082015250565b6000612416602683611b89565b9150612421826123ba565b604082019050919050565b6000602082019050818103600083015261244581612409565b9050919050565b7f4145310000000000000000000000000000000000000000000000000000000000600082015250565b6000612482600383611b89565b915061248d8261244c565b602082019050919050565b600060208201905081810360008301526124b181612475565b9050919050565b7f496e697469616c697a61626c653a20636f6e7472616374206973206e6f74206960008201527f6e697469616c697a696e67000000000000000000000000000000000000000000602082015250565b6000612514602b83611b89565b915061251f826124b8565b604082019050919050565b6000602082019050818103600083015261254381612507565b905091905056fea26469706673582212206642788fbd34eb1fcab2e4913a07adc019e086564c203ff3db7ad92ba3bd824a64736f6c634300080a0033",
  "linkReferences": {},
  "deployedLinkReferences": {}
}