{
  "_format": "hh-sol-artifact-1",
  "contractName": "OmnuumMintManager",
  "sourceName": "contracts/V1/OmnuumMintManager.sol",
  "abi": [
    {
      "anonymous": false,
      "inputs": [
        {
          "indexed": true,
          "internalType": "address",
          "name": "nftContract",
          "type": "address"
        },
        {
          "indexed": true,
          "internalType": "address",
          "name": "receiver",
          "type": "address"
        },
        {
          "indexed": false,
          "internalType": "uint256",
          "name": "quantity",
          "type": "uint256"
        }
      ],
      "name": "Airdrop",
      "type": "event"
    },
    {
      "anonymous": false,
      "inputs": [
        {
          "indexed": false,
          "internalType": "uint256",
          "name": "feeRate",
          "type": "uint256"
        }
      ],
      "name": "ChangeFeeRate",
      "type": "event"
    },
    {
      "anonymous": false,
      "inputs": [
        {
          "indexed": true,
          "internalType": "address",
          "name": "nftContract",
          "type": "address"
        },
        {
          "indexed": true,
          "internalType": "address",
          "name": "payer",
          "type": "address"
        },
        {
          "indexed": false,
          "internalType": "uint256",
          "name": "profit",
          "type": "uint256"
        },
        {
          "indexed": false,
          "internalType": "uint256",
          "name": "mintFee",
          "type": "uint256"
        }
      ],
      "name": "MintFeePaid",
      "type": "event"
    },
    {
      "anonymous": false,
      "inputs": [
        {
          "indexed": true,
          "internalType": "address",
          "name": "previousOwner",
          "type": "address"
        },
        {
          "indexed": true,
          "internalType": "address",
          "name": "newOwner",
          "type": "address"
        }
      ],
      "name": "OwnershipTransferred",
      "type": "event"
    },
    {
      "anonymous": false,
      "inputs": [
        {
          "indexed": true,
          "internalType": "address",
          "name": "nftContract",
          "type": "address"
        },
        {
          "indexed": true,
          "internalType": "address",
          "name": "minter",
          "type": "address"
        },
        {
          "indexed": true,
          "internalType": "uint256",
          "name": "groupId",
          "type": "uint256"
        },
        {
          "indexed": false,
          "internalType": "uint32",
          "name": "quantity",
          "type": "uint32"
        },
        {
          "indexed": false,
          "internalType": "uint32",
          "name": "maxQuantity",
          "type": "uint32"
        },
        {
          "indexed": false,
          "internalType": "uint256",
          "name": "price",
          "type": "uint256"
        }
      ],
      "name": "PublicMint",
      "type": "event"
    },
    {
      "anonymous": false,
      "inputs": [
        {
          "indexed": false,
          "internalType": "uint256",
          "name": "minFee",
          "type": "uint256"
        }
      ],
      "name": "SetMinFee",
      "type": "event"
    },
    {
      "anonymous": false,
      "inputs": [
        {
          "indexed": true,
          "internalType": "address",
          "name": "nftContract",
          "type": "address"
        },
        {
          "indexed": true,
          "internalType": "uint256",
          "name": "groupId",
          "type": "uint256"
        },
        {
          "indexed": false,
          "internalType": "uint256",
          "name": "endDate",
          "type": "uint256"
        },
        {
          "indexed": false,
          "internalType": "uint256",
          "name": "basePrice",
          "type": "uint256"
        },
        {
          "indexed": false,
          "internalType": "uint32",
          "name": "supply",
          "type": "uint32"
        },
        {
          "indexed": false,
          "internalType": "uint32",
          "name": "maxMintAtAddress",
          "type": "uint32"
        }
      ],
      "name": "SetPublicSchedule",
      "type": "event"
    },
    {
      "anonymous": false,
      "inputs": [
        {
          "indexed": true,
          "internalType": "address",
          "name": "nftContract",
          "type": "address"
        },
        {
          "indexed": false,
          "internalType": "uint256",
          "name": "discountFeeRate",
          "type": "uint256"
        }
      ],
      "name": "SetSpecialFeeRate",
      "type": "event"
    },
    {
      "inputs": [],
      "name": "caManager",
      "outputs": [
        {
          "internalType": "address",
          "name": "",
          "type": "address"
        }
      ],
      "stateMutability": "view",
      "type": "function"
    },
    {
      "inputs": [
        {
          "internalType": "uint256",
          "name": "_newFeeRate",
          "type": "uint256"
        }
      ],
      "name": "changeFeeRate",
      "outputs": [],
      "stateMutability": "nonpayable",
      "type": "function"
    },
    {
      "inputs": [],
      "name": "feeRate",
      "outputs": [
        {
          "internalType": "uint256",
          "name": "",
          "type": "uint256"
        }
      ],
      "stateMutability": "view",
      "type": "function"
    },
    {
      "inputs": [
        {
          "internalType": "address",
          "name": "_nftContract",
          "type": "address"
        }
      ],
      "name": "getFeeRate",
      "outputs": [
        {
          "internalType": "uint256",
          "name": "",
          "type": "uint256"
        }
      ],
      "stateMutability": "view",
      "type": "function"
    },
    {
      "inputs": [
        {
          "internalType": "uint256",
          "name": "_feeRate",
          "type": "uint256"
        },
        {
          "internalType": "address",
          "name": "_caManager",
          "type": "address"
        }
      ],
      "name": "initialize",
      "outputs": [],
      "stateMutability": "nonpayable",
      "type": "function"
    },
    {
      "inputs": [],
      "name": "minFee",
      "outputs": [
        {
          "internalType": "uint256",
          "name": "",
          "type": "uint256"
        }
      ],
      "stateMutability": "view",
      "type": "function"
    },
    {
      "inputs": [
        {
          "internalType": "address payable",
          "name": "_nftContract",
          "type": "address"
        },
        {
          "internalType": "address[]",
          "name": "_tos",
          "type": "address[]"
        },
        {
          "internalType": "uint256[]",
          "name": "_quantitys",
          "type": "uint256[]"
        }
      ],
      "name": "mintMultiple",
      "outputs": [],
      "stateMutability": "payable",
      "type": "function"
    },
    {
      "inputs": [],
      "name": "owner",
      "outputs": [
        {
          "internalType": "address",
          "name": "",
          "type": "address"
        }
      ],
      "stateMutability": "view",
      "type": "function"
    },
    {
      "inputs": [
        {
          "internalType": "uint256",
          "name": "_groupId",
          "type": "uint256"
        },
        {
          "internalType": "uint32",
          "name": "_quantity",
          "type": "uint32"
        },
        {
          "internalType": "uint256",
          "name": "_value",
          "type": "uint256"
        },
        {
          "internalType": "address",
          "name": "_minter",
          "type": "address"
        }
      ],
      "name": "preparePublicMint",
      "outputs": [],
      "stateMutability": "nonpayable",
      "type": "function"
    },
    {
      "inputs": [
        {
          "internalType": "address",
          "name": "",
          "type": "address"
        },
        {
          "internalType": "uint256",
          "name": "",
          "type": "uint256"
        }
      ],
      "name": "publicMintSchedules",
      "outputs": [
        {
          "internalType": "uint32",
          "name": "supply",
          "type": "uint32"
        },
        {
          "internalType": "uint32",
          "name": "mintedTotal",
          "type": "uint32"
        },
        {
          "internalType": "uint32",
          "name": "maxMintAtAddress",
          "type": "uint32"
        },
        {
          "internalType": "uint256",
          "name": "endDate",
          "type": "uint256"
        },
        {
          "internalType": "uint256",
          "name": "basePrice",
          "type": "uint256"
        }
      ],
      "stateMutability": "view",
      "type": "function"
    },
    {
      "inputs": [],
      "name": "rateDecimal",
      "outputs": [
        {
          "internalType": "uint8",
          "name": "",
          "type": "uint8"
        }
      ],
      "stateMutability": "view",
      "type": "function"
    },
    {
      "inputs": [
        {
          "internalType": "address",
          "name": "_caManager",
          "type": "address"
        }
      ],
      "name": "setCaManager",
      "outputs": [],
      "stateMutability": "nonpayable",
      "type": "function"
    },
    {
      "inputs": [
        {
          "internalType": "uint256",
          "name": "_minFee",
          "type": "uint256"
        }
      ],
      "name": "setMinFee",
      "outputs": [],
      "stateMutability": "nonpayable",
      "type": "function"
    },
    {
      "inputs": [
        {
          "internalType": "address",
          "name": "_nft",
          "type": "address"
        },
        {
          "internalType": "uint256",
          "name": "_groupId",
          "type": "uint256"
        },
        {
          "internalType": "uint256",
          "name": "_endDate",
          "type": "uint256"
        },
        {
          "internalType": "uint256",
          "name": "_basePrice",
          "type": "uint256"
        },
        {
          "internalType": "uint32",
          "name": "_supply",
          "type": "uint32"
        },
        {
          "internalType": "uint32",
          "name": "_maxMintAtAddress",
          "type": "uint32"
        }
      ],
      "name": "setPublicMintSchedule",
      "outputs": [],
      "stateMutability": "nonpayable",
      "type": "function"
    },
    {
      "inputs": [
        {
          "internalType": "address",
          "name": "_nftContract",
          "type": "address"
        },
        {
          "internalType": "uint256",
          "name": "_feeRate",
          "type": "uint256"
        }
      ],
      "name": "setSpecialFeeRate",
      "outputs": [],
      "stateMutability": "nonpayable",
      "type": "function"
    },
    {
      "inputs": [
        {
          "internalType": "address",
          "name": "",
          "type": "address"
        }
      ],
      "name": "specialFeeRates",
      "outputs": [
        {
          "internalType": "uint256",
          "name": "",
          "type": "uint256"
        }
      ],
      "stateMutability": "view",
      "type": "function"
    },
    {
      "inputs": [
        {
          "internalType": "address",
          "name": "newOwner",
          "type": "address"
        }
      ],
      "name": "transferOwnership",
      "outputs": [],
      "stateMutability": "nonpayable",
      "type": "function"
    }
  ],
  "bytecode": "0x608060405234801561001057600080fd5b506126d0806100206000396000f3fe6080604052600436106100fe5760003560e01c80638da5cb5b11610095578063da35a26f11610064578063da35a26f14610318578063dce151b314610341578063efe53c271461036a578063f2fde38b146103a7578063fb73cf4e146103d0576100fe565b80638da5cb5b14610270578063978bbdb91461029b578063affca932146102c6578063cad72770146102ef576100fe565b806347bc460d116100d157806347bc460d1461019e5780637b30e04e146101df578063810b99a11461020a5780638198edbf14610233576100fe565b806324ec75901461010357806331809c7e1461012e57806331ac992014610159578063349176da14610182575b600080fd5b34801561010f57600080fd5b506101186103f9565b60405161012591906117cf565b60405180910390f35b34801561013a57600080fd5b506101436103ff565b6040516101509190611806565b60405180910390f35b34801561016557600080fd5b50610180600480360381019061017b9190611857565b610404565b005b61019c6004803603810190610197919061199d565b6104c1565b005b3480156101aa57600080fd5b506101c560048036038101906101c09190611a70565b610906565b6040516101d6959493929190611acf565b60405180910390f35b3480156101eb57600080fd5b506101f4610979565b6040516102019190611b31565b60405180910390f35b34801561021657600080fd5b50610231600480360381019061022c9190611b4c565b61099f565b005b34801561023f57600080fd5b5061025a60048036038101906102559190611b4c565b610a5f565b60405161026791906117cf565b60405180910390f35b34801561027c57600080fd5b50610285610af7565b6040516102929190611b31565b60405180910390f35b3480156102a757600080fd5b506102b0610b21565b6040516102bd91906117cf565b60405180910390f35b3480156102d257600080fd5b506102ed60048036038101906102e89190611857565b610b27565b005b3480156102fb57600080fd5b5061031660048036038101906103119190611ba5565b610c2a565b005b34801561032457600080fd5b5061033f600480360381019061033a9190611c32565b610e10565b005b34801561034d57600080fd5b5061036860048036038101906103639190611c72565b610f54565b005b34801561037657600080fd5b50610391600480360381019061038c9190611b4c565b6112d0565b60405161039e91906117cf565b60405180910390f35b3480156103b357600080fd5b506103ce60048036038101906103c99190611b4c565b6112e8565b005b3480156103dc57600080fd5b506103f760048036038101906103f29190611a70565b6113e0565b005b60665481565b600581565b61040c6115a8565b73ffffffffffffffffffffffffffffffffffffffff1661042a610af7565b73ffffffffffffffffffffffffffffffffffffffff1614610480576040517f08c379a000000000000000000000000000000000000000000000000000000000815260040161047790611d36565b60405180910390fd5b806066819055507f81d2c871f6984b6743a9b4546acc03a595a2e61e088fcabd73bf8dc839266b81816040516104b691906117cf565b60405180910390a150565b600085905060008585905090503373ffffffffffffffffffffffffffffffffffffffff168273ffffffffffffffffffffffffffffffffffffffff16638da5cb5b6040518163ffffffff1660e01b8152600401602060405180830381865afa158015610530573d6000803e3d6000fd5b505050506040513d601f19601f820116820180604052508101906105549190611d6b565b73ffffffffffffffffffffffffffffffffffffffff16146105aa576040517f08c379a00000000000000000000000000000000000000000000000000000000081526004016105a190611de4565b60405180910390fd5b8383905081146105ef576040517f08c379a00000000000000000000000000000000000000000000000000000000081526004016105e690611e50565b60405180910390fd5b600080600090505b8281101561073e57600088888381811061061457610613611e70565b5b90506020020160208101906106299190611b4c565b905060008787848181106106405761063f611e70565b5b90506020020135905080846106559190611ece565b93508573ffffffffffffffffffffffffffffffffffffffff16636a28443883836040518363ffffffff1660e01b8152600401610692929190611f24565b600060405180830381600087803b1580156106ac57600080fd5b505af11580156106c0573d6000803e3d6000fd5b505050508173ffffffffffffffffffffffffffffffffffffffff168b73ffffffffffffffffffffffffffffffffffffffff167f8986d2aad709d6d52ca7673e78442a1ac939dc024b80334c27ca759e7658a0288360405161072191906117cf565b60405180910390a35050808061073690611f4d565b9150506105f7565b506066548161074d9190611f96565b34101561078f576040517f08c379a00000000000000000000000000000000000000000000000000000000081526004016107869061203c565b60405180910390fd5b606960009054906101000a900473ffffffffffffffffffffffffffffffffffffffff1673ffffffffffffffffffffffffffffffffffffffff1663358177736040518163ffffffff1660e01b81526004016107e8906120a8565b602060405180830381865afa158015610805573d6000803e3d6000fd5b505050506040513d601f19601f820116820180604052508101906108299190611d6b565b73ffffffffffffffffffffffffffffffffffffffff1663f14cf2b1348a6040518363ffffffff1660e01b81526004016108629190612127565b6000604051808303818588803b15801561087b57600080fd5b505af115801561088f573d6000803e3d6000fd5b50505050503373ffffffffffffffffffffffffffffffffffffffff168873ffffffffffffffffffffffffffffffffffffffff167f14deb714a99fc451d7b93138680aa1d3e1391c3ebe9fa0752878a73347074a436000346040516108f492919061217d565b60405180910390a35050505050505050565b6068602052816000526040600020602052806000526040600020600091509150508060000160009054906101000a900463ffffffff16908060000160049054906101000a900463ffffffff16908060000160089054906101000a900463ffffffff16908060020154908060030154905085565b606960009054906101000a900473ffffffffffffffffffffffffffffffffffffffff1681565b6109a76115a8565b73ffffffffffffffffffffffffffffffffffffffff166109c5610af7565b73ffffffffffffffffffffffffffffffffffffffff1614610a1b576040517f08c379a0000000000000000000000000000000000000000000000000000000008152600401610a1290611d36565b60405180910390fd5b80606960006101000a81548173ffffffffffffffffffffffffffffffffffffffff021916908373ffffffffffffffffffffffffffffffffffffffff16021790555050565b600080606760008473ffffffffffffffffffffffffffffffffffffffff1673ffffffffffffffffffffffffffffffffffffffff1681526020019081526020016000205414610aec57606760008373ffffffffffffffffffffffffffffffffffffffff1673ffffffffffffffffffffffffffffffffffffffff16815260200190815260200160002054610af0565b6065545b9050919050565b6000603360009054906101000a900473ffffffffffffffffffffffffffffffffffffffff16905090565b60655481565b610b2f6115a8565b73ffffffffffffffffffffffffffffffffffffffff16610b4d610af7565b73ffffffffffffffffffffffffffffffffffffffff1614610ba3576040517f08c379a0000000000000000000000000000000000000000000000000000000008152600401610b9a90611d36565b60405180910390fd5b620186a0811115610be9576040517f08c379a0000000000000000000000000000000000000000000000000000000008152600401610be0906121f2565b60405180910390fd5b806065819055507f959e25ed7f2462e87a914c01dc168688aafb2a2a3686e904a02c1ade7282fa2981604051610c1f91906117cf565b60405180910390a150565b3373ffffffffffffffffffffffffffffffffffffffff168673ffffffffffffffffffffffffffffffffffffffff16638da5cb5b6040518163ffffffff1660e01b8152600401602060405180830381865afa158015610c8c573d6000803e3d6000fd5b505050506040513d601f19601f82011682018060405250810190610cb09190611d6b565b73ffffffffffffffffffffffffffffffffffffffff1614610d06576040517f08c379a0000000000000000000000000000000000000000000000000000000008152600401610cfd90611de4565b60405180910390fd5b6000606860008873ffffffffffffffffffffffffffffffffffffffff1673ffffffffffffffffffffffffffffffffffffffff16815260200190815260200160002060008781526020019081526020016000209050828160000160006101000a81548163ffffffff021916908363ffffffff160217905550848160020181905550838160030181905550818160000160086101000a81548163ffffffff021916908363ffffffff160217905550858773ffffffffffffffffffffffffffffffffffffffff167f52152fba3ec4a41cc0cc5511c44d918fc8fe409ff3f5168178675b3880421bf887878787604051610dff9493929190612212565b60405180910390a350505050505050565b600060019054906101000a900460ff16610e385760008054906101000a900460ff1615610e41565b610e406115b0565b5b610e80576040517f08c379a0000000000000000000000000000000000000000000000000000000008152600401610e77906122c9565b60405180910390fd5b60008060019054906101000a900460ff161590508015610ed0576001600060016101000a81548160ff02191690831515021790555060016000806101000a81548160ff0219169083151502179055505b610ed86115c1565b8260658190555081606960006101000a81548173ffffffffffffffffffffffffffffffffffffffff021916908373ffffffffffffffffffffffffffffffffffffffff1602179055506601c6bf526340006066819055508015610f4f5760008060016101000a81548160ff0219169083151502179055505b505050565b6000606860003373ffffffffffffffffffffffffffffffffffffffff1673ffffffffffffffffffffffffffffffffffffffff168152602001908152602001600020600086815260200190815260200160002090508060020154421115610fef576040517f08c379a0000000000000000000000000000000000000000000000000000000008152600401610fe690612335565b60405180910390fd5b828463ffffffff1682600301546110069190611f96565b1115611047576040517f08c379a000000000000000000000000000000000000000000000000000000000815260040161103e906123a1565b60405180910390fd5b8060000160089054906101000a900463ffffffff1663ffffffff16848260010160008573ffffffffffffffffffffffffffffffffffffffff1673ffffffffffffffffffffffffffffffffffffffff16815260200190815260200160002060009054906101000a900463ffffffff166110bf91906123c1565b63ffffffff161115611106576040517f08c379a00000000000000000000000000000000000000000000000000000000081526004016110fd90612447565b60405180910390fd5b8060000160009054906101000a900463ffffffff1663ffffffff16848260000160049054906101000a900463ffffffff1661114191906123c1565b63ffffffff161115611188576040517f08c379a000000000000000000000000000000000000000000000000000000000815260040161117f906124b3565b60405180910390fd5b838160010160008473ffffffffffffffffffffffffffffffffffffffff1673ffffffffffffffffffffffffffffffffffffffff16815260200190815260200160002060008282829054906101000a900463ffffffff166111e891906123c1565b92506101000a81548163ffffffff021916908363ffffffff160217905550838160000160048282829054906101000a900463ffffffff1661122991906123c1565b92506101000a81548163ffffffff021916908363ffffffff160217905550848273ffffffffffffffffffffffffffffffffffffffff163373ffffffffffffffffffffffffffffffffffffffff167f44cf7174bb96ec2f45e18937962c1eb2f5e756239415ac8c8e8c82078d70c75e878560000160009054906101000a900463ffffffff1686600301546040516112c1939291906124d3565b60405180910390a45050505050565b60676020528060005260406000206000915090505481565b6112f06115a8565b73ffffffffffffffffffffffffffffffffffffffff1661130e610af7565b73ffffffffffffffffffffffffffffffffffffffff1614611364576040517f08c379a000000000000000000000000000000000000000000000000000000000815260040161135b90611d36565b60405180910390fd5b600073ffffffffffffffffffffffffffffffffffffffff168173ffffffffffffffffffffffffffffffffffffffff1614156113d4576040517f08c379a00000000000000000000000000000000000000000000000000000000081526004016113cb9061257c565b60405180910390fd5b6113dd81611622565b50565b6113e86115a8565b73ffffffffffffffffffffffffffffffffffffffff16611406610af7565b73ffffffffffffffffffffffffffffffffffffffff161461145c576040517f08c379a000000000000000000000000000000000000000000000000000000000815260040161145390611d36565b60405180910390fd5b600073ffffffffffffffffffffffffffffffffffffffff168273ffffffffffffffffffffffffffffffffffffffff1614156114cc576040517f08c379a00000000000000000000000000000000000000000000000000000000081526004016114c3906125e8565b60405180910390fd5b620186a0811115611512576040517f08c379a0000000000000000000000000000000000000000000000000000000008152600401611509906121f2565b60405180910390fd5b80606760008473ffffffffffffffffffffffffffffffffffffffff1673ffffffffffffffffffffffffffffffffffffffff168152602001908152602001600020819055508173ffffffffffffffffffffffffffffffffffffffff167faf4fc6cddd93f88f63327478a7a770b1c444596537018ecf1e4f7f543407131e8260405161159c91906117cf565b60405180910390a25050565b600033905090565b60006115bb306116e8565b15905090565b600060019054906101000a900460ff16611610576040517f08c379a00000000000000000000000000000000000000000000000000000000081526004016116079061267a565b60405180910390fd5b61161861170b565b61162061175c565b565b6000603360009054906101000a900473ffffffffffffffffffffffffffffffffffffffff16905081603360006101000a81548173ffffffffffffffffffffffffffffffffffffffff021916908373ffffffffffffffffffffffffffffffffffffffff1602179055508173ffffffffffffffffffffffffffffffffffffffff168173ffffffffffffffffffffffffffffffffffffffff167f8be0079c531659141344cd1fd0a4f28419497f9722a3daafe3b4186f6b6457e060405160405180910390a35050565b6000808273ffffffffffffffffffffffffffffffffffffffff163b119050919050565b600060019054906101000a900460ff1661175a576040517f08c379a00000000000000000000000000000000000000000000000000000000081526004016117519061267a565b60405180910390fd5b565b600060019054906101000a900460ff166117ab576040517f08c379a00000000000000000000000000000000000000000000000000000000081526004016117a29061267a565b60405180910390fd5b6117b432611622565b565b6000819050919050565b6117c9816117b6565b82525050565b60006020820190506117e460008301846117c0565b92915050565b600060ff82169050919050565b611800816117ea565b82525050565b600060208201905061181b60008301846117f7565b92915050565b600080fd5b600080fd5b611834816117b6565b811461183f57600080fd5b50565b6000813590506118518161182b565b92915050565b60006020828403121561186d5761186c611821565b5b600061187b84828501611842565b91505092915050565b600073ffffffffffffffffffffffffffffffffffffffff82169050919050565b60006118af82611884565b9050919050565b6118bf816118a4565b81146118ca57600080fd5b50565b6000813590506118dc816118b6565b92915050565b600080fd5b600080fd5b600080fd5b60008083601f840112611907576119066118e2565b5b8235905067ffffffffffffffff811115611924576119236118e7565b5b6020830191508360208202830111156119405761193f6118ec565b5b9250929050565b60008083601f84011261195d5761195c6118e2565b5b8235905067ffffffffffffffff81111561197a576119796118e7565b5b602083019150836020820283011115611996576119956118ec565b5b9250929050565b6000806000806000606086880312156119b9576119b8611821565b5b60006119c7888289016118cd565b955050602086013567ffffffffffffffff8111156119e8576119e7611826565b5b6119f4888289016118f1565b9450945050604086013567ffffffffffffffff811115611a1757611a16611826565b5b611a2388828901611947565b92509250509295509295909350565b6000611a3d82611884565b9050919050565b611a4d81611a32565b8114611a5857600080fd5b50565b600081359050611a6a81611a44565b92915050565b60008060408385031215611a8757611a86611821565b5b6000611a9585828601611a5b565b9250506020611aa685828601611842565b9150509250929050565b600063ffffffff82169050919050565b611ac981611ab0565b82525050565b600060a082019050611ae46000830188611ac0565b611af16020830187611ac0565b611afe6040830186611ac0565b611b0b60608301856117c0565b611b1860808301846117c0565b9695505050505050565b611b2b81611a32565b82525050565b6000602082019050611b466000830184611b22565b92915050565b600060208284031215611b6257611b61611821565b5b6000611b7084828501611a5b565b91505092915050565b611b8281611ab0565b8114611b8d57600080fd5b50565b600081359050611b9f81611b79565b92915050565b60008060008060008060c08789031215611bc257611bc1611821565b5b6000611bd089828a01611a5b565b9650506020611be189828a01611842565b9550506040611bf289828a01611842565b9450506060611c0389828a01611842565b9350506080611c1489828a01611b90565b92505060a0611c2589828a01611b90565b9150509295509295509295565b60008060408385031215611c4957611c48611821565b5b6000611c5785828601611842565b9250506020611c6885828601611a5b565b9150509250929050565b60008060008060808587031215611c8c57611c8b611821565b5b6000611c9a87828801611842565b9450506020611cab87828801611b90565b9350506040611cbc87828801611842565b9250506060611ccd87828801611a5b565b91505092959194509250565b600082825260208201905092915050565b7f4f776e61626c653a2063616c6c6572206973206e6f7420746865206f776e6572600082015250565b6000611d20602083611cd9565b9150611d2b82611cea565b602082019050919050565b60006020820190508181036000830152611d4f81611d13565b9050919050565b600081519050611d6581611a44565b92915050565b600060208284031215611d8157611d80611821565b5b6000611d8f84828501611d56565b91505092915050565b7f4f4f310000000000000000000000000000000000000000000000000000000000600082015250565b6000611dce600383611cd9565b9150611dd982611d98565b602082019050919050565b60006020820190508181036000830152611dfd81611dc1565b9050919050565b7f4152473100000000000000000000000000000000000000000000000000000000600082015250565b6000611e3a600483611cd9565b9150611e4582611e04565b602082019050919050565b60006020820190508181036000830152611e6981611e2d565b9050919050565b7f4e487b7100000000000000000000000000000000000000000000000000000000600052603260045260246000fd5b7f4e487b7100000000000000000000000000000000000000000000000000000000600052601160045260246000fd5b6000611ed9826117b6565b9150611ee4836117b6565b9250827fffffffffffffffffffffffffffffffffffffffffffffffffffffffffffffffff03821115611f1957611f18611e9f565b5b828201905092915050565b6000604082019050611f396000830185611b22565b611f4660208301846117c0565b9392505050565b6000611f58826117b6565b91507fffffffffffffffffffffffffffffffffffffffffffffffffffffffffffffffff821415611f8b57611f8a611e9f565b5b600182019050919050565b6000611fa1826117b6565b9150611fac836117b6565b9250817fffffffffffffffffffffffffffffffffffffffffffffffffffffffffffffffff0483118215151615611fe557611fe4611e9f565b5b828202905092915050565b7f4152473300000000000000000000000000000000000000000000000000000000600082015250565b6000612026600483611cd9565b915061203182611ff0565b602082019050919050565b6000602082019050818103600083015261205581612019565b9050919050565b7f57414c4c45540000000000000000000000000000000000000000000000000000600082015250565b6000612092600683611cd9565b915061209d8261205c565b602082019050919050565b600060208201905081810360008301526120c181612085565b9050919050565b6000819050919050565b60006120ed6120e86120e384611884565b6120c8565b611884565b9050919050565b60006120ff826120d2565b9050919050565b6000612111826120f4565b9050919050565b61212181612106565b82525050565b600060208201905061213c6000830184612118565b92915050565b6000819050919050565b600061216761216261215d84612142565b6120c8565b6117b6565b9050919050565b6121778161214c565b82525050565b6000604082019050612192600083018561216e565b61219f60208301846117c0565b9392505050565b7f4e45310000000000000000000000000000000000000000000000000000000000600082015250565b60006121dc600383611cd9565b91506121e7826121a6565b602082019050919050565b6000602082019050818103600083015261220b816121cf565b9050919050565b600060808201905061222760008301876117c0565b61223460208301866117c0565b6122416040830185611ac0565b61224e6060830184611ac0565b95945050505050565b7f496e697469616c697a61626c653a20636f6e747261637420697320616c72656160008201527f647920696e697469616c697a6564000000000000000000000000000000000000602082015250565b60006122b3602e83611cd9565b91506122be82612257565b604082019050919050565b600060208201905081810360008301526122e2816122a6565b9050919050565b7f4d54380000000000000000000000000000000000000000000000000000000000600082015250565b600061231f600383611cd9565b915061232a826122e9565b602082019050919050565b6000602082019050818103600083015261234e81612312565b9050919050565b7f4d54350000000000000000000000000000000000000000000000000000000000600082015250565b600061238b600383611cd9565b915061239682612355565b602082019050919050565b600060208201905081810360008301526123ba8161237e565b9050919050565b60006123cc82611ab0565b91506123d783611ab0565b92508263ffffffff038211156123f0576123ef611e9f565b5b828201905092915050565b7f4d54320000000000000000000000000000000000000000000000000000000000600082015250565b6000612431600383611cd9565b915061243c826123fb565b602082019050919050565b6000602082019050818103600083015261246081612424565b9050919050565b7f4d54330000000000000000000000000000000000000000000000000000000000600082015250565b600061249d600383611cd9565b91506124a882612467565b602082019050919050565b600060208201905081810360008301526124cc81612490565b9050919050565b60006060820190506124e86000830186611ac0565b6124f56020830185611ac0565b61250260408301846117c0565b949350505050565b7f4f776e61626c653a206e6577206f776e657220697320746865207a65726f206160008201527f6464726573730000000000000000000000000000000000000000000000000000602082015250565b6000612566602683611cd9565b91506125718261250a565b604082019050919050565b6000602082019050818103600083015261259581612559565b9050919050565b7f4145310000000000000000000000000000000000000000000000000000000000600082015250565b60006125d2600383611cd9565b91506125dd8261259c565b602082019050919050565b60006020820190508181036000830152612601816125c5565b9050919050565b7f496e697469616c697a61626c653a20636f6e7472616374206973206e6f74206960008201527f6e697469616c697a696e67000000000000000000000000000000000000000000602082015250565b6000612664602b83611cd9565b915061266f82612608565b604082019050919050565b6000602082019050818103600083015261269381612657565b905091905056fea2646970667358221220fa1851b46381f4a0919ed9860c4f1a75f3bdf0ab2e7108dced1267cb8aff942164736f6c634300080a0033",
  "linkReferences": {},
  "deployedLinkReferences": {}
}