{
  "_format": "hh-sol-artifact-1",
  "contractName": "OmnuumMintManager",
  "sourceName": "contracts/V1/OmnuumMintManager.sol",
  "abi": [
    {
      "anonymous": false,
      "inputs": [
        {
          "indexed": true,
          "internalType": "address",
          "name": "nftContract",
          "type": "address"
        },
        {
          "indexed": true,
          "internalType": "address",
          "name": "receiver",
          "type": "address"
        },
        {
          "indexed": false,
          "internalType": "uint256",
          "name": "quantity",
          "type": "uint256"
        }
      ],
      "name": "Airdrop",
      "type": "event"
    },
    {
      "anonymous": false,
      "inputs": [
        {
          "indexed": false,
          "internalType": "uint256",
          "name": "feeRate",
          "type": "uint256"
        }
      ],
      "name": "ChangeFeeRate",
      "type": "event"
    },
    {
      "anonymous": false,
      "inputs": [
        {
          "indexed": true,
          "internalType": "address",
          "name": "previousOwner",
          "type": "address"
        },
        {
          "indexed": true,
          "internalType": "address",
          "name": "newOwner",
          "type": "address"
        }
      ],
      "name": "OwnershipTransferred",
      "type": "event"
    },
    {
      "anonymous": false,
      "inputs": [
        {
          "indexed": true,
          "internalType": "address",
          "name": "nftContract",
          "type": "address"
        },
        {
          "indexed": true,
          "internalType": "address",
          "name": "minter",
          "type": "address"
        },
        {
          "indexed": true,
          "internalType": "uint256",
          "name": "groupId",
          "type": "uint256"
        },
        {
          "indexed": false,
          "internalType": "uint32",
          "name": "quantity",
          "type": "uint32"
        },
        {
          "indexed": false,
          "internalType": "uint32",
          "name": "maxQuantity",
          "type": "uint32"
        },
        {
          "indexed": false,
          "internalType": "uint256",
          "name": "price",
          "type": "uint256"
        }
      ],
      "name": "PublicMint",
      "type": "event"
    },
    {
      "anonymous": false,
      "inputs": [
        {
          "indexed": false,
          "internalType": "uint256",
          "name": "minFee",
          "type": "uint256"
        }
      ],
      "name": "SetMinFee",
      "type": "event"
    },
    {
      "anonymous": false,
      "inputs": [
        {
          "indexed": true,
          "internalType": "address",
          "name": "nftContract",
          "type": "address"
        },
        {
          "indexed": true,
          "internalType": "uint256",
          "name": "groupId",
          "type": "uint256"
        },
        {
          "indexed": false,
          "internalType": "uint256",
          "name": "endDate",
          "type": "uint256"
        },
        {
          "indexed": false,
          "internalType": "uint256",
          "name": "basePrice",
          "type": "uint256"
        },
        {
          "indexed": false,
          "internalType": "uint32",
          "name": "supply",
          "type": "uint32"
        },
        {
          "indexed": false,
          "internalType": "uint32",
          "name": "maxMintAtAddress",
          "type": "uint32"
        }
      ],
      "name": "SetPublicSchedule",
      "type": "event"
    },
    {
      "anonymous": false,
      "inputs": [
        {
          "indexed": true,
          "internalType": "address",
          "name": "nftContract",
          "type": "address"
        },
        {
          "indexed": false,
          "internalType": "uint256",
          "name": "discountFeeRate",
          "type": "uint256"
        }
      ],
      "name": "SetSpecialFeeRate",
      "type": "event"
    },
    {
      "inputs": [
        {
          "internalType": "uint256",
          "name": "_newFeeRate",
          "type": "uint256"
        }
      ],
      "name": "changeFeeRate",
      "outputs": [],
      "stateMutability": "nonpayable",
      "type": "function"
    },
    {
      "inputs": [],
      "name": "feeRate",
      "outputs": [
        {
          "internalType": "uint256",
          "name": "",
          "type": "uint256"
        }
      ],
      "stateMutability": "view",
      "type": "function"
    },
    {
      "inputs": [
        {
          "internalType": "address",
          "name": "_nftContract",
          "type": "address"
        }
      ],
      "name": "getFeeRate",
      "outputs": [
        {
          "internalType": "uint256",
          "name": "",
          "type": "uint256"
        }
      ],
      "stateMutability": "view",
      "type": "function"
    },
    {
      "inputs": [
        {
          "internalType": "uint256",
          "name": "_feeRate",
          "type": "uint256"
        }
      ],
      "name": "initialize",
      "outputs": [],
      "stateMutability": "nonpayable",
      "type": "function"
    },
    {
      "inputs": [],
      "name": "minFee",
      "outputs": [
        {
          "internalType": "uint256",
          "name": "",
          "type": "uint256"
        }
      ],
      "stateMutability": "view",
      "type": "function"
    },
    {
      "inputs": [
        {
          "internalType": "address payable",
          "name": "_nftContract",
          "type": "address"
        },
        {
          "internalType": "address[]",
          "name": "_tos",
          "type": "address[]"
        },
        {
          "internalType": "uint16[]",
          "name": "_quantitys",
          "type": "uint16[]"
        }
      ],
      "name": "mintMultiple",
      "outputs": [],
      "stateMutability": "payable",
      "type": "function"
    },
    {
      "inputs": [],
      "name": "owner",
      "outputs": [
        {
          "internalType": "address",
          "name": "",
          "type": "address"
        }
      ],
      "stateMutability": "view",
      "type": "function"
    },
    {
      "inputs": [
        {
          "internalType": "uint16",
          "name": "_groupId",
          "type": "uint16"
        },
        {
          "internalType": "uint32",
          "name": "_quantity",
          "type": "uint32"
        },
        {
          "internalType": "uint256",
          "name": "_value",
          "type": "uint256"
        },
        {
          "internalType": "address",
          "name": "_minter",
          "type": "address"
        }
      ],
      "name": "preparePublicMint",
      "outputs": [],
      "stateMutability": "nonpayable",
      "type": "function"
    },
    {
      "inputs": [
        {
          "internalType": "address",
          "name": "",
          "type": "address"
        },
        {
          "internalType": "uint256",
          "name": "",
          "type": "uint256"
        }
      ],
      "name": "publicMintSchedules",
      "outputs": [
        {
          "internalType": "uint32",
          "name": "supply",
          "type": "uint32"
        },
        {
          "internalType": "uint32",
          "name": "mintedTotal",
          "type": "uint32"
        },
        {
          "internalType": "uint32",
          "name": "maxMintAtAddress",
          "type": "uint32"
        },
        {
          "internalType": "uint256",
          "name": "endDate",
          "type": "uint256"
        },
        {
          "internalType": "uint256",
          "name": "basePrice",
          "type": "uint256"
        }
      ],
      "stateMutability": "view",
      "type": "function"
    },
    {
      "inputs": [],
      "name": "rateDecimal",
      "outputs": [
        {
          "internalType": "uint8",
          "name": "",
          "type": "uint8"
        }
      ],
      "stateMutability": "view",
      "type": "function"
    },
    {
      "inputs": [
        {
          "internalType": "uint256",
          "name": "_minFee",
          "type": "uint256"
        }
      ],
      "name": "setMinFee",
      "outputs": [],
      "stateMutability": "nonpayable",
      "type": "function"
    },
    {
      "inputs": [
        {
          "internalType": "address",
          "name": "_nft",
          "type": "address"
        },
        {
          "internalType": "uint256",
          "name": "_groupId",
          "type": "uint256"
        },
        {
          "internalType": "uint256",
          "name": "_endDate",
          "type": "uint256"
        },
        {
          "internalType": "uint256",
          "name": "_basePrice",
          "type": "uint256"
        },
        {
          "internalType": "uint32",
          "name": "_supply",
          "type": "uint32"
        },
        {
          "internalType": "uint32",
          "name": "_maxMintAtAddress",
          "type": "uint32"
        }
      ],
      "name": "setPublicMintSchedule",
      "outputs": [],
      "stateMutability": "nonpayable",
      "type": "function"
    },
    {
      "inputs": [
        {
          "internalType": "address",
          "name": "_nftContract",
          "type": "address"
        },
        {
          "internalType": "uint256",
          "name": "_feeRate",
          "type": "uint256"
        }
      ],
      "name": "setSpecialFeeRate",
      "outputs": [],
      "stateMutability": "nonpayable",
      "type": "function"
    },
    {
      "inputs": [
        {
          "internalType": "address",
          "name": "",
          "type": "address"
        }
      ],
      "name": "specialFeeRates",
      "outputs": [
        {
          "internalType": "uint256",
          "name": "",
          "type": "uint256"
        }
      ],
      "stateMutability": "view",
      "type": "function"
    },
    {
      "inputs": [
        {
          "internalType": "address",
          "name": "newOwner",
          "type": "address"
        }
      ],
      "name": "transferOwnership",
      "outputs": [],
      "stateMutability": "nonpayable",
      "type": "function"
    }
  ],
  "bytecode": "0x608060405234801561001057600080fd5b506123ce806100206000396000f3fe6080604052600436106100e85760003560e01c8063affca9321161008a578063f2fde38b11610059578063f2fde38b146102eb578063f462ec9414610314578063fb73cf4e1461033d578063fe4b84df14610366576100e8565b8063affca93214610240578063c5fa9b3314610269578063cad7277014610285578063efe53c27146102ae576100e8565b806347bc460d116100c657806347bc460d1461016c5780638198edbf146101ad5780638da5cb5b146101ea578063978bbdb914610215576100e8565b806324ec7590146100ed57806331809c7e1461011857806331ac992014610143575b600080fd5b3480156100f957600080fd5b5061010261038f565b60405161010f9190611569565b60405180910390f35b34801561012457600080fd5b5061012d610395565b60405161013a91906115a0565b60405180910390f35b34801561014f57600080fd5b5061016a600480360381019061016591906115f1565b61039a565b005b34801561017857600080fd5b50610193600480360381019061018e919061167c565b610457565b6040516101a49594939291906116db565b60405180910390f35b3480156101b957600080fd5b506101d460048036038101906101cf919061172e565b6104ca565b6040516101e19190611569565b60405180910390f35b3480156101f657600080fd5b506101ff610562565b60405161020c919061176a565b60405180910390f35b34801561022157600080fd5b5061022a61058c565b6040516102379190611569565b60405180910390f35b34801561024c57600080fd5b50610267600480360381019061026291906115f1565b610592565b005b610283600480360381019061027e919061187e565b610695565b005b34801561029157600080fd5b506102ac60048036038101906102a7919061193f565b6109fe565b005b3480156102ba57600080fd5b506102d560048036038101906102d0919061172e565b610be4565b6040516102e29190611569565b60405180910390f35b3480156102f757600080fd5b50610312600480360381019061030d919061172e565b610bfc565b005b34801561032057600080fd5b5061033b60048036038101906103369190611a06565b610cf4565b005b34801561034957600080fd5b50610364600480360381019061035f919061167c565b611078565b005b34801561037257600080fd5b5061038d600480360381019061038891906115f1565b611240565b005b60665481565b600581565b6103a2611342565b73ffffffffffffffffffffffffffffffffffffffff166103c0610562565b73ffffffffffffffffffffffffffffffffffffffff1614610416576040517f08c379a000000000000000000000000000000000000000000000000000000000815260040161040d90611aca565b60405180910390fd5b806066819055507f81d2c871f6984b6743a9b4546acc03a595a2e61e088fcabd73bf8dc839266b818160405161044c9190611569565b60405180910390a150565b6068602052816000526040600020602052806000526040600020600091509150508060000160009054906101000a900463ffffffff16908060000160049054906101000a900463ffffffff16908060000160089054906101000a900463ffffffff16908060020154908060030154905085565b600080606760008473ffffffffffffffffffffffffffffffffffffffff1673ffffffffffffffffffffffffffffffffffffffff168152602001908152602001600020541461055757606760008373ffffffffffffffffffffffffffffffffffffffff1673ffffffffffffffffffffffffffffffffffffffff1681526020019081526020016000205461055b565b6065545b9050919050565b6000603360009054906101000a900473ffffffffffffffffffffffffffffffffffffffff16905090565b60655481565b61059a611342565b73ffffffffffffffffffffffffffffffffffffffff166105b8610562565b73ffffffffffffffffffffffffffffffffffffffff161461060e576040517f08c379a000000000000000000000000000000000000000000000000000000000815260040161060590611aca565b60405180910390fd5b620186a0811115610654576040517f08c379a000000000000000000000000000000000000000000000000000000000815260040161064b90611b36565b60405180910390fd5b806065819055507f959e25ed7f2462e87a914c01dc168688aafb2a2a3686e904a02c1ade7282fa298160405161068a9190611569565b60405180910390a150565b600085905060008585905090503373ffffffffffffffffffffffffffffffffffffffff168273ffffffffffffffffffffffffffffffffffffffff16638da5cb5b6040518163ffffffff1660e01b8152600401602060405180830381865afa158015610704573d6000803e3d6000fd5b505050506040513d601f19601f820116820180604052508101906107289190611b6b565b73ffffffffffffffffffffffffffffffffffffffff161461077e576040517f08c379a000000000000000000000000000000000000000000000000000000000815260040161077590611be4565b60405180910390fd5b8383905081146107c3576040517f08c379a00000000000000000000000000000000000000000000000000000000081526004016107ba90611c50565b60405180910390fd5b600080600090505b8281101561081f578585828181106107e6576107e5611c70565b5b90506020020160208101906107fb9190611c9f565b61ffff168261080a9190611cfb565b9150808061081790611d51565b9150506107cb565b506066548161082e9190611d9a565b341015610870576040517f08c379a000000000000000000000000000000000000000000000000000000000815260040161086790611e40565b60405180910390fd5b60005b828110156109f35760008888838181106108905761088f611c70565b5b90506020020160208101906108a5919061172e565b905060008787848181106108bc576108bb611c70565b5b90506020020160208101906108d19190611c9f565b90508573ffffffffffffffffffffffffffffffffffffffff16633e5bd5cd89898681811061090257610901611c70565b5b90506020020160208101906109179190611c9f565b61ffff166066546109289190611d9a565b84846040518463ffffffff1660e01b8152600401610947929190611e9b565b6000604051808303818588803b15801561096057600080fd5b505af1158015610974573d6000803e3d6000fd5b50505050508173ffffffffffffffffffffffffffffffffffffffff168b73ffffffffffffffffffffffffffffffffffffffff167f8986d2aad709d6d52ca7673e78442a1ac939dc024b80334c27ca759e7658a028836040516109d69190611ef5565b60405180910390a3505080806109eb90611d51565b915050610873565b505050505050505050565b3373ffffffffffffffffffffffffffffffffffffffff168673ffffffffffffffffffffffffffffffffffffffff16638da5cb5b6040518163ffffffff1660e01b8152600401602060405180830381865afa158015610a60573d6000803e3d6000fd5b505050506040513d601f19601f82011682018060405250810190610a849190611b6b565b73ffffffffffffffffffffffffffffffffffffffff1614610ada576040517f08c379a0000000000000000000000000000000000000000000000000000000008152600401610ad190611be4565b60405180910390fd5b6000606860008873ffffffffffffffffffffffffffffffffffffffff1673ffffffffffffffffffffffffffffffffffffffff16815260200190815260200160002060008781526020019081526020016000209050828160000160006101000a81548163ffffffff021916908363ffffffff160217905550848160020181905550838160030181905550818160000160086101000a81548163ffffffff021916908363ffffffff160217905550858773ffffffffffffffffffffffffffffffffffffffff167f52152fba3ec4a41cc0cc5511c44d918fc8fe409ff3f5168178675b3880421bf887878787604051610bd39493929190611f10565b60405180910390a350505050505050565b60676020528060005260406000206000915090505481565b610c04611342565b73ffffffffffffffffffffffffffffffffffffffff16610c22610562565b73ffffffffffffffffffffffffffffffffffffffff1614610c78576040517f08c379a0000000000000000000000000000000000000000000000000000000008152600401610c6f90611aca565b60405180910390fd5b600073ffffffffffffffffffffffffffffffffffffffff168173ffffffffffffffffffffffffffffffffffffffff161415610ce8576040517f08c379a0000000000000000000000000000000000000000000000000000000008152600401610cdf90611fc7565b60405180910390fd5b610cf18161134a565b50565b6000606860003373ffffffffffffffffffffffffffffffffffffffff1673ffffffffffffffffffffffffffffffffffffffff16815260200190815260200160002060008661ffff16815260200190815260200160002090508060020154421115610d93576040517f08c379a0000000000000000000000000000000000000000000000000000000008152600401610d8a90612033565b60405180910390fd5b828463ffffffff168260030154610daa9190611d9a565b1115610deb576040517f08c379a0000000000000000000000000000000000000000000000000000000008152600401610de29061209f565b60405180910390fd5b8060000160089054906101000a900463ffffffff1663ffffffff16848260010160008573ffffffffffffffffffffffffffffffffffffffff1673ffffffffffffffffffffffffffffffffffffffff16815260200190815260200160002060009054906101000a900463ffffffff16610e6391906120bf565b63ffffffff161115610eaa576040517f08c379a0000000000000000000000000000000000000000000000000000000008152600401610ea190612145565b60405180910390fd5b8060000160009054906101000a900463ffffffff1663ffffffff16848260000160049054906101000a900463ffffffff16610ee591906120bf565b63ffffffff161115610f2c576040517f08c379a0000000000000000000000000000000000000000000000000000000008152600401610f23906121b1565b60405180910390fd5b838160010160008473ffffffffffffffffffffffffffffffffffffffff1673ffffffffffffffffffffffffffffffffffffffff16815260200190815260200160002060008282829054906101000a900463ffffffff16610f8c91906120bf565b92506101000a81548163ffffffff021916908363ffffffff160217905550838160000160048282829054906101000a900463ffffffff16610fcd91906120bf565b92506101000a81548163ffffffff021916908363ffffffff1602179055508461ffff168273ffffffffffffffffffffffffffffffffffffffff163373ffffffffffffffffffffffffffffffffffffffff167f44cf7174bb96ec2f45e18937962c1eb2f5e756239415ac8c8e8c82078d70c75e878560000160009054906101000a900463ffffffff168660030154604051611069939291906121d1565b60405180910390a45050505050565b611080611342565b73ffffffffffffffffffffffffffffffffffffffff1661109e610562565b73ffffffffffffffffffffffffffffffffffffffff16146110f4576040517f08c379a00000000000000000000000000000000000000000000000000000000081526004016110eb90611aca565b60405180910390fd5b600073ffffffffffffffffffffffffffffffffffffffff168273ffffffffffffffffffffffffffffffffffffffff161415611164576040517f08c379a000000000000000000000000000000000000000000000000000000000815260040161115b90612254565b60405180910390fd5b620186a08111156111aa576040517f08c379a00000000000000000000000000000000000000000000000000000000081526004016111a190611b36565b60405180910390fd5b80606760008473ffffffffffffffffffffffffffffffffffffffff1673ffffffffffffffffffffffffffffffffffffffff168152602001908152602001600020819055508173ffffffffffffffffffffffffffffffffffffffff167faf4fc6cddd93f88f63327478a7a770b1c444596537018ecf1e4f7f543407131e826040516112349190611569565b60405180910390a25050565b600060019054906101000a900460ff166112685760008054906101000a900460ff1615611271565b611270611410565b5b6112b0576040517f08c379a00000000000000000000000000000000000000000000000000000000081526004016112a7906122e6565b60405180910390fd5b60008060019054906101000a900460ff161590508015611300576001600060016101000a81548160ff02191690831515021790555060016000806101000a81548160ff0219169083151502179055505b611308611421565b816065819055506601c6bf52634000606681905550801561133e5760008060016101000a81548160ff0219169083151502179055505b5050565b600033905090565b6000603360009054906101000a900473ffffffffffffffffffffffffffffffffffffffff16905081603360006101000a81548173ffffffffffffffffffffffffffffffffffffffff021916908373ffffffffffffffffffffffffffffffffffffffff1602179055508173ffffffffffffffffffffffffffffffffffffffff168173ffffffffffffffffffffffffffffffffffffffff167f8be0079c531659141344cd1fd0a4f28419497f9722a3daafe3b4186f6b6457e060405160405180910390a35050565b600061141b30611482565b15905090565b600060019054906101000a900460ff16611470576040517f08c379a000000000000000000000000000000000000000000000000000000000815260040161146790612378565b60405180910390fd5b6114786114a5565b6114806114f6565b565b6000808273ffffffffffffffffffffffffffffffffffffffff163b119050919050565b600060019054906101000a900460ff166114f4576040517f08c379a00000000000000000000000000000000000000000000000000000000081526004016114eb90612378565b60405180910390fd5b565b600060019054906101000a900460ff16611545576040517f08c379a000000000000000000000000000000000000000000000000000000000815260040161153c90612378565b60405180910390fd5b61154e3261134a565b565b6000819050919050565b61156381611550565b82525050565b600060208201905061157e600083018461155a565b92915050565b600060ff82169050919050565b61159a81611584565b82525050565b60006020820190506115b56000830184611591565b92915050565b600080fd5b600080fd5b6115ce81611550565b81146115d957600080fd5b50565b6000813590506115eb816115c5565b92915050565b600060208284031215611607576116066115bb565b5b6000611615848285016115dc565b91505092915050565b600073ffffffffffffffffffffffffffffffffffffffff82169050919050565b60006116498261161e565b9050919050565b6116598161163e565b811461166457600080fd5b50565b60008135905061167681611650565b92915050565b60008060408385031215611693576116926115bb565b5b60006116a185828601611667565b92505060206116b2858286016115dc565b9150509250929050565b600063ffffffff82169050919050565b6116d5816116bc565b82525050565b600060a0820190506116f060008301886116cc565b6116fd60208301876116cc565b61170a60408301866116cc565b611717606083018561155a565b611724608083018461155a565b9695505050505050565b600060208284031215611744576117436115bb565b5b600061175284828501611667565b91505092915050565b6117648161163e565b82525050565b600060208201905061177f600083018461175b565b92915050565b60006117908261161e565b9050919050565b6117a081611785565b81146117ab57600080fd5b50565b6000813590506117bd81611797565b92915050565b600080fd5b600080fd5b600080fd5b60008083601f8401126117e8576117e76117c3565b5b8235905067ffffffffffffffff811115611805576118046117c8565b5b602083019150836020820283011115611821576118206117cd565b5b9250929050565b60008083601f84011261183e5761183d6117c3565b5b8235905067ffffffffffffffff81111561185b5761185a6117c8565b5b602083019150836020820283011115611877576118766117cd565b5b9250929050565b60008060008060006060868803121561189a576118996115bb565b5b60006118a8888289016117ae565b955050602086013567ffffffffffffffff8111156118c9576118c86115c0565b5b6118d5888289016117d2565b9450945050604086013567ffffffffffffffff8111156118f8576118f76115c0565b5b61190488828901611828565b92509250509295509295909350565b61191c816116bc565b811461192757600080fd5b50565b60008135905061193981611913565b92915050565b60008060008060008060c0878903121561195c5761195b6115bb565b5b600061196a89828a01611667565b965050602061197b89828a016115dc565b955050604061198c89828a016115dc565b945050606061199d89828a016115dc565b93505060806119ae89828a0161192a565b92505060a06119bf89828a0161192a565b9150509295509295509295565b600061ffff82169050919050565b6119e3816119cc565b81146119ee57600080fd5b50565b600081359050611a00816119da565b92915050565b60008060008060808587031215611a2057611a1f6115bb565b5b6000611a2e878288016119f1565b9450506020611a3f8782880161192a565b9350506040611a50878288016115dc565b9250506060611a6187828801611667565b91505092959194509250565b600082825260208201905092915050565b7f4f776e61626c653a2063616c6c6572206973206e6f7420746865206f776e6572600082015250565b6000611ab4602083611a6d565b9150611abf82611a7e565b602082019050919050565b60006020820190508181036000830152611ae381611aa7565b9050919050565b7f4e45310000000000000000000000000000000000000000000000000000000000600082015250565b6000611b20600383611a6d565b9150611b2b82611aea565b602082019050919050565b60006020820190508181036000830152611b4f81611b13565b9050919050565b600081519050611b6581611650565b92915050565b600060208284031215611b8157611b806115bb565b5b6000611b8f84828501611b56565b91505092915050565b7f4f4f310000000000000000000000000000000000000000000000000000000000600082015250565b6000611bce600383611a6d565b9150611bd982611b98565b602082019050919050565b60006020820190508181036000830152611bfd81611bc1565b9050919050565b7f4152473100000000000000000000000000000000000000000000000000000000600082015250565b6000611c3a600483611a6d565b9150611c4582611c04565b602082019050919050565b60006020820190508181036000830152611c6981611c2d565b9050919050565b7f4e487b7100000000000000000000000000000000000000000000000000000000600052603260045260246000fd5b600060208284031215611cb557611cb46115bb565b5b6000611cc3848285016119f1565b91505092915050565b7f4e487b7100000000000000000000000000000000000000000000000000000000600052601160045260246000fd5b6000611d0682611550565b9150611d1183611550565b9250827fffffffffffffffffffffffffffffffffffffffffffffffffffffffffffffffff03821115611d4657611d45611ccc565b5b828201905092915050565b6000611d5c82611550565b91507fffffffffffffffffffffffffffffffffffffffffffffffffffffffffffffffff821415611d8f57611d8e611ccc565b5b600182019050919050565b6000611da582611550565b9150611db083611550565b9250817fffffffffffffffffffffffffffffffffffffffffffffffffffffffffffffffff0483118215151615611de957611de8611ccc565b5b828202905092915050565b7f4152473300000000000000000000000000000000000000000000000000000000600082015250565b6000611e2a600483611a6d565b9150611e3582611df4565b602082019050919050565b60006020820190508181036000830152611e5981611e1d565b9050919050565b6000819050919050565b6000611e85611e80611e7b846119cc565b611e60565b6116bc565b9050919050565b611e9581611e6a565b82525050565b6000604082019050611eb0600083018561175b565b611ebd6020830184611e8c565b9392505050565b6000611edf611eda611ed5846119cc565b611e60565b611550565b9050919050565b611eef81611ec4565b82525050565b6000602082019050611f0a6000830184611ee6565b92915050565b6000608082019050611f25600083018761155a565b611f32602083018661155a565b611f3f60408301856116cc565b611f4c60608301846116cc565b95945050505050565b7f4f776e61626c653a206e6577206f776e657220697320746865207a65726f206160008201527f6464726573730000000000000000000000000000000000000000000000000000602082015250565b6000611fb1602683611a6d565b9150611fbc82611f55565b604082019050919050565b60006020820190508181036000830152611fe081611fa4565b9050919050565b7f4d54380000000000000000000000000000000000000000000000000000000000600082015250565b600061201d600383611a6d565b915061202882611fe7565b602082019050919050565b6000602082019050818103600083015261204c81612010565b9050919050565b7f4d54350000000000000000000000000000000000000000000000000000000000600082015250565b6000612089600383611a6d565b915061209482612053565b602082019050919050565b600060208201905081810360008301526120b88161207c565b9050919050565b60006120ca826116bc565b91506120d5836116bc565b92508263ffffffff038211156120ee576120ed611ccc565b5b828201905092915050565b7f4d54320000000000000000000000000000000000000000000000000000000000600082015250565b600061212f600383611a6d565b915061213a826120f9565b602082019050919050565b6000602082019050818103600083015261215e81612122565b9050919050565b7f4d54330000000000000000000000000000000000000000000000000000000000600082015250565b600061219b600383611a6d565b91506121a682612165565b602082019050919050565b600060208201905081810360008301526121ca8161218e565b9050919050565b60006060820190506121e660008301866116cc565b6121f360208301856116cc565b612200604083018461155a565b949350505050565b7f4145310000000000000000000000000000000000000000000000000000000000600082015250565b600061223e600383611a6d565b915061224982612208565b602082019050919050565b6000602082019050818103600083015261226d81612231565b9050919050565b7f496e697469616c697a61626c653a20636f6e747261637420697320616c72656160008201527f647920696e697469616c697a6564000000000000000000000000000000000000602082015250565b60006122d0602e83611a6d565b91506122db82612274565b604082019050919050565b600060208201905081810360008301526122ff816122c3565b9050919050565b7f496e697469616c697a61626c653a20636f6e7472616374206973206e6f74206960008201527f6e697469616c697a696e67000000000000000000000000000000000000000000602082015250565b6000612362602b83611a6d565b915061236d82612306565b604082019050919050565b6000602082019050818103600083015261239181612355565b905091905056fea26469706673582212204a57f46b525a68132eee1e94862a77f2309c5a854b7428c3d9a030da620b141c64736f6c634300080a0033",
  "linkReferences": {},
  "deployedLinkReferences": {}
}