{
  "_format": "hh-sol-artifact-1",
  "contractName": "OmnuumNFT721",
  "sourceName": "contracts/V1/OmnuumNFT721.sol",
  "abi": [
    {
      "anonymous": false,
      "inputs": [
        {
          "indexed": true,
          "internalType": "address",
          "name": "owner",
          "type": "address"
        },
        {
          "indexed": true,
          "internalType": "address",
          "name": "approved",
          "type": "address"
        },
        {
          "indexed": true,
          "internalType": "uint256",
          "name": "tokenId",
          "type": "uint256"
        }
      ],
      "name": "Approval",
      "type": "event"
    },
    {
      "anonymous": false,
      "inputs": [
        {
          "indexed": true,
          "internalType": "address",
          "name": "owner",
          "type": "address"
        },
        {
          "indexed": true,
          "internalType": "address",
          "name": "operator",
          "type": "address"
        },
        {
          "indexed": false,
          "internalType": "bool",
          "name": "approved",
          "type": "bool"
        }
      ],
      "name": "ApprovalForAll",
      "type": "event"
    },
    {
      "anonymous": false,
      "inputs": [
        {
          "indexed": true,
          "internalType": "address",
          "name": "receiver",
          "type": "address"
        },
        {
          "indexed": false,
          "internalType": "uint256",
          "name": "value",
          "type": "uint256"
        }
      ],
      "name": "BalanceTransferred",
      "type": "event"
    },
    {
      "anonymous": false,
      "inputs": [
        {
          "indexed": true,
          "internalType": "address",
          "name": "nftContract",
          "type": "address"
        },
        {
          "indexed": false,
          "internalType": "string",
          "name": "baseURI",
          "type": "string"
        }
      ],
      "name": "BaseURIChanged",
      "type": "event"
    },
    {
      "anonymous": false,
      "inputs": [
        {
          "indexed": true,
          "internalType": "address",
          "name": "sender",
          "type": "address"
        },
        {
          "indexed": false,
          "internalType": "uint256",
          "name": "value",
          "type": "uint256"
        }
      ],
      "name": "EtherReceived",
      "type": "event"
    },
    {
      "anonymous": false,
      "inputs": [
        {
          "indexed": true,
          "internalType": "address",
          "name": "nftContract",
          "type": "address"
        },
        {
          "indexed": true,
          "internalType": "address",
          "name": "payer",
          "type": "address"
        },
        {
          "indexed": false,
          "internalType": "uint256",
          "name": "profit",
          "type": "uint256"
        },
        {
          "indexed": false,
          "internalType": "uint256",
          "name": "mintFee",
          "type": "uint256"
        }
      ],
      "name": "MintFeePaid",
      "type": "event"
    },
    {
      "anonymous": false,
      "inputs": [
        {
          "indexed": true,
          "internalType": "address",
          "name": "previousOwner",
          "type": "address"
        },
        {
          "indexed": true,
          "internalType": "address",
          "name": "newOwner",
          "type": "address"
        }
      ],
      "name": "OwnershipTransferred",
      "type": "event"
    },
    {
      "anonymous": false,
      "inputs": [
        {
          "indexed": true,
          "internalType": "address",
          "name": "nftContract",
          "type": "address"
        }
      ],
      "name": "Revealed",
      "type": "event"
    },
    {
      "anonymous": false,
      "inputs": [
        {
          "indexed": true,
          "internalType": "address",
          "name": "from",
          "type": "address"
        },
        {
          "indexed": true,
          "internalType": "address",
          "name": "to",
          "type": "address"
        },
        {
          "indexed": true,
          "internalType": "uint256",
          "name": "tokenId",
          "type": "uint256"
        }
      ],
      "name": "Transfer",
      "type": "event"
    },
    {
      "inputs": [
        {
          "internalType": "address",
          "name": "to",
          "type": "address"
        },
        {
          "internalType": "uint256",
          "name": "tokenId",
          "type": "uint256"
        }
      ],
      "name": "approve",
      "outputs": [],
      "stateMutability": "nonpayable",
      "type": "function"
    },
    {
      "inputs": [
        {
          "internalType": "address",
          "name": "owner",
          "type": "address"
        }
      ],
      "name": "balanceOf",
      "outputs": [
        {
          "internalType": "uint256",
          "name": "",
          "type": "uint256"
        }
      ],
      "stateMutability": "view",
      "type": "function"
    },
    {
      "inputs": [],
      "name": "baseURI",
      "outputs": [
        {
          "internalType": "string",
          "name": "",
          "type": "string"
        }
      ],
      "stateMutability": "view",
      "type": "function"
    },
    {
      "inputs": [
        {
          "internalType": "string",
          "name": "baseURI_",
          "type": "string"
        }
      ],
      "name": "changeBaseURI",
      "outputs": [],
      "stateMutability": "nonpayable",
      "type": "function"
    },
    {
      "inputs": [
        {
          "internalType": "uint256",
          "name": "tokenId",
          "type": "uint256"
        }
      ],
      "name": "getApproved",
      "outputs": [
        {
          "internalType": "address",
          "name": "",
          "type": "address"
        }
      ],
      "stateMutability": "view",
      "type": "function"
    },
    {
      "inputs": [
        {
          "internalType": "address",
          "name": "_caManagerAddress",
          "type": "address"
        },
        {
          "internalType": "address",
          "name": "_omnuumSigner",
          "type": "address"
        },
        {
          "internalType": "uint32",
          "name": "_maxSupply",
          "type": "uint32"
        },
        {
          "internalType": "string",
          "name": "_coverBaseURI",
          "type": "string"
        },
        {
          "internalType": "address",
          "name": "_prjOwner",
          "type": "address"
        },
        {
          "internalType": "string",
          "name": "_name",
          "type": "string"
        },
        {
          "internalType": "string",
          "name": "_symbol",
          "type": "string"
        }
      ],
      "name": "initialize",
      "outputs": [],
      "stateMutability": "nonpayable",
      "type": "function"
    },
    {
      "inputs": [
        {
          "internalType": "address",
          "name": "owner",
          "type": "address"
        },
        {
          "internalType": "address",
          "name": "operator",
          "type": "address"
        }
      ],
      "name": "isApprovedForAll",
      "outputs": [
        {
          "internalType": "bool",
          "name": "",
          "type": "bool"
        }
      ],
      "stateMutability": "view",
      "type": "function"
    },
    {
      "inputs": [],
      "name": "isRevealed",
      "outputs": [
        {
          "internalType": "bool",
          "name": "",
          "type": "bool"
        }
      ],
      "stateMutability": "view",
      "type": "function"
    },
    {
      "inputs": [],
      "name": "maxSupply",
      "outputs": [
        {
          "internalType": "uint32",
          "name": "",
          "type": "uint32"
        }
      ],
      "stateMutability": "view",
      "type": "function"
    },
    {
      "inputs": [
        {
          "internalType": "address",
          "name": "_to",
          "type": "address"
        },
        {
          "internalType": "uint256",
          "name": "_quantity",
          "type": "uint256"
        }
      ],
      "name": "mintDirect",
      "outputs": [],
      "stateMutability": "nonpayable",
      "type": "function"
    },
    {
      "inputs": [],
      "name": "name",
      "outputs": [
        {
          "internalType": "string",
          "name": "",
          "type": "string"
        }
      ],
      "stateMutability": "view",
      "type": "function"
    },
    {
      "inputs": [],
      "name": "owner",
      "outputs": [
        {
          "internalType": "address",
          "name": "",
          "type": "address"
        }
      ],
      "stateMutability": "view",
      "type": "function"
    },
    {
      "inputs": [
        {
          "internalType": "uint256",
          "name": "tokenId",
          "type": "uint256"
        }
      ],
      "name": "ownerOf",
      "outputs": [
        {
          "internalType": "address",
          "name": "",
          "type": "address"
        }
      ],
      "stateMutability": "view",
      "type": "function"
    },
    {
      "inputs": [
        {
          "internalType": "uint32",
          "name": "_quantity",
          "type": "uint32"
        },
        {
          "internalType": "uint256",
          "name": "_groupId",
          "type": "uint256"
        },
        {
          "components": [
            {
              "internalType": "address",
              "name": "sender",
              "type": "address"
            },
            {
              "internalType": "string",
              "name": "topic",
              "type": "string"
            },
            {
              "internalType": "uint256",
              "name": "nonce",
              "type": "uint256"
            },
            {
              "internalType": "bytes",
              "name": "signature",
              "type": "bytes"
            }
          ],
          "internalType": "struct SenderVerifier.Payload",
          "name": "_payload",
          "type": "tuple"
        }
      ],
      "name": "publicMint",
      "outputs": [],
      "stateMutability": "payable",
      "type": "function"
    },
    {
      "inputs": [
        {
          "internalType": "address",
          "name": "from",
          "type": "address"
        },
        {
          "internalType": "address",
          "name": "to",
          "type": "address"
        },
        {
          "internalType": "uint256",
          "name": "tokenId",
          "type": "uint256"
        }
      ],
      "name": "safeTransferFrom",
      "outputs": [],
      "stateMutability": "nonpayable",
      "type": "function"
    },
    {
      "inputs": [
        {
          "internalType": "address",
          "name": "from",
          "type": "address"
        },
        {
          "internalType": "address",
          "name": "to",
          "type": "address"
        },
        {
          "internalType": "uint256",
          "name": "tokenId",
          "type": "uint256"
        },
        {
          "internalType": "bytes",
          "name": "_data",
          "type": "bytes"
        }
      ],
      "name": "safeTransferFrom",
      "outputs": [],
      "stateMutability": "nonpayable",
      "type": "function"
    },
    {
      "inputs": [
        {
          "internalType": "address",
          "name": "operator",
          "type": "address"
        },
        {
          "internalType": "bool",
          "name": "approved",
          "type": "bool"
        }
      ],
      "name": "setApprovalForAll",
      "outputs": [],
      "stateMutability": "nonpayable",
      "type": "function"
    },
    {
      "inputs": [
        {
          "internalType": "string",
          "name": "baseURI_",
          "type": "string"
        }
      ],
      "name": "setRevealed",
      "outputs": [],
      "stateMutability": "nonpayable",
      "type": "function"
    },
    {
      "inputs": [
        {
          "internalType": "bytes4",
          "name": "interfaceId",
          "type": "bytes4"
        }
      ],
      "name": "supportsInterface",
      "outputs": [
        {
          "internalType": "bool",
          "name": "",
          "type": "bool"
        }
      ],
      "stateMutability": "view",
      "type": "function"
    },
    {
      "inputs": [],
      "name": "symbol",
      "outputs": [
        {
          "internalType": "string",
          "name": "",
          "type": "string"
        }
      ],
      "stateMutability": "view",
      "type": "function"
    },
    {
      "inputs": [
        {
          "internalType": "uint32",
          "name": "_quantity",
          "type": "uint32"
        },
        {
          "components": [
            {
              "internalType": "address",
              "name": "user",
              "type": "address"
            },
            {
              "internalType": "address",
              "name": "nft",
              "type": "address"
            },
            {
              "internalType": "uint256",
              "name": "price",
              "type": "uint256"
            },
            {
              "internalType": "uint32",
              "name": "quantity",
              "type": "uint32"
            },
            {
              "internalType": "uint256",
              "name": "groupId",
              "type": "uint256"
            },
            {
              "internalType": "bytes",
              "name": "signature",
              "type": "bytes"
            }
          ],
          "internalType": "struct TicketManager.Ticket",
          "name": "_ticket",
          "type": "tuple"
        },
        {
          "components": [
            {
              "internalType": "address",
              "name": "sender",
              "type": "address"
            },
            {
              "internalType": "string",
              "name": "topic",
              "type": "string"
            },
            {
              "internalType": "uint256",
              "name": "nonce",
              "type": "uint256"
            },
            {
              "internalType": "bytes",
              "name": "signature",
              "type": "bytes"
            }
          ],
          "internalType": "struct SenderVerifier.Payload",
          "name": "_payload",
          "type": "tuple"
        }
      ],
      "name": "ticketMint",
      "outputs": [],
      "stateMutability": "payable",
      "type": "function"
    },
    {
      "inputs": [
        {
          "internalType": "uint256",
          "name": "tokenId",
          "type": "uint256"
        }
      ],
      "name": "tokenURI",
      "outputs": [
        {
          "internalType": "string",
          "name": "",
          "type": "string"
        }
      ],
      "stateMutability": "view",
      "type": "function"
    },
    {
      "inputs": [],
      "name": "totalSupply",
      "outputs": [
        {
          "internalType": "uint256",
          "name": "",
          "type": "uint256"
        }
      ],
      "stateMutability": "view",
      "type": "function"
    },
    {
      "inputs": [
        {
          "internalType": "uint256",
          "name": "_value",
          "type": "uint256"
        },
        {
          "internalType": "address",
          "name": "_to",
          "type": "address"
        }
      ],
      "name": "transferBalance",
      "outputs": [],
      "stateMutability": "nonpayable",
      "type": "function"
    },
    {
      "inputs": [
        {
          "internalType": "address",
          "name": "from",
          "type": "address"
        },
        {
          "internalType": "address",
          "name": "to",
          "type": "address"
        },
        {
          "internalType": "uint256",
          "name": "tokenId",
          "type": "uint256"
        }
      ],
      "name": "transferFrom",
      "outputs": [],
      "stateMutability": "nonpayable",
      "type": "function"
    },
    {
      "inputs": [
        {
          "internalType": "address",
          "name": "newOwner",
          "type": "address"
        }
      ],
      "name": "transferOwnership",
      "outputs": [],
      "stateMutability": "nonpayable",
      "type": "function"
    },
    {
      "stateMutability": "payable",
      "type": "receive"
    }
  ],
  "bytecode": "0x608060405234801561001057600080fd5b5061587180620000216000396000f3fe6080604052600436106101855760003560e01c80636c0360eb116100d1578063a22cb4651161008a578063c903b7f211610064578063c903b7f2146105bb578063d5abeb01146105e4578063e985e9c51461060f578063f2fde38b1461064c576101da565b8063a22cb4651461052c578063b88d4fde14610555578063c87b56dd1461057e576101da565b80636c0360eb1461042957806370a082311461045457806373468fcc14610491578063794100b9146104ad5780638da5cb5b146104d657806395d89b4114610501576101da565b8063328629cf1161013e57806342842e0e1161011857806342842e0e1461036f57806354214f69146103985780636352211e146103c35780636a28443814610400576101da565b8063328629cf14610301578063372a21c01461032a57806339a0c6f914610346576101da565b806301ffc9a7146101df57806306fdde031461021c578063081812fc14610247578063095ea7b31461028457806318160ddd146102ad57806323b872dd146102d8576101da565b366101da573373ffffffffffffffffffffffffffffffffffffffff167f1e57e3bb474320be3d2c77138f75b7c3941292d647f5f9634e33a8e94e0e069b346040516101d09190613447565b60405180910390a2005b600080fd5b3480156101eb57600080fd5b50610206600480360381019061020191906134ce565b610675565b6040516102139190613516565b60405180910390f35b34801561022857600080fd5b50610231610757565b60405161023e91906135ca565b60405180910390f35b34801561025357600080fd5b5061026e60048036038101906102699190613618565b6107e9565b60405161027b9190613686565b60405180910390f35b34801561029057600080fd5b506102ab60048036038101906102a691906136cd565b61086e565b005b3480156102b957600080fd5b506102c2610986565b6040516102cf9190613447565b60405180910390f35b3480156102e457600080fd5b506102ff60048036038101906102fa919061370d565b610997565b005b34801561030d57600080fd5b5061032860048036038101906103239190613760565b6109f7565b005b610344600480360381019061033f919061381f565b610c0b565b005b34801561035257600080fd5b5061036d6004803603810190610368919061390f565b610f96565b005b34801561037b57600080fd5b506103966004803603810190610391919061370d565b611078565b005b3480156103a457600080fd5b506103ad611098565b6040516103ba9190613516565b60405180910390f35b3480156103cf57600080fd5b506103ea60048036038101906103e59190613618565b6110ab565b6040516103f79190613686565b60405180910390f35b34801561040c57600080fd5b50610427600480360381019061042291906136cd565b61115d565b005b34801561043557600080fd5b5061043e6111fb565b60405161044b91906135ca565b60405180910390f35b34801561046057600080fd5b5061047b6004803603810190610476919061395c565b611289565b6040516104889190613447565b60405180910390f35b6104ab60048036038101906104a69190613989565b611341565b005b3480156104b957600080fd5b506104d460048036038101906104cf919061390f565b6115d7565b005b3480156104e257600080fd5b506104eb61170f565b6040516104f89190613686565b60405180910390f35b34801561050d57600080fd5b50610516611739565b60405161052391906135ca565b60405180910390f35b34801561053857600080fd5b50610553600480360381019061054e9190613a24565b6117cb565b005b34801561056157600080fd5b5061057c60048036038101906105779190613b94565b6117e1565b005b34801561058a57600080fd5b506105a560048036038101906105a09190613618565b611843565b6040516105b291906135ca565b60405180910390f35b3480156105c757600080fd5b506105e260048036038101906105dd9190613c17565b6118ea565b005b3480156105f057600080fd5b506105f9611ce9565b6040516106069190613d29565b60405180910390f35b34801561061b57600080fd5b5061063660048036038101906106319190613d44565b611cff565b6040516106439190613516565b60405180910390f35b34801561065857600080fd5b50610673600480360381019061066e919061395c565b611d93565b005b60007f80ac58cd000000000000000000000000000000000000000000000000000000007bffffffffffffffffffffffffffffffffffffffffffffffffffffffff1916827bffffffffffffffffffffffffffffffffffffffffffffffffffffffff1916148061074057507f5b5e139f000000000000000000000000000000000000000000000000000000007bffffffffffffffffffffffffffffffffffffffffffffffffffffffff1916827bffffffffffffffffffffffffffffffffffffffffffffffffffffffff1916145b80610750575061074f82611e8b565b5b9050919050565b60606065805461076690613db3565b80601f016020809104026020016040519081016040528092919081815260200182805461079290613db3565b80156107df5780601f106107b4576101008083540402835291602001916107df565b820191906000526020600020905b8154815290600101906020018083116107c257829003601f168201915b5050505050905090565b60006107f482611ef5565b610833576040517f08c379a000000000000000000000000000000000000000000000000000000000815260040161082a90613e57565b60405180910390fd5b6069600083815260200190815260200160002060009054906101000a900473ffffffffffffffffffffffffffffffffffffffff169050919050565b6000610879826110ab565b90508073ffffffffffffffffffffffffffffffffffffffff168373ffffffffffffffffffffffffffffffffffffffff1614156108ea576040517f08c379a00000000000000000000000000000000000000000000000000000000081526004016108e190613ee9565b60405180910390fd5b8073ffffffffffffffffffffffffffffffffffffffff16610909611f61565b73ffffffffffffffffffffffffffffffffffffffff161480610938575061093781610932611f61565b611cff565b5b610977576040517f08c379a000000000000000000000000000000000000000000000000000000000815260040161096e90613f7b565b60405180910390fd5b6109818383611f69565b505050565b600061099260fb612022565b905090565b6109a86109a2611f61565b82612030565b6109e7576040517f08c379a00000000000000000000000000000000000000000000000000000000081526004016109de9061400d565b60405180910390fd5b6109f283838361210e565b505050565b6109ff611f61565b73ffffffffffffffffffffffffffffffffffffffff16610a1d61170f565b73ffffffffffffffffffffffffffffffffffffffff1614610a73576040517f08c379a0000000000000000000000000000000000000000000000000000000008152600401610a6a90614079565b60405180910390fd5b60026097541415610ab9576040517f08c379a0000000000000000000000000000000000000000000000000000000008152600401610ab0906140e5565b60405180910390fd5b600260978190555047821115610b04576040517f08c379a0000000000000000000000000000000000000000000000000000000008152600401610afb90614151565b60405180910390fd5b60008173ffffffffffffffffffffffffffffffffffffffff1683604051610b2a906141a2565b60006040518083038185875af1925050503d8060008114610b67576040519150601f19603f3d011682016040523d82523d6000602084013e610b6c565b606091505b5050905080610bb0576040517f08c379a0000000000000000000000000000000000000000000000000000000008152600401610ba790614203565b60405180910390fd5b8173ffffffffffffffffffffffffffffffffffffffff167f8698d686dbbc2904fa3857bf4f5be151aeb6c9be47ef8f095f479f93c8d6b27084604051610bf69190613447565b60405180910390a25060016097819055505050565b60026097541415610c51576040517f08c379a0000000000000000000000000000000000000000000000000000000008152600401610c48906140e5565b60405180910390fd5b6002609781905550610c783373ffffffffffffffffffffffffffffffffffffffff16612375565b15610cb8576040517f08c379a0000000000000000000000000000000000000000000000000000000008152600401610caf9061426f565b60405180910390fd5b348363ffffffff168360400135610ccf91906142be565b1115610d10576040517f08c379a0000000000000000000000000000000000000000000000000000000008152600401610d0790614364565b60405180910390fd5b60fc60009054906101000a900473ffffffffffffffffffffffffffffffffffffffff1673ffffffffffffffffffffffffffffffffffffffff1663358177736040518163ffffffff1660e01b8152600401610d69906143d0565b602060405180830381865afa158015610d86573d6000803e3d6000fd5b505050506040513d601f19601f82011682018060405250810190610daa9190614405565b73ffffffffffffffffffffffffffffffffffffffff16638f2c6a8060fe60009054906101000a900473ffffffffffffffffffffffffffffffffffffffff16338560800135856040518563ffffffff1660e01b8152600401610e0e94939291906146a9565b60006040518083038186803b158015610e2657600080fd5b505afa158015610e3a573d6000803e3d6000fd5b5050505060fc60009054906101000a900473ffffffffffffffffffffffffffffffffffffffff1673ffffffffffffffffffffffffffffffffffffffff1663358177736040518163ffffffff1660e01b8152600401610e9790614708565b602060405180830381865afa158015610eb4573d6000803e3d6000fd5b505050506040513d601f19601f82011682018060405250810190610ed89190614405565b73ffffffffffffffffffffffffffffffffffffffff1663898bf31660fe60009054906101000a900473ffffffffffffffffffffffffffffffffffffffff163386866040518563ffffffff1660e01b8152600401610f389493929190614809565b600060405180830381600087803b158015610f5257600080fd5b505af1158015610f66573d6000803e3d6000fd5b50505050610f798363ffffffff16612398565b610f89338463ffffffff1661272c565b6001609781905550505050565b610f9e611f61565b73ffffffffffffffffffffffffffffffffffffffff16610fbc61170f565b73ffffffffffffffffffffffffffffffffffffffff1614611012576040517f08c379a000000000000000000000000000000000000000000000000000000000815260040161100990614079565b60405180910390fd5b818160ff9190611023929190613305565b503073ffffffffffffffffffffffffffffffffffffffff167f165934242147f3edfff841cdc7eaf9c061b07a451d00ad31e6ad1a4dc1c9402a838360405161106c929190614882565b60405180910390a25050565b611093838383604051806020016040528060008152506117e1565b505050565b60fe60189054906101000a900460ff1681565b6000806067600084815260200190815260200160002060009054906101000a900473ffffffffffffffffffffffffffffffffffffffff169050600073ffffffffffffffffffffffffffffffffffffffff168173ffffffffffffffffffffffffffffffffffffffff161415611154576040517f08c379a000000000000000000000000000000000000000000000000000000000815260040161114b90614918565b60405180910390fd5b80915050919050565b60fd60009054906101000a900473ffffffffffffffffffffffffffffffffffffffff1673ffffffffffffffffffffffffffffffffffffffff163373ffffffffffffffffffffffffffffffffffffffff16146111ed576040517f08c379a00000000000000000000000000000000000000000000000000000000081526004016111e490614984565b60405180910390fd5b6111f7828261272c565b5050565b60ff805461120890613db3565b80601f016020809104026020016040519081016040528092919081815260200182805461123490613db3565b80156112815780601f1061125657610100808354040283529160200191611281565b820191906000526020600020905b81548152906001019060200180831161126457829003601f168201915b505050505081565b60008073ffffffffffffffffffffffffffffffffffffffff168273ffffffffffffffffffffffffffffffffffffffff1614156112fa576040517f08c379a00000000000000000000000000000000000000000000000000000000081526004016112f190614a16565b60405180910390fd5b606860008373ffffffffffffffffffffffffffffffffffffffff1673ffffffffffffffffffffffffffffffffffffffff168152602001908152602001600020549050919050565b60026097541415611387576040517f08c379a000000000000000000000000000000000000000000000000000000000815260040161137e906140e5565b60405180910390fd5b60026097819055506113ae3373ffffffffffffffffffffffffffffffffffffffff16612375565b156113ee576040517f08c379a00000000000000000000000000000000000000000000000000000000081526004016113e59061426f565b60405180910390fd5b60fc60009054906101000a900473ffffffffffffffffffffffffffffffffffffffff1673ffffffffffffffffffffffffffffffffffffffff1663358177736040518163ffffffff1660e01b8152600401611447906143d0565b602060405180830381865afa158015611464573d6000803e3d6000fd5b505050506040513d601f19601f820116820180604052508101906114889190614405565b73ffffffffffffffffffffffffffffffffffffffff16638f2c6a8060fe60009054906101000a900473ffffffffffffffffffffffffffffffffffffffff163385856040518563ffffffff1660e01b81526004016114e89493929190614a82565b60006040518083038186803b15801561150057600080fd5b505afa158015611514573d6000803e3d6000fd5b5050505060fd60009054906101000a900473ffffffffffffffffffffffffffffffffffffffff1673ffffffffffffffffffffffffffffffffffffffff1663dce151b3838534336040518563ffffffff1660e01b81526004016115799493929190614ae1565b600060405180830381600087803b15801561159357600080fd5b505af11580156115a7573d6000803e3d6000fd5b505050506115ba8363ffffffff16612398565b6115ca338463ffffffff1661272c565b6001609781905550505050565b6115df611f61565b73ffffffffffffffffffffffffffffffffffffffff166115fd61170f565b73ffffffffffffffffffffffffffffffffffffffff1614611653576040517f08c379a000000000000000000000000000000000000000000000000000000000815260040161164a90614079565b60405180910390fd5b60fe60189054906101000a900460ff16156116a3576040517f08c379a000000000000000000000000000000000000000000000000000000000815260040161169a90614b72565b60405180910390fd5b600160fe60186101000a81548160ff0219169083151502179055506116c88282610f96565b3073ffffffffffffffffffffffffffffffffffffffff167fb43a48f4b5fe1b13780390dc7b039206c4f81535c0fda507c687d7e921eb18bb60405160405180910390a25050565b600060c960009054906101000a900473ffffffffffffffffffffffffffffffffffffffff16905090565b60606066805461174890613db3565b80601f016020809104026020016040519081016040528092919081815260200182805461177490613db3565b80156117c15780601f10611796576101008083540402835291602001916117c1565b820191906000526020600020905b8154815290600101906020018083116117a457829003601f168201915b5050505050905090565b6117dd6117d6611f61565b83836127db565b5050565b6117f26117ec611f61565b83612030565b611831576040517f08c379a00000000000000000000000000000000000000000000000000000000081526004016118289061400d565b60405180910390fd5b61183d84848484612948565b50505050565b606061184e82611ef5565b61188d576040517f08c379a000000000000000000000000000000000000000000000000000000000815260040161188490614c04565b60405180910390fd5b60006118976129a4565b905060008151116118b757604051806020016040528060008152506118e2565b806118c184612a36565b6040516020016118d2929190614c60565b6040516020818303038152906040525b915050919050565b600060019054906101000a900460ff166119125760008054906101000a900460ff161561191b565b61191a612b97565b5b61195a576040517f08c379a000000000000000000000000000000000000000000000000000000000815260040161195190614cf6565b60405180910390fd5b60008060019054906101000a900460ff1615905080156119aa576001600060016101000a81548160ff02191690831515021790555060016000806101000a81548160ff0219169083151502179055505b600073ffffffffffffffffffffffffffffffffffffffff168b73ffffffffffffffffffffffffffffffffffffffff161415611a1a576040517f08c379a0000000000000000000000000000000000000000000000000000000008152600401611a1190614d62565b60405180910390fd5b600073ffffffffffffffffffffffffffffffffffffffff168673ffffffffffffffffffffffffffffffffffffffff161415611a8a576040517f08c379a0000000000000000000000000000000000000000000000000000000008152600401611a8190614d62565b60405180910390fd5b611b1c85858080601f016020809104026020016040519081016040528093929190818152602001838380828437600081840152601f19601f8201169050808301925050505050505084848080601f016020809104026020016040519081016040528093929190818152602001838380828437600081840152601f19601f82011690508083019250505050505050612ba8565b611b24612c05565b611b2c612c5e565b8860fe60146101000a81548163ffffffff021916908363ffffffff1602179055508960fe60006101000a81548173ffffffffffffffffffffffffffffffffffffffff021916908373ffffffffffffffffffffffffffffffffffffffff160217905550878760ff9190611b9f929190613305565b508a60fc60006101000a81548173ffffffffffffffffffffffffffffffffffffffff021916908373ffffffffffffffffffffffffffffffffffffffff16021790555060fc60009054906101000a900473ffffffffffffffffffffffffffffffffffffffff1673ffffffffffffffffffffffffffffffffffffffff1663358177736040518163ffffffff1660e01b8152600401611c3a90614dce565b602060405180830381865afa158015611c57573d6000803e3d6000fd5b505050506040513d601f19601f82011682018060405250810190611c7b9190614405565b60fd60006101000a81548173ffffffffffffffffffffffffffffffffffffffff021916908373ffffffffffffffffffffffffffffffffffffffff1602179055508015611cdc5760008060016101000a81548160ff0219169083151502179055505b5050505050505050505050565b60fe60149054906101000a900463ffffffff1681565b6000606a60008473ffffffffffffffffffffffffffffffffffffffff1673ffffffffffffffffffffffffffffffffffffffff16815260200190815260200160002060008373ffffffffffffffffffffffffffffffffffffffff1673ffffffffffffffffffffffffffffffffffffffff16815260200190815260200160002060009054906101000a900460ff16905092915050565b611d9b611f61565b73ffffffffffffffffffffffffffffffffffffffff16611db961170f565b73ffffffffffffffffffffffffffffffffffffffff1614611e0f576040517f08c379a0000000000000000000000000000000000000000000000000000000008152600401611e0690614079565b60405180910390fd5b600073ffffffffffffffffffffffffffffffffffffffff168173ffffffffffffffffffffffffffffffffffffffff161415611e7f576040517f08c379a0000000000000000000000000000000000000000000000000000000008152600401611e7690614e60565b60405180910390fd5b611e8881612cbf565b50565b60007f01ffc9a7000000000000000000000000000000000000000000000000000000007bffffffffffffffffffffffffffffffffffffffffffffffffffffffff1916827bffffffffffffffffffffffffffffffffffffffffffffffffffffffff1916149050919050565b60008073ffffffffffffffffffffffffffffffffffffffff166067600084815260200190815260200160002060009054906101000a900473ffffffffffffffffffffffffffffffffffffffff1673ffffffffffffffffffffffffffffffffffffffff1614159050919050565b600033905090565b816069600083815260200190815260200160002060006101000a81548173ffffffffffffffffffffffffffffffffffffffff021916908373ffffffffffffffffffffffffffffffffffffffff160217905550808273ffffffffffffffffffffffffffffffffffffffff16611fdc836110ab565b73ffffffffffffffffffffffffffffffffffffffff167f8c5be1e5ebec7d5bd14f71427d1e84f3dd0314c0f7b2291e5b200ac8c7c3b92560405160405180910390a45050565b600081600001549050919050565b600061203b82611ef5565b61207a576040517f08c379a000000000000000000000000000000000000000000000000000000000815260040161207190614ef2565b60405180910390fd5b6000612085836110ab565b90508073ffffffffffffffffffffffffffffffffffffffff168473ffffffffffffffffffffffffffffffffffffffff1614806120f457508373ffffffffffffffffffffffffffffffffffffffff166120dc846107e9565b73ffffffffffffffffffffffffffffffffffffffff16145b8061210557506121048185611cff565b5b91505092915050565b8273ffffffffffffffffffffffffffffffffffffffff1661212e826110ab565b73ffffffffffffffffffffffffffffffffffffffff1614612184576040517f08c379a000000000000000000000000000000000000000000000000000000000815260040161217b90614f84565b60405180910390fd5b600073ffffffffffffffffffffffffffffffffffffffff168273ffffffffffffffffffffffffffffffffffffffff1614156121f4576040517f08c379a00000000000000000000000000000000000000000000000000000000081526004016121eb90615016565b60405180910390fd5b6121ff838383612d85565b61220a600082611f69565b6001606860008573ffffffffffffffffffffffffffffffffffffffff1673ffffffffffffffffffffffffffffffffffffffff168152602001908152602001600020600082825461225a9190615036565b925050819055506001606860008473ffffffffffffffffffffffffffffffffffffffff1673ffffffffffffffffffffffffffffffffffffffff16815260200190815260200160002060008282546122b1919061506a565b92505081905550816067600083815260200190815260200160002060006101000a81548173ffffffffffffffffffffffffffffffffffffffff021916908373ffffffffffffffffffffffffffffffffffffffff160217905550808273ffffffffffffffffffffffffffffffffffffffff168473ffffffffffffffffffffffffffffffffffffffff167fddf252ad1be2c89b69c2b068fc378daa952ba7f163c4a11628f55a4df523b3ef60405160405180910390a4612370838383612d8a565b505050565b6000808273ffffffffffffffffffffffffffffffffffffffff163b119050919050565b600060fd60009054906101000a900473ffffffffffffffffffffffffffffffffffffffff1673ffffffffffffffffffffffffffffffffffffffff166331809c7e6040518163ffffffff1660e01b8152600401602060405180830381865afa158015612407573d6000803e3d6000fd5b505050506040513d601f19601f8201168201806040525081019061242b91906150f9565b9050600060fd60009054906101000a900473ffffffffffffffffffffffffffffffffffffffff1673ffffffffffffffffffffffffffffffffffffffff166324ec75906040518163ffffffff1660e01b8152600401602060405180830381865afa15801561249c573d6000803e3d6000fd5b505050506040513d601f19601f820116820180604052508101906124c0919061513b565b9050600060fd60009054906101000a900473ffffffffffffffffffffffffffffffffffffffff1673ffffffffffffffffffffffffffffffffffffffff16638198edbf306040518263ffffffff1660e01b815260040161251f9190613686565b602060405180830381865afa15801561253c573d6000803e3d6000fd5b505050506040513d601f19601f82011682018060405250810190612560919061513b565b9050600083600a612571919061529b565b823461257d91906142be565b6125879190615315565b90506000838661259791906142be565b905060008183116125a857816125aa565b825b905060fc60009054906101000a900473ffffffffffffffffffffffffffffffffffffffff1673ffffffffffffffffffffffffffffffffffffffff1663358177736040518163ffffffff1660e01b815260040161260590615392565b602060405180830381865afa158015612622573d6000803e3d6000fd5b505050506040513d601f19601f820116820180604052508101906126469190614405565b73ffffffffffffffffffffffffffffffffffffffff1663f14cf2b182306040518363ffffffff1660e01b815260040161267f9190613686565b6000604051808303818588803b15801561269857600080fd5b505af11580156126ac573d6000803e3d6000fd5b50505050503373ffffffffffffffffffffffffffffffffffffffff163073ffffffffffffffffffffffffffffffffffffffff167f14deb714a99fc451d7b93138680aa1d3e1391c3ebe9fa0752878a73347074a43833461270c9190615036565b8460405161271b9291906153b2565b60405180910390a350505050505050565b60fe60149054906101000a900463ffffffff1663ffffffff168161275060fb612022565b61275a919061506a565b111561279b576040517f08c379a000000000000000000000000000000000000000000000000000000000815260040161279290615427565b60405180910390fd5b60005b818110156127d6576127b060fb612d8f565b6127c3836127be60fb612022565b612da5565b80806127ce90615447565b91505061279e565b505050565b8173ffffffffffffffffffffffffffffffffffffffff168373ffffffffffffffffffffffffffffffffffffffff16141561284a576040517f08c379a0000000000000000000000000000000000000000000000000000000008152600401612841906154dc565b60405180910390fd5b80606a60008573ffffffffffffffffffffffffffffffffffffffff1673ffffffffffffffffffffffffffffffffffffffff16815260200190815260200160002060008473ffffffffffffffffffffffffffffffffffffffff1673ffffffffffffffffffffffffffffffffffffffff16815260200190815260200160002060006101000a81548160ff0219169083151502179055508173ffffffffffffffffffffffffffffffffffffffff168373ffffffffffffffffffffffffffffffffffffffff167f17307eab39ab6107e8899845ad3d59bd9653f200f220920489ca2b5937696c318360405161293b9190613516565b60405180910390a3505050565b61295384848461210e565b61295f84848484612dc3565b61299e576040517f08c379a00000000000000000000000000000000000000000000000000000000081526004016129959061556e565b60405180910390fd5b50505050565b606060ff80546129b390613db3565b80601f01602080910402602001604051908101604052809291908181526020018280546129df90613db3565b8015612a2c5780601f10612a0157610100808354040283529160200191612a2c565b820191906000526020600020905b815481529060010190602001808311612a0f57829003601f168201915b5050505050905090565b60606000821415612a7e576040518060400160405280600181526020017f30000000000000000000000000000000000000000000000000000000000000008152509050612b92565b600082905060005b60008214612ab0578080612a9990615447565b915050600a82612aa99190615315565b9150612a86565b60008167ffffffffffffffff811115612acc57612acb613a69565b5b6040519080825280601f01601f191660200182016040528015612afe5781602001600182028036833780820191505090505b5090505b60008514612b8b57600182612b179190615036565b9150600a85612b26919061558e565b6030612b32919061506a565b60f81b818381518110612b4857612b476155bf565b5b60200101907effffffffffffffffffffffffffffffffffffffffffffffffffffffffffffff1916908160001a905350600a85612b849190615315565b9450612b02565b8093505050505b919050565b6000612ba230612375565b15905090565b600060019054906101000a900460ff16612bf7576040517f08c379a0000000000000000000000000000000000000000000000000000000008152600401612bee90615660565b60405180910390fd5b612c018282612f4b565b5050565b600060019054906101000a900460ff16612c54576040517f08c379a0000000000000000000000000000000000000000000000000000000008152600401612c4b90615660565b60405180910390fd5b612c5c612fcc565b565b600060019054906101000a900460ff16612cad576040517f08c379a0000000000000000000000000000000000000000000000000000000008152600401612ca490615660565b60405180910390fd5b612cb5613025565b612cbd613076565b565b600060c960009054906101000a900473ffffffffffffffffffffffffffffffffffffffff1690508160c960006101000a81548173ffffffffffffffffffffffffffffffffffffffff021916908373ffffffffffffffffffffffffffffffffffffffff1602179055508173ffffffffffffffffffffffffffffffffffffffff168173ffffffffffffffffffffffffffffffffffffffff167f8be0079c531659141344cd1fd0a4f28419497f9722a3daafe3b4186f6b6457e060405160405180910390a35050565b505050565b505050565b6001816000016000828254019250508190555050565b612dbf8282604051806020016040528060008152506130d0565b5050565b6000612de48473ffffffffffffffffffffffffffffffffffffffff16612375565b15612f3e578373ffffffffffffffffffffffffffffffffffffffff1663150b7a02612e0d611f61565b8786866040518563ffffffff1660e01b8152600401612e2f94939291906156d5565b6020604051808303816000875af1925050508015612e6b57506040513d601f19601f82011682018060405250810190612e689190615736565b60015b612eee573d8060008114612e9b576040519150601f19603f3d011682016040523d82523d6000602084013e612ea0565b606091505b50600081511415612ee6576040517f08c379a0000000000000000000000000000000000000000000000000000000008152600401612edd9061556e565b60405180910390fd5b805181602001fd5b63150b7a0260e01b7bffffffffffffffffffffffffffffffffffffffffffffffffffffffff1916817bffffffffffffffffffffffffffffffffffffffffffffffffffffffff191614915050612f43565b600190505b949350505050565b600060019054906101000a900460ff16612f9a576040517f08c379a0000000000000000000000000000000000000000000000000000000008152600401612f9190615660565b60405180910390fd5b8160659080519060200190612fb092919061338b565b508060669080519060200190612fc792919061338b565b505050565b600060019054906101000a900460ff1661301b576040517f08c379a000000000000000000000000000000000000000000000000000000000815260040161301290615660565b60405180910390fd5b6001609781905550565b600060019054906101000a900460ff16613074576040517f08c379a000000000000000000000000000000000000000000000000000000000815260040161306b90615660565b60405180910390fd5b565b600060019054906101000a900460ff166130c5576040517f08c379a00000000000000000000000000000000000000000000000000000000081526004016130bc90615660565b60405180910390fd5b6130ce32612cbf565b565b6130da838361312b565b6130e76000848484612dc3565b613126576040517f08c379a000000000000000000000000000000000000000000000000000000000815260040161311d9061556e565b60405180910390fd5b505050565b600073ffffffffffffffffffffffffffffffffffffffff168273ffffffffffffffffffffffffffffffffffffffff16141561319b576040517f08c379a0000000000000000000000000000000000000000000000000000000008152600401613192906157af565b60405180910390fd5b6131a481611ef5565b156131e4576040517f08c379a00000000000000000000000000000000000000000000000000000000081526004016131db9061581b565b60405180910390fd5b6131f060008383612d85565b6001606860008473ffffffffffffffffffffffffffffffffffffffff1673ffffffffffffffffffffffffffffffffffffffff1681526020019081526020016000206000828254613240919061506a565b92505081905550816067600083815260200190815260200160002060006101000a81548173ffffffffffffffffffffffffffffffffffffffff021916908373ffffffffffffffffffffffffffffffffffffffff160217905550808273ffffffffffffffffffffffffffffffffffffffff16600073ffffffffffffffffffffffffffffffffffffffff167fddf252ad1be2c89b69c2b068fc378daa952ba7f163c4a11628f55a4df523b3ef60405160405180910390a461330160008383612d8a565b5050565b82805461331190613db3565b90600052602060002090601f016020900481019282613333576000855561337a565b82601f1061334c57803560ff191683800117855561337a565b8280016001018555821561337a579182015b8281111561337957823582559160200191906001019061335e565b5b5090506133879190613411565b5090565b82805461339790613db3565b90600052602060002090601f0160209004810192826133b95760008555613400565b82601f106133d257805160ff1916838001178555613400565b82800160010185558215613400579182015b828111156133ff5782518255916020019190600101906133e4565b5b50905061340d9190613411565b5090565b5b8082111561342a576000816000905550600101613412565b5090565b6000819050919050565b6134418161342e565b82525050565b600060208201905061345c6000830184613438565b92915050565b6000604051905090565b600080fd5b600080fd5b60007fffffffff0000000000000000000000000000000000000000000000000000000082169050919050565b6134ab81613476565b81146134b657600080fd5b50565b6000813590506134c8816134a2565b92915050565b6000602082840312156134e4576134e361346c565b5b60006134f2848285016134b9565b91505092915050565b60008115159050919050565b613510816134fb565b82525050565b600060208201905061352b6000830184613507565b92915050565b600081519050919050565b600082825260208201905092915050565b60005b8381101561356b578082015181840152602081019050613550565b8381111561357a576000848401525b50505050565b6000601f19601f8301169050919050565b600061359c82613531565b6135a6818561353c565b93506135b681856020860161354d565b6135bf81613580565b840191505092915050565b600060208201905081810360008301526135e48184613591565b905092915050565b6135f58161342e565b811461360057600080fd5b50565b600081359050613612816135ec565b92915050565b60006020828403121561362e5761362d61346c565b5b600061363c84828501613603565b91505092915050565b600073ffffffffffffffffffffffffffffffffffffffff82169050919050565b600061367082613645565b9050919050565b61368081613665565b82525050565b600060208201905061369b6000830184613677565b92915050565b6136aa81613665565b81146136b557600080fd5b50565b6000813590506136c7816136a1565b92915050565b600080604083850312156136e4576136e361346c565b5b60006136f2858286016136b8565b925050602061370385828601613603565b9150509250929050565b6000806000606084860312156137265761372561346c565b5b6000613734868287016136b8565b9350506020613745868287016136b8565b925050604061375686828701613603565b9150509250925092565b600080604083850312156137775761377661346c565b5b600061378585828601613603565b9250506020613796858286016136b8565b9150509250929050565b600063ffffffff82169050919050565b6137b9816137a0565b81146137c457600080fd5b50565b6000813590506137d6816137b0565b92915050565b600080fd5b600060c082840312156137f7576137f66137dc565b5b81905092915050565b600060808284031215613816576138156137dc565b5b81905092915050565b6000806000606084860312156138385761383761346c565b5b6000613846868287016137c7565b935050602084013567ffffffffffffffff81111561386757613866613471565b5b613873868287016137e1565b925050604084013567ffffffffffffffff81111561389457613893613471565b5b6138a086828701613800565b9150509250925092565b600080fd5b600080fd5b600080fd5b60008083601f8401126138cf576138ce6138aa565b5b8235905067ffffffffffffffff8111156138ec576138eb6138af565b5b602083019150836001820283011115613908576139076138b4565b5b9250929050565b600080602083850312156139265761392561346c565b5b600083013567ffffffffffffffff81111561394457613943613471565b5b613950858286016138b9565b92509250509250929050565b6000602082840312156139725761397161346c565b5b6000613980848285016136b8565b91505092915050565b6000806000606084860312156139a2576139a161346c565b5b60006139b0868287016137c7565b93505060206139c186828701613603565b925050604084013567ffffffffffffffff8111156139e2576139e1613471565b5b6139ee86828701613800565b9150509250925092565b613a01816134fb565b8114613a0c57600080fd5b50565b600081359050613a1e816139f8565b92915050565b60008060408385031215613a3b57613a3a61346c565b5b6000613a49858286016136b8565b9250506020613a5a85828601613a0f565b9150509250929050565b600080fd5b7f4e487b7100000000000000000000000000000000000000000000000000000000600052604160045260246000fd5b613aa182613580565b810181811067ffffffffffffffff82111715613ac057613abf613a69565b5b80604052505050565b6000613ad3613462565b9050613adf8282613a98565b919050565b600067ffffffffffffffff821115613aff57613afe613a69565b5b613b0882613580565b9050602081019050919050565b82818337600083830152505050565b6000613b37613b3284613ae4565b613ac9565b905082815260208101848484011115613b5357613b52613a64565b5b613b5e848285613b15565b509392505050565b600082601f830112613b7b57613b7a6138aa565b5b8135613b8b848260208601613b24565b91505092915050565b60008060008060808587031215613bae57613bad61346c565b5b6000613bbc878288016136b8565b9450506020613bcd878288016136b8565b9350506040613bde87828801613603565b925050606085013567ffffffffffffffff811115613bff57613bfe613471565b5b613c0b87828801613b66565b91505092959194509250565b60008060008060008060008060008060e08b8d031215613c3a57613c3961346c565b5b6000613c488d828e016136b8565b9a50506020613c598d828e016136b8565b9950506040613c6a8d828e016137c7565b98505060608b013567ffffffffffffffff811115613c8b57613c8a613471565b5b613c978d828e016138b9565b97509750506080613caa8d828e016136b8565b95505060a08b013567ffffffffffffffff811115613ccb57613cca613471565b5b613cd78d828e016138b9565b945094505060c08b013567ffffffffffffffff811115613cfa57613cf9613471565b5b613d068d828e016138b9565b92509250509295989b9194979a5092959850565b613d23816137a0565b82525050565b6000602082019050613d3e6000830184613d1a565b92915050565b60008060408385031215613d5b57613d5a61346c565b5b6000613d69858286016136b8565b9250506020613d7a858286016136b8565b9150509250929050565b7f4e487b7100000000000000000000000000000000000000000000000000000000600052602260045260246000fd5b60006002820490506001821680613dcb57607f821691505b60208210811415613ddf57613dde613d84565b5b50919050565b7f4552433732313a20617070726f76656420717565727920666f72206e6f6e657860008201527f697374656e7420746f6b656e0000000000000000000000000000000000000000602082015250565b6000613e41602c8361353c565b9150613e4c82613de5565b604082019050919050565b60006020820190508181036000830152613e7081613e34565b9050919050565b7f4552433732313a20617070726f76616c20746f2063757272656e74206f776e6560008201527f7200000000000000000000000000000000000000000000000000000000000000602082015250565b6000613ed360218361353c565b9150613ede82613e77565b604082019050919050565b60006020820190508181036000830152613f0281613ec6565b9050919050565b7f4552433732313a20617070726f76652063616c6c6572206973206e6f74206f7760008201527f6e6572206e6f7220617070726f76656420666f7220616c6c0000000000000000602082015250565b6000613f6560388361353c565b9150613f7082613f09565b604082019050919050565b60006020820190508181036000830152613f9481613f58565b9050919050565b7f4552433732313a207472616e736665722063616c6c6572206973206e6f74206f60008201527f776e6572206e6f7220617070726f766564000000000000000000000000000000602082015250565b6000613ff760318361353c565b915061400282613f9b565b604082019050919050565b6000602082019050818103600083015261402681613fea565b9050919050565b7f4f776e61626c653a2063616c6c6572206973206e6f7420746865206f776e6572600082015250565b600061406360208361353c565b915061406e8261402d565b602082019050919050565b6000602082019050818103600083015261409281614056565b9050919050565b7f5265656e7472616e637947756172643a207265656e7472616e742063616c6c00600082015250565b60006140cf601f8361353c565b91506140da82614099565b602082019050919050565b600060208201905081810360008301526140fe816140c2565b9050919050565b7f4e45340000000000000000000000000000000000000000000000000000000000600082015250565b600061413b60038361353c565b915061414682614105565b602082019050919050565b6000602082019050818103600083015261416a8161412e565b9050919050565b600081905092915050565b50565b600061418c600083614171565b91506141978261417c565b600082019050919050565b60006141ad8261417f565b9150819050919050565b7f5345350000000000000000000000000000000000000000000000000000000000600082015250565b60006141ed60038361353c565b91506141f8826141b7565b602082019050919050565b6000602082019050818103600083015261421c816141e0565b9050919050565b7f4d54390000000000000000000000000000000000000000000000000000000000600082015250565b600061425960038361353c565b915061426482614223565b602082019050919050565b600060208201905081810360008301526142888161424c565b9050919050565b7f4e487b7100000000000000000000000000000000000000000000000000000000600052601160045260246000fd5b60006142c98261342e565b91506142d48361342e565b9250817fffffffffffffffffffffffffffffffffffffffffffffffffffffffffffffffff048311821515161561430d5761430c61428f565b5b828202905092915050565b7f4d54350000000000000000000000000000000000000000000000000000000000600082015250565b600061434e60038361353c565b915061435982614318565b602082019050919050565b6000602082019050818103600083015261437d81614341565b9050919050565b7f5645524946494552000000000000000000000000000000000000000000000000600082015250565b60006143ba60088361353c565b91506143c582614384565b602082019050919050565b600060208201905081810360008301526143e9816143ad565b9050919050565b6000815190506143ff816136a1565b92915050565b60006020828403121561441b5761441a61346c565b5b6000614429848285016143f0565b91505092915050565b7f5449434b45540000000000000000000000000000000000000000000000000000600082015250565b600061446860068361353c565b915061447382614432565b602082019050919050565b600061448d60208401846136b8565b905092915050565b61449e81613665565b82525050565b600080fd5b600080fd5b600080fd5b600080833560016020038436030381126144d0576144cf6144ae565b5b83810192508235915060208301925067ffffffffffffffff8211156144f8576144f76144a4565b5b60018202360384131561450e5761450d6144a9565b5b509250929050565b600082825260208201905092915050565b60006145338385614516565b9350614540838584613b15565b61454983613580565b840190509392505050565b60006145636020840184613603565b905092915050565b6145748161342e565b82525050565b60008083356001602003843603038112614597576145966144ae565b5b83810192508235915060208301925067ffffffffffffffff8211156145bf576145be6144a4565b5b6001820236038413156145d5576145d46144a9565b5b509250929050565b600082825260208201905092915050565b60006145fa83856145dd565b9350614607838584613b15565b61461083613580565b840190509392505050565b60006080830161462e600084018461447e565b61463b6000860182614495565b5061464960208401846144b3565b858303602087015261465c838284614527565b9250505061466d6040840184614554565b61467a604086018261456b565b50614688606084018461457a565b858303606087015261469b8382846145ee565b925050508091505092915050565b600060a0820190506146be6000830187613677565b6146cb6020830186613677565b81810360408301526146dc8161445b565b90506146eb6060830185613438565b81810360808301526146fd818461461b565b905095945050505050565b600060208201905081810360008301526147218161445b565b9050919050565b600061473760208401846137c7565b905092915050565b614748816137a0565b82525050565b600060c08301614761600084018461447e565b61476e6000860182614495565b5061477c602084018461447e565b6147896020860182614495565b506147976040840184614554565b6147a4604086018261456b565b506147b26060840184614728565b6147bf606086018261473f565b506147cd6080840184614554565b6147da608086018261456b565b506147e860a084018461457a565b85830360a08701526147fb8382846145ee565b925050508091505092915050565b600060808201905061481e6000830187613677565b61482b6020830186613677565b6148386040830185613d1a565b818103606083015261484a818461474e565b905095945050505050565b6000614861838561353c565b935061486e838584613b15565b61487783613580565b840190509392505050565b6000602082019050818103600083015261489d818486614855565b90509392505050565b7f4552433732313a206f776e657220717565727920666f72206e6f6e657869737460008201527f656e7420746f6b656e0000000000000000000000000000000000000000000000602082015250565b600061490260298361353c565b915061490d826148a6565b604082019050919050565b60006020820190508181036000830152614931816148f5565b9050919050565b7f4f4f330000000000000000000000000000000000000000000000000000000000600082015250565b600061496e60038361353c565b915061497982614938565b602082019050919050565b6000602082019050818103600083015261499d81614961565b9050919050565b7f4552433732313a2062616c616e636520717565727920666f7220746865207a6560008201527f726f206164647265737300000000000000000000000000000000000000000000602082015250565b6000614a00602a8361353c565b9150614a0b826149a4565b604082019050919050565b60006020820190508181036000830152614a2f816149f3565b9050919050565b7f4d494e5400000000000000000000000000000000000000000000000000000000600082015250565b6000614a6c60048361353c565b9150614a7782614a36565b602082019050919050565b600060a082019050614a976000830187613677565b614aa46020830186613677565b8181036040830152614ab581614a5f565b9050614ac46060830185613438565b8181036080830152614ad6818461461b565b905095945050505050565b6000608082019050614af66000830187613438565b614b036020830186613d1a565b614b106040830185613438565b614b1d6060830184613677565b95945050505050565b7f5345360000000000000000000000000000000000000000000000000000000000600082015250565b6000614b5c60038361353c565b9150614b6782614b26565b602082019050919050565b60006020820190508181036000830152614b8b81614b4f565b9050919050565b7f4552433732314d657461646174613a2055524920717565727920666f72206e6f60008201527f6e6578697374656e7420746f6b656e0000000000000000000000000000000000602082015250565b6000614bee602f8361353c565b9150614bf982614b92565b604082019050919050565b60006020820190508181036000830152614c1d81614be1565b9050919050565b600081905092915050565b6000614c3a82613531565b614c448185614c24565b9350614c5481856020860161354d565b80840191505092915050565b6000614c6c8285614c2f565b9150614c788284614c2f565b91508190509392505050565b7f496e697469616c697a61626c653a20636f6e747261637420697320616c72656160008201527f647920696e697469616c697a6564000000000000000000000000000000000000602082015250565b6000614ce0602e8361353c565b9150614ceb82614c84565b604082019050919050565b60006020820190508181036000830152614d0f81614cd3565b9050919050565b7f4145310000000000000000000000000000000000000000000000000000000000600082015250565b6000614d4c60038361353c565b9150614d5782614d16565b602082019050919050565b60006020820190508181036000830152614d7b81614d3f565b9050919050565b7f4d494e544d414e41474552000000000000000000000000000000000000000000600082015250565b6000614db8600b8361353c565b9150614dc382614d82565b602082019050919050565b60006020820190508181036000830152614de781614dab565b9050919050565b7f4f776e61626c653a206e6577206f776e657220697320746865207a65726f206160008201527f6464726573730000000000000000000000000000000000000000000000000000602082015250565b6000614e4a60268361353c565b9150614e5582614dee565b604082019050919050565b60006020820190508181036000830152614e7981614e3d565b9050919050565b7f4552433732313a206f70657261746f7220717565727920666f72206e6f6e657860008201527f697374656e7420746f6b656e0000000000000000000000000000000000000000602082015250565b6000614edc602c8361353c565b9150614ee782614e80565b604082019050919050565b60006020820190508181036000830152614f0b81614ecf565b9050919050565b7f4552433732313a207472616e736665722066726f6d20696e636f72726563742060008201527f6f776e6572000000000000000000000000000000000000000000000000000000602082015250565b6000614f6e60258361353c565b9150614f7982614f12565b604082019050919050565b60006020820190508181036000830152614f9d81614f61565b9050919050565b7f4552433732313a207472616e7366657220746f20746865207a65726f2061646460008201527f7265737300000000000000000000000000000000000000000000000000000000602082015250565b600061500060248361353c565b915061500b82614fa4565b604082019050919050565b6000602082019050818103600083015261502f81614ff3565b9050919050565b60006150418261342e565b915061504c8361342e565b92508282101561505f5761505e61428f565b5b828203905092915050565b60006150758261342e565b91506150808361342e565b9250827fffffffffffffffffffffffffffffffffffffffffffffffffffffffffffffffff038211156150b5576150b461428f565b5b828201905092915050565b600060ff82169050919050565b6150d6816150c0565b81146150e157600080fd5b50565b6000815190506150f3816150cd565b92915050565b60006020828403121561510f5761510e61346c565b5b600061511d848285016150e4565b91505092915050565b600081519050615135816135ec565b92915050565b6000602082840312156151515761515061346c565b5b600061515f84828501615126565b91505092915050565b60008160011c9050919050565b6000808291508390505b60018511156151bf5780860481111561519b5761519a61428f565b5b60018516156151aa5780820291505b80810290506151b885615168565b945061517f565b94509492505050565b6000826151d85760019050615294565b816151e65760009050615294565b81600181146151fc576002811461520657615235565b6001915050615294565b60ff8411156152185761521761428f565b5b8360020a91508482111561522f5761522e61428f565b5b50615294565b5060208310610133831016604e8410600b841016171561526a5782820a9050838111156152655761526461428f565b5b615294565b6152778484846001615175565b9250905081840481111561528e5761528d61428f565b5b81810290505b9392505050565b60006152a68261342e565b91506152b1836150c0565b92506152de7fffffffffffffffffffffffffffffffffffffffffffffffffffffffffffffffff84846151c8565b905092915050565b7f4e487b7100000000000000000000000000000000000000000000000000000000600052601260045260246000fd5b60006153208261342e565b915061532b8361342e565b92508261533b5761533a6152e6565b5b828204905092915050565b7f57414c4c45540000000000000000000000000000000000000000000000000000600082015250565b600061537c60068361353c565b915061538782615346565b602082019050919050565b600060208201905081810360008301526153ab8161536f565b9050919050565b60006040820190506153c76000830185613438565b6153d46020830184613438565b9392505050565b7f4d54330000000000000000000000000000000000000000000000000000000000600082015250565b600061541160038361353c565b915061541c826153db565b602082019050919050565b6000602082019050818103600083015261544081615404565b9050919050565b60006154528261342e565b91507fffffffffffffffffffffffffffffffffffffffffffffffffffffffffffffffff8214156154855761548461428f565b5b600182019050919050565b7f4552433732313a20617070726f766520746f2063616c6c657200000000000000600082015250565b60006154c660198361353c565b91506154d182615490565b602082019050919050565b600060208201905081810360008301526154f5816154b9565b9050919050565b7f4552433732313a207472616e7366657220746f206e6f6e20455243373231526560008201527f63656976657220696d706c656d656e7465720000000000000000000000000000602082015250565b600061555860328361353c565b9150615563826154fc565b604082019050919050565b600060208201905081810360008301526155878161554b565b9050919050565b60006155998261342e565b91506155a48361342e565b9250826155b4576155b36152e6565b5b828206905092915050565b7f4e487b7100000000000000000000000000000000000000000000000000000000600052603260045260246000fd5b7f496e697469616c697a61626c653a20636f6e7472616374206973206e6f74206960008201527f6e697469616c697a696e67000000000000000000000000000000000000000000602082015250565b600061564a602b8361353c565b9150615655826155ee565b604082019050919050565b600060208201905081810360008301526156798161563d565b9050919050565b600081519050919050565b600082825260208201905092915050565b60006156a782615680565b6156b1818561568b565b93506156c181856020860161354d565b6156ca81613580565b840191505092915050565b60006080820190506156ea6000830187613677565b6156f76020830186613677565b6157046040830185613438565b8181036060830152615716818461569c565b905095945050505050565b600081519050615730816134a2565b92915050565b60006020828403121561574c5761574b61346c565b5b600061575a84828501615721565b91505092915050565b7f4552433732313a206d696e7420746f20746865207a65726f2061646472657373600082015250565b600061579960208361353c565b91506157a482615763565b602082019050919050565b600060208201905081810360008301526157c88161578c565b9050919050565b7f4552433732313a20746f6b656e20616c7265616479206d696e74656400000000600082015250565b6000615805601c8361353c565b9150615810826157cf565b602082019050919050565b60006020820190508181036000830152615834816157f8565b905091905056fea2646970667358221220080278a351e822e8e3c9a9420a026eb11916da2b05b801ed9482fe6ae4a421b564736f6c634300080a0033",
  "linkReferences": {},
  "deployedLinkReferences": {}
}