{
  "_format": "hh-sol-artifact-1",
  "contractName": "OmnuumNFT721",
  "sourceName": "contracts/V1/OmnuumNFT721.sol",
  "abi": [
    {
      "anonymous": false,
      "inputs": [
        {
          "indexed": true,
          "internalType": "address",
          "name": "owner",
          "type": "address"
        },
        {
          "indexed": true,
          "internalType": "address",
          "name": "approved",
          "type": "address"
        },
        {
          "indexed": true,
          "internalType": "uint256",
          "name": "tokenId",
          "type": "uint256"
        }
      ],
      "name": "Approval",
      "type": "event"
    },
    {
      "anonymous": false,
      "inputs": [
        {
          "indexed": true,
          "internalType": "address",
          "name": "owner",
          "type": "address"
        },
        {
          "indexed": true,
          "internalType": "address",
          "name": "operator",
          "type": "address"
        },
        {
          "indexed": false,
          "internalType": "bool",
          "name": "approved",
          "type": "bool"
        }
      ],
      "name": "ApprovalForAll",
      "type": "event"
    },
    {
      "anonymous": false,
      "inputs": [
        {
          "indexed": true,
          "internalType": "address",
          "name": "receiver",
          "type": "address"
        },
        {
          "indexed": false,
          "internalType": "uint256",
          "name": "value",
          "type": "uint256"
        }
      ],
      "name": "BalanceTransferred",
      "type": "event"
    },
    {
      "anonymous": false,
      "inputs": [
        {
          "indexed": true,
          "internalType": "address",
          "name": "nftContract",
          "type": "address"
        },
        {
          "indexed": false,
          "internalType": "string",
          "name": "baseURI",
          "type": "string"
        }
      ],
      "name": "BaseURIChanged",
      "type": "event"
    },
    {
      "anonymous": false,
      "inputs": [
        {
          "indexed": true,
          "internalType": "address",
          "name": "sender",
          "type": "address"
        },
        {
          "indexed": false,
          "internalType": "uint256",
          "name": "value",
          "type": "uint256"
        }
      ],
      "name": "EtherReceived",
      "type": "event"
    },
    {
      "anonymous": false,
      "inputs": [
        {
          "indexed": true,
          "internalType": "address",
          "name": "nftContract",
          "type": "address"
        },
        {
          "indexed": true,
          "internalType": "address",
          "name": "payer",
          "type": "address"
        },
        {
          "indexed": false,
          "internalType": "uint256",
          "name": "profit",
          "type": "uint256"
        },
        {
          "indexed": false,
          "internalType": "uint256",
          "name": "mintFee",
          "type": "uint256"
        }
      ],
      "name": "MintFeePaid",
      "type": "event"
    },
    {
      "anonymous": false,
      "inputs": [
        {
          "indexed": true,
          "internalType": "address",
          "name": "previousOwner",
          "type": "address"
        },
        {
          "indexed": true,
          "internalType": "address",
          "name": "newOwner",
          "type": "address"
        }
      ],
      "name": "OwnershipTransferred",
      "type": "event"
    },
    {
      "anonymous": false,
      "inputs": [
        {
          "indexed": true,
          "internalType": "address",
          "name": "nftContract",
          "type": "address"
        }
      ],
      "name": "Revealed",
      "type": "event"
    },
    {
      "anonymous": false,
      "inputs": [
        {
          "indexed": true,
          "internalType": "address",
          "name": "from",
          "type": "address"
        },
        {
          "indexed": true,
          "internalType": "address",
          "name": "to",
          "type": "address"
        },
        {
          "indexed": true,
          "internalType": "uint256",
          "name": "tokenId",
          "type": "uint256"
        }
      ],
      "name": "Transfer",
      "type": "event"
    },
    {
      "inputs": [],
      "name": "_name",
      "outputs": [
        {
          "internalType": "string",
          "name": "",
          "type": "string"
        }
      ],
      "stateMutability": "view",
      "type": "function"
    },
    {
      "inputs": [],
      "name": "_symbol",
      "outputs": [
        {
          "internalType": "string",
          "name": "",
          "type": "string"
        }
      ],
      "stateMutability": "view",
      "type": "function"
    },
    {
      "inputs": [
        {
          "internalType": "address",
          "name": "to",
          "type": "address"
        },
        {
          "internalType": "uint256",
          "name": "tokenId",
          "type": "uint256"
        }
      ],
      "name": "approve",
      "outputs": [],
      "stateMutability": "nonpayable",
      "type": "function"
    },
    {
      "inputs": [
        {
          "internalType": "address",
          "name": "owner",
          "type": "address"
        }
      ],
      "name": "balanceOf",
      "outputs": [
        {
          "internalType": "uint256",
          "name": "",
          "type": "uint256"
        }
      ],
      "stateMutability": "view",
      "type": "function"
    },
    {
      "inputs": [],
      "name": "baseURI",
      "outputs": [
        {
          "internalType": "string",
          "name": "",
          "type": "string"
        }
      ],
      "stateMutability": "view",
      "type": "function"
    },
    {
      "inputs": [
        {
          "internalType": "string",
          "name": "baseURI_",
          "type": "string"
        }
      ],
      "name": "changeBaseURI",
      "outputs": [],
      "stateMutability": "nonpayable",
      "type": "function"
    },
    {
      "inputs": [
        {
          "internalType": "uint256",
          "name": "tokenId",
          "type": "uint256"
        }
      ],
      "name": "getApproved",
      "outputs": [
        {
          "internalType": "address",
          "name": "",
          "type": "address"
        }
      ],
      "stateMutability": "view",
      "type": "function"
    },
    {
      "inputs": [
        {
          "internalType": "address",
          "name": "_caManagerAddress",
          "type": "address"
        },
        {
          "internalType": "address",
          "name": "_omnuumSigner",
          "type": "address"
        },
        {
          "internalType": "uint32",
          "name": "_maxSupply",
          "type": "uint32"
        },
        {
          "internalType": "string",
          "name": "_coverBaseURI",
          "type": "string"
        },
        {
          "internalType": "address",
          "name": "_prjOwner",
          "type": "address"
        },
        {
          "internalType": "string",
          "name": "_name",
          "type": "string"
        },
        {
          "internalType": "string",
          "name": "_symbol",
          "type": "string"
        }
      ],
      "name": "initialize",
      "outputs": [],
      "stateMutability": "nonpayable",
      "type": "function"
    },
    {
      "inputs": [
        {
          "internalType": "address",
          "name": "owner",
          "type": "address"
        },
        {
          "internalType": "address",
          "name": "operator",
          "type": "address"
        }
      ],
      "name": "isApprovedForAll",
      "outputs": [
        {
          "internalType": "bool",
          "name": "",
          "type": "bool"
        }
      ],
      "stateMutability": "view",
      "type": "function"
    },
    {
      "inputs": [],
      "name": "isRevealed",
      "outputs": [
        {
          "internalType": "bool",
          "name": "",
          "type": "bool"
        }
      ],
      "stateMutability": "view",
      "type": "function"
    },
    {
      "inputs": [],
      "name": "maxSupply",
      "outputs": [
        {
          "internalType": "uint32",
          "name": "",
          "type": "uint32"
        }
      ],
      "stateMutability": "view",
      "type": "function"
    },
    {
      "inputs": [
        {
          "internalType": "address",
          "name": "_to",
          "type": "address"
        },
        {
          "internalType": "uint256",
          "name": "_quantity",
          "type": "uint256"
        }
      ],
      "name": "mintDirect",
      "outputs": [],
      "stateMutability": "nonpayable",
      "type": "function"
    },
    {
      "inputs": [],
      "name": "name",
      "outputs": [
        {
          "internalType": "string",
          "name": "",
          "type": "string"
        }
      ],
      "stateMutability": "view",
      "type": "function"
    },
    {
      "inputs": [],
      "name": "owner",
      "outputs": [
        {
          "internalType": "address",
          "name": "",
          "type": "address"
        }
      ],
      "stateMutability": "view",
      "type": "function"
    },
    {
      "inputs": [
        {
          "internalType": "uint256",
          "name": "tokenId",
          "type": "uint256"
        }
      ],
      "name": "ownerOf",
      "outputs": [
        {
          "internalType": "address",
          "name": "",
          "type": "address"
        }
      ],
      "stateMutability": "view",
      "type": "function"
    },
    {
      "inputs": [
        {
          "internalType": "uint32",
          "name": "_quantity",
          "type": "uint32"
        },
        {
          "internalType": "uint256",
          "name": "_groupId",
          "type": "uint256"
        },
        {
          "components": [
            {
              "internalType": "address",
              "name": "sender",
              "type": "address"
            },
            {
              "internalType": "string",
              "name": "topic",
              "type": "string"
            },
            {
              "internalType": "uint256",
              "name": "nonce",
              "type": "uint256"
            },
            {
              "internalType": "bytes",
              "name": "signature",
              "type": "bytes"
            }
          ],
          "internalType": "struct SenderVerifier.Payload",
          "name": "_payload",
          "type": "tuple"
        }
      ],
      "name": "publicMint",
      "outputs": [],
      "stateMutability": "payable",
      "type": "function"
    },
    {
      "inputs": [
        {
          "internalType": "address",
          "name": "from",
          "type": "address"
        },
        {
          "internalType": "address",
          "name": "to",
          "type": "address"
        },
        {
          "internalType": "uint256",
          "name": "tokenId",
          "type": "uint256"
        }
      ],
      "name": "safeTransferFrom",
      "outputs": [],
      "stateMutability": "nonpayable",
      "type": "function"
    },
    {
      "inputs": [
        {
          "internalType": "address",
          "name": "from",
          "type": "address"
        },
        {
          "internalType": "address",
          "name": "to",
          "type": "address"
        },
        {
          "internalType": "uint256",
          "name": "tokenId",
          "type": "uint256"
        },
        {
          "internalType": "bytes",
          "name": "_data",
          "type": "bytes"
        }
      ],
      "name": "safeTransferFrom",
      "outputs": [],
      "stateMutability": "nonpayable",
      "type": "function"
    },
    {
      "inputs": [
        {
          "internalType": "address",
          "name": "operator",
          "type": "address"
        },
        {
          "internalType": "bool",
          "name": "approved",
          "type": "bool"
        }
      ],
      "name": "setApprovalForAll",
      "outputs": [],
      "stateMutability": "nonpayable",
      "type": "function"
    },
    {
      "inputs": [
        {
          "internalType": "string",
          "name": "baseURI_",
          "type": "string"
        }
      ],
      "name": "setRevealed",
      "outputs": [],
      "stateMutability": "nonpayable",
      "type": "function"
    },
    {
      "inputs": [
        {
          "internalType": "bytes4",
          "name": "interfaceId",
          "type": "bytes4"
        }
      ],
      "name": "supportsInterface",
      "outputs": [
        {
          "internalType": "bool",
          "name": "",
          "type": "bool"
        }
      ],
      "stateMutability": "view",
      "type": "function"
    },
    {
      "inputs": [],
      "name": "symbol",
      "outputs": [
        {
          "internalType": "string",
          "name": "",
          "type": "string"
        }
      ],
      "stateMutability": "view",
      "type": "function"
    },
    {
      "inputs": [
        {
          "internalType": "uint32",
          "name": "_quantity",
          "type": "uint32"
        },
        {
          "components": [
            {
              "internalType": "address",
              "name": "user",
              "type": "address"
            },
            {
              "internalType": "address",
              "name": "nft",
              "type": "address"
            },
            {
              "internalType": "uint256",
              "name": "price",
              "type": "uint256"
            },
            {
              "internalType": "uint32",
              "name": "quantity",
              "type": "uint32"
            },
            {
              "internalType": "uint256",
              "name": "groupId",
              "type": "uint256"
            },
            {
              "internalType": "bytes",
              "name": "signature",
              "type": "bytes"
            }
          ],
          "internalType": "struct TicketManager.Ticket",
          "name": "_ticket",
          "type": "tuple"
        },
        {
          "components": [
            {
              "internalType": "address",
              "name": "sender",
              "type": "address"
            },
            {
              "internalType": "string",
              "name": "topic",
              "type": "string"
            },
            {
              "internalType": "uint256",
              "name": "nonce",
              "type": "uint256"
            },
            {
              "internalType": "bytes",
              "name": "signature",
              "type": "bytes"
            }
          ],
          "internalType": "struct SenderVerifier.Payload",
          "name": "_payload",
          "type": "tuple"
        }
      ],
      "name": "ticketMint",
      "outputs": [],
      "stateMutability": "payable",
      "type": "function"
    },
    {
      "inputs": [
        {
          "internalType": "uint256",
          "name": "tokenId",
          "type": "uint256"
        }
      ],
      "name": "tokenURI",
      "outputs": [
        {
          "internalType": "string",
          "name": "",
          "type": "string"
        }
      ],
      "stateMutability": "view",
      "type": "function"
    },
    {
      "inputs": [],
      "name": "totalSupply",
      "outputs": [
        {
          "internalType": "uint256",
          "name": "",
          "type": "uint256"
        }
      ],
      "stateMutability": "view",
      "type": "function"
    },
    {
      "inputs": [
        {
          "internalType": "uint256",
          "name": "_value",
          "type": "uint256"
        },
        {
          "internalType": "address",
          "name": "_to",
          "type": "address"
        }
      ],
      "name": "transferBalance",
      "outputs": [],
      "stateMutability": "nonpayable",
      "type": "function"
    },
    {
      "inputs": [
        {
          "internalType": "address",
          "name": "from",
          "type": "address"
        },
        {
          "internalType": "address",
          "name": "to",
          "type": "address"
        },
        {
          "internalType": "uint256",
          "name": "tokenId",
          "type": "uint256"
        }
      ],
      "name": "transferFrom",
      "outputs": [],
      "stateMutability": "nonpayable",
      "type": "function"
    },
    {
      "inputs": [
        {
          "internalType": "address",
          "name": "newOwner",
          "type": "address"
        }
      ],
      "name": "transferOwnership",
      "outputs": [],
      "stateMutability": "nonpayable",
      "type": "function"
    },
    {
      "stateMutability": "payable",
      "type": "receive"
    }
  ],
  "bytecode": "0x608060405234801561001057600080fd5b50615a1980620000216000396000f3fe6080604052600436106101bb5760003560e01c806370a08231116100ec578063b88d4fde1161008a578063d28d885211610064578063d28d885214610645578063d5abeb0114610670578063e985e9c51461069b578063f2fde38b146106d857610210565b8063b88d4fde146105b6578063c87b56dd146105df578063c903b7f21461061c57610210565b80638da5cb5b116100c65780638da5cb5b1461050c57806395d89b4114610537578063a22cb46514610562578063b09f12661461058b57610210565b806370a082311461048a57806373468fcc146104c7578063794100b9146104e357610210565b8063372a21c01161015957806354214f691161013357806354214f69146103ce5780636352211e146103f95780636a284438146104365780636c0360eb1461045f57610210565b8063372a21c01461036057806339a0c6f91461037c57806342842e0e146103a557610210565b8063095ea7b311610195578063095ea7b3146102ba57806318160ddd146102e357806323b872dd1461030e578063328629cf1461033757610210565b806301ffc9a71461021557806306fdde0314610252578063081812fc1461027d57610210565b36610210573373ffffffffffffffffffffffffffffffffffffffff167f1e57e3bb474320be3d2c77138f75b7c3941292d647f5f9634e33a8e94e0e069b3460405161020691906135ef565b60405180910390a2005b600080fd5b34801561022157600080fd5b5061023c60048036038101906102379190613676565b610701565b60405161024991906136be565b60405180910390f35b34801561025e57600080fd5b506102676107e3565b6040516102749190613772565b60405180910390f35b34801561028957600080fd5b506102a4600480360381019061029f91906137c0565b610875565b6040516102b1919061382e565b60405180910390f35b3480156102c657600080fd5b506102e160048036038101906102dc9190613875565b6108fa565b005b3480156102ef57600080fd5b506102f8610a12565b60405161030591906135ef565b60405180910390f35b34801561031a57600080fd5b50610335600480360381019061033091906138b5565b610a23565b005b34801561034357600080fd5b5061035e60048036038101906103599190613908565b610a83565b005b61037a600480360381019061037591906139c7565b610c97565b005b34801561038857600080fd5b506103a3600480360381019061039e9190613ab7565b611022565b005b3480156103b157600080fd5b506103cc60048036038101906103c791906138b5565b611104565b005b3480156103da57600080fd5b506103e3611124565b6040516103f091906136be565b60405180910390f35b34801561040557600080fd5b50610420600480360381019061041b91906137c0565b611137565b60405161042d919061382e565b60405180910390f35b34801561044257600080fd5b5061045d60048036038101906104589190613875565b6111e9565b005b34801561046b57600080fd5b50610474611287565b6040516104819190613772565b60405180910390f35b34801561049657600080fd5b506104b160048036038101906104ac9190613b04565b611315565b6040516104be91906135ef565b60405180910390f35b6104e160048036038101906104dc9190613b31565b6113cd565b005b3480156104ef57600080fd5b5061050a60048036038101906105059190613ab7565b611663565b005b34801561051857600080fd5b5061052161179b565b60405161052e919061382e565b60405180910390f35b34801561054357600080fd5b5061054c6117c5565b6040516105599190613772565b60405180910390f35b34801561056e57600080fd5b5061058960048036038101906105849190613bcc565b611857565b005b34801561059757600080fd5b506105a061186d565b6040516105ad9190613772565b60405180910390f35b3480156105c257600080fd5b506105dd60048036038101906105d89190613d3c565b6118fb565b005b3480156105eb57600080fd5b50610606600480360381019061060191906137c0565b61195d565b6040516106139190613772565b60405180910390f35b34801561062857600080fd5b50610643600480360381019061063e9190613dbf565b611a04565b005b34801561065157600080fd5b5061065a611e03565b6040516106679190613772565b60405180910390f35b34801561067c57600080fd5b50610685611e91565b6040516106929190613ed1565b60405180910390f35b3480156106a757600080fd5b506106c260048036038101906106bd9190613eec565b611ea7565b6040516106cf91906136be565b60405180910390f35b3480156106e457600080fd5b506106ff60048036038101906106fa9190613b04565b611f3b565b005b60007f80ac58cd000000000000000000000000000000000000000000000000000000007bffffffffffffffffffffffffffffffffffffffffffffffffffffffff1916827bffffffffffffffffffffffffffffffffffffffffffffffffffffffff191614806107cc57507f5b5e139f000000000000000000000000000000000000000000000000000000007bffffffffffffffffffffffffffffffffffffffffffffffffffffffff1916827bffffffffffffffffffffffffffffffffffffffffffffffffffffffff1916145b806107dc57506107db82612033565b5b9050919050565b6060606580546107f290613f5b565b80601f016020809104026020016040519081016040528092919081815260200182805461081e90613f5b565b801561086b5780601f106108405761010080835404028352916020019161086b565b820191906000526020600020905b81548152906001019060200180831161084e57829003601f168201915b5050505050905090565b60006108808261209d565b6108bf576040517f08c379a00000000000000000000000000000000000000000000000000000000081526004016108b690613fff565b60405180910390fd5b6069600083815260200190815260200160002060009054906101000a900473ffffffffffffffffffffffffffffffffffffffff169050919050565b600061090582611137565b90508073ffffffffffffffffffffffffffffffffffffffff168373ffffffffffffffffffffffffffffffffffffffff161415610976576040517f08c379a000000000000000000000000000000000000000000000000000000000815260040161096d90614091565b60405180910390fd5b8073ffffffffffffffffffffffffffffffffffffffff16610995612109565b73ffffffffffffffffffffffffffffffffffffffff1614806109c457506109c3816109be612109565b611ea7565b5b610a03576040517f08c379a00000000000000000000000000000000000000000000000000000000081526004016109fa90614123565b60405180910390fd5b610a0d8383612111565b505050565b6000610a1e60fb6121ca565b905090565b610a34610a2e612109565b826121d8565b610a73576040517f08c379a0000000000000000000000000000000000000000000000000000000008152600401610a6a906141b5565b60405180910390fd5b610a7e8383836122b6565b505050565b610a8b612109565b73ffffffffffffffffffffffffffffffffffffffff16610aa961179b565b73ffffffffffffffffffffffffffffffffffffffff1614610aff576040517f08c379a0000000000000000000000000000000000000000000000000000000008152600401610af690614221565b60405180910390fd5b60026097541415610b45576040517f08c379a0000000000000000000000000000000000000000000000000000000008152600401610b3c9061428d565b60405180910390fd5b600260978190555047821115610b90576040517f08c379a0000000000000000000000000000000000000000000000000000000008152600401610b87906142f9565b60405180910390fd5b60008173ffffffffffffffffffffffffffffffffffffffff1683604051610bb69061434a565b60006040518083038185875af1925050503d8060008114610bf3576040519150601f19603f3d011682016040523d82523d6000602084013e610bf8565b606091505b5050905080610c3c576040517f08c379a0000000000000000000000000000000000000000000000000000000008152600401610c33906143ab565b60405180910390fd5b8173ffffffffffffffffffffffffffffffffffffffff167f8698d686dbbc2904fa3857bf4f5be151aeb6c9be47ef8f095f479f93c8d6b27084604051610c8291906135ef565b60405180910390a25060016097819055505050565b60026097541415610cdd576040517f08c379a0000000000000000000000000000000000000000000000000000000008152600401610cd49061428d565b60405180910390fd5b6002609781905550610d043373ffffffffffffffffffffffffffffffffffffffff1661251d565b15610d44576040517f08c379a0000000000000000000000000000000000000000000000000000000008152600401610d3b90614417565b60405180910390fd5b348363ffffffff168360400135610d5b9190614466565b1115610d9c576040517f08c379a0000000000000000000000000000000000000000000000000000000008152600401610d939061450c565b60405180910390fd5b60fc60009054906101000a900473ffffffffffffffffffffffffffffffffffffffff1673ffffffffffffffffffffffffffffffffffffffff1663358177736040518163ffffffff1660e01b8152600401610df590614578565b602060405180830381865afa158015610e12573d6000803e3d6000fd5b505050506040513d601f19601f82011682018060405250810190610e3691906145ad565b73ffffffffffffffffffffffffffffffffffffffff16638f2c6a8060fe60009054906101000a900473ffffffffffffffffffffffffffffffffffffffff16338560800135856040518563ffffffff1660e01b8152600401610e9a9493929190614851565b60006040518083038186803b158015610eb257600080fd5b505afa158015610ec6573d6000803e3d6000fd5b5050505060fc60009054906101000a900473ffffffffffffffffffffffffffffffffffffffff1673ffffffffffffffffffffffffffffffffffffffff1663358177736040518163ffffffff1660e01b8152600401610f23906148b0565b602060405180830381865afa158015610f40573d6000803e3d6000fd5b505050506040513d601f19601f82011682018060405250810190610f6491906145ad565b73ffffffffffffffffffffffffffffffffffffffff1663898bf31660fe60009054906101000a900473ffffffffffffffffffffffffffffffffffffffff163386866040518563ffffffff1660e01b8152600401610fc494939291906149b1565b600060405180830381600087803b158015610fde57600080fd5b505af1158015610ff2573d6000803e3d6000fd5b505050506110058363ffffffff16612540565b611015338463ffffffff166128d4565b6001609781905550505050565b61102a612109565b73ffffffffffffffffffffffffffffffffffffffff1661104861179b565b73ffffffffffffffffffffffffffffffffffffffff161461109e576040517f08c379a000000000000000000000000000000000000000000000000000000000815260040161109590614221565b60405180910390fd5b818160ff91906110af9291906134ad565b503073ffffffffffffffffffffffffffffffffffffffff167f165934242147f3edfff841cdc7eaf9c061b07a451d00ad31e6ad1a4dc1c9402a83836040516110f8929190614a2a565b60405180910390a25050565b61111f838383604051806020016040528060008152506118fb565b505050565b60fe60189054906101000a900460ff1681565b6000806067600084815260200190815260200160002060009054906101000a900473ffffffffffffffffffffffffffffffffffffffff169050600073ffffffffffffffffffffffffffffffffffffffff168173ffffffffffffffffffffffffffffffffffffffff1614156111e0576040517f08c379a00000000000000000000000000000000000000000000000000000000081526004016111d790614ac0565b60405180910390fd5b80915050919050565b60fd60009054906101000a900473ffffffffffffffffffffffffffffffffffffffff1673ffffffffffffffffffffffffffffffffffffffff163373ffffffffffffffffffffffffffffffffffffffff1614611279576040517f08c379a000000000000000000000000000000000000000000000000000000000815260040161127090614b2c565b60405180910390fd5b61128382826128d4565b5050565b60ff805461129490613f5b565b80601f01602080910402602001604051908101604052809291908181526020018280546112c090613f5b565b801561130d5780601f106112e25761010080835404028352916020019161130d565b820191906000526020600020905b8154815290600101906020018083116112f057829003601f168201915b505050505081565b60008073ffffffffffffffffffffffffffffffffffffffff168273ffffffffffffffffffffffffffffffffffffffff161415611386576040517f08c379a000000000000000000000000000000000000000000000000000000000815260040161137d90614bbe565b60405180910390fd5b606860008373ffffffffffffffffffffffffffffffffffffffff1673ffffffffffffffffffffffffffffffffffffffff168152602001908152602001600020549050919050565b60026097541415611413576040517f08c379a000000000000000000000000000000000000000000000000000000000815260040161140a9061428d565b60405180910390fd5b600260978190555061143a3373ffffffffffffffffffffffffffffffffffffffff1661251d565b1561147a576040517f08c379a000000000000000000000000000000000000000000000000000000000815260040161147190614417565b60405180910390fd5b60fc60009054906101000a900473ffffffffffffffffffffffffffffffffffffffff1673ffffffffffffffffffffffffffffffffffffffff1663358177736040518163ffffffff1660e01b81526004016114d390614578565b602060405180830381865afa1580156114f0573d6000803e3d6000fd5b505050506040513d601f19601f8201168201806040525081019061151491906145ad565b73ffffffffffffffffffffffffffffffffffffffff16638f2c6a8060fe60009054906101000a900473ffffffffffffffffffffffffffffffffffffffff163385856040518563ffffffff1660e01b81526004016115749493929190614c2a565b60006040518083038186803b15801561158c57600080fd5b505afa1580156115a0573d6000803e3d6000fd5b5050505060fd60009054906101000a900473ffffffffffffffffffffffffffffffffffffffff1673ffffffffffffffffffffffffffffffffffffffff1663dce151b3838534336040518563ffffffff1660e01b81526004016116059493929190614c89565b600060405180830381600087803b15801561161f57600080fd5b505af1158015611633573d6000803e3d6000fd5b505050506116468363ffffffff16612540565b611656338463ffffffff166128d4565b6001609781905550505050565b61166b612109565b73ffffffffffffffffffffffffffffffffffffffff1661168961179b565b73ffffffffffffffffffffffffffffffffffffffff16146116df576040517f08c379a00000000000000000000000000000000000000000000000000000000081526004016116d690614221565b60405180910390fd5b60fe60189054906101000a900460ff161561172f576040517f08c379a000000000000000000000000000000000000000000000000000000000815260040161172690614d1a565b60405180910390fd5b600160fe60186101000a81548160ff0219169083151502179055506117548282611022565b3073ffffffffffffffffffffffffffffffffffffffff167fb43a48f4b5fe1b13780390dc7b039206c4f81535c0fda507c687d7e921eb18bb60405160405180910390a25050565b600060c960009054906101000a900473ffffffffffffffffffffffffffffffffffffffff16905090565b6060606680546117d490613f5b565b80601f016020809104026020016040519081016040528092919081815260200182805461180090613f5b565b801561184d5780601f106118225761010080835404028352916020019161184d565b820191906000526020600020905b81548152906001019060200180831161183057829003601f168201915b5050505050905090565b611869611862612109565b8383612983565b5050565b6066805461187a90613f5b565b80601f01602080910402602001604051908101604052809291908181526020018280546118a690613f5b565b80156118f35780601f106118c8576101008083540402835291602001916118f3565b820191906000526020600020905b8154815290600101906020018083116118d657829003601f168201915b505050505081565b61190c611906612109565b836121d8565b61194b576040517f08c379a0000000000000000000000000000000000000000000000000000000008152600401611942906141b5565b60405180910390fd5b61195784848484612af0565b50505050565b60606119688261209d565b6119a7576040517f08c379a000000000000000000000000000000000000000000000000000000000815260040161199e90614dac565b60405180910390fd5b60006119b1612b4c565b905060008151116119d157604051806020016040528060008152506119fc565b806119db84612bde565b6040516020016119ec929190614e08565b6040516020818303038152906040525b915050919050565b600060019054906101000a900460ff16611a2c5760008054906101000a900460ff1615611a35565b611a34612d3f565b5b611a74576040517f08c379a0000000000000000000000000000000000000000000000000000000008152600401611a6b90614e9e565b60405180910390fd5b60008060019054906101000a900460ff161590508015611ac4576001600060016101000a81548160ff02191690831515021790555060016000806101000a81548160ff0219169083151502179055505b600073ffffffffffffffffffffffffffffffffffffffff168b73ffffffffffffffffffffffffffffffffffffffff161415611b34576040517f08c379a0000000000000000000000000000000000000000000000000000000008152600401611b2b90614f0a565b60405180910390fd5b600073ffffffffffffffffffffffffffffffffffffffff168673ffffffffffffffffffffffffffffffffffffffff161415611ba4576040517f08c379a0000000000000000000000000000000000000000000000000000000008152600401611b9b90614f0a565b60405180910390fd5b611c3685858080601f016020809104026020016040519081016040528093929190818152602001838380828437600081840152601f19601f8201169050808301925050505050505084848080601f016020809104026020016040519081016040528093929190818152602001838380828437600081840152601f19601f82011690508083019250505050505050612d50565b611c3e612dad565b611c46612e06565b8860fe60146101000a81548163ffffffff021916908363ffffffff1602179055508960fe60006101000a81548173ffffffffffffffffffffffffffffffffffffffff021916908373ffffffffffffffffffffffffffffffffffffffff160217905550878760ff9190611cb99291906134ad565b508a60fc60006101000a81548173ffffffffffffffffffffffffffffffffffffffff021916908373ffffffffffffffffffffffffffffffffffffffff16021790555060fc60009054906101000a900473ffffffffffffffffffffffffffffffffffffffff1673ffffffffffffffffffffffffffffffffffffffff1663358177736040518163ffffffff1660e01b8152600401611d5490614f76565b602060405180830381865afa158015611d71573d6000803e3d6000fd5b505050506040513d601f19601f82011682018060405250810190611d9591906145ad565b60fd60006101000a81548173ffffffffffffffffffffffffffffffffffffffff021916908373ffffffffffffffffffffffffffffffffffffffff1602179055508015611df65760008060016101000a81548160ff0219169083151502179055505b5050505050505050505050565b60658054611e1090613f5b565b80601f0160208091040260200160405190810160405280929190818152602001828054611e3c90613f5b565b8015611e895780601f10611e5e57610100808354040283529160200191611e89565b820191906000526020600020905b815481529060010190602001808311611e6c57829003601f168201915b505050505081565b60fe60149054906101000a900463ffffffff1681565b6000606a60008473ffffffffffffffffffffffffffffffffffffffff1673ffffffffffffffffffffffffffffffffffffffff16815260200190815260200160002060008373ffffffffffffffffffffffffffffffffffffffff1673ffffffffffffffffffffffffffffffffffffffff16815260200190815260200160002060009054906101000a900460ff16905092915050565b611f43612109565b73ffffffffffffffffffffffffffffffffffffffff16611f6161179b565b73ffffffffffffffffffffffffffffffffffffffff1614611fb7576040517f08c379a0000000000000000000000000000000000000000000000000000000008152600401611fae90614221565b60405180910390fd5b600073ffffffffffffffffffffffffffffffffffffffff168173ffffffffffffffffffffffffffffffffffffffff161415612027576040517f08c379a000000000000000000000000000000000000000000000000000000000815260040161201e90615008565b60405180910390fd5b61203081612e67565b50565b60007f01ffc9a7000000000000000000000000000000000000000000000000000000007bffffffffffffffffffffffffffffffffffffffffffffffffffffffff1916827bffffffffffffffffffffffffffffffffffffffffffffffffffffffff1916149050919050565b60008073ffffffffffffffffffffffffffffffffffffffff166067600084815260200190815260200160002060009054906101000a900473ffffffffffffffffffffffffffffffffffffffff1673ffffffffffffffffffffffffffffffffffffffff1614159050919050565b600033905090565b816069600083815260200190815260200160002060006101000a81548173ffffffffffffffffffffffffffffffffffffffff021916908373ffffffffffffffffffffffffffffffffffffffff160217905550808273ffffffffffffffffffffffffffffffffffffffff1661218483611137565b73ffffffffffffffffffffffffffffffffffffffff167f8c5be1e5ebec7d5bd14f71427d1e84f3dd0314c0f7b2291e5b200ac8c7c3b92560405160405180910390a45050565b600081600001549050919050565b60006121e38261209d565b612222576040517f08c379a00000000000000000000000000000000000000000000000000000000081526004016122199061509a565b60405180910390fd5b600061222d83611137565b90508073ffffffffffffffffffffffffffffffffffffffff168473ffffffffffffffffffffffffffffffffffffffff16148061229c57508373ffffffffffffffffffffffffffffffffffffffff1661228484610875565b73ffffffffffffffffffffffffffffffffffffffff16145b806122ad57506122ac8185611ea7565b5b91505092915050565b8273ffffffffffffffffffffffffffffffffffffffff166122d682611137565b73ffffffffffffffffffffffffffffffffffffffff161461232c576040517f08c379a00000000000000000000000000000000000000000000000000000000081526004016123239061512c565b60405180910390fd5b600073ffffffffffffffffffffffffffffffffffffffff168273ffffffffffffffffffffffffffffffffffffffff16141561239c576040517f08c379a0000000000000000000000000000000000000000000000000000000008152600401612393906151be565b60405180910390fd5b6123a7838383612f2d565b6123b2600082612111565b6001606860008573ffffffffffffffffffffffffffffffffffffffff1673ffffffffffffffffffffffffffffffffffffffff168152602001908152602001600020600082825461240291906151de565b925050819055506001606860008473ffffffffffffffffffffffffffffffffffffffff1673ffffffffffffffffffffffffffffffffffffffff16815260200190815260200160002060008282546124599190615212565b92505081905550816067600083815260200190815260200160002060006101000a81548173ffffffffffffffffffffffffffffffffffffffff021916908373ffffffffffffffffffffffffffffffffffffffff160217905550808273ffffffffffffffffffffffffffffffffffffffff168473ffffffffffffffffffffffffffffffffffffffff167fddf252ad1be2c89b69c2b068fc378daa952ba7f163c4a11628f55a4df523b3ef60405160405180910390a4612518838383612f32565b505050565b6000808273ffffffffffffffffffffffffffffffffffffffff163b119050919050565b600060fd60009054906101000a900473ffffffffffffffffffffffffffffffffffffffff1673ffffffffffffffffffffffffffffffffffffffff166331809c7e6040518163ffffffff1660e01b8152600401602060405180830381865afa1580156125af573d6000803e3d6000fd5b505050506040513d601f19601f820116820180604052508101906125d391906152a1565b9050600060fd60009054906101000a900473ffffffffffffffffffffffffffffffffffffffff1673ffffffffffffffffffffffffffffffffffffffff166324ec75906040518163ffffffff1660e01b8152600401602060405180830381865afa158015612644573d6000803e3d6000fd5b505050506040513d601f19601f8201168201806040525081019061266891906152e3565b9050600060fd60009054906101000a900473ffffffffffffffffffffffffffffffffffffffff1673ffffffffffffffffffffffffffffffffffffffff16638198edbf306040518263ffffffff1660e01b81526004016126c7919061382e565b602060405180830381865afa1580156126e4573d6000803e3d6000fd5b505050506040513d601f19601f8201168201806040525081019061270891906152e3565b9050600083600a6127199190615443565b82346127259190614466565b61272f91906154bd565b90506000838661273f9190614466565b905060008183116127505781612752565b825b905060fc60009054906101000a900473ffffffffffffffffffffffffffffffffffffffff1673ffffffffffffffffffffffffffffffffffffffff1663358177736040518163ffffffff1660e01b81526004016127ad9061553a565b602060405180830381865afa1580156127ca573d6000803e3d6000fd5b505050506040513d601f19601f820116820180604052508101906127ee91906145ad565b73ffffffffffffffffffffffffffffffffffffffff1663f14cf2b182306040518363ffffffff1660e01b8152600401612827919061382e565b6000604051808303818588803b15801561284057600080fd5b505af1158015612854573d6000803e3d6000fd5b50505050503373ffffffffffffffffffffffffffffffffffffffff163073ffffffffffffffffffffffffffffffffffffffff167f14deb714a99fc451d7b93138680aa1d3e1391c3ebe9fa0752878a73347074a4383346128b491906151de565b846040516128c392919061555a565b60405180910390a350505050505050565b60fe60149054906101000a900463ffffffff1663ffffffff16816128f860fb6121ca565b6129029190615212565b1115612943576040517f08c379a000000000000000000000000000000000000000000000000000000000815260040161293a906155cf565b60405180910390fd5b60005b8181101561297e5761295860fb612f37565b61296b8361296660fb6121ca565b612f4d565b8080612976906155ef565b915050612946565b505050565b8173ffffffffffffffffffffffffffffffffffffffff168373ffffffffffffffffffffffffffffffffffffffff1614156129f2576040517f08c379a00000000000000000000000000000000000000000000000000000000081526004016129e990615684565b60405180910390fd5b80606a60008573ffffffffffffffffffffffffffffffffffffffff1673ffffffffffffffffffffffffffffffffffffffff16815260200190815260200160002060008473ffffffffffffffffffffffffffffffffffffffff1673ffffffffffffffffffffffffffffffffffffffff16815260200190815260200160002060006101000a81548160ff0219169083151502179055508173ffffffffffffffffffffffffffffffffffffffff168373ffffffffffffffffffffffffffffffffffffffff167f17307eab39ab6107e8899845ad3d59bd9653f200f220920489ca2b5937696c3183604051612ae391906136be565b60405180910390a3505050565b612afb8484846122b6565b612b0784848484612f6b565b612b46576040517f08c379a0000000000000000000000000000000000000000000000000000000008152600401612b3d90615716565b60405180910390fd5b50505050565b606060ff8054612b5b90613f5b565b80601f0160208091040260200160405190810160405280929190818152602001828054612b8790613f5b565b8015612bd45780601f10612ba957610100808354040283529160200191612bd4565b820191906000526020600020905b815481529060010190602001808311612bb757829003601f168201915b5050505050905090565b60606000821415612c26576040518060400160405280600181526020017f30000000000000000000000000000000000000000000000000000000000000008152509050612d3a565b600082905060005b60008214612c58578080612c41906155ef565b915050600a82612c5191906154bd565b9150612c2e565b60008167ffffffffffffffff811115612c7457612c73613c11565b5b6040519080825280601f01601f191660200182016040528015612ca65781602001600182028036833780820191505090505b5090505b60008514612d3357600182612cbf91906151de565b9150600a85612cce9190615736565b6030612cda9190615212565b60f81b818381518110612cf057612cef615767565b5b60200101907effffffffffffffffffffffffffffffffffffffffffffffffffffffffffffff1916908160001a905350600a85612d2c91906154bd565b9450612caa565b8093505050505b919050565b6000612d4a3061251d565b15905090565b600060019054906101000a900460ff16612d9f576040517f08c379a0000000000000000000000000000000000000000000000000000000008152600401612d9690615808565b60405180910390fd5b612da982826130f3565b5050565b600060019054906101000a900460ff16612dfc576040517f08c379a0000000000000000000000000000000000000000000000000000000008152600401612df390615808565b60405180910390fd5b612e04613174565b565b600060019054906101000a900460ff16612e55576040517f08c379a0000000000000000000000000000000000000000000000000000000008152600401612e4c90615808565b60405180910390fd5b612e5d6131cd565b612e6561321e565b565b600060c960009054906101000a900473ffffffffffffffffffffffffffffffffffffffff1690508160c960006101000a81548173ffffffffffffffffffffffffffffffffffffffff021916908373ffffffffffffffffffffffffffffffffffffffff1602179055508173ffffffffffffffffffffffffffffffffffffffff168173ffffffffffffffffffffffffffffffffffffffff167f8be0079c531659141344cd1fd0a4f28419497f9722a3daafe3b4186f6b6457e060405160405180910390a35050565b505050565b505050565b6001816000016000828254019250508190555050565b612f67828260405180602001604052806000815250613278565b5050565b6000612f8c8473ffffffffffffffffffffffffffffffffffffffff1661251d565b156130e6578373ffffffffffffffffffffffffffffffffffffffff1663150b7a02612fb5612109565b8786866040518563ffffffff1660e01b8152600401612fd7949392919061587d565b6020604051808303816000875af192505050801561301357506040513d601f19601f8201168201806040525081019061301091906158de565b60015b613096573d8060008114613043576040519150601f19603f3d011682016040523d82523d6000602084013e613048565b606091505b5060008151141561308e576040517f08c379a000000000000000000000000000000000000000000000000000000000815260040161308590615716565b60405180910390fd5b805181602001fd5b63150b7a0260e01b7bffffffffffffffffffffffffffffffffffffffffffffffffffffffff1916817bffffffffffffffffffffffffffffffffffffffffffffffffffffffff1916149150506130eb565b600190505b949350505050565b600060019054906101000a900460ff16613142576040517f08c379a000000000000000000000000000000000000000000000000000000000815260040161313990615808565b60405180910390fd5b8160659080519060200190613158929190613533565b50806066908051906020019061316f929190613533565b505050565b600060019054906101000a900460ff166131c3576040517f08c379a00000000000000000000000000000000000000000000000000000000081526004016131ba90615808565b60405180910390fd5b6001609781905550565b600060019054906101000a900460ff1661321c576040517f08c379a000000000000000000000000000000000000000000000000000000000815260040161321390615808565b60405180910390fd5b565b600060019054906101000a900460ff1661326d576040517f08c379a000000000000000000000000000000000000000000000000000000000815260040161326490615808565b60405180910390fd5b61327632612e67565b565b61328283836132d3565b61328f6000848484612f6b565b6132ce576040517f08c379a00000000000000000000000000000000000000000000000000000000081526004016132c590615716565b60405180910390fd5b505050565b600073ffffffffffffffffffffffffffffffffffffffff168273ffffffffffffffffffffffffffffffffffffffff161415613343576040517f08c379a000000000000000000000000000000000000000000000000000000000815260040161333a90615957565b60405180910390fd5b61334c8161209d565b1561338c576040517f08c379a0000000000000000000000000000000000000000000000000000000008152600401613383906159c3565b60405180910390fd5b61339860008383612f2d565b6001606860008473ffffffffffffffffffffffffffffffffffffffff1673ffffffffffffffffffffffffffffffffffffffff16815260200190815260200160002060008282546133e89190615212565b92505081905550816067600083815260200190815260200160002060006101000a81548173ffffffffffffffffffffffffffffffffffffffff021916908373ffffffffffffffffffffffffffffffffffffffff160217905550808273ffffffffffffffffffffffffffffffffffffffff16600073ffffffffffffffffffffffffffffffffffffffff167fddf252ad1be2c89b69c2b068fc378daa952ba7f163c4a11628f55a4df523b3ef60405160405180910390a46134a960008383612f32565b5050565b8280546134b990613f5b565b90600052602060002090601f0160209004810192826134db5760008555613522565b82601f106134f457803560ff1916838001178555613522565b82800160010185558215613522579182015b82811115613521578235825591602001919060010190613506565b5b50905061352f91906135b9565b5090565b82805461353f90613f5b565b90600052602060002090601f01602090048101928261356157600085556135a8565b82601f1061357a57805160ff19168380011785556135a8565b828001600101855582156135a8579182015b828111156135a757825182559160200191906001019061358c565b5b5090506135b591906135b9565b5090565b5b808211156135d25760008160009055506001016135ba565b5090565b6000819050919050565b6135e9816135d6565b82525050565b600060208201905061360460008301846135e0565b92915050565b6000604051905090565b600080fd5b600080fd5b60007fffffffff0000000000000000000000000000000000000000000000000000000082169050919050565b6136538161361e565b811461365e57600080fd5b50565b6000813590506136708161364a565b92915050565b60006020828403121561368c5761368b613614565b5b600061369a84828501613661565b91505092915050565b60008115159050919050565b6136b8816136a3565b82525050565b60006020820190506136d360008301846136af565b92915050565b600081519050919050565b600082825260208201905092915050565b60005b838110156137135780820151818401526020810190506136f8565b83811115613722576000848401525b50505050565b6000601f19601f8301169050919050565b6000613744826136d9565b61374e81856136e4565b935061375e8185602086016136f5565b61376781613728565b840191505092915050565b6000602082019050818103600083015261378c8184613739565b905092915050565b61379d816135d6565b81146137a857600080fd5b50565b6000813590506137ba81613794565b92915050565b6000602082840312156137d6576137d5613614565b5b60006137e4848285016137ab565b91505092915050565b600073ffffffffffffffffffffffffffffffffffffffff82169050919050565b6000613818826137ed565b9050919050565b6138288161380d565b82525050565b6000602082019050613843600083018461381f565b92915050565b6138528161380d565b811461385d57600080fd5b50565b60008135905061386f81613849565b92915050565b6000806040838503121561388c5761388b613614565b5b600061389a85828601613860565b92505060206138ab858286016137ab565b9150509250929050565b6000806000606084860312156138ce576138cd613614565b5b60006138dc86828701613860565b93505060206138ed86828701613860565b92505060406138fe868287016137ab565b9150509250925092565b6000806040838503121561391f5761391e613614565b5b600061392d858286016137ab565b925050602061393e85828601613860565b9150509250929050565b600063ffffffff82169050919050565b61396181613948565b811461396c57600080fd5b50565b60008135905061397e81613958565b92915050565b600080fd5b600060c0828403121561399f5761399e613984565b5b81905092915050565b6000608082840312156139be576139bd613984565b5b81905092915050565b6000806000606084860312156139e0576139df613614565b5b60006139ee8682870161396f565b935050602084013567ffffffffffffffff811115613a0f57613a0e613619565b5b613a1b86828701613989565b925050604084013567ffffffffffffffff811115613a3c57613a3b613619565b5b613a48868287016139a8565b9150509250925092565b600080fd5b600080fd5b600080fd5b60008083601f840112613a7757613a76613a52565b5b8235905067ffffffffffffffff811115613a9457613a93613a57565b5b602083019150836001820283011115613ab057613aaf613a5c565b5b9250929050565b60008060208385031215613ace57613acd613614565b5b600083013567ffffffffffffffff811115613aec57613aeb613619565b5b613af885828601613a61565b92509250509250929050565b600060208284031215613b1a57613b19613614565b5b6000613b2884828501613860565b91505092915050565b600080600060608486031215613b4a57613b49613614565b5b6000613b588682870161396f565b9350506020613b69868287016137ab565b925050604084013567ffffffffffffffff811115613b8a57613b89613619565b5b613b96868287016139a8565b9150509250925092565b613ba9816136a3565b8114613bb457600080fd5b50565b600081359050613bc681613ba0565b92915050565b60008060408385031215613be357613be2613614565b5b6000613bf185828601613860565b9250506020613c0285828601613bb7565b9150509250929050565b600080fd5b7f4e487b7100000000000000000000000000000000000000000000000000000000600052604160045260246000fd5b613c4982613728565b810181811067ffffffffffffffff82111715613c6857613c67613c11565b5b80604052505050565b6000613c7b61360a565b9050613c878282613c40565b919050565b600067ffffffffffffffff821115613ca757613ca6613c11565b5b613cb082613728565b9050602081019050919050565b82818337600083830152505050565b6000613cdf613cda84613c8c565b613c71565b905082815260208101848484011115613cfb57613cfa613c0c565b5b613d06848285613cbd565b509392505050565b600082601f830112613d2357613d22613a52565b5b8135613d33848260208601613ccc565b91505092915050565b60008060008060808587031215613d5657613d55613614565b5b6000613d6487828801613860565b9450506020613d7587828801613860565b9350506040613d86878288016137ab565b925050606085013567ffffffffffffffff811115613da757613da6613619565b5b613db387828801613d0e565b91505092959194509250565b60008060008060008060008060008060e08b8d031215613de257613de1613614565b5b6000613df08d828e01613860565b9a50506020613e018d828e01613860565b9950506040613e128d828e0161396f565b98505060608b013567ffffffffffffffff811115613e3357613e32613619565b5b613e3f8d828e01613a61565b97509750506080613e528d828e01613860565b95505060a08b013567ffffffffffffffff811115613e7357613e72613619565b5b613e7f8d828e01613a61565b945094505060c08b013567ffffffffffffffff811115613ea257613ea1613619565b5b613eae8d828e01613a61565b92509250509295989b9194979a5092959850565b613ecb81613948565b82525050565b6000602082019050613ee66000830184613ec2565b92915050565b60008060408385031215613f0357613f02613614565b5b6000613f1185828601613860565b9250506020613f2285828601613860565b9150509250929050565b7f4e487b7100000000000000000000000000000000000000000000000000000000600052602260045260246000fd5b60006002820490506001821680613f7357607f821691505b60208210811415613f8757613f86613f2c565b5b50919050565b7f4552433732313a20617070726f76656420717565727920666f72206e6f6e657860008201527f697374656e7420746f6b656e0000000000000000000000000000000000000000602082015250565b6000613fe9602c836136e4565b9150613ff482613f8d565b604082019050919050565b6000602082019050818103600083015261401881613fdc565b9050919050565b7f4552433732313a20617070726f76616c20746f2063757272656e74206f776e6560008201527f7200000000000000000000000000000000000000000000000000000000000000602082015250565b600061407b6021836136e4565b91506140868261401f565b604082019050919050565b600060208201905081810360008301526140aa8161406e565b9050919050565b7f4552433732313a20617070726f76652063616c6c6572206973206e6f74206f7760008201527f6e6572206e6f7220617070726f76656420666f7220616c6c0000000000000000602082015250565b600061410d6038836136e4565b9150614118826140b1565b604082019050919050565b6000602082019050818103600083015261413c81614100565b9050919050565b7f4552433732313a207472616e736665722063616c6c6572206973206e6f74206f60008201527f776e6572206e6f7220617070726f766564000000000000000000000000000000602082015250565b600061419f6031836136e4565b91506141aa82614143565b604082019050919050565b600060208201905081810360008301526141ce81614192565b9050919050565b7f4f776e61626c653a2063616c6c6572206973206e6f7420746865206f776e6572600082015250565b600061420b6020836136e4565b9150614216826141d5565b602082019050919050565b6000602082019050818103600083015261423a816141fe565b9050919050565b7f5265656e7472616e637947756172643a207265656e7472616e742063616c6c00600082015250565b6000614277601f836136e4565b915061428282614241565b602082019050919050565b600060208201905081810360008301526142a68161426a565b9050919050565b7f4e45340000000000000000000000000000000000000000000000000000000000600082015250565b60006142e36003836136e4565b91506142ee826142ad565b602082019050919050565b60006020820190508181036000830152614312816142d6565b9050919050565b600081905092915050565b50565b6000614334600083614319565b915061433f82614324565b600082019050919050565b600061435582614327565b9150819050919050565b7f5345350000000000000000000000000000000000000000000000000000000000600082015250565b60006143956003836136e4565b91506143a08261435f565b602082019050919050565b600060208201905081810360008301526143c481614388565b9050919050565b7f4d54390000000000000000000000000000000000000000000000000000000000600082015250565b60006144016003836136e4565b915061440c826143cb565b602082019050919050565b60006020820190508181036000830152614430816143f4565b9050919050565b7f4e487b7100000000000000000000000000000000000000000000000000000000600052601160045260246000fd5b6000614471826135d6565b915061447c836135d6565b9250817fffffffffffffffffffffffffffffffffffffffffffffffffffffffffffffffff04831182151516156144b5576144b4614437565b5b828202905092915050565b7f4d54350000000000000000000000000000000000000000000000000000000000600082015250565b60006144f66003836136e4565b9150614501826144c0565b602082019050919050565b60006020820190508181036000830152614525816144e9565b9050919050565b7f5645524946494552000000000000000000000000000000000000000000000000600082015250565b60006145626008836136e4565b915061456d8261452c565b602082019050919050565b6000602082019050818103600083015261459181614555565b9050919050565b6000815190506145a781613849565b92915050565b6000602082840312156145c3576145c2613614565b5b60006145d184828501614598565b91505092915050565b7f5449434b45540000000000000000000000000000000000000000000000000000600082015250565b60006146106006836136e4565b915061461b826145da565b602082019050919050565b60006146356020840184613860565b905092915050565b6146468161380d565b82525050565b600080fd5b600080fd5b600080fd5b6000808335600160200384360303811261467857614677614656565b5b83810192508235915060208301925067ffffffffffffffff8211156146a05761469f61464c565b5b6001820236038413156146b6576146b5614651565b5b509250929050565b600082825260208201905092915050565b60006146db83856146be565b93506146e8838584613cbd565b6146f183613728565b840190509392505050565b600061470b60208401846137ab565b905092915050565b61471c816135d6565b82525050565b6000808335600160200384360303811261473f5761473e614656565b5b83810192508235915060208301925067ffffffffffffffff8211156147675761476661464c565b5b60018202360384131561477d5761477c614651565b5b509250929050565b600082825260208201905092915050565b60006147a28385614785565b93506147af838584613cbd565b6147b883613728565b840190509392505050565b6000608083016147d66000840184614626565b6147e3600086018261463d565b506147f1602084018461465b565b85830360208701526148048382846146cf565b9250505061481560408401846146fc565b6148226040860182614713565b506148306060840184614722565b8583036060870152614843838284614796565b925050508091505092915050565b600060a082019050614866600083018761381f565b614873602083018661381f565b818103604083015261488481614603565b905061489360608301856135e0565b81810360808301526148a581846147c3565b905095945050505050565b600060208201905081810360008301526148c981614603565b9050919050565b60006148df602084018461396f565b905092915050565b6148f081613948565b82525050565b600060c083016149096000840184614626565b614916600086018261463d565b506149246020840184614626565b614931602086018261463d565b5061493f60408401846146fc565b61494c6040860182614713565b5061495a60608401846148d0565b61496760608601826148e7565b5061497560808401846146fc565b6149826080860182614713565b5061499060a0840184614722565b85830360a08701526149a3838284614796565b925050508091505092915050565b60006080820190506149c6600083018761381f565b6149d3602083018661381f565b6149e06040830185613ec2565b81810360608301526149f281846148f6565b905095945050505050565b6000614a0983856136e4565b9350614a16838584613cbd565b614a1f83613728565b840190509392505050565b60006020820190508181036000830152614a458184866149fd565b90509392505050565b7f4552433732313a206f776e657220717565727920666f72206e6f6e657869737460008201527f656e7420746f6b656e0000000000000000000000000000000000000000000000602082015250565b6000614aaa6029836136e4565b9150614ab582614a4e565b604082019050919050565b60006020820190508181036000830152614ad981614a9d565b9050919050565b7f4f4f330000000000000000000000000000000000000000000000000000000000600082015250565b6000614b166003836136e4565b9150614b2182614ae0565b602082019050919050565b60006020820190508181036000830152614b4581614b09565b9050919050565b7f4552433732313a2062616c616e636520717565727920666f7220746865207a6560008201527f726f206164647265737300000000000000000000000000000000000000000000602082015250565b6000614ba8602a836136e4565b9150614bb382614b4c565b604082019050919050565b60006020820190508181036000830152614bd781614b9b565b9050919050565b7f4d494e5400000000000000000000000000000000000000000000000000000000600082015250565b6000614c146004836136e4565b9150614c1f82614bde565b602082019050919050565b600060a082019050614c3f600083018761381f565b614c4c602083018661381f565b8181036040830152614c5d81614c07565b9050614c6c60608301856135e0565b8181036080830152614c7e81846147c3565b905095945050505050565b6000608082019050614c9e60008301876135e0565b614cab6020830186613ec2565b614cb860408301856135e0565b614cc5606083018461381f565b95945050505050565b7f5345360000000000000000000000000000000000000000000000000000000000600082015250565b6000614d046003836136e4565b9150614d0f82614cce565b602082019050919050565b60006020820190508181036000830152614d3381614cf7565b9050919050565b7f4552433732314d657461646174613a2055524920717565727920666f72206e6f60008201527f6e6578697374656e7420746f6b656e0000000000000000000000000000000000602082015250565b6000614d96602f836136e4565b9150614da182614d3a565b604082019050919050565b60006020820190508181036000830152614dc581614d89565b9050919050565b600081905092915050565b6000614de2826136d9565b614dec8185614dcc565b9350614dfc8185602086016136f5565b80840191505092915050565b6000614e148285614dd7565b9150614e208284614dd7565b91508190509392505050565b7f496e697469616c697a61626c653a20636f6e747261637420697320616c72656160008201527f647920696e697469616c697a6564000000000000000000000000000000000000602082015250565b6000614e88602e836136e4565b9150614e9382614e2c565b604082019050919050565b60006020820190508181036000830152614eb781614e7b565b9050919050565b7f4145310000000000000000000000000000000000000000000000000000000000600082015250565b6000614ef46003836136e4565b9150614eff82614ebe565b602082019050919050565b60006020820190508181036000830152614f2381614ee7565b9050919050565b7f4d494e544d414e41474552000000000000000000000000000000000000000000600082015250565b6000614f60600b836136e4565b9150614f6b82614f2a565b602082019050919050565b60006020820190508181036000830152614f8f81614f53565b9050919050565b7f4f776e61626c653a206e6577206f776e657220697320746865207a65726f206160008201527f6464726573730000000000000000000000000000000000000000000000000000602082015250565b6000614ff26026836136e4565b9150614ffd82614f96565b604082019050919050565b6000602082019050818103600083015261502181614fe5565b9050919050565b7f4552433732313a206f70657261746f7220717565727920666f72206e6f6e657860008201527f697374656e7420746f6b656e0000000000000000000000000000000000000000602082015250565b6000615084602c836136e4565b915061508f82615028565b604082019050919050565b600060208201905081810360008301526150b381615077565b9050919050565b7f4552433732313a207472616e736665722066726f6d20696e636f72726563742060008201527f6f776e6572000000000000000000000000000000000000000000000000000000602082015250565b60006151166025836136e4565b9150615121826150ba565b604082019050919050565b6000602082019050818103600083015261514581615109565b9050919050565b7f4552433732313a207472616e7366657220746f20746865207a65726f2061646460008201527f7265737300000000000000000000000000000000000000000000000000000000602082015250565b60006151a86024836136e4565b91506151b38261514c565b604082019050919050565b600060208201905081810360008301526151d78161519b565b9050919050565b60006151e9826135d6565b91506151f4836135d6565b92508282101561520757615206614437565b5b828203905092915050565b600061521d826135d6565b9150615228836135d6565b9250827fffffffffffffffffffffffffffffffffffffffffffffffffffffffffffffffff0382111561525d5761525c614437565b5b828201905092915050565b600060ff82169050919050565b61527e81615268565b811461528957600080fd5b50565b60008151905061529b81615275565b92915050565b6000602082840312156152b7576152b6613614565b5b60006152c58482850161528c565b91505092915050565b6000815190506152dd81613794565b92915050565b6000602082840312156152f9576152f8613614565b5b6000615307848285016152ce565b91505092915050565b60008160011c9050919050565b6000808291508390505b60018511156153675780860481111561534357615342614437565b5b60018516156153525780820291505b808102905061536085615310565b9450615327565b94509492505050565b600082615380576001905061543c565b8161538e576000905061543c565b81600181146153a457600281146153ae576153dd565b600191505061543c565b60ff8411156153c0576153bf614437565b5b8360020a9150848211156153d7576153d6614437565b5b5061543c565b5060208310610133831016604e8410600b84101617156154125782820a90508381111561540d5761540c614437565b5b61543c565b61541f848484600161531d565b9250905081840481111561543657615435614437565b5b81810290505b9392505050565b600061544e826135d6565b915061545983615268565b92506154867fffffffffffffffffffffffffffffffffffffffffffffffffffffffffffffffff8484615370565b905092915050565b7f4e487b7100000000000000000000000000000000000000000000000000000000600052601260045260246000fd5b60006154c8826135d6565b91506154d3836135d6565b9250826154e3576154e261548e565b5b828204905092915050565b7f57414c4c45540000000000000000000000000000000000000000000000000000600082015250565b60006155246006836136e4565b915061552f826154ee565b602082019050919050565b6000602082019050818103600083015261555381615517565b9050919050565b600060408201905061556f60008301856135e0565b61557c60208301846135e0565b9392505050565b7f4d54330000000000000000000000000000000000000000000000000000000000600082015250565b60006155b96003836136e4565b91506155c482615583565b602082019050919050565b600060208201905081810360008301526155e8816155ac565b9050919050565b60006155fa826135d6565b91507fffffffffffffffffffffffffffffffffffffffffffffffffffffffffffffffff82141561562d5761562c614437565b5b600182019050919050565b7f4552433732313a20617070726f766520746f2063616c6c657200000000000000600082015250565b600061566e6019836136e4565b915061567982615638565b602082019050919050565b6000602082019050818103600083015261569d81615661565b9050919050565b7f4552433732313a207472616e7366657220746f206e6f6e20455243373231526560008201527f63656976657220696d706c656d656e7465720000000000000000000000000000602082015250565b60006157006032836136e4565b915061570b826156a4565b604082019050919050565b6000602082019050818103600083015261572f816156f3565b9050919050565b6000615741826135d6565b915061574c836135d6565b92508261575c5761575b61548e565b5b828206905092915050565b7f4e487b7100000000000000000000000000000000000000000000000000000000600052603260045260246000fd5b7f496e697469616c697a61626c653a20636f6e7472616374206973206e6f74206960008201527f6e697469616c697a696e67000000000000000000000000000000000000000000602082015250565b60006157f2602b836136e4565b91506157fd82615796565b604082019050919050565b60006020820190508181036000830152615821816157e5565b9050919050565b600081519050919050565b600082825260208201905092915050565b600061584f82615828565b6158598185615833565b93506158698185602086016136f5565b61587281613728565b840191505092915050565b6000608082019050615892600083018761381f565b61589f602083018661381f565b6158ac60408301856135e0565b81810360608301526158be8184615844565b905095945050505050565b6000815190506158d88161364a565b92915050565b6000602082840312156158f4576158f3613614565b5b6000615902848285016158c9565b91505092915050565b7f4552433732313a206d696e7420746f20746865207a65726f2061646472657373600082015250565b60006159416020836136e4565b915061594c8261590b565b602082019050919050565b6000602082019050818103600083015261597081615934565b9050919050565b7f4552433732313a20746f6b656e20616c7265616479206d696e74656400000000600082015250565b60006159ad601c836136e4565b91506159b882615977565b602082019050919050565b600060208201905081810360008301526159dc816159a0565b905091905056fea2646970667358221220af147df5d621274036753a531d63b9a85742dd8c8d514a01846720098680a9a764736f6c634300080a0033",
  "linkReferences": {},
  "deployedLinkReferences": {}
}