{
  "_format": "hh-sol-artifact-1",
  "contractName": "RevealManager",
  "sourceName": "contracts/V1/RevealManager.sol",
  "abi": [
    {
      "inputs": [
        {
          "internalType": "contract OmnuumCAManager",
          "name": "_caManager",
          "type": "address"
        }
      ],
      "stateMutability": "nonpayable",
      "type": "constructor"
    },
    {
      "inputs": [
        {
          "internalType": "contract Ownable",
          "name": "_nftContract",
          "type": "address"
        }
      ],
      "name": "vrfRequest",
      "outputs": [],
      "stateMutability": "payable",
      "type": "function"
    }
  ],
  "bytecode": "0x608060405234801561001057600080fd5b506040516105ed3803806105ed833981810160405281019061003291906100ed565b806000806101000a81548173ffffffffffffffffffffffffffffffffffffffff021916908373ffffffffffffffffffffffffffffffffffffffff1602179055505061011a565b600080fd5b600073ffffffffffffffffffffffffffffffffffffffff82169050919050565b60006100a88261007d565b9050919050565b60006100ba8261009d565b9050919050565b6100ca816100af565b81146100d557600080fd5b50565b6000815190506100e7816100c1565b92915050565b60006020828403121561010357610102610078565b5b6000610111848285016100d8565b91505092915050565b6104c4806101296000396000f3fe60806040526004361061001e5760003560e01c80631a9870de14610023575b600080fd5b61003d60048036038101906100389190610296565b61003f565b005b3373ffffffffffffffffffffffffffffffffffffffff168173ffffffffffffffffffffffffffffffffffffffff16638da5cb5b6040518163ffffffff1660e01b8152600401602060405180830381865afa1580156100a1573d6000803e3d6000fd5b505050506040513d601f19601f820116820180604052508101906100c591906102ef565b73ffffffffffffffffffffffffffffffffffffffff161461011b576040517f08c379a000000000000000000000000000000000000000000000000000000000815260040161011290610379565b60405180910390fd5b60008054906101000a900473ffffffffffffffffffffffffffffffffffffffff1673ffffffffffffffffffffffffffffffffffffffff1663358177736040518163ffffffff1660e01b8152600401610172906103e5565b602060405180830381865afa15801561018f573d6000803e3d6000fd5b505050506040513d601f19601f820116820180604052508101906101b391906102ef565b73ffffffffffffffffffffffffffffffffffffffff16639aad28a734836040518363ffffffff1660e01b81526004016101ec9190610460565b6000604051808303818588803b15801561020557600080fd5b505af1158015610219573d6000803e3d6000fd5b505050505050565b600080fd5b600073ffffffffffffffffffffffffffffffffffffffff82169050919050565b600061025182610226565b9050919050565b600061026382610246565b9050919050565b61027381610258565b811461027e57600080fd5b50565b6000813590506102908161026a565b92915050565b6000602082840312156102ac576102ab610221565b5b60006102ba84828501610281565b91505092915050565b6102cc81610246565b81146102d757600080fd5b50565b6000815190506102e9816102c3565b92915050565b60006020828403121561030557610304610221565b5b6000610313848285016102da565b91505092915050565b600082825260208201905092915050565b7f4f4f310000000000000000000000000000000000000000000000000000000000600082015250565b600061036360038361031c565b915061036e8261032d565b602082019050919050565b6000602082019050818103600083015261039281610356565b9050919050565b7f5652460000000000000000000000000000000000000000000000000000000000600082015250565b60006103cf60038361031c565b91506103da82610399565b602082019050919050565b600060208201905081810360008301526103fe816103c2565b9050919050565b61040e81610246565b82525050565b7f52455645414c5f50465000000000000000000000000000000000000000000000600082015250565b600061044a600a8361031c565b915061045582610414565b602082019050919050565b60006040820190506104756000830184610405565b81810360208301526104868161043d565b90509291505056fea26469706673582212200c581e45e47e1d22a185ce9878307a76ba22a6f1ca96d5652dee29f2e17b28b064736f6c634300080a0033",
  "linkReferences": {},
  "deployedLinkReferences": {}
}