{
  "_format": "hh-sol-artifact-1",
  "contractName": "RevealManager",
  "sourceName": "contracts/V1/RevealManager.sol",
  "abi": [
    {
      "inputs": [
        {
          "internalType": "contract OmnuumCAManager",
          "name": "_caManager",
          "type": "address"
        }
      ],
      "stateMutability": "nonpayable",
      "type": "constructor"
    },
    {
      "inputs": [
        {
          "internalType": "contract OmnuumNFT1155",
          "name": "_nftContract",
          "type": "address"
        }
      ],
      "name": "vrfRequest",
      "outputs": [],
      "stateMutability": "payable",
      "type": "function"
    }
  ],
  "bytecode": "0x608060405234801561001057600080fd5b5060405161077f38038061077f833981810160405281019061003291906100ed565b806000806101000a81548173ffffffffffffffffffffffffffffffffffffffff021916908373ffffffffffffffffffffffffffffffffffffffff1602179055505061011a565b600080fd5b600073ffffffffffffffffffffffffffffffffffffffff82169050919050565b60006100a88261007d565b9050919050565b60006100ba8261009d565b9050919050565b6100ca816100af565b81146100d557600080fd5b50565b6000815190506100e7816100c1565b92915050565b60006020828403121561010357610102610078565b5b6000610111848285016100d8565b91505092915050565b610656806101296000396000f3fe60806040526004361061001e5760003560e01c80631a9870de14610023575b600080fd5b61003d60048036038101906100389190610345565b61003f565b005b3373ffffffffffffffffffffffffffffffffffffffff168173ffffffffffffffffffffffffffffffffffffffff16638da5cb5b6040518163ffffffff1660e01b8152600401602060405180830381865afa1580156100a1573d6000803e3d6000fd5b505050506040513d601f19601f820116820180604052508101906100c591906103b0565b73ffffffffffffffffffffffffffffffffffffffff161461011b576040517f08c379a00000000000000000000000000000000000000000000000000000000081526004016101129061043a565b60405180910390fd5b8073ffffffffffffffffffffffffffffffffffffffff166354214f696040518163ffffffff1660e01b8152600401602060405180830381865afa158015610166573d6000803e3d6000fd5b505050506040513d601f19601f8201168201806040525081019061018a9190610492565b156101ca576040517f08c379a00000000000000000000000000000000000000000000000000000000081526004016101c19061050b565b60405180910390fd5b60008054906101000a900473ffffffffffffffffffffffffffffffffffffffff1673ffffffffffffffffffffffffffffffffffffffff1663358177736040518163ffffffff1660e01b815260040161022190610577565b602060405180830381865afa15801561023e573d6000803e3d6000fd5b505050506040513d601f19601f8201168201806040525081019061026291906103b0565b73ffffffffffffffffffffffffffffffffffffffff16639aad28a734836040518363ffffffff1660e01b815260040161029b91906105f2565b6000604051808303818588803b1580156102b457600080fd5b505af11580156102c8573d6000803e3d6000fd5b505050505050565b600080fd5b600073ffffffffffffffffffffffffffffffffffffffff82169050919050565b6000610300826102d5565b9050919050565b6000610312826102f5565b9050919050565b61032281610307565b811461032d57600080fd5b50565b60008135905061033f81610319565b92915050565b60006020828403121561035b5761035a6102d0565b5b600061036984828501610330565b91505092915050565b600061037d826102d5565b9050919050565b61038d81610372565b811461039857600080fd5b50565b6000815190506103aa81610384565b92915050565b6000602082840312156103c6576103c56102d0565b5b60006103d48482850161039b565b91505092915050565b600082825260208201905092915050565b7f4f4f310000000000000000000000000000000000000000000000000000000000600082015250565b60006104246003836103dd565b915061042f826103ee565b602082019050919050565b6000602082019050818103600083015261045381610417565b9050919050565b60008115159050919050565b61046f8161045a565b811461047a57600080fd5b50565b60008151905061048c81610466565b92915050565b6000602082840312156104a8576104a76102d0565b5b60006104b68482850161047d565b91505092915050565b7f5345360000000000000000000000000000000000000000000000000000000000600082015250565b60006104f56003836103dd565b9150610500826104bf565b602082019050919050565b60006020820190508181036000830152610524816104e8565b9050919050565b7f5652460000000000000000000000000000000000000000000000000000000000600082015250565b60006105616003836103dd565b915061056c8261052b565b602082019050919050565b6000602082019050818103600083015261059081610554565b9050919050565b6105a081610372565b82525050565b7f52455645414c5f50465000000000000000000000000000000000000000000000600082015250565b60006105dc600a836103dd565b91506105e7826105a6565b602082019050919050565b60006040820190506106076000830184610597565b8181036020830152610618816105cf565b90509291505056fea264697066735822122003f52271522f7b10d1b23a9184d5033e47e4652c78cbdb31da20eb6a1c59802564736f6c634300080a0033",
  "linkReferences": {},
  "deployedLinkReferences": {}
}