{
  "_format": "hh-sol-artifact-1",
  "contractName": "NftFactory",
  "sourceName": "contracts/V1/NftFactory.sol",
  "abi": [
    {
      "inputs": [
        {
          "internalType": "address",
          "name": "_caManager",
          "type": "address"
        },
        {
          "internalType": "address",
          "name": "_nftContractBeacon",
          "type": "address"
        },
        {
          "internalType": "address",
          "name": "_omnuumSigner",
          "type": "address"
        }
      ],
      "stateMutability": "nonpayable",
      "type": "constructor"
    },
    {
      "anonymous": false,
      "inputs": [
        {
          "indexed": true,
          "internalType": "address",
          "name": "nftContract",
          "type": "address"
        },
        {
          "indexed": true,
          "internalType": "address",
          "name": "creator",
          "type": "address"
        },
        {
          "indexed": true,
          "internalType": "uint256",
          "name": "collectionId",
          "type": "uint256"
        }
      ],
      "name": "NftContractDeployed",
      "type": "event"
    },
    {
      "anonymous": false,
      "inputs": [
        {
          "indexed": true,
          "internalType": "address",
          "name": "previousOwner",
          "type": "address"
        },
        {
          "indexed": true,
          "internalType": "address",
          "name": "newOwner",
          "type": "address"
        }
      ],
      "name": "OwnershipTransferred",
      "type": "event"
    },
    {
      "inputs": [],
      "name": "caManager",
      "outputs": [
        {
          "internalType": "address",
          "name": "",
          "type": "address"
        }
      ],
      "stateMutability": "view",
      "type": "function"
    },
    {
      "inputs": [
        {
          "internalType": "address",
          "name": "_newSigner",
          "type": "address"
        }
      ],
      "name": "changeOmnuumSigner",
      "outputs": [],
      "stateMutability": "nonpayable",
      "type": "function"
    },
    {
      "inputs": [
        {
          "internalType": "uint32",
          "name": "_maxSupply",
          "type": "uint32"
        },
        {
          "internalType": "string",
          "name": "_coverBaseURI",
          "type": "string"
        },
        {
          "internalType": "uint256",
          "name": "_collectionId",
          "type": "uint256"
        },
        {
          "internalType": "string",
          "name": "_name",
          "type": "string"
        },
        {
          "internalType": "string",
          "name": "_symbol",
          "type": "string"
        },
        {
          "components": [
            {
              "internalType": "address",
              "name": "sender",
              "type": "address"
            },
            {
              "internalType": "string",
              "name": "topic",
              "type": "string"
            },
            {
              "internalType": "uint256",
              "name": "nonce",
              "type": "uint256"
            },
            {
              "internalType": "bytes",
              "name": "signature",
              "type": "bytes"
            }
          ],
          "internalType": "struct SenderVerifier.Payload",
          "name": "_payload",
          "type": "tuple"
        }
      ],
      "name": "deploy",
      "outputs": [],
      "stateMutability": "nonpayable",
      "type": "function"
    },
    {
      "inputs": [],
      "name": "nftContractBeacon",
      "outputs": [
        {
          "internalType": "address",
          "name": "",
          "type": "address"
        }
      ],
      "stateMutability": "view",
      "type": "function"
    },
    {
      "inputs": [],
      "name": "omnuumSigner",
      "outputs": [
        {
          "internalType": "address",
          "name": "",
          "type": "address"
        }
      ],
      "stateMutability": "view",
      "type": "function"
    },
    {
      "inputs": [],
      "name": "owner",
      "outputs": [
        {
          "internalType": "address",
          "name": "",
          "type": "address"
        }
      ],
      "stateMutability": "view",
      "type": "function"
    },
    {
      "inputs": [
        {
          "internalType": "address",
          "name": "newOwner",
          "type": "address"
        }
      ],
      "name": "transferOwnership",
      "outputs": [],
      "stateMutability": "nonpayable",
      "type": "function"
    }
  ],
  "bytecode": "0x60c06040523480156200001157600080fd5b506040516200258f3803806200258f83398181016040528101906200003791906200023f565b620000576200004b6200010960201b60201c565b6200011160201b60201c565b8273ffffffffffffffffffffffffffffffffffffffff1660808173ffffffffffffffffffffffffffffffffffffffff168152505080600160006101000a81548173ffffffffffffffffffffffffffffffffffffffff021916908373ffffffffffffffffffffffffffffffffffffffff1602179055508173ffffffffffffffffffffffffffffffffffffffff1660a08173ffffffffffffffffffffffffffffffffffffffff16815250505050506200029b565b600033905090565b60008060009054906101000a900473ffffffffffffffffffffffffffffffffffffffff169050816000806101000a81548173ffffffffffffffffffffffffffffffffffffffff021916908373ffffffffffffffffffffffffffffffffffffffff1602179055508173ffffffffffffffffffffffffffffffffffffffff168173ffffffffffffffffffffffffffffffffffffffff167f8be0079c531659141344cd1fd0a4f28419497f9722a3daafe3b4186f6b6457e060405160405180910390a35050565b600080fd5b600073ffffffffffffffffffffffffffffffffffffffff82169050919050565b60006200020782620001da565b9050919050565b6200021981620001fa565b81146200022557600080fd5b50565b60008151905062000239816200020e565b92915050565b6000806000606084860312156200025b576200025a620001d5565b5b60006200026b8682870162000228565b93505060206200027e8682870162000228565b9250506040620002918682870162000228565b9150509250925092565b60805160a0516122b9620002d6600039600081816103600152610584015260008181610179015281816102b4015261056001526122b96000f3fe60806040523480156200001157600080fd5b5060043610620000885760003560e01c80638468632411620000635780638468632414620000ef5780638da5cb5b1462000111578063e8d0f0a51462000133578063f2fde38b14620001555762000088565b8063599cd51f146200008d5780635c143fb314620000ad5780637b30e04e14620000cd575b600080fd5b620000ab6004803603810190620000a59190620008ee565b62000175565b005b620000cb6004803603810190620000c5919062000a79565b62000424565b005b620000d76200055e565b604051620000e6919062000abc565b60405180910390f35b620000f962000582565b60405162000108919062000abc565b60405180910390f35b6200011b620005a6565b6040516200012a919062000abc565b60405180910390f35b6200013d620005cf565b6040516200014c919062000abc565b60405180910390f35b6200017360048036038101906200016d919062000a79565b620005f5565b005b60007f000000000000000000000000000000000000000000000000000000000000000073ffffffffffffffffffffffffffffffffffffffff1663358177736040518163ffffffff1660e01b8152600401620001d09062000b3a565b602060405180830381865afa158015620001ee573d6000803e3d6000fd5b505050506040513d601f19601f8201168201806040525081019062000214919062000b73565b90508073ffffffffffffffffffffffffffffffffffffffff16638f2c6a80600160009054906101000a900473ffffffffffffffffffffffffffffffffffffffff16338a866040518563ffffffff1660e01b815260040162000279949392919062000e87565b60006040518083038186803b1580156200029257600080fd5b505afa158015620002a7573d6000803e3d6000fd5b50505050600063c903b7f27f0000000000000000000000000000000000000000000000000000000000000000600160009054906101000a900473ffffffffffffffffffffffffffffffffffffffff168d8d8d338d8d8d8d604051602401620003199a9998979695949392919062000f34565b6040516020818303038152906040529060e01b6020820180517bffffffffffffffffffffffffffffffffffffffffffffffffffffffff8381831617835250505050905060007f0000000000000000000000000000000000000000000000000000000000000000826040516200038e90620007c5565b6200039b9291906200105f565b604051809103906000f080158015620003b8573d6000803e3d6000fd5b509050883373ffffffffffffffffffffffffffffffffffffffff168273ffffffffffffffffffffffffffffffffffffffff167f0db4b95b03a491ad384dc917e78442c56b8692c92810e377793152a4f349879e60405160405180910390a4505050505050505050505050565b6200042e620006f9565b73ffffffffffffffffffffffffffffffffffffffff166200044e620005a6565b73ffffffffffffffffffffffffffffffffffffffff1614620004a7576040517f08c379a00000000000000000000000000000000000000000000000000000000081526004016200049e90620010e3565b60405180910390fd5b600073ffffffffffffffffffffffffffffffffffffffff168173ffffffffffffffffffffffffffffffffffffffff1614156200051a576040517f08c379a0000000000000000000000000000000000000000000000000000000008152600401620005119062001155565b60405180910390fd5b80600160006101000a81548173ffffffffffffffffffffffffffffffffffffffff021916908373ffffffffffffffffffffffffffffffffffffffff16021790555050565b7f000000000000000000000000000000000000000000000000000000000000000081565b7f000000000000000000000000000000000000000000000000000000000000000081565b60008060009054906101000a900473ffffffffffffffffffffffffffffffffffffffff16905090565b600160009054906101000a900473ffffffffffffffffffffffffffffffffffffffff1681565b620005ff620006f9565b73ffffffffffffffffffffffffffffffffffffffff166200061f620005a6565b73ffffffffffffffffffffffffffffffffffffffff161462000678576040517f08c379a00000000000000000000000000000000000000000000000000000000081526004016200066f90620010e3565b60405180910390fd5b600073ffffffffffffffffffffffffffffffffffffffff168173ffffffffffffffffffffffffffffffffffffffff161415620006eb576040517f08c379a0000000000000000000000000000000000000000000000000000000008152600401620006e290620011ed565b60405180910390fd5b620006f68162000701565b50565b600033905090565b60008060009054906101000a900473ffffffffffffffffffffffffffffffffffffffff169050816000806101000a81548173ffffffffffffffffffffffffffffffffffffffff021916908373ffffffffffffffffffffffffffffffffffffffff1602179055508173ffffffffffffffffffffffffffffffffffffffff168173ffffffffffffffffffffffffffffffffffffffff167f8be0079c531659141344cd1fd0a4f28419497f9722a3daafe3b4186f6b6457e060405160405180910390a35050565b611074806200121083390190565b600080fd5b600080fd5b600063ffffffff82169050919050565b620007f881620007dd565b81146200080457600080fd5b50565b6000813590506200081881620007ed565b92915050565b600080fd5b600080fd5b600080fd5b60008083601f8401126200084657620008456200081e565b5b8235905067ffffffffffffffff81111562000866576200086562000823565b5b60208301915083600182028301111562000885576200088462000828565b5b9250929050565b6000819050919050565b620008a1816200088c565b8114620008ad57600080fd5b50565b600081359050620008c18162000896565b92915050565b600080fd5b600060808284031215620008e557620008e4620008c7565b5b81905092915050565b600080600080600080600080600060c08a8c031215620009135762000912620007d3565b5b6000620009238c828d0162000807565b99505060208a013567ffffffffffffffff811115620009475762000946620007d8565b5b620009558c828d016200082d565b985098505060406200096a8c828d01620008b0565b96505060608a013567ffffffffffffffff8111156200098e576200098d620007d8565b5b6200099c8c828d016200082d565b955095505060808a013567ffffffffffffffff811115620009c257620009c1620007d8565b5b620009d08c828d016200082d565b935093505060a08a013567ffffffffffffffff811115620009f657620009f5620007d8565b5b62000a048c828d01620008cc565b9150509295985092959850929598565b600073ffffffffffffffffffffffffffffffffffffffff82169050919050565b600062000a418262000a14565b9050919050565b62000a538162000a34565b811462000a5f57600080fd5b50565b60008135905062000a738162000a48565b92915050565b60006020828403121562000a925762000a91620007d3565b5b600062000aa28482850162000a62565b91505092915050565b62000ab68162000a34565b82525050565b600060208201905062000ad3600083018462000aab565b92915050565b600082825260208201905092915050565b7f5645524946494552000000000000000000000000000000000000000000000000600082015250565b600062000b2260088362000ad9565b915062000b2f8262000aea565b602082019050919050565b6000602082019050818103600083015262000b558162000b13565b9050919050565b60008151905062000b6d8162000a48565b92915050565b60006020828403121562000b8c5762000b8b620007d3565b5b600062000b9c8482850162000b5c565b91505092915050565b7f4445504c4f595f434f4c00000000000000000000000000000000000000000000600082015250565b600062000bdd600a8362000ad9565b915062000bea8262000ba5565b602082019050919050565b62000c00816200088c565b82525050565b600062000c17602084018462000a62565b905092915050565b62000c2a8162000a34565b82525050565b600080fd5b600080fd5b600080fd5b6000808335600160200384360303811262000c5f5762000c5e62000c3a565b5b83810192508235915060208301925067ffffffffffffffff82111562000c8a5762000c8962000c30565b5b60018202360384131562000ca35762000ca262000c35565b5b509250929050565b600082825260208201905092915050565b82818337600083830152505050565b6000601f19601f8301169050919050565b600062000cea838562000cab565b935062000cf983858462000cbc565b62000d048362000ccb565b840190509392505050565b600062000d206020840184620008b0565b905092915050565b62000d33816200088c565b82525050565b6000808335600160200384360303811262000d595762000d5862000c3a565b5b83810192508235915060208301925067ffffffffffffffff82111562000d845762000d8362000c30565b5b60018202360384131562000d9d5762000d9c62000c35565b5b509250929050565b600082825260208201905092915050565b600062000dc4838562000da5565b935062000dd383858462000cbc565b62000dde8362000ccb565b840190509392505050565b60006080830162000dfe600084018462000c06565b62000e0d600086018262000c1f565b5062000e1d602084018462000c3f565b858303602087015262000e3283828462000cdc565b9250505062000e45604084018462000d0f565b62000e54604086018262000d28565b5062000e64606084018462000d39565b858303606087015262000e7983828462000db6565b925050508091505092915050565b600060a08201905062000e9e600083018762000aab565b62000ead602083018662000aab565b818103604083015262000ec08162000bce565b905062000ed1606083018562000bf5565b818103608083015262000ee5818462000de9565b905095945050505050565b62000efb81620007dd565b82525050565b600062000f0f838562000ad9565b935062000f1e83858462000cbc565b62000f298362000ccb565b840190509392505050565b600060e08201905062000f4b600083018d62000aab565b62000f5a602083018c62000aab565b62000f69604083018b62000ef0565b818103606083015262000f7e81898b62000f01565b905062000f8f608083018862000aab565b81810360a083015262000fa481868862000f01565b905081810360c083015262000fbb81848662000f01565b90509b9a5050505050505050505050565b600081519050919050565b600082825260208201905092915050565b60005b838110156200100857808201518184015260208101905062000feb565b8381111562001018576000848401525b50505050565b60006200102b8262000fcc565b62001037818562000fd7565b93506200104981856020860162000fe8565b620010548162000ccb565b840191505092915050565b600060408201905062001076600083018562000aab565b81810360208301526200108a81846200101e565b90509392505050565b7f4f776e61626c653a2063616c6c6572206973206e6f7420746865206f776e6572600082015250565b6000620010cb60208362000ad9565b9150620010d88262001093565b602082019050919050565b60006020820190508181036000830152620010fe81620010bc565b9050919050565b7f4145310000000000000000000000000000000000000000000000000000000000600082015250565b60006200113d60038362000ad9565b91506200114a8262001105565b602082019050919050565b6000602082019050818103600083015262001170816200112e565b9050919050565b7f4f776e61626c653a206e6577206f776e657220697320746865207a65726f206160008201527f6464726573730000000000000000000000000000000000000000000000000000602082015250565b6000620011d560268362000ad9565b9150620011e28262001177565b604082019050919050565b600060208201905081810360008301526200120881620011c6565b905091905056fe608060405260405162001074380380620010748339818101604052810190620000299190620006fa565b60017fa3f0ad74e5423aebfd80d3ef4346578335a9a72aeaee59ff6cb3582b35133d5160001c6200005b919062000799565b60001b7fa3f0ad74e5423aebfd80d3ef4346578335a9a72aeaee59ff6cb3582b35133d5060001b14620000935762000092620007d4565b5b620000a782826000620000af60201b60201c565b505062000ae4565b620000c083620001a660201b60201c565b8273ffffffffffffffffffffffffffffffffffffffff167f1cf3b03a6cf19fa2baba4df148e9dcabedea7f8a5c07840e207e5c089be95d3e60405160405180910390a2600082511180620001115750805b15620001a1576200019f8373ffffffffffffffffffffffffffffffffffffffff16635c60da1b6040518163ffffffff1660e01b8152600401602060405180830381865afa15801562000167573d6000803e3d6000fd5b505050506040513d601f19601f820116820180604052508101906200018d919062000803565b836200034560201b620000371760201c565b505b505050565b620001bc816200037b60201b620000641760201c565b620001fe576040517f08c379a0000000000000000000000000000000000000000000000000000000008152600401620001f590620008bc565b60405180910390fd5b620002858173ffffffffffffffffffffffffffffffffffffffff16635c60da1b6040518163ffffffff1660e01b8152600401602060405180830381865afa1580156200024e573d6000803e3d6000fd5b505050506040513d601f19601f8201168201806040525081019062000274919062000803565b6200037b60201b620000641760201c565b620002c7576040517f08c379a0000000000000000000000000000000000000000000000000000000008152600401620002be9062000954565b60405180910390fd5b80620003017fa3f0ad74e5423aebfd80d3ef4346578335a9a72aeaee59ff6cb3582b35133d5060001b6200039e60201b620000871760201c565b60000160006101000a81548173ffffffffffffffffffffffffffffffffffffffff021916908373ffffffffffffffffffffffffffffffffffffffff16021790555050565b60606200037383836040518060600160405280602781526020016200104d60279139620003a860201b60201c565b905092915050565b6000808273ffffffffffffffffffffffffffffffffffffffff163b119050919050565b6000819050919050565b6060620003bb846200037b60201b60201c565b620003fd576040517f08c379a0000000000000000000000000000000000000000000000000000000008152600401620003f490620009ec565b60405180910390fd5b6000808573ffffffffffffffffffffffffffffffffffffffff168560405162000427919062000a5b565b600060405180830381855af49150503d806000811462000464576040519150601f19603f3d011682016040523d82523d6000602084013e62000469565b606091505b5091509150620004818282866200048c60201b60201c565b925050509392505050565b606083156200049e57829050620004f1565b600083511115620004b25782518084602001fd5b816040517f08c379a0000000000000000000000000000000000000000000000000000000008152600401620004e8919062000ac0565b60405180910390fd5b9392505050565b6000604051905090565b600080fd5b600080fd5b600073ffffffffffffffffffffffffffffffffffffffff82169050919050565b600062000539826200050c565b9050919050565b6200054b816200052c565b81146200055757600080fd5b50565b6000815190506200056b8162000540565b92915050565b600080fd5b600080fd5b6000601f19601f8301169050919050565b7f4e487b7100000000000000000000000000000000000000000000000000000000600052604160045260246000fd5b620005c6826200057b565b810181811067ffffffffffffffff82111715620005e857620005e76200058c565b5b80604052505050565b6000620005fd620004f8565b90506200060b8282620005bb565b919050565b600067ffffffffffffffff8211156200062e576200062d6200058c565b5b62000639826200057b565b9050602081019050919050565b60005b838110156200066657808201518184015260208101905062000649565b8381111562000676576000848401525b50505050565b6000620006936200068d8462000610565b620005f1565b905082815260208101848484011115620006b257620006b162000576565b5b620006bf84828562000646565b509392505050565b600082601f830112620006df57620006de62000571565b5b8151620006f18482602086016200067c565b91505092915050565b6000806040838503121562000714576200071362000502565b5b600062000724858286016200055a565b925050602083015167ffffffffffffffff81111562000748576200074762000507565b5b6200075685828601620006c7565b9150509250929050565b6000819050919050565b7f4e487b7100000000000000000000000000000000000000000000000000000000600052601160045260246000fd5b6000620007a68262000760565b9150620007b38362000760565b925082821015620007c957620007c86200076a565b5b828203905092915050565b7f4e487b7100000000000000000000000000000000000000000000000000000000600052600160045260246000fd5b6000602082840312156200081c576200081b62000502565b5b60006200082c848285016200055a565b91505092915050565b600082825260208201905092915050565b7f455243313936373a206e657720626561636f6e206973206e6f74206120636f6e60008201527f7472616374000000000000000000000000000000000000000000000000000000602082015250565b6000620008a460258362000835565b9150620008b18262000846565b604082019050919050565b60006020820190508181036000830152620008d78162000895565b9050919050565b7f455243313936373a20626561636f6e20696d706c656d656e746174696f6e206960008201527f73206e6f74206120636f6e747261637400000000000000000000000000000000602082015250565b60006200093c60308362000835565b91506200094982620008de565b604082019050919050565b600060208201905081810360008301526200096f816200092d565b9050919050565b7f416464726573733a2064656c65676174652063616c6c20746f206e6f6e2d636f60008201527f6e74726163740000000000000000000000000000000000000000000000000000602082015250565b6000620009d460268362000835565b9150620009e18262000976565b604082019050919050565b6000602082019050818103600083015262000a0781620009c5565b9050919050565b600081519050919050565b600081905092915050565b600062000a318262000a0e565b62000a3d818562000a19565b935062000a4f81856020860162000646565b80840191505092915050565b600062000a69828462000a24565b915081905092915050565b600081519050919050565b600062000a8c8262000a74565b62000a98818562000835565b935062000aaa81856020860162000646565b62000ab5816200057b565b840191505092915050565b6000602082019050818103600083015262000adc818462000a7f565b905092915050565b6105598062000af46000396000f3fe6080604052366100135761001161001d565b005b61001b61001d565b005b610025610091565b610035610030610093565b610110565b565b606061005c83836040518060600160405280602781526020016104fd60279139610136565b905092915050565b6000808273ffffffffffffffffffffffffffffffffffffffff163b119050919050565b6000819050919050565b565b600061009d610203565b73ffffffffffffffffffffffffffffffffffffffff16635c60da1b6040518163ffffffff1660e01b8152600401602060405180830381865afa1580156100e7573d6000803e3d6000fd5b505050506040513d601f19601f8201168201806040525081019061010b9190610324565b905090565b3660008037600080366000845af43d6000803e8060008114610131573d6000f35b3d6000fd5b606061014184610064565b610180576040517f08c379a0000000000000000000000000000000000000000000000000000000008152600401610177906103d4565b60405180910390fd5b6000808573ffffffffffffffffffffffffffffffffffffffff16856040516101a8919061046e565b600060405180830381855af49150503d80600081146101e3576040519150601f19603f3d011682016040523d82523d6000602084013e6101e8565b606091505b50915091506101f882828661025a565b925050509392505050565b60006102317fa3f0ad74e5423aebfd80d3ef4346578335a9a72aeaee59ff6cb3582b35133d5060001b610087565b60000160009054906101000a900473ffffffffffffffffffffffffffffffffffffffff16905090565b6060831561026a578290506102ba565b60008351111561027d5782518084602001fd5b816040517f08c379a00000000000000000000000000000000000000000000000000000000081526004016102b191906104da565b60405180910390fd5b9392505050565b600080fd5b600073ffffffffffffffffffffffffffffffffffffffff82169050919050565b60006102f1826102c6565b9050919050565b610301816102e6565b811461030c57600080fd5b50565b60008151905061031e816102f8565b92915050565b60006020828403121561033a576103396102c1565b5b60006103488482850161030f565b91505092915050565b600082825260208201905092915050565b7f416464726573733a2064656c65676174652063616c6c20746f206e6f6e2d636f60008201527f6e74726163740000000000000000000000000000000000000000000000000000602082015250565b60006103be602683610351565b91506103c982610362565b604082019050919050565b600060208201905081810360008301526103ed816103b1565b9050919050565b600081519050919050565b600081905092915050565b60005b8381101561042857808201518184015260208101905061040d565b83811115610437576000848401525b50505050565b6000610448826103f4565b61045281856103ff565b935061046281856020860161040a565b80840191505092915050565b600061047a828461043d565b915081905092915050565b600081519050919050565b6000601f19601f8301169050919050565b60006104ac82610485565b6104b68185610351565b93506104c681856020860161040a565b6104cf81610490565b840191505092915050565b600060208201905081810360008301526104f481846104a1565b90509291505056fe416464726573733a206c6f772d6c6576656c2064656c65676174652063616c6c206661696c6564a2646970667358221220d62f97174210f0f7a5ca3055c14b30d4315f07735746416c2101f1022a0833e964736f6c634300080a0033416464726573733a206c6f772d6c6576656c2064656c65676174652063616c6c206661696c6564a26469706673582212204fb54e841a40f1b8ea0ab74a2c636a057aa45a2e9833e2f9d440f1f38bb89e7c64736f6c634300080a0033",
  "linkReferences": {},
  "deployedLinkReferences": {}
}