{
  "_format": "hh-sol-artifact-1",
  "contractName": "NftFactory",
  "sourceName": "contracts/V1/NftFactory.sol",
  "abi": [
    {
      "inputs": [
        {
          "internalType": "address",
          "name": "_caManager",
          "type": "address"
        },
        {
          "internalType": "address",
          "name": "_nftContractBeacon",
          "type": "address"
        },
        {
          "internalType": "address",
          "name": "_omnuumSigner",
          "type": "address"
        }
      ],
      "stateMutability": "nonpayable",
      "type": "constructor"
    },
    {
      "anonymous": false,
      "inputs": [
        {
          "indexed": true,
          "internalType": "address",
          "name": "nftContract",
          "type": "address"
        },
        {
          "indexed": true,
          "internalType": "address",
          "name": "creator",
          "type": "address"
        },
        {
          "indexed": true,
          "internalType": "uint256",
          "name": "collectionId",
          "type": "uint256"
        }
      ],
      "name": "NftContractDeployed",
      "type": "event"
    },
    {
      "anonymous": false,
      "inputs": [
        {
          "indexed": true,
          "internalType": "address",
          "name": "previousOwner",
          "type": "address"
        },
        {
          "indexed": true,
          "internalType": "address",
          "name": "newOwner",
          "type": "address"
        }
      ],
      "name": "OwnershipTransferred",
      "type": "event"
    },
    {
      "inputs": [],
      "name": "caManager",
      "outputs": [
        {
          "internalType": "address",
          "name": "",
          "type": "address"
        }
      ],
      "stateMutability": "view",
      "type": "function"
    },
    {
      "inputs": [
        {
          "internalType": "address",
          "name": "_newSigner",
          "type": "address"
        }
      ],
      "name": "changeOmnuumSigner",
      "outputs": [],
      "stateMutability": "nonpayable",
      "type": "function"
    },
    {
      "inputs": [
        {
          "internalType": "uint32",
          "name": "_maxSupply",
          "type": "uint32"
        },
        {
          "internalType": "string",
          "name": "_coverUri",
          "type": "string"
        },
        {
          "internalType": "uint256",
          "name": "_collectionId",
          "type": "uint256"
        },
        {
          "components": [
            {
              "internalType": "address",
              "name": "sender",
              "type": "address"
            },
            {
              "internalType": "string",
              "name": "topic",
              "type": "string"
            },
            {
              "internalType": "uint256",
              "name": "nonce",
              "type": "uint256"
            },
            {
              "internalType": "bytes",
              "name": "signature",
              "type": "bytes"
            }
          ],
          "internalType": "struct SenderVerifier.Payload",
          "name": "_payload",
          "type": "tuple"
        }
      ],
      "name": "deploy",
      "outputs": [],
      "stateMutability": "nonpayable",
      "type": "function"
    },
    {
      "inputs": [],
      "name": "nftContractBeacon",
      "outputs": [
        {
          "internalType": "address",
          "name": "",
          "type": "address"
        }
      ],
      "stateMutability": "view",
      "type": "function"
    },
    {
      "inputs": [],
      "name": "omnuumSigner",
      "outputs": [
        {
          "internalType": "address",
          "name": "",
          "type": "address"
        }
      ],
      "stateMutability": "view",
      "type": "function"
    },
    {
      "inputs": [],
      "name": "owner",
      "outputs": [
        {
          "internalType": "address",
          "name": "",
          "type": "address"
        }
      ],
      "stateMutability": "view",
      "type": "function"
    },
    {
      "inputs": [
        {
          "internalType": "address",
          "name": "newOwner",
          "type": "address"
        }
      ],
      "name": "transferOwnership",
      "outputs": [],
      "stateMutability": "nonpayable",
      "type": "function"
    }
  ],
  "bytecode": "0x60c06040523480156200001157600080fd5b50604051620025173803806200251783398181016040528101906200003791906200023f565b620000576200004b6200010960201b60201c565b6200011160201b60201c565b8273ffffffffffffffffffffffffffffffffffffffff1660808173ffffffffffffffffffffffffffffffffffffffff168152505080600160006101000a81548173ffffffffffffffffffffffffffffffffffffffff021916908373ffffffffffffffffffffffffffffffffffffffff1602179055508173ffffffffffffffffffffffffffffffffffffffff1660a08173ffffffffffffffffffffffffffffffffffffffff16815250505050506200029b565b600033905090565b60008060009054906101000a900473ffffffffffffffffffffffffffffffffffffffff169050816000806101000a81548173ffffffffffffffffffffffffffffffffffffffff021916908373ffffffffffffffffffffffffffffffffffffffff1602179055508173ffffffffffffffffffffffffffffffffffffffff168173ffffffffffffffffffffffffffffffffffffffff167f8be0079c531659141344cd1fd0a4f28419497f9722a3daafe3b4186f6b6457e060405160405180910390a35050565b600080fd5b600073ffffffffffffffffffffffffffffffffffffffff82169050919050565b60006200020782620001da565b9050919050565b6200021981620001fa565b81146200022557600080fd5b50565b60008151905062000239816200020e565b92915050565b6000806000606084860312156200025b576200025a620001d5565b5b60006200026b8682870162000228565b93505060206200027e8682870162000228565b9250506040620002918682870162000228565b9150509250925092565b60805160a051612241620002d6600039600081816104c901526105af0152600081816102b3015281816103e9015261058b01526122416000f3fe60806040523480156200001157600080fd5b5060043610620000885760003560e01c80638468632411620000635780638468632414620000ef5780638da5cb5b1462000111578063e8d0f0a51462000133578063f2fde38b14620001555762000088565b80635c143fb3146200008d57806376a423a714620000ad5780637b30e04e14620000cd575b600080fd5b620000ab6004803603810190620000a591906200086d565b62000175565b005b620000cb6004803603810190620000c59190620009b0565b620002af565b005b620000d762000589565b604051620000e6919062000a76565b60405180910390f35b620000f9620005ad565b60405162000108919062000a76565b60405180910390f35b6200011b620005d1565b6040516200012a919062000a76565b60405180910390f35b6200013d620005fa565b6040516200014c919062000a76565b60405180910390f35b6200017360048036038101906200016d91906200086d565b62000620565b005b6200017f62000724565b73ffffffffffffffffffffffffffffffffffffffff166200019f620005d1565b73ffffffffffffffffffffffffffffffffffffffff1614620001f8576040517f08c379a0000000000000000000000000000000000000000000000000000000008152600401620001ef9062000af4565b60405180910390fd5b600073ffffffffffffffffffffffffffffffffffffffff168173ffffffffffffffffffffffffffffffffffffffff1614156200026b576040517f08c379a0000000000000000000000000000000000000000000000000000000008152600401620002629062000b66565b60405180910390fd5b80600160006101000a81548173ffffffffffffffffffffffffffffffffffffffff021916908373ffffffffffffffffffffffffffffffffffffffff16021790555050565b60007f000000000000000000000000000000000000000000000000000000000000000073ffffffffffffffffffffffffffffffffffffffff1663358177736040518163ffffffff1660e01b81526004016200030a9062000bd8565b602060405180830381865afa15801562000328573d6000803e3d6000fd5b505050506040513d601f19601f820116820180604052508101906200034e919062000c11565b90508073ffffffffffffffffffffffffffffffffffffffff16638f2c6a80600160009054906101000a900473ffffffffffffffffffffffffffffffffffffffff163386866040518563ffffffff1660e01b8152600401620003b3949392919062000f25565b60006040518083038186803b158015620003cc57600080fd5b505afa158015620003e1573d6000803e3d6000fd5b5050505060007f0000000000000000000000000000000000000000000000000000000000000000600160009054906101000a900473ffffffffffffffffffffffffffffffffffffffff1688888833604051602401620004469695949392919062000fd2565b6040516020818303038152906040527fe42cda88000000000000000000000000000000000000000000000000000000007bffffffffffffffffffffffffffffffffffffffffffffffffffffffff19166020820180517bffffffffffffffffffffffffffffffffffffffffffffffffffffffff8381831617835250505050905060007f000000000000000000000000000000000000000000000000000000000000000082604051620004f790620007f0565b62000504929190620010cb565b604051809103906000f08015801562000521573d6000803e3d6000fd5b509050843373ffffffffffffffffffffffffffffffffffffffff168273ffffffffffffffffffffffffffffffffffffffff167f0db4b95b03a491ad384dc917e78442c56b8692c92810e377793152a4f349879e60405160405180910390a45050505050505050565b7f000000000000000000000000000000000000000000000000000000000000000081565b7f000000000000000000000000000000000000000000000000000000000000000081565b60008060009054906101000a900473ffffffffffffffffffffffffffffffffffffffff16905090565b600160009054906101000a900473ffffffffffffffffffffffffffffffffffffffff1681565b6200062a62000724565b73ffffffffffffffffffffffffffffffffffffffff166200064a620005d1565b73ffffffffffffffffffffffffffffffffffffffff1614620006a3576040517f08c379a00000000000000000000000000000000000000000000000000000000081526004016200069a9062000af4565b60405180910390fd5b600073ffffffffffffffffffffffffffffffffffffffff168173ffffffffffffffffffffffffffffffffffffffff16141562000716576040517f08c379a00000000000000000000000000000000000000000000000000000000081526004016200070d9062001175565b60405180910390fd5b62000721816200072c565b50565b600033905090565b60008060009054906101000a900473ffffffffffffffffffffffffffffffffffffffff169050816000806101000a81548173ffffffffffffffffffffffffffffffffffffffff021916908373ffffffffffffffffffffffffffffffffffffffff1602179055508173ffffffffffffffffffffffffffffffffffffffff168173ffffffffffffffffffffffffffffffffffffffff167f8be0079c531659141344cd1fd0a4f28419497f9722a3daafe3b4186f6b6457e060405160405180910390a35050565b611074806200119883390190565b600080fd5b600080fd5b600073ffffffffffffffffffffffffffffffffffffffff82169050919050565b6000620008358262000808565b9050919050565b620008478162000828565b81146200085357600080fd5b50565b60008135905062000867816200083c565b92915050565b600060208284031215620008865762000885620007fe565b5b6000620008968482850162000856565b91505092915050565b600063ffffffff82169050919050565b620008ba816200089f565b8114620008c657600080fd5b50565b600081359050620008da81620008af565b92915050565b600080fd5b600080fd5b600080fd5b60008083601f840112620009085762000907620008e0565b5b8235905067ffffffffffffffff811115620009285762000927620008e5565b5b602083019150836001820283011115620009475762000946620008ea565b5b9250929050565b6000819050919050565b62000963816200094e565b81146200096f57600080fd5b50565b600081359050620009838162000958565b92915050565b600080fd5b600060808284031215620009a757620009a662000989565b5b81905092915050565b600080600080600060808688031215620009cf57620009ce620007fe565b5b6000620009df88828901620008c9565b955050602086013567ffffffffffffffff81111562000a035762000a0262000803565b5b62000a1188828901620008ef565b9450945050604062000a268882890162000972565b925050606086013567ffffffffffffffff81111562000a4a5762000a4962000803565b5b62000a58888289016200098e565b9150509295509295909350565b62000a708162000828565b82525050565b600060208201905062000a8d600083018462000a65565b92915050565b600082825260208201905092915050565b7f4f776e61626c653a2063616c6c6572206973206e6f7420746865206f776e6572600082015250565b600062000adc60208362000a93565b915062000ae98262000aa4565b602082019050919050565b6000602082019050818103600083015262000b0f8162000acd565b9050919050565b7f4145310000000000000000000000000000000000000000000000000000000000600082015250565b600062000b4e60038362000a93565b915062000b5b8262000b16565b602082019050919050565b6000602082019050818103600083015262000b818162000b3f565b9050919050565b7f5645524946494552000000000000000000000000000000000000000000000000600082015250565b600062000bc060088362000a93565b915062000bcd8262000b88565b602082019050919050565b6000602082019050818103600083015262000bf38162000bb1565b9050919050565b60008151905062000c0b816200083c565b92915050565b60006020828403121562000c2a5762000c29620007fe565b5b600062000c3a8482850162000bfa565b91505092915050565b7f4445504c4f595f434f4c00000000000000000000000000000000000000000000600082015250565b600062000c7b600a8362000a93565b915062000c888262000c43565b602082019050919050565b62000c9e816200094e565b82525050565b600062000cb5602084018462000856565b905092915050565b62000cc88162000828565b82525050565b600080fd5b600080fd5b600080fd5b6000808335600160200384360303811262000cfd5762000cfc62000cd8565b5b83810192508235915060208301925067ffffffffffffffff82111562000d285762000d2762000cce565b5b60018202360384131562000d415762000d4062000cd3565b5b509250929050565b600082825260208201905092915050565b82818337600083830152505050565b6000601f19601f8301169050919050565b600062000d88838562000d49565b935062000d9783858462000d5a565b62000da28362000d69565b840190509392505050565b600062000dbe602084018462000972565b905092915050565b62000dd1816200094e565b82525050565b6000808335600160200384360303811262000df75762000df662000cd8565b5b83810192508235915060208301925067ffffffffffffffff82111562000e225762000e2162000cce565b5b60018202360384131562000e3b5762000e3a62000cd3565b5b509250929050565b600082825260208201905092915050565b600062000e62838562000e43565b935062000e7183858462000d5a565b62000e7c8362000d69565b840190509392505050565b60006080830162000e9c600084018462000ca4565b62000eab600086018262000cbd565b5062000ebb602084018462000cdd565b858303602087015262000ed083828462000d7a565b9250505062000ee3604084018462000dad565b62000ef2604086018262000dc6565b5062000f02606084018462000dd7565b858303606087015262000f1783828462000e54565b925050508091505092915050565b600060a08201905062000f3c600083018762000a65565b62000f4b602083018662000a65565b818103604083015262000f5e8162000c6c565b905062000f6f606083018562000c93565b818103608083015262000f83818462000e87565b905095945050505050565b62000f99816200089f565b82525050565b600062000fad838562000a93565b935062000fbc83858462000d5a565b62000fc78362000d69565b840190509392505050565b600060a08201905062000fe9600083018962000a65565b62000ff8602083018862000a65565b62001007604083018762000f8e565b81810360608301526200101c81858762000f9f565b90506200102d608083018462000a65565b979650505050505050565b600081519050919050565b600082825260208201905092915050565b60005b838110156200107457808201518184015260208101905062001057565b8381111562001084576000848401525b50505050565b6000620010978262001038565b620010a3818562001043565b9350620010b581856020860162001054565b620010c08162000d69565b840191505092915050565b6000604082019050620010e2600083018562000a65565b8181036020830152620010f681846200108a565b90509392505050565b7f4f776e61626c653a206e6577206f776e657220697320746865207a65726f206160008201527f6464726573730000000000000000000000000000000000000000000000000000602082015250565b60006200115d60268362000a93565b91506200116a82620010ff565b604082019050919050565b6000602082019050818103600083015262001190816200114e565b905091905056fe608060405260405162001074380380620010748339818101604052810190620000299190620006fa565b60017fa3f0ad74e5423aebfd80d3ef4346578335a9a72aeaee59ff6cb3582b35133d5160001c6200005b919062000799565b60001b7fa3f0ad74e5423aebfd80d3ef4346578335a9a72aeaee59ff6cb3582b35133d5060001b14620000935762000092620007d4565b5b620000a782826000620000af60201b60201c565b505062000ae4565b620000c083620001a660201b60201c565b8273ffffffffffffffffffffffffffffffffffffffff167f1cf3b03a6cf19fa2baba4df148e9dcabedea7f8a5c07840e207e5c089be95d3e60405160405180910390a2600082511180620001115750805b15620001a1576200019f8373ffffffffffffffffffffffffffffffffffffffff16635c60da1b6040518163ffffffff1660e01b8152600401602060405180830381865afa15801562000167573d6000803e3d6000fd5b505050506040513d601f19601f820116820180604052508101906200018d919062000803565b836200034560201b620000371760201c565b505b505050565b620001bc816200037b60201b620000641760201c565b620001fe576040517f08c379a0000000000000000000000000000000000000000000000000000000008152600401620001f590620008bc565b60405180910390fd5b620002858173ffffffffffffffffffffffffffffffffffffffff16635c60da1b6040518163ffffffff1660e01b8152600401602060405180830381865afa1580156200024e573d6000803e3d6000fd5b505050506040513d601f19601f8201168201806040525081019062000274919062000803565b6200037b60201b620000641760201c565b620002c7576040517f08c379a0000000000000000000000000000000000000000000000000000000008152600401620002be9062000954565b60405180910390fd5b80620003017fa3f0ad74e5423aebfd80d3ef4346578335a9a72aeaee59ff6cb3582b35133d5060001b6200039e60201b620000871760201c565b60000160006101000a81548173ffffffffffffffffffffffffffffffffffffffff021916908373ffffffffffffffffffffffffffffffffffffffff16021790555050565b60606200037383836040518060600160405280602781526020016200104d60279139620003a860201b60201c565b905092915050565b6000808273ffffffffffffffffffffffffffffffffffffffff163b119050919050565b6000819050919050565b6060620003bb846200037b60201b60201c565b620003fd576040517f08c379a0000000000000000000000000000000000000000000000000000000008152600401620003f490620009ec565b60405180910390fd5b6000808573ffffffffffffffffffffffffffffffffffffffff168560405162000427919062000a5b565b600060405180830381855af49150503d806000811462000464576040519150601f19603f3d011682016040523d82523d6000602084013e62000469565b606091505b5091509150620004818282866200048c60201b60201c565b925050509392505050565b606083156200049e57829050620004f1565b600083511115620004b25782518084602001fd5b816040517f08c379a0000000000000000000000000000000000000000000000000000000008152600401620004e8919062000ac0565b60405180910390fd5b9392505050565b6000604051905090565b600080fd5b600080fd5b600073ffffffffffffffffffffffffffffffffffffffff82169050919050565b600062000539826200050c565b9050919050565b6200054b816200052c565b81146200055757600080fd5b50565b6000815190506200056b8162000540565b92915050565b600080fd5b600080fd5b6000601f19601f8301169050919050565b7f4e487b7100000000000000000000000000000000000000000000000000000000600052604160045260246000fd5b620005c6826200057b565b810181811067ffffffffffffffff82111715620005e857620005e76200058c565b5b80604052505050565b6000620005fd620004f8565b90506200060b8282620005bb565b919050565b600067ffffffffffffffff8211156200062e576200062d6200058c565b5b62000639826200057b565b9050602081019050919050565b60005b838110156200066657808201518184015260208101905062000649565b8381111562000676576000848401525b50505050565b6000620006936200068d8462000610565b620005f1565b905082815260208101848484011115620006b257620006b162000576565b5b620006bf84828562000646565b509392505050565b600082601f830112620006df57620006de62000571565b5b8151620006f18482602086016200067c565b91505092915050565b6000806040838503121562000714576200071362000502565b5b600062000724858286016200055a565b925050602083015167ffffffffffffffff81111562000748576200074762000507565b5b6200075685828601620006c7565b9150509250929050565b6000819050919050565b7f4e487b7100000000000000000000000000000000000000000000000000000000600052601160045260246000fd5b6000620007a68262000760565b9150620007b38362000760565b925082821015620007c957620007c86200076a565b5b828203905092915050565b7f4e487b7100000000000000000000000000000000000000000000000000000000600052600160045260246000fd5b6000602082840312156200081c576200081b62000502565b5b60006200082c848285016200055a565b91505092915050565b600082825260208201905092915050565b7f455243313936373a206e657720626561636f6e206973206e6f74206120636f6e60008201527f7472616374000000000000000000000000000000000000000000000000000000602082015250565b6000620008a460258362000835565b9150620008b18262000846565b604082019050919050565b60006020820190508181036000830152620008d78162000895565b9050919050565b7f455243313936373a20626561636f6e20696d706c656d656e746174696f6e206960008201527f73206e6f74206120636f6e747261637400000000000000000000000000000000602082015250565b60006200093c60308362000835565b91506200094982620008de565b604082019050919050565b600060208201905081810360008301526200096f816200092d565b9050919050565b7f416464726573733a2064656c65676174652063616c6c20746f206e6f6e2d636f60008201527f6e74726163740000000000000000000000000000000000000000000000000000602082015250565b6000620009d460268362000835565b9150620009e18262000976565b604082019050919050565b6000602082019050818103600083015262000a0781620009c5565b9050919050565b600081519050919050565b600081905092915050565b600062000a318262000a0e565b62000a3d818562000a19565b935062000a4f81856020860162000646565b80840191505092915050565b600062000a69828462000a24565b915081905092915050565b600081519050919050565b600062000a8c8262000a74565b62000a98818562000835565b935062000aaa81856020860162000646565b62000ab5816200057b565b840191505092915050565b6000602082019050818103600083015262000adc818462000a7f565b905092915050565b6105598062000af46000396000f3fe6080604052366100135761001161001d565b005b61001b61001d565b005b610025610091565b610035610030610093565b610110565b565b606061005c83836040518060600160405280602781526020016104fd60279139610136565b905092915050565b6000808273ffffffffffffffffffffffffffffffffffffffff163b119050919050565b6000819050919050565b565b600061009d610203565b73ffffffffffffffffffffffffffffffffffffffff16635c60da1b6040518163ffffffff1660e01b8152600401602060405180830381865afa1580156100e7573d6000803e3d6000fd5b505050506040513d601f19601f8201168201806040525081019061010b9190610324565b905090565b3660008037600080366000845af43d6000803e8060008114610131573d6000f35b3d6000fd5b606061014184610064565b610180576040517f08c379a0000000000000000000000000000000000000000000000000000000008152600401610177906103d4565b60405180910390fd5b6000808573ffffffffffffffffffffffffffffffffffffffff16856040516101a8919061046e565b600060405180830381855af49150503d80600081146101e3576040519150601f19603f3d011682016040523d82523d6000602084013e6101e8565b606091505b50915091506101f882828661025a565b925050509392505050565b60006102317fa3f0ad74e5423aebfd80d3ef4346578335a9a72aeaee59ff6cb3582b35133d5060001b610087565b60000160009054906101000a900473ffffffffffffffffffffffffffffffffffffffff16905090565b6060831561026a578290506102ba565b60008351111561027d5782518084602001fd5b816040517f08c379a00000000000000000000000000000000000000000000000000000000081526004016102b191906104da565b60405180910390fd5b9392505050565b600080fd5b600073ffffffffffffffffffffffffffffffffffffffff82169050919050565b60006102f1826102c6565b9050919050565b610301816102e6565b811461030c57600080fd5b50565b60008151905061031e816102f8565b92915050565b60006020828403121561033a576103396102c1565b5b60006103488482850161030f565b91505092915050565b600082825260208201905092915050565b7f416464726573733a2064656c65676174652063616c6c20746f206e6f6e2d636f60008201527f6e74726163740000000000000000000000000000000000000000000000000000602082015250565b60006103be602683610351565b91506103c982610362565b604082019050919050565b600060208201905081810360008301526103ed816103b1565b9050919050565b600081519050919050565b600081905092915050565b60005b8381101561042857808201518184015260208101905061040d565b83811115610437576000848401525b50505050565b6000610448826103f4565b61045281856103ff565b935061046281856020860161040a565b80840191505092915050565b600061047a828461043d565b915081905092915050565b600081519050919050565b6000601f19601f8301169050919050565b60006104ac82610485565b6104b68185610351565b93506104c681856020860161040a565b6104cf81610490565b840191505092915050565b600060208201905081810360008301526104f481846104a1565b90509291505056fe416464726573733a206c6f772d6c6576656c2064656c65676174652063616c6c206661696c6564a2646970667358221220d62f97174210f0f7a5ca3055c14b30d4315f07735746416c2101f1022a0833e964736f6c634300080a0033416464726573733a206c6f772d6c6576656c2064656c65676174652063616c6c206661696c6564a2646970667358221220672568ad79362f856eb0b0f417e7ba96e61c09ef06550478f24222d8c246e38864736f6c634300080a0033",
  "linkReferences": {},
  "deployedLinkReferences": {}
}